:020000040000FA
:10000000980500209D010000B7010000F1200000CC
:1000100000000000000000000000000000000000E0
:10002000000000000000000000000000BB01000014
:100030000000000000000000BD010000BF01000042
:10004000012100000B210000152100001F210000EC
:1000500029210000332100003D210000472100003C
:10006000512100005B210000652100006F2100008C
:1000700079210000832100008D21000097210000DC
:10008000A1210000AB210000B5210000BF2100002C
:10009000C9210000D3210000DD210000E72100007C
:1000A000F1210000FB210000052200000F220000CA
:1000B00019220000232200002D2200003722000018
:1000C00000F002F800F03EF80CA030C80838241800
:1000D0002D18A246671EAB4654465D46AC4201D180
:1000E00000F030F87E460F3E0FCCB6460126334274
:1000F00000D0FB1AA246AB4633431847C448000061
:10010000E4480000103A02D378C878C1FAD8520700
:1001100001D330C830C101D504680C6070470000BD
:100120000023002400250026103A01D378C1FBD813
:10013000520700D330C100D50B6070471FB51FBDFB
:1001400010B510BD00F008F91146FFF7F7FF04F0F5
:1001500021FC00F020F903B4FFF7F2FF03BC04F028
:100160007FFB000070B505460C46164602E00FCC3A
:100170000FC5103E102EFAD2082E02D303CC03C5B1
:10018000083E042E07D301CC01C5361F03E02178B9
:100190002970641C6D1C761EF9D270BD0C480D4A86
:1001A000002100A1814200D902440B4802600B48A3
:1001B00080470B480047FEE7FEE7FEE7FEE7FEE765
:1001C000FEE7000007480849084A094B704700004D
:1001D000000000200000000008ED00E0593E000093
:1001E000C10000009801002098050020980300201D
:1001F000980300207047002203098B422CD3030A86
:100200008B4211D300239C464EE003460B433CD463
:10021000002243088B4231D303098B421CD3030ACB
:100220008B4201D394463FE0C3098B4201D3CB01FB
:10023000C01A524183098B4201D38B01C01A52412B
:1002400043098B4201D34B01C01A524103098B422F
:1002500001D30B01C01A5241C3088B4201D3CB001A
:10026000C01A524183088B4201D38B00C01A5241FD
:1002700043088B4201D34B00C01A5241411A00D2AD
:1002800001465241104670475DE0CA0F00D0494216
:10029000031000D34042534000229C4603098B4286
:1002A0002DD3030A8B4212D3FC22890112BA030A0E
:1002B0008B420CD3890192118B4208D38901921190
:1002C0008B4204D389013AD0921100E08909C30915
:1002D0008B4201D3CB01C01A524183098B4201D317
:1002E0008B01C01A524143098B4201D34B01C01A02
:1002F000524103098B4201D30B01C01A5241C3087A
:100300008B4201D3CB00C01A524183088B4201D3E8
:100310008B00C01A5241D9D243088B4201D34B0003
:10032000C01A5241411A00D20146634652415B1045
:10033000104601D34042002B00D549427047634626
:100340005B1000D3404201B50020C046C04602BD4C
:100350007047704770477047754600F025F8AE4605
:10036000050069465346C008C000854618B020B550
:10037000FFF728FF60BC00274908B6460026C0C525
:10038000C0C5C0C5C0C5C0C5C0C5C0C5C0C5403D4D
:1003900049008D46704710B50446C046C046204609
:1003A000FFF7D9FE10BD000000487047340100205F
:1003B00010B500200249487100F07AF910BD000024
:1003C000ED00002010B500F07DF910BD10B5012042
:1003D00000F0C4FA002000F0C1FA0122002105203B
:1003E00001F05AF910BD10B500F06CF9012000F0D1
:1003F000C3FA002000F0C0FA00221146052001F0E7
:100400004BF910BD10B5044800F082F801200349F3
:10041000487100F0FDFF10BDEA000020ED00002053
:100420004279012A05D14A69002A02D0184B4A694B
:100430005A610278012A05D10A68002A02D0144BB9
:100440000A681A604278012A05D14A68002A02D057
:100450000F4B4A685A608278012A05D18A68002ABF
:1004600002D00B4B8A689A60C278012A05D1CA680B
:10047000002A02D0064BCA68DA600279012A05D147
:100480000A69002A02D0024B0A691A61704700000B
:100490001C010020014607484068FF22F1329043CA
:1004A0000A01FF23F1331A401043024A5060002032
:1004B00070470000002400400146002901D10420BB
:1004C0007047074880680122920290430A7892029E
:1004D00001239B021A401043014A90600020EFE77D
:1004E000002400400348406840084000401C014987
:1004F0004860704700240040044840680121C90357
:1005000088434018014948607047000000240040BB
:100510000146002901D1042070470348006A000504
:10052000000D08800020F7E78024004010B5044645
:100530003948006B0007C00F00280CD0374880688E
:10054000002802D03549886880473348406B08212D
:100550008843314948633048006B4007C00F00288A
:100560000CD02E48C068002802D02C49C8688047AB
:100570002948406B04218843274948632648006B7B
:100580008007C00F00280CD024480069002802D042
:100590002249086980472048406B022188431E4950
:1005A00048631D48006BC007C00F00280CD01B48D3
:1005B0004069002802D01949486980471648406BB5
:1005C00040084000144948631348006BC006C00F40
:1005D00000280CD011484068002802D00F49486814
:1005E00080470D48406B102188430B4948630A48F7
:1005F000006B8006C00F00280CD008480068002857
:1006000002D00649086880470348406B2021884390
:100610000149486310BD0000802400401C010020F7
:100620000146002901D104207047204840680C226F
:1006300090434A7892000C231A4010431B4A5060A2
:10064000104640689A0290438A7812039B021A402F
:100650001043164A506010464068DA109043CA783A
:100660005202DB101A401043104A50601046406896
:10067000D21490430A79D2020123DB021A401043BC
:100680000A4A50601046806812149043074A9060EE
:100690001046806852149043044A90601046806867
:1006A00092149043014A90600020BDE7002400406E
:1006B0000348006840084000401C0149086070473A
:1006C000C024004003480068400840000149086019
:1006D00070470000C024004010B55A480078002838
:1006E00000D010BD5848007800287DD157480078C8
:1006F000030004F06BF8079F05173B4C67899F00C8
:1007000000210120400202F017F90121080202F045
:1007100013F94E480078401C4C49087002204A49A1
:1007200008708BE00021FF20013002F005F9012163
:10073000880202F001F946480078002803D101211F
:10074000880202F01FFA0121424802F01BFA002041
:100750003E49087001204049087000203F49086068
:1007600001F0A0FB642000F0B3FA67E000218020D4
:1007700002F0E2F80121402002F0DEF83348007870
:10078000401C3249087002202F49087056E00021B1
:10079000402002F0D1F80121880202F0CDF82C4867
:1007A0000078002803D10121880202F0EBF9002033
:1007B000264908702849087001F074FB002000F0F9
:1007C000BFFB3BE00021202002F0B6F80121102001
:1007D00002F0B2F81D480078401C1C490870022045
:1007E000194908701E4800E029E00078401C1C49A7
:1007F000087008460078032805D1012011490870C7
:1008000000201749087019E00021102002F094F828
:100810000121880202F090F80D480078002803D1E9
:100820000121880202F0AEF90020084908700A4947
:10083000087003E000200549087000BF00BF00BF3A
:100840004FE7000060000020630000205F000020F0
:100850005A000020FF0300004A0000209C000020F6
:100860006100002030B5024600201402034D6319D8
:1008700001248C40E4435C6130BD0000000C00406A
:1008800070B5024600201502034EAB191C692546BF
:10089000CD40E807C00F70BD000C004010B5024607
:1008A0000020002A04D0012A0BD0022A1BD111E01B
:1008B0000F4B1B681B0C1B048CB223430C4C236096
:1008C00013E00C4B1B681B0C1B048CB22343094C1C
:1008D00023600AE0084B1B681B0C1B048CB22343EB
:1008E000054C236001E0012000BF00BF10BD0000E7
:1008F000000C0040000D0040000E004010B5024604
:100900000020002A04D0012A0BD0022A1BD111E0BA
:100910000F4B5B681B0C1B048CB223430C4C6360B5
:1009200013E00C4B5B681B0C1B048CB22343094C7B
:1009300063600AE0084B5B681B0C1B048CB223430A
:10094000054C636001E0012000BF00BF10BD000046
:10095000000C0040000D0040000E004010B50146A4
:1009600000200B02034C1A19D3685B085B005B1C68
:10097000D36010BD000C004010B5014600200B02F2
:10098000034C1A19D3685B085B00D36010BD0000EC
:10099000000C004010B5014600200B02034C1A1950
:1009A000D3682415A3431B19D36010BD000C00406D
:1009B00030B502460020002A04D0012A56D0022A6F
:1009C0007ED1A9E0804BDB6803242403A3430C7889
:1009D000240303252D032C4023437B4CE360234653
:1009E000DB686415A3434C78640201256D022C403A
:1009F0002343754CE3602346DB68A415A3438C783E
:100A000024026D102C4023436F4CE3602346DB68C7
:100A10007024A343CC78240170252C4023436A4CD6
:100A2000E3602346DB680824A3430C79E40008252F
:100A30002C402343644CE3602346DB680424A34337
:100A40004C79A40004252C4023435F4CE3602346EB
:100A5000DB680224A3438C79640002252C402343E5
:100A6000594CE360594C8B682360ABE0584BDB6812
:100A700003242403A3430C78240303252D032C40D3
:100A80002343534CE3602346DB686415A3434C784F
:100A9000640201256D022C4023434D4CE360234644
:100AA000DB68A415A3438C7824026D102C402343EB
:100AB000474CE3602346DB687024A343CC7800E016
:100AC0007EE0240170252C402343414CE360234603
:100AD000DB680824A3430C79E40008252C40234359
:100AE0003B4CE3602346DB680424A3434C79A40019
:100AF00004252C402343364CE3602346DB68022464
:100B0000A3438C79640002252C402343304CE360DE
:100B1000304CCB68236055E02F4BDB680324240363
:100B2000A3430C78240303252D032C4023432A4C94
:100B3000E3602346DB686415A3434C786402012517
:100B40006D022C402343244CE3602346DB68A4154C
:100B5000A3438C7824026D102C4023431E4CE36089
:100B60002346DB687024A343CC78240170252C40F5
:100B70002343194CE3602346DB680824A3430C7924
:100B8000E40008252C402343134CE3602346DB6834
:100B90000424A3434C79A40004252C4023430E4C89
:100BA000E3602346DB680224A3438C7964000225BA
:100BB0002C402343084CE360084C0B69236001E0A0
:100BC000012000BF00BF30BD000C0040F800002035
:100BD000000D0040FC000020000E0040000100203D
:100BE00070B50A4C0A4801782046FFF704FB04461A
:100BF0000A212046FFF7FFFA064908700A25084631
:100C000000784543601B487070BD0000B63A010093
:100C10006D0000207000002010B50B4804780B48D0
:100C2000007844430A212046FFF7E5FA08490860A6
:100C30000A20084908600846006805490968401804
:100C40000449086010BD00005E0000205B00002029
:100C5000B8000020B400002070B50A4D0A480068B2
:100C600045430A4801682846FFF7C5FA0446FF34A1
:100C7000F5347D21C9002046FFF7BDFA044908700C
:100C800070BD0000B63A0100C000002090000020B6
:100C900087000020F8B507463D460126002406E0FF
:100CA0000121304601F048FE7600601CC4B2AC421F
:100CB000F6DB0A2D0ADA2C4606E00021304601F068
:100CC0003BFE7600601CC4B20A2CF6DBF8BD0000C7
:100CD00010B504461A480078002800D010BD194805
:100CE0000078012800D1002417480078A04202D0E3
:100CF0001548047000E0F1E7002C12D102F005F86D
:100D0000002012490860124908607D20C000114986
:100D100008600D21802001F007F900200E490870BD
:100D20000CE00D480078002805D10D21802001F04D
:100D3000FBF801F0DDFF01200749087000BFCDE797
:100D400051000020750000205C000020CC00002035
:100D5000D0000020D40000204F00002070B558487B
:100D60000078002800D170BD56480078002800D0D7
:100D7000F9E755480078002800D0F4E75348007898
:100D8000002800D0EFE752480078002800D0EAE7BA
:100D90005048006850490968884248D94D48006861
:100DA0004D490968451AC82D01D9282408E0642D49
:100DB00001D9142404E0322D01D90A2400E00524CD
:100DC0000026361945480068B0421BD343480068E6
:100DD000001B42490860084600684149086008460F
:100DE00000687D21C900081A3E4908603E48007825
:100DF000002862D10D21802001F096F801203A49A7
:100E000008705AE0002035490860354908607D20A7
:100E1000C000344908603448007800284DD00020D4
:100E2000314908700D21802001F07EF845E0294805
:100E300000682E49096888423FD22C48006825493D
:100E40000968451AC82D01D9282408E0642D01D964
:100E5000142404E0322D01D90A2400E005241F489F
:100E6000066836192248006886420CD81B4806607E
:100E700000681B490860084600687D21C900081AFF
:100E8000184908600EE01A480068144908600846CE
:100E9000006813490860084600687D21C900081AE7
:100EA0001049086010480078002806D10D218020E4
:100EB00001F03AF801200C49087000BF53E7000028
:100EC0005B00002051000020580000207500002029
:100ED000570000208C000020B4000020CC0000202F
:100EE000D0000020D40000204F000020B8000020D7
:100EF000DC00002070B500F0D5FF0025002400BF05
:100F0000322000F017FB28460A30C5B22046FFF712
:100F1000C1FE601CC4B2084800788542F0DD064876
:100F20000078FFF7D5FEFFF777FEC82000F002FB40
:100F300003200249087070BD5B00002063000020A0
:100F400070B5044657480078002803D15648007809
:100F5000002800D070BD55480078002832D0012C00
:100F60002FD102F013FC0121880201F0E5FC64207E
:100F700000F0E0FA0021A00201F0DEFC642000F0A5
:100F8000D9FA0121880201F0D7FC642000F0D2FADE
:100F90000021A00201F0D0FC642000F0CBFA012176
:100FA000880201F0C9FC642000F0C4FA0021A0020C
:100FB00001F0C2FC642000F0BDFA0121880201F0BA
:100FC000E1FDC7E73A480078002835D0012C17D159
:100FD000384800683849096888420DD235480068A9
:100FE000401C3449086035480068401E3349086099
:100FF0003220FFF76DFE1AE06420FFF769FE16E06D
:10100000022C14D12B48006800280DD02948006814
:10101000401E2849086029480068401C274908608C
:101020003220FFF755FE02E00020FFF751FE214875
:10103000006801F053FD29E0012C09D12048007817
:10104000642814DA1E4800780A301D4908700EE042
:10105000022C0CD11A4800780A2805DD18480078BF
:101060000A381749087002E0002015490870144832
:1010700006780A2529463046FFF7BDF8C5B228464E
:10108000FFF708FE0E480078FFF722FE002C06D07E
:1010900002F05CFAFFF7C0FD03200A49087000BFA8
:1010A00058E700005F0000204A00002058000020A0
:1010B00057000020D0000020D8000020D4000020DD
:1010C0005B0000206300002010B50D21802000F09F
:1010D000DFFF012807D10D21802000F025FFFF2030
:1010E000F53000F027FA19480078002814D0184885
:1010F0000078184908700121C02000F015FF052074
:1011000000F01EFA0021C02000F0E4FF00210120C1
:10111000800201F037FD12E00F4800780D49087099
:101120000021C02000F000FF052000F009FA012195
:10113000C02000F0CFFF0121880201F023FD012132
:10114000880201F0F9FBFFF74BFD10BD5A000020AB
:101150006E0000206D0000206F00002010B50320FD
:1011600000F074FA0446012C04D10021032000F0A1
:1011700073FA03E00121032000F06EFA10BD0000B5
:1011800070B516480078012800D170BD1448007869
:10119000002804D01348006801F0A0FC1BE01248AE
:1011A0000078002801D11149086010480568AD1C7D
:1011B0000A2045430E4801682846FFF71CF8C4B2D0
:1011C0000A2C00DD0A240B480078002800D00024F7
:1011D0002046FFF75FFD00BFD7E700005100002069
:1011E00057000020C00000205B0000208C00002081
:1011F000900000207500002000B50F4800780028FE
:1012000011D00E480078002803D000200B49087048
:1012100002E00120094908700020074908708D206C
:101220000749087005E001200349087000200449BF
:10123000087002F099FA00BD6A0000205A000020F0
:101240006400002010B50D480078012800D110BDC1
:101250000B480078002800D0F9E70121002000F0B9
:1012600071FE002804D107480078401C0549087029
:1012700005200449087000BFE9E700005100002084
:10128000580000207300002010B533480078002873
:101290001ED03248007832490870FFF7A1FC02F0F6
:1012A0002DF900202C4908702E49087000210120DA
:1012B000C00201F067FC2C480078012807D100210A
:1012C000800201F05FFC0121880201F035FB10BDB6
:1012D00026480078002800D0F9E725480078002843
:1012E0000ED101F01FFD0121480201F025FB022073
:1012F000204908701E480078401C1D49087028E0ED
:101300001B480078022810D10021C00101F014FB15
:101310000121802001F010FB0220164908701448BA
:101320000078401C1249087013E011480078042826
:101330000FD10021402001F0FFFA0121202001F00F
:10134000FBFA02200B49087009480078401C084944
:10135000087000BFBBE70000570000208700002096
:101360006D000020850000205A0000206000002051
:101370005F000020630000200B2004E00021034AEE
:101380001154411CC8B21228F8DB70470801002034
:1013900010B51E480078002833D000F0BDF90121B7
:1013A000C80201F0C9FA642000F0C4F8002101204D
:1013B000C00201F0C1FA642000F0BCF80121C802AB
:1013C00001F0BAFA642000F0B5F800210120C00253
:1013D00001F0B2FA642000F0ADF80121C80201F07A
:1013E000ABFA642000F0A6F800210120C00201F051
:1013F000A3FA642000F09EF80121C80201F0C2FBAC
:1014000010BDFFF741FF00BFFAE7000058000020C1
:1014100010B512480078401C104908701048006848
:101420001049098840180E4908600C4800780928BE
:1014300013D1FEF7C7FF02F058FA0B4800780028D6
:1014400006D101200849087005480068074908606E
:101450000020034908600149087010BD62000020A7
:1014600094000020EA00002050000020A40000208A
:1014700070B505462E46002407E0304600F0E6F839
:101480002A490855761C601CC4B20B2CF5DB274892
:10149000007827494978884205D124484078244972
:1014A000C978884201D0012070BD20488078052885
:1014B00001DD0120F8E71D48C078012801DD012089
:1014C000F2E71A480079642801DD0120ECE71748AB
:1014D0004079782801DD0120E6E7144880797828F2
:1014E00001DD0120E0E71148C079012801DD01207C
:1014F000DAE70E48007A012801DD0120D4E70B4825
:10150000407AFC2803DC0948407A642801DA01208B
:10151000CAE70648807AFC2803DC0448807A6428FD
:1015200001DA0120C0E70020BEE70000080100202A
:10153000C600002010B50446204603F0FFF910BD98
:1015400010B50446204603F0CBF910BDFEB538A017
:101550000190002408E00198007837490855019867
:10156000401C0190601CC4B2042CF4DB31253248CD
:101570004778781B314908702F48C778781B304965
:10158000087000200090FFF773FF0646012E0FD170
:101590008002FFF76DFF002802D00120009009E0D3
:1015A000284A0B21002002F039F80020009001E0C9
:1015B00000200090244D002409E0284600F046F861
:1015C00021460B311F4A50546D1C601CC4B2072CBD
:1015D000F3DB1C48C07A3C2807DC1A48007B09284A
:1015E00003DC1848C07B092807DDFFF7C5FE154A54
:1015F0000B320721144802F011F803F021F800988B
:10160000012811D104200F49887002F0DFF80D4A3B
:101610000B21002002F002F80A4A0B21012080026F
:1016200001F0FCFF01F0E8FE03F028F8FEBD000029
:1016300056312E3300000000C6000020C4000020F8
:10164000C500002008010020010200000146072219
:101650001203521810787047F8B505460E46012758
:10166000072424036419012211460A4800F026F9D0
:10167000204600F07FFA3146204600F019FB07466D
:10168000002F05D12078B04200D102E0012700E010
:101690000127F8BD3D17000070B504460E461546FB
:1016A0002046002805DBC206D20E01219140184ACF
:1016B000116000BF3146204603F096F8012D0AD193
:1016C0002046002805DBC206D20E01219140114AB6
:1016D000116000BF1BE02046002816DBC206D20EB8
:1016E000012191400B4A8032116000BF00BF00BF52
:1016F000BFF34F8F00BF00BF00BF00BF00BF00BFE0
:10170000BFF36F8F00BF00BF00BF00BF00BF70BD41
:1017100080E200E000E100E010B502F037F8FFF7EA
:101720002BFE044A0721044801F078FF02F088FFED
:1017300010BD0000130100200102000010B50120BF
:1017400000F0A6F8012804D100F010F8012000F004
:101750004BF8002000F09CF8012805D1002000F093
:1017600005F8002000F040F810BD000001460120FF
:10177000002917D001292DD1184AD26A120C12045F
:10178000174BD218154BDA621A46D26A120C1204A1
:10179000144BD218114BDA621A46926A82439A624B
:1017A000002019E00D4AD26A120C12040C4BD21818
:1017B0000A4BDA621A46D26A120C1204094BD2188A
:1017C000064BDA621A46926A02239A43034B9A62E4
:1017D000002001E0012000BF00BF70470000024070
:1017E0005A5A0000A5A5000010B5014601200029A5
:1017F00002D0012942D120E0224AD26A120C1204FE
:10180000214BD2181F4BDA621A46D26A120C12040C
:101810001E4BD2181B4BDA621B6A5B069B0F02241D
:10182000A3435B01602423401A46164B1B6AA34363
:101830001343144C2362002022E0124AD26A120C95
:101840001204114BD2180F4BDA621A46D26A120CEC
:1018500012040E4BD2180B4BDA621B6A5B069B0F0D
:101860005B085B005B01602423401A46054B1B6A42
:10187000A3431343034C2362002001E0012000BF77
:1018800000BF10BD000002405A5A0000A5A500008C
:1018900001460020002906D0012909D1064A526AD2
:1018A000D007C00F06E0044A526A9207D00F01E049
:1018B000002000BF00BF70470000024070B5034623
:1018C000002001290BD0022909D0042907D00629BC
:1018D00005D0082903D00C2901D0042070BD9F4CED
:1018E000E46A240C24049E4D64199C4DEC622C4641
:1018F000E46A240C24049B4D6419984DEC622C4638
:10190000246A6D15AC4355020126760235402C43FE
:10191000924D2C622C46E46A240C2404904D6419E8
:101920008E4DEC622C46E46A240C24048D4D64191F
:101930008A4DEC622C462468640A64020D07ED0DA2
:101940002C43864D2C602C46E46A240C2404844DE0
:101950006419824DEC622C46E46A240C2404814D07
:1019600064197E4DEC622C466468240A2402172513
:101970004D43EDB22C43794D6C602C46E46A240C47
:101980002404774D6419754DEC622C46E46A240CEE
:101990002404744D6419714DEC622C46A468640AE9
:1019A00064021B254D43ED05ED0D2C436B4DAC60E2
:1019B0002C46E46A240C2404694D6419674DEC62DA
:1019C0002C46E46A240C2404664D6419634DEC62D1
:1019D0002C46E468A40CA404634D4D43AD03AD0B49
:1019E0002C435E4DEC602C46E46A240C24045C4DD0
:1019F00064195A4DEC622C46E46A240C2404594DB7
:101A00006419564DEC622C462469640D6405574DEB
:101A10004D43ED02ED0A2C43504D2C612C46E46AF7
:101A2000240C24044E4D64194C4DEC622C46E46A9F
:101A3000240C24044B4D6419484DEC622C46646917
:101A4000240B240318254D432D052D0D2C43434D08
:101A50006C612C46E46A240C2404414D64193F4D0A
:101A6000EC622C46E46A240C24043E4D64193B4D80
:101A7000EC622C46A469240B2403F0254D432D056C
:101A80002D0D2C43354DAC612C46E46A240C240406
:101A9000334D6419314DEC622C46E46A240C240465
:101AA000304D64192D4DEC622C46E469640B6403DF
:101AB0007D25ED004D43ED04ED0C2C43274DEC61ED
:101AC000082917D12C46E46A240C2404244D6419F7
:101AD000224DEC622C46E46A240C2404214D641946
:101AE0001E4DEC622C46246A0C25AC43241D1B4D74
:101AF0002C622FE00C2917D1184CE46A240C240422
:101B0000174D6419154DEC622C46E46A240C24042C
:101B1000144D6419114DEC622C46246A0C25AC431B
:101B2000241D0E4D2C6215E00C4CE46A240C240498
:101B30000B4D6419094DEC622C46E46A240C240414
:101B4000084D6419054DEC622C46246A0C25AC4303
:101B5000024D2C62064C236000BFBFE6000002402D
:101B60005A5A0000A5A5000050460000E0220200DD
:101B7000F4000020014600202A4A914201D90420A5
:101B80007047294AD26A120C1204284BD218264BED
:101B9000DA621A46D26A120C1204254BD218224B72
:101BA000DA621A46126B0022D2431A6300BF1E4A41
:101BB000126AD206D20F002AF9D11B4AD26A120C3D
:101BC00012041A4BD218184BDA621A46D26A120C57
:101BD0001204174BD218144BDA621A46126A920892
:101BE0009200921C1A6200220A7000BF0E4A126A0A
:101BF000D206D20F002AF9D10B4AD26A120C120473
:101C00000A4BD218084BDA621A46D26A120C120436
:101C1000074BD218044BDA621A46126B00221A6381
:101C200000BFADE7FFFF0000000002405A5A00006D
:101C3000A5A5000001460020194A126A5200520868
:101C40000123DB07D218164B1A62164AD26A120C0D
:101C50001204154BD218134BDA621A46D26A120CD0
:101C60001204124BD2180F4BDA62002906D11A4621
:101C7000126A0C239A430B4B1A6210E0012907D118
:101C8000084A126A0C239A43121D064B1A6206E098
:101C9000044A126A0C239A430832024B1A627047B4
:101CA00000200040000002405A5A0000A5A5000094
:101CB00010B5024600202A4B9A4201D9042010BDDB
:101CC000284BDB6A1B0C1B04274C1B19254CE362B9
:101CD0002346DB6A1B0C1B04244C1B19214CE362BA
:101CE00023461B6B0023DB43236300BF1D4B1B6A92
:101CF000DB06DB0F002BF9D11A4BDB6A1B0C1B0434
:101D0000194C1B19174CE3622346DB6A1B0C1B049E
:101D1000164C1B19134CE36223461B6A9B089B005D
:101D20005B1C2362117000BF0E4B1B6ADB06DB0FCE
:101D3000002BF9D10B4BDB6A1B0C1B040A4C1B1943
:101D4000084CE3622346DB6A1B0C1B04074C1B197F
:101D5000044CE36223461B6B0023236300BFAEE702
:101D6000FFFF0000000002405A5A0000A5A5000035
:101D700070B53F480078002878D009213D480068B8
:101D8000FEF739FA04463C48006800193A490860F1
:101D90003A480078401C39490870084600780A28FB
:101DA00021D10A2134480068FEF725FA0446344858
:101DB0000068844201D93248046032480068844295
:101DC00001D23048046000202C4908702E48006879
:101DD00000192D4908602D480078401C2B490870D7
:101DE00000202549086029480078322839D1002090
:101DF000264908702448006821490968401A224988
:101E00000860084600681F490968401A1E490860B2
:101E100030211D480068FEF7EEF904461C480460B6
:101E20001C4804781A48006844431A484578184802
:101E3000006845430A212846FEF7DDF90546641986
:101E400064212046FEF7D7F91349086013480D496D
:101E5000086000200A4908600B4908600120104909
:101E600008700020034908600149087070BD000037
:101E700050000020A4000020B000002072000020CC
:101E8000A8000020AC000020BC0000206C00002056
:101E9000C0000020700000208C000020FFFF000028
:101EA0005300002016480078002803D11548007818
:101EB00000280DD0144800788000144908581449AF
:101EC0000860144810490978405C134908700CE018
:101ED0000D4800788000114908580D4908601048E5
:101EE00009490978405C0C4908700A200D490860CE
:101EF000084600680849097848430A49086070475D
:101F0000600000204A00002059000020200000202E
:101F1000DC000020430000205E00002004000020C0
:101F20003C0000209000002002460548101840693F
:101F300001238B401843024BD3185861002070478F
:101F4000000D02400246034810184068C840C00710
:101F5000C00F7047000D024030B503460020494CC9
:101F60001C198D0060511078012809D146481818B5
:101F7000006801248C402043434C1C19206008E079
:101F800041481818006801248C40A0433E4C1C199D
:101F900020605078002809D13B481818C0690124F6
:101FA0008C40A043384C1C19E06108E036481818F2
:101FB000C06901248C402043334C1C19E0619078A7
:101FC000012812D130481818006A01248C4020439F
:101FD0002D4C1C1920622C481818446A0120884096
:101FE000844329481818446227E09078022812D1C7
:101FF00025481818006A01248C40A043224C1C1963
:10200000206221481818406A01248C4020431E4C4D
:102010001C19606211E01C481818006A01248C40E9
:10202000A043194C1C19206217481818406A012453
:102030008C40A043144C1C196062D078002809D150
:1020400011481818C46A0120884084430E481818A3
:10205000C46208E00C481818C06A01248C40204370
:10206000094C1C19E062094880680124E403A0437C
:102070001479E4030125ED032C402043034CA060B8
:10208000002030BD000C0240000D0240000F024055
:102090000246034810188068C840C007C00F704748
:1020A000000D024010B50346024818188C0002517A
:1020B000002010BD000C0240024605481018C06800
:1020C00001238B401843024BD318D860002070477F
:1020D000000D0240024605481018006901238B409C
:1020E0001843024BD318186100207047000D0240BE
:1020F00008B50020009000BF00980028FCD008BD63
:1021000010B50020C046C04610BD10B50120C04625
:10211000C04610BD10B50220C046C04610BD10B567
:102120000320C046C04610BD10B50020C046C046C2
:1021300010BD10B5002001F067FF10BD10B50020E4
:10214000C046C04610BD10B50120C046C04610BDF7
:1021500010B50020C046C04610BD10B50120C046D5
:10216000C04610BD10B50020C046C04610BD10B519
:102170000120C046C04610BD10B50020C046C04674
:1021800010BD10B50120C046C04610BD10B50020DE
:1021900002F02CFA10BD10B5012002F027FA10BD94
:1021A00010B5022002F022FA10BD10B50020C04682
:1021B000C04610BD10B50420C046C04610BD10B5C5
:1021C0000520C046C04610BD10B50620C046C0461A
:1021D00010BD10B50020C046C04610BD10B500208F
:1021E000C046C04610BD10B50020C046C04610BD58
:1021F00010B50020FEF79AF910BD10B50020C046BA
:10220000C04610BD10B50020C046C04610BD10B578
:102210000120C046C04610BD10B50020C046C046D3
:1022200010BD10B50020C046C04610BD10B500203E
:10223000C046C04610BD10B50020C046C04610BD07
:1022400000B58DB005210BA802F00CFB062109A8F2
:1022500002F008FB182103A802F004FB062127481E
:1022600002F000FB052101A802F0FCFA002108465B
:10227000FFF722FF01216846017101AA00210846EB
:10228000FFF76AFE0121102001F002FDFEF72AF996
:102290001B48006840084000401C19490860084677
:1022A00000680221884316490860012002F0EAFA1A
:1022B000002108A801734173022181730321C173B6
:1022C000002101740BA8FEF7ABF90BA8FEF7F4F898
:1022D0000020FEF7DFF8012211461820FFF7DCF995
:1022E000FEF70AF9012108A841720648089003A9DF
:1022F00009A8FEF795F80DB000BD0000ED00002024
:1023000000240040050400001CB50521684602F0C9
:10231000A9FA01211C2001F0BBFC012168460170D3
:10232000417081700021C170012101716A46042150
:102330000020FFF711FE6A4605210020FFF70CFE82
:102340006A4601210020FFF707FE00216846017060
:1023500041708170C020FFF7E7FD6A460021C02070
:10236000FFF7FAFD0121C020FFF7DEFD6A460121DB
:10237000C020FFF7F1FD0021684681700821002090
:10238000FFF7D2FD08214020FFF7CEFD0A210020F3
:10239000FFF7CAFD0D214020FFF7C6FD09214020AF
:1023A000FFF7C2FD0B214020FFF7BEFD0A214020B0
:1023B000FFF7BAFD02214020FFF7B6FD01214020C2
:1023C000FFF7B2FD00214020FFF7AEFD07210020FE
:1023D000FFF7AAFD06210020FFF7A6FD6A460821A7
:1023E0000020FFF7B9FD6A4608214020FFF7B4FD41
:1023F0006A460A210020FFF7AFFD6A460D21402002
:10240000FFF7AAFD6A4609214020FFF7A5FD6A46AD
:102410000B214020FFF7A0FD6A460A214020FFF76C
:102420009BFD6A4602214020FFF796FD6A46012186
:102430004020FFF791FD6A4600214020FFF78CFD08
:102440006A4607210020FFF787FD6A460621002023
:10245000FFF782FD1CBD08B50020FFF7EBFB002055
:1024600001F034FC0021684601704170817001F078
:1024700041FA08BDF0B589B00C2105A802F0F2F9C7
:102480000521684602F0EEF90A2102A802F0EAF9F5
:1024900001210B2001F0FCFB0021684601700D2199
:1024A0008020FFF741FD6A460D218020FFF754FD93
:1024B00003220D218020FFF7F5FD032168460175F9
:1024C0000021C17501218175002101764176817657
:1024D000C1762248079005A802F022F8052020497D
:1024E00008602048204908602048008884B2012103
:1024F000204601F09BFD1A48008885B21A480088E2
:1025000086B22946022001F0A9FD3146032001F0E0
:10251000A5FD072168464172002181720121C17227
:1025200000210173072181730021C173012101740E
:102530000021417402A9012001F00EFE0120089043
:10254000089801F06FFF0027384601F0DBFD01F02D
:10255000E7FC002001F07EFF09B0F0BDBD3E0000A9
:10256000D0000020E3030000D4000020D8000020A9
:1025700030B58BB0142106A802F074F9142101A81B
:1025800002F070F90121082001F082FB0021684669
:10259000017641770221C1760121817700210177FF
:1025A000817641762448089006A90020FEF700FABB
:1025B000224C21460020FEF771F9254629460020CD
:1025C000FEF79CF900210846FEF74CF90020FEF7C3
:1025D000E1F9012203210E20FFF75EF80020FEF74B
:1025E000BDF900216846017141720221C1710121CA
:1025F000817200210172817141711148049001A919
:102600000120FEF7D5F90F4C21460120FEF746F9CF
:10261000254629460120FEF771F900210120FEF729
:1026200021F90120FEF7B6F9012203210F20FFF75F
:1026300033F80BB030BD0000813E000018FC0000F4
:10264000A13E00009CFF000010B53E49097800291A
:1026500076D100F0C9F83C49097888425ED13B49FF
:102660000978002969D138490978002952D03849B8
:102670000978354A1278914237D1364909780029CC
:102680005BD035490978002910D034490978491CB4
:10269000324A11701146097814294ED10021117067
:1026A0002D4A11700121294A117046E001212C4A5E
:1026B00011702A490978491C284A1170294909785A
:1026C000002903D111460978062907D02549097840
:1026D000002932D02149097803292ED100211F4A2F
:1026E00011700121194A117027E017490978184A19
:1026F00011700121154A11700021194A1170012130
:10270000154A1170134A11700021144A1170154AAC
:10271000117012E000210E4A11700EE00A49087093
:1027200000210F4A117001210B4A11700021094A42
:1027300011700A4A11700B4A11701421014A11706C
:1027400010BD0000E5000020E7000020E0000020B0
:10275000E8000020E3000020E2000020E600002066
:10276000E1000020E400002004480078002804D0A4
:1027700002480078401E014908707047E5000020BB
:1027800010B5FFF761FF15480078002824D01448E1
:102790000078012804D0022806D0032813D107E0CE
:1027A0000120FEF7CDFB0FE00220FEF7C9FB0BE096
:1027B0000C480078002803D000200A49087003E084
:1027C000FEF7E6FD00E000BF00BF0548007801F01D
:1027D00017F800200149087010BD0000E00000203B
:1027E000E8000020E100002070B5002400F0D6FCD5
:1027F0000546012D04D0022D05D0032D09D105E099
:102800000120044305E00220044302E003200443C6
:1028100000BF00BF204670BD14200B490870002087
:102820000A4908700A4908700A4908700A4908707C
:1028300001200A49087000200949087009490870F8
:102840000949087070470000E5000020E7000020FB
:10285000E8000020E0000020E1000020E20000206D
:10286000E3000020E6000020E400002010B504464C
:10287000002C30D008210020FFF72CFC082140203C
:10288000FFF728FC0A210020FFF724FC0D2140203F
:10289000FFF720FC09214020FFF71CFC0B21402002
:1028A000FFF718FC0A214020FFF714FC022140200A
:1028B000FFF710FC01214020FFF70CFC0021402015
:1028C000FFF708FC07210020FFF704FC0621002089
:1028D000FFF700FC2FE008210020FFF725FB08216F
:1028E0004020FFF721FB0A210020FFF71DFB0D21EF
:1028F0004020FFF719FB09214020FFF715FB0B21B2
:102900004020FFF711FB0A214020FFF70DFB0221B9
:102910004020FFF709FB01214020FFF705FB0021C4
:102920004020FFF701FB07210020FFF7FDFA0621F9
:102930000020FFF7F9FA10BD70B504460D46012DD1
:1029400065D1402C3AD00EDC082C46D006DC012C98
:1029500052D0022C4BD0042C58D143E0102C37D04D
:10296000202C53D12FE001214902601A8C4216D04D
:1029700006DC802C1DD0E01FF938002846D113E07A
:10298000FF38FF380238002804D001218902401A9C
:102990003CD136E008210020FFF79CFB36E00821FF
:1029A0004020FFF797FB31E00A210020FFF792FB60
:1029B0002CE00D214020FFF78DFB27E0092140206E
:1029C000FFF788FB22E00B214020FFF783FB1DE08F
:1029D0000A214020FFF77EFB18E002214020FFF78C
:1029E00079FB13E001214020FFF774FB0EE000218A
:1029F0004020FFF76FFB09E007210020FFF76AFB8B
:102A000004E006210020FFF765FB00BF65E0402CD5
:102A10003AD00EDC082C46D006DC012C52D0022C19
:102A20004BD0042C58D143E0102C37D0202C53D15C
:102A30002FE001214902601A8C4216D006DC802C5E
:102A40001DD0E01FF938002846D113E0FF38FF38C9
:102A50000238002804D001218902401A3CD136E016
:102A600008210020FFF760FA36E008214020FFF738
:102A70005BFA31E00A210020FFF756FA2CE00D2125
:102A80004020FFF751FA27E009214020FFF74CFAD8
:102A900022E00B214020FFF747FA1DE00A214020E9
:102AA000FFF742FA18E002214020FFF73DFA13E059
:102AB00001214020FFF738FA0EE000214020FFF707
:102AC00033FA09E007210020FFF72EFA04E006217F
:102AD0000020FFF729FA00BF00BF70BDF8B504461B
:102AE00001260127002510E020463040002804D0B0
:102AF00001213846FFF720FF03E000213846FFF7A9
:102B00001BFF76007F00681CC5B20A2DECDBF8BD08
:102B100070B5012418480068002800D170BD17481E
:102B20000078002826D0002514E0134800682040D3
:102B300000280CD012480078002804D0002120463C
:102B4000FFF7FAFE03E001212046FFF7F5FE6400DF
:102B5000681CC5B20C2DE8DB09480078002803D0BA
:102B600000200749087002E0012005490870002094
:102B70000249087000BFD1E7A00000204C000020EF
:102B80005200002070B504460D46002D05D00848BF
:102B9000006820430649086008E005480068A04333
:102BA0000349086000212046FFF7C6FE70BD000003
:102BB000A000002010B5FFF74EFCFFF7A5FBFFF7C4
:102BC000D7FCFFF73DFB0A2001F08AFEFFF752FC1D
:102BD00010BD000016480078401C154908700846D2
:102BE0000078642823DB0020087012480078401C1D
:102BF0001049087008460078052803D101200E49C5
:102C000008700BE00B4800780A2807DB0020094910
:102C100008700120094908700749087008480078C1
:102C2000002804D006480078401E05490870704707
:102C300068000020690000204D0000204B000020AB
:102C40006B00002010B50020FEF724F80D48007836
:102C5000042804D101210820FFF794FF11E000218E
:102C60000820FFF78FFF01210820FFF765FE0124F0
:102C70000448017820468840044601212046FFF799
:102C80005BFE10BD5900002010B50446012C0DD18B
:102C900014480078052805DA12480078401C1149CC
:102CA000087012E000200F4908700EE0022C0CD1D1
:102CB0000C480078002805DD0A480078401E0949C4
:102CC000087002E00520074908700B2006490870CB
:102CD000FFF7B8FF00F036FD5A200449087000F0F5
:102CE00047FC10BD59000020630000206600002052
:102CF00010B5012200210520FEF7CEFC00210120A5
:102D000001F00EFA01F082FB10BD10B50022114651
:102D10000520FEF7C1FC0021084601F001FA01F090
:102D20008FFB10BD10B5002002490860FFF79EFD23
:102D300010BD0000A000002010B5FFF76DFDFEF7EC
:102D400005FC0020FFF792FD00F020F8FEF754FA92
:102D5000FEF7BAF9C820FEF7EDFBFEF7CBF810BD81
:102D600010B500240EE0012000F02CFAFF202D30D9
:102D7000FEF7E0FB002000F025FA9620FEF7DAFBD4
:102D8000601CC4B2032CEEDB10BD000070B5002542
:102D9000FFF72AFD0546032D0AD10120504908708E
:102DA00001210F208002FFF7EDFEFFF74BFF43E00C
:102DB000022D0CD102204A49087078204949087038
:102DC00000F0D6FB01210720FFF7DCFE34E0012DE7
:102DD0002FD10320424908700526002407E042480D
:102DE000805D42490855701EC6B2601CC4B2062CF4
:102DF000F5DB0020FFF73AFD00F0FEFA00BFFFF719
:102E0000F3FC0028FBD100240DE00020FFF72EFD8D
:102E10006420FEF78FFB0120FFF728FD6420FEF7FA
:102E200089FB601CC4B2032CEFDB00203049087022
:102E300002E000202A49087029480078002802D1C1
:102E40002C49087002E00B202A4908703AE0294812
:102E50000078002800D136E0FFF7F6FB264800781E
:102E6000002818D01E480078022804D12348007892
:102E700000F0C6F90CE01A480078032804D11F4876
:102E8000007800F053FA03E01C480078FFF7FCFEDE
:102E90000020194908701A480078002810D0002036
:102EA0001749087013480078002804DD114800789D
:102EB000401E1049087001201249087000F0D4F932
:102EC000FFF726FEC3E700BFFFF72CFF044800789A
:102ED000022801D0FFF744FF00200149087070BDAF
:102EE0006500002066000020790000207F0000209F
:102EF0007700002063000020E0000020E8000020B0
:102F00004B0000204C00002010B5FEF79BF98848CC
:102F1000007800287ED00020854908708548007818
:102F2000002804DD83480078401E824908708248EA
:102F30000078002804DD80480078401E7E49087033
:102F400001207E4908707E48007800280ADD7C4810
:102F50000078401E7A49087008460078002801D1A0
:102F60007849087078480078002801D0FDF774FE91
:102F700001F0BEFB6F4800786F2805D1002073492F
:102F8000087000F0F1FB3EE06A480078152809D18E
:102F90000020FDF77FFE0020FDF79AFE01206C491E
:102FA000087030E0634800780C280DD100F0ECF890
:102FB000FEF78AF86748007867490870002065497D
:102FC0000870634908701EE05A48007801281ADB2F
:102FD000584800780B2816DC5E4800785E4909786E
:102FE000884204DA5B4800780A305A4908700020A9
:102FF000FDF7A6FF0320504908704E4800780128CD
:1030000001D10020087055480068401C53490860F1
:10301000084600E074E00068FF212D31884244D169
:103020004F480078401C4E490870084600784D49CA
:103030000978884210DB002049490870FEF78EF8B5
:103040000020FDF727FE0020FDF742FE0120404949
:10305000087047203749087000204049086000F098
:1030600099FA41480078401D3F49087008460078A9
:103070003C2818DB0020087005220EE03B48805CED
:10308000401C3A4988540846805C0A2802D1002036
:10309000885400E003E0501EC2B2002AEEDC00BFFC
:1030A00000F09CFA00BF00F087FA31480078002851
:1030B00012D030480068401C2E490860084600685D
:1030C000E121C901884207D3002029490870FEF791
:1030D000E9FE0020FDF734FFFDF7FEFA26480078F0
:1030E00000280DD122480078002809D12348007813
:1030F000002805D110480078002801D1FEF740F8DB
:1031000000F0D6FA1C48007800280DD1FEF730FEFA
:103110001B480078002807D0002019490870FDF7E7
:103120001DFE002017490870FFF7F2FC10BD0000DB
:103130004B00002064000020630000204C000020B1
:103140008600002085000020570000206A00002033
:10315000510000205B0000205D000020980000204E
:103160006700002066000020780000207900002021
:103170004A0000209C0000205F0000205800002032
:103180004D0000205300002000B50320FEF75EFA3A
:103190000149087000BD00005A00002010B500244D
:1031A00005210020FEF7CEFE002801D101200443B6
:1031B00004210020FEF7C6FE002801D102200443AE
:1031C000204610BD10B5044621460120FFF7B4FB90
:1031D0000A480078782807D121460420FFF7ACFB85
:1031E00021460220FFF7A8FB044800785A2803D1A3
:1031F00021460220FFF7A0FB10BD00006600002062
:1032000010B50446012C14D115480078782826D131
:103210005A201349087000210420FFF7B3FC002155
:103220000420FFF789FB0B200E49087000F0A0F97D
:1032300015E0022C13D10A4800785A280FD13C20FF
:103240000749087000210220FFF79CFC00210220A2
:10325000FFF772FB0B200349087000F089F910BDDD
:10326000660000206300002070B52B48007803281A
:1032700000D070BD29480078002826D02848007862
:10328000012821D1FFF7F2FA6420FEF753F900205C
:10329000FFF7ECFA6420FEF74DF90120FFF7E6FA9C
:1032A0006420FEF747F90020FFF7E0FA6420FEF7FC
:1032B00041F90120FFF7DAFA6420FEF73BF900201C
:1032C0001749087015490870D3E715480078062893
:1032D00003D10020FFF7CAFACBE711480078052890
:1032E00018D1104810490978465C002E03D10120FE
:1032F000FFF7BCFA0EE00020FFF7B8FA0125002422
:1033000006E001212846FFF717FB6D00601CC4B2E0
:10331000B442F6DB00BFACE7650000205600002099
:10332000630000207F0000207700002070B5044675
:10333000012C16D129480078052808DA274800789A
:10334000401C2649087007202549087045E00120E7
:10335000244908700320224908700020FFF786FAEC
:103360003BE0022C1ED101201F4908701F481B4959
:103370000978405C002809DD1C4818490978405C40
:10338000401E1A49154A1278885404E0092017494A
:10339000124A1278885406201149087001201449F5
:1033A00008701AE0032C18D10F480078002814D0B8
:1033B00000200D4908700526002507E00B48405DF8
:1033C0000C498855701EC6B2681CC5B2062DF5DBC7
:1033D00000F004F900200249087070BD7700002059
:1033E0006300002056000020550000207F000020D0
:1033F0004B0000207900002070B53E4800783E491F
:103400000978884242D001253A4801782846884008
:10341000054601212846FFF78FFA01243648017836
:1034200020468840044601212046FFF785FAC8203F
:10343000FEF780F800212046FFF77EFA6420FEF7B1
:1034400079F801212046FFF777FAC820FEF772F8D5
:1034500000212046FFF770FA6420FEF76BF8012187
:103460002046FFF769FAC820FEF764F800212046DD
:10347000FFF762FA6420FEF75DF800212046FFF7AF
:103480005BFA00212846FFF757FA32E00124194879
:10349000017820468840044601212046FFF74CFA77
:1034A000FF20F530FEF746F800212046FFF744FAEA
:1034B000C820FEF73FF801212046FFF73DFAFF2024
:1034C000F530FEF737F800212046FFF735FAC8201F
:1034D000FEF730F801212046FFF72EFAFF20F530E5
:1034E000FEF728F800212046FFF726FAC820FEF74D
:1034F00021F870BDC4000020C50000200D480078F0
:10350000012808D10C4800780C490870084600785A
:103510000B49487207E0084800780A4908700846D5
:103520000078074988720848007801210843064955
:10353000087070475A000020870000206E000020AD
:10354000080100206F000020880000200548007856
:1035500005490871054800780121084303490870AE
:10356000704700005B000020080100208800002058
:10357000054800780549487105480078012108434D
:103580000349087070470000660000200801002011
:1035900088000020054800780549887105480078B2
:1035A00001210843034908707047000067000020AC
:1035B0000801002088000020054800780549C872ED
:1035C000054800780221084303490870704700004D
:1035D0007800002008010020880000200C480078B6
:1035E0000C4908730A484078487309488078887302
:1035F0000748C078C87306480079087404484079C1
:103600004874054800780221084303490870704750
:10361000790000200801002088000020F7B582B062
:1036200016460025012001900027FCF7DCFE072448
:10363000240302982418012211461C48FEF73EF983
:103640002046FEF797FA00BF28E000BF715D2046D4
:10365000FEF72EFB0190019800280CD12078715DB7
:10366000884203D100200190641C08E001200190F1
:10367000781CC7B203E001200190781CC7B2032F69
:1036800007DB002706210020FEF724FD641C002034
:10369000019001980128D9D0681CC5B203988542D1
:1036A000D3DBFCF793FE05B0F0BD00003D17000032
:1036B00010B521480078002800D110BD1E480078C0
:1036C000C007C00F002810D01C4A0B210020FFF7B4
:1036D000A5FF1948007840084000174908700846BF
:1036E0000078042108431449087013480078022127
:1036F000084000280BD0114A0B3207211048FFF771
:103700008DFF0D480078022188430B4908700A4854
:1037100000780421084000280BD0084A0B21012022
:103720008002FFF77BFF04480078042188430249A8
:10373000087000BFC1E700008800002008010020D9
:1037400001020000054800780549887005480078A6
:103750000121084303490870704700005900002008
:1037600008010020880000200548007805490872FB
:10377000054800780121084303490870704700009C
:103780006A000020080100208800002010B500F029
:103790001DF80A4A0B210020FFF740FF074A0B21C2
:1037A00001208002FFF73AFF00F068FF0020044983
:1037B0000870044908700449087010BD0801002011
:1037C0005F0000204A000020600000200A48407886
:1037D0000A4908700848C07848700120C870642001
:1037E00008715A20487100208871C8710872BC2085
:1037F0004872887270470000C6000020080100204F
:1038000010B50446012C1AD12C48007800280AD1A2
:103810002B480078002806D12A480078002802D1D9
:1038200003202949087027480078012108432549C9
:103830000870084600784006000E087007E0022C69
:1038400005D1204800784006000E1E4908701D482A
:103850000078362815D11D48007800282DD11C4845
:103860000078002829D1012014490870002015494A
:10387000087018490870012103208002FFF782F9BF
:103880001BE0104800782C2817D101200C49087043
:1038900000200F4908700D4908700849087009494F
:1038A0000870FEF7E3FF0020FDF712FA00200A4936
:1038B000087001210948FFF765F910BD5700002085
:1038C0005800002085000020860000204A000020CB
:1038D00060000020640000204F0000200102000072
:1038E00010B50120FDF73AF810BD10B50120FDF725
:1038F00043F810BD70B5044600252078030000F0A1
:1039000065FF0504050C10181C0018E0032000F0EA
:1039100073FA032000F03AFA11E0032000F024FAD1
:103920000DE00321084600F075FA032000F03EFA8E
:1039300005E0072000F09AF901E0042500BF00BF70
:103940002078012100F00CF8207800F03FFA607830
:1039500000F060F9A07800F073F9284670BD00000F
:1039600070B505460C46002600F024FF002C01D05F
:10397000012000E0002004462B0000F027FF050492
:1039800017394D7488004448006840084000E1073A
:10399000C90F08434049086000BF002C05D03E48CD
:1039A000C0680005C00F0028F7D072E03B48C0682F
:1039B00040084000401C3949C8600846C0680221E0
:1039C0008843801C3549C860334800680221884319
:1039D00061000222114008432F49086000BF002CFB
:1039E00005D02D4800694006C00F0028F7D050E0F0
:1039F0002948006804218843A1000422114008439B
:103A00002549086000BF002C05D023484069C00448
:103A1000C00F0028F7D03CE020484038C0680121A2
:103A20008903884340181D494039C8600846C0686A
:103A30000121C9038843401818494039C860164815
:103A4000006808218843E100082211400843124918
:103A5000086000BF002C05D00F4880694006C00FE9
:103A60000028F7D015E00C48006810218843210198
:103A70001022114008430849086000BF002C05D0FF
:103A80000548C06B4003C00F0028F7D001E00426B2
:103A900000BF00BF304670BD00200040C00D024096
:103AA00030B589B000241422564904A8FCF75AFB0B
:103AB0005448143000680390002000900190029058
:103AC00051480188684601814F4841886846C18055
:103AD0004D488188684681804B48C188684641804E
:103AE000494820300188684601804848006800063F
:103AF000450F2B0000F06AFE05042E303E41780091
:103B00004248C0684005400D69460989884201D194
:103B1000089C1EE03D48C0684005400D6946C988C4
:103B2000884201D1079C14E03848C0684005400D28
:103B300069468988884201D1069C0AE03348C068FA
:103B40004005400D69464988884201D1059C00E046
:103B5000049C4BE02E4C49E0684600882B4949699B
:103B60008905890D884202D16846C48901E068460A
:103B700084893BE00124E40338E02448C06B8007DB
:103B8000800F032829D1684600892049C968490562
:103B9000490D884201D1089C20E06846C0881B4935
:103BA000C9684905490D884201D1079C16E068465D
:103BB00080881649C9684905490D884201D1069C8B
:103BC0000CE0684640881149C9684905490D88429A
:103BD00001D1059C02E0049C00E00D4C0B48C06B39
:103BE000C005000F444301E0002400BF00BF0748A8
:103BF00000684005410F2046C8400446204609B0F1
:103C000030BD0000A8490000000C1000002000405A
:103C10000048E80170B50446002500F0CBFD0748D8
:103C2000006807210902884321020722120211407D
:103C3000084302490860284670BD0000002000408B
:103C400070B50446002500F0B5FD07480068032163
:103C5000C9028843E1020322D2021140084302490B
:103C60000860284670BD00000020004010B50146E5
:103C70000020064AD26B0723DB039A43CB030724B9
:103C8000E40323401A43014BDA6310BD00200040D7
:103C900010B502460020002901D0012300E00023D6
:103CA0001946002907D0084B1B6A0124944023437E
:103CB000054C236206E0044B1B6A01249440A34395
:103CC000014C236210BD00000020004010B50146E9
:103CD00000200B0000F07AFD0504101C2834400081
:103CE0001F4B1B895A05520D1E4BDB68DB0ADB029A
:103CF00013431C4CE36031E0194BDB885A05520D2D
:103D0000184BDB68DB0ADB021343164CE36025E04B
:103D1000134B9B885A05520D124BDB68DB0ADB0202
:103D20001343104CE36019E00D4B5B885A05520DAC
:103D30000C4BDB68DB0ADB0213430A4CE3600DE04B
:103D4000074B1B885A05520D064BDB68DB0ADB026A
:103D50001343044CE36001E0042000BF00BF10BD2A
:103D6000000C10000020004010B501460020064A5B
:103D7000526903239B029A438B020324A40223402B
:103D80001A43014B5A6110BD0020004010B5014696
:103D90000020054A126930239A430B013024234046
:103DA0001A43014B1A6110BD0020004010B50146B6
:103DB0000020054A926930239A430B0130242340A6
:103DC0001A43014B9A6110BD0020004070B50446B3
:103DD0000025264600F0EEFC06480068E0218843F6
:103DE0007101E022114008430249086000F02CF8FC
:103DF000284670BD0020004001460020044A126998
:103E0000920892008B079B0F1A43014B1A6170476F
:103E10000020004030B5024600200A4B9B690C246C
:103E2000A34394000C252C402343064CA361234656
:103E30009B699B089B008C07A40F2343014CA36143
:103E400030BD00000020004010B5FFF729FE0149F9
:103E5000086010BD0000002010B507490989480519
:103E6000400D0649C968C90AC9020143034AD16025
:103E7000FFF7EAFF10BD0000000C1000002000401A
:103E800010B500210846FCF7FBFC012807D1FEF71E
:103E90006BFCFEF79FFE00210846FCF7E3FC10BD1B
:103EA00010B500210120FCF7EBFC012805D1FCF73F
:103EB0007FFA00210120FCF7D5FC10BD10B50020D1
:103EC00000F096F8012823D1FFF70AFDFCF770FAFD
:103ED00010480078002811D10F48008881B20220D4
:103EE00000F0BCF80D48008881B2032000F0B6F85D
:103EF00008480078401C0749087006E0054800782B
:103F0000012802D1002003490870002000F066F863
:103F100010BD0000F3000020D0000020D4000020DD
:103F200000202D494969490849002B4A5161114631
:103F3000496904229143284A51611146496908227E
:103F40009143254A51611146496910229143224A01
:103F5000516111464969202291431F4A516111461E
:103F60004969402291431C4A5161114649698022A6
:103F70009143194A51611146496912149143164AF5
:103F8000516111464969D2139143134A5161114657
:103F9000496992159143104A516111464969521578
:103FA00091430D4A516111464969121591430A4ADC
:103FB000516111464969D2149143074A5161114632
:103FC000496992149143044A516111464969521456
:103FD0009143014A5161704700580040014600205A
:103FE00001228A40D243014B5A6170470058004079
:103FF00001460020034B1A691346CB40D807C00F77
:10400000704700000058004010B50446002C07D14E
:1040100005480068002802D003480068804700E097
:1040200000BF00BF10BD00000401002030B50246F3
:104030000020094B1B681B0C1B0494B22343064C45
:1040400023602346DB688024A343CC0180252C40D9
:104050002343014CE36030BD0058004010B50246D8
:104060000020002A08D1264BDB6B1B0C1B048CB2F2
:104070002343234CE36341E0012A0AD1204B403320
:104080001B681B0C1B048CB223431D4C4034236063
:1040900034E0022A0AD11A4B40335B681B0C1B0424
:1040A0008CB22343164C4034636027E0032A0AD1C4
:1040B000134B40339B681B0C1B048CB22343104CE6
:1040C0004034A3601AE0042A0AD10D4B4033DB6868
:1040D0001B0C1B048CB22343094C4034E3600DE0FD
:1040E000052A0AD1064B40331B691B0C1B048CB2FA
:1040F0002343034C4034236100E0012010BD000045
:104100000058004001460020044A5268120C120474
:104110008BB21A43014B5A607047000000580040B0
:1041200030B5024600200B4B1B6B01242403A34334
:10413000140301252D032C402343064C23632346FF
:104140001B6BE414A343CC026D102C402343014CA1
:10415000236330BD0058004030B502460020002ADD
:1041600004D0012A69D0022A7ED1D7E0A64B5B6A2F
:104170001024A343A44C63622346DB69DB08DB0005
:104180004C786407640F23439F4CE3612346DB694B
:104190000824A3438C78E40008252C4023439A4C40
:1041A000E36123465B6A4024A343CC78A401402505
:1041B0002C402343944C63622346DB68032464054C
:1041C000A3430C79640503256D052C4023438E4CD5
:1041D000E36023465B6A2024A3438B4C636223463F
:1041E000DB697024A3438C79240170252C40234380
:1041F000854CE3612346DB698024A343CC79E40149
:1042000080252C402343804CE36123465B6A802455
:10421000A3430C7AE4012C4023437B4C6362234686
:104220005B6A03242403A3434C7A240303252D0350
:104230002C402343744C6362E3E0734B9B6A10246D
:10424000A343714CA3622346DB6907242402A343E2
:104250004C78240207252D022C4023436A4CE3614D
:104260002346DB69E41400E0C9E0A3438C78E40250
:104270000125ED022C402343634CE36123469B6AF6
:104280004024A343CC78A40140252C4023435E4C1A
:10429000A3622346DB6803246405A3430C79640509
:1042A00003256D052C402343574CE36023469B6A4E
:1042B0002024A343544CA3622346DB690724240330
:1042C000A3438C79240307252D032C4023434E4C14
:1042D000E3612346DB69E413A343CC79E4030125BE
:1042E000ED032C402343484CE36123469B6A802422
:1042F000A3430C7AE40180252C402343424CA36263
:1043000023469B6A03242403A3434C7A24030325F6
:104310002D032C4023433C4CA36272E03A4BDB6AF2
:104320001024A343384CE3622346DB6907242404AA
:10433000A3434C78240407252D042C402343324CFE
:10434000E3612346DB690124E404A3438C78E4049D
:104350000125ED042C4023432B4CE3612346DB6A0B
:104360004024A343CC78A40140252C402343264C71
:10437000E3622346DB6803246405A3430C796405E8
:1043800003256D052C4023431F4CE3602346DB6A65
:104390002024A3431C4CE3622346DB690724240545
:1043A000A3438C79240507252D052C402343164C67
:1043B000E3612346DB690124E405A343CC79E405EA
:1043C0000125ED052C4023430F4CE3612346DB6AB6
:1043D0008024A3430C7AE40180252C4023430A4C1B
:1043E000E3622346DB6A03242403A3434C7A2403B9
:1043F00003252D032C402343034CE36201E00120FD
:1044000000BF00BF30BD000000580040002004493C
:10441000C96849084900491C014AD1607047000039
:104420000058004001460020044A526B120A120252
:10443000CBB21A43014B5A6370470000005800404A
:1044400000200349C96849084900014AD160704702
:104450000058004000B5014600200B0000F0B6F9FE
:1044600010095A1224361B2D3F5A5A5A5A5A5A4882
:10447000515A2A4AD26801239B029A43D218274BE9
:10448000DA6049E0254A526AFF2301339A43D21881
:10449000224B5A6240E0214A526A01235B029A434E
:1044A000D2181E4B5A6237E01C4A926AFF2301332E
:1044B0009A43D218194B9A622EE0184A926A012345
:1044C0005B029A43D218154B9A6225E0134AD26ACE
:1044D000FF2301339A43D218104BDA621CE00F4AD3
:1044E000D26A01235B029A43D2180C4BDA6213E0C2
:1044F0000A4AD26801231B059A43D218074BDA6097
:104500000AE0064AD2680123DB049A43D218034B1F
:10451000DA6001E0012000BF00BF00BD005800408C
:1045200010B5014600202F4AD26803231B039A438B
:104530000B781B030324240323401A43294BDA601E
:104540001A46D26870239A438B781B01702423404B
:104550001A43244BDA601A46D26804239A43CB7874
:104560009B00042423401A431E4BDA601A46D2688B
:1045700002239A430B795B00022423401A43194B10
:10458000DA601A46D26808239A434B79DB00082484
:1045900023401A43134BDA601A46D2681B149A431D
:1045A0008B799B03E40223401A430E4BDA601A46D0
:1045B000D268E3009A43CB795B04E40023401A43BA
:1045C000084BDA601A46D268A3029A434B78DB069E
:1045D000A40223401A43034BDA60034B8A681A6033
:1045E00010BD0000005800400401002010B5044632
:1045F000002C04D0012C0AD0022C18D10FE00D4859
:104600000068002802D00B480068804710E00A4884
:104610000068002802D008480068804708E0074882
:104620000068002802D005480068804700E000BF0D
:1046300000BF10BDF8000020FC0000200001002099
:104640000B48C07A0B4908700948007B0A4908707A
:104650000748407B48700648807B88700448C07BD0
:10466000C8700348007C08710148407C487170475D
:10467000080100207800002079000020124880788E
:10468000124908701048C078114908700E48007926
:10469000104908700C4840790F4908700A48807921
:1046A0000E4908700848C0790D4908700648007A1C
:1046B0000C4908700448407A0B4908700248807A17
:1046C0000A490870704700000801002059000020C6
:1046D0005A0000205B0000206600002067000020D8
:1046E000600000206A0000206E0000206F000020A3
:1046F00010B529480078012800D110BD274800785E
:10470000002801D1012403E000240020234908707F
:1047100023480078844207D02148047000202149B2
:104720000870214908700BE01F480078401C1E49A2
:10473000087008460078032802DB01201949087038
:1047400018480078002800D1D7E7184800781449A5
:10475000097888421DD0124800781449087008462C
:104760000078002807D00121C802FEF70BFA0020CC
:10477000FCF7AEFA0DE000210120C002FEF702FABC
:1047800000210120C002FEF7D7F809480078FCF7A5
:104790009FFA00BFB1E70000510000207300002025
:1047A00076000020540000207400002075000020D6
:1047B0005B00002002480349886003488860704716
:1047C0005A5A000000200040A5A5000030B47446ED
:1047D000641E2578641CAB4204D3635D5B00E31860
:1047E00030BC18471D46F8E710B5002819DB1A4AF7
:1047F00003231B02D21883089B00D2588307DC0EC8
:10480000FF23A3409A438B071B0E8407E40EA340AB
:104810001A43114B032424021B198408A4001A51C3
:1048200018E00E4A03071B0F083B9B089B00D25859
:104830008307DC0EFF23A3409A438B071B0E8407DC
:10484000E40EA3401A43054B0407240F083CA408B8
:10485000A4001A5110BD000000E100E01CED00E0D2
:1048600000BF704710B50A460146002900D110BDAF
:1048700002E000230B70491C1346521E002BF8D196
:1048800000BFF4E770B505461148124948610020A1
:104890008861052008610FE000200E4988610E49FB
:1048A0000E480068FBF7A7FC012109060C1A00BF9F
:1048B00008488069A042FBD828466D1E0028EBD12D
:1048C00004480069400840000249086170BD0000CA
:1048D000FFFFFF0000E000E01027000000000020C4
:1048E00070B50546114812494861002088610520CD
:1048F00008610FE000200E4988610E490E480068EB
:10490000FBF779FC012109060C1A00BF08488069F1
:10491000A042FBD828466D1E0028EBD10448006950
:10492000400840000249086170BD0000FFFFFF0021
:1049300000E000E0A08601000000002070B5054600
:10494000114812494861002088610520086110E083
:1049500000200E4988617D21C9000D480068FBF7E1
:104960004AFC012109060C1A00BF08488069A042D0
:10497000FBD828466D1E0028EAD10448006940088B
:1049800040000249086170BDFFFFFF0000E000E049
:1049900000000020FEF70EF9FEF7CEF903E0FDF768
:1049A000EFFEFEF7B1FAFAE700093D0000127A00C7
:1049B0000024F4004086510100366E01008000960C
:1049C000E049000000000020080100000401000090
:1049D000E84A0000080100209004000020010000C7
:1049E00000093D00F000000068010000F401000033
:1049F0008A02000048030000C0030000E803000032
:104A000068010000F4010000BC0200008403000003
:104A1000C0030000C0030000E80300001E28323C71
:104A200046505526323F4B58646400000000000099
:104A3000000000000000000000000000FF00000077
:104A40000000000000000000000000000000000066
:104A50000000000000FF0000000000000000000057
:104A60000000000000000000000000000000000046
:104A70000000000000000000000000000000000036
:104A8000000000000000000000000000FFFF000028
:104A90000000000000000000000000000000000016
:104AA0000000000000000000000000000000000006
:104AB00000000000E8030000E80300000000000020
:104AC00000000000000000000000000000000000E6
:104AD00000000000000000000000000000000000D6
:084AE0000000000000000000CE
:04000005000000C136
:00000001FF
