:020000040000FA
:10000000700500209D010000B7010000B923000029
:1000100000000000000000000000000000000000E0
:10002000000000000000000000000000BB01000014
:100030000000000000000000BD010000BF01000042
:10004000C9230000D3230000DD230000E7230000C4
:10005000F1230000FB230000052400000F24000012
:1000600019240000232400002D2400003724000060
:10007000412400004B240000552400005F240000B0
:1000800069240000732400007D2400008724000000
:10009000912400009B240000A5240000AF24000050
:1000A000B9240000C3240000CD240000D7240000A0
:1000B000E1240000EB240000F5240000FF240000F0
:1000C00000F002F800F03EF80CA030C80838241800
:1000D0002D18A246671EAB4654465D46AC4201D180
:1000E00000F030F87E460F3E0FCCB6460126334274
:1000F00000D0FB1AA246AB463343184770450000B8
:1001000090450000103A02D378C878C1FAD8520757
:1001100001D330C830C101D504680C6070470000BD
:100120000023002400250026103A01D378C1FBD813
:10013000520700D330C100D50B6070471FB51FBDFB
:1001400010B510BD00F008F91146FFF7F7FF04F0F5
:1001500077FA00F020F903B4FFF7F2FF03BC04F0D4
:10016000D5F9000070B505460C46164602E00FCCE6
:100170000FC5103E102EFAD2082E02D303CC03C5B1
:10018000083E042E07D301CC01C5361F03E02178B9
:100190002970641C6D1C761EF9D270BD0C480D4A86
:1001A000002100A1814200D902440B4802600B48A3
:1001B00080470B480047FEE7FEE7FEE7FEE7FEE765
:1001C000FEE7000007480849084A094B704700004D
:1001D000000000200000000008ED00E0713F00007A
:1001E000C100000070010020700500207003002095
:1001F000700300207047002203098B422CD3030AAE
:100200008B4211D300239C464EE003460B433CD463
:10021000002243088B4231D303098B421CD3030ACB
:100220008B4201D394463FE0C3098B4201D3CB01FB
:10023000C01A524183098B4201D38B01C01A52412B
:1002400043098B4201D34B01C01A524103098B422F
:1002500001D30B01C01A5241C3088B4201D3CB001A
:10026000C01A524183088B4201D38B00C01A5241FD
:1002700043088B4201D34B00C01A5241411A00D2AD
:1002800001465241104670475DE0CA0F00D0494216
:10029000031000D34042534000229C4603098B4286
:1002A0002DD3030A8B4212D3FC22890112BA030A0E
:1002B0008B420CD3890192118B4208D38901921190
:1002C0008B4204D389013AD0921100E08909C30915
:1002D0008B4201D3CB01C01A524183098B4201D317
:1002E0008B01C01A524143098B4201D34B01C01A02
:1002F000524103098B4201D30B01C01A5241C3087A
:100300008B4201D3CB00C01A524183088B4201D3E8
:100310008B00C01A5241D9D243088B4201D34B0003
:10032000C01A5241411A00D20146634652415B1045
:10033000104601D34042002B00D549427047634626
:100340005B1000D3404201B50020C046C04602BD4C
:100350007047704770477047754600F025F8AE4605
:10036000050069465346C008C000854618B020B550
:10037000FFF728FF60BC00274908B6460026C0C525
:10038000C0C5C0C5C0C5C0C5C0C5C0C5C0C5403D4D
:1003900049008D46704710B50446C046C046204609
:1003A000FFF7D9FE10BD0000004870471001002083
:1003B00010B500200249487100F082F910BD00001C
:1003C000C900002010B500F085F910BD10B501205E
:1003D00000F0CEFA002000F0CBFA02F099FD0D21DA
:1003E000802001F0DBFF01220321002001F056FAFA
:1003F00010BD10B500F06EF9012000F0C7FA002022
:1004000000F0C4FA02F095FD0D21802001F0C6FF36
:1004100010BD000010B5044800F082F80120034927
:10042000487101F011F910BDC6000020C90000207C
:100430004279012A05D14A69002A02D0184B4A693B
:100440005A610278012A05D10A68002A02D0144BA9
:100450000A681A604278012A05D14A68002A02D047
:100460000F4B4A685A608278012A05D18A68002AAF
:1004700002D00B4B8A689A60C278012A05D1CA68FB
:10048000002A02D0064BCA68DA600279012A05D137
:100490000A69002A02D0024B0A691A6170470000FB
:1004A000F8000020014607484068FF22F1329043DF
:1004B0000A01FF23F1331A401043024A5060002022
:1004C00070470000002400400146002901D10420AB
:1004D0007047074880680122920290430A7892028E
:1004E00001239B021A401043014A90600020EFE76D
:1004F000002400400348406840084000401C014977
:100500004860704700240040044840680121C90346
:1005100088434018014948607047000000240040AB
:100520000146002901D1042070470348006A0005F4
:10053000000D08800020F7E78024004010B5044635
:100540003948006B0007C00F00280CD0374880687E
:10055000002802D03549886880473348406B08211D
:100560008843314948633048006B4007C00F00287A
:100570000CD02E48C068002802D02C49C86880479B
:100580002948406B04218843274948632648006B6B
:100590008007C00F00280CD024480069002802D032
:1005A0002249086980472048406B022188431E4940
:1005B00048631D48006BC007C00F00280CD01B48C3
:1005C0004069002802D01949486980471648406BA5
:1005D00040084000144948631348006BC006C00F30
:1005E00000280CD011484068002802D00F49486804
:1005F00080470D48406B102188430B4948630A48E7
:10060000006B8006C00F00280CD008480068002846
:1006100002D00649086880470348406B2021884380
:100620000149486310BD000080240040F80000200C
:100630000146002901D104207047204840680C225F
:1006400090434A7892000C231A4010431B4A506092
:10065000104640689A0290438A7812039B021A401F
:100660001043164A506010464068DA109043CA782A
:100670005202DB101A401043104A50601046406886
:10068000D21490430A79D2020123DB021A401043AC
:100690000A4A50601046806812149043074A9060DE
:1006A0001046806852149043044A90601046806857
:1006B00092149043014A90600020BDE7002400405E
:1006C0000348006840084000401C0149086070472A
:1006D000C024004003480068400840000149086009
:1006E00070470000C024004010B55B480078002827
:1006F00000D010BD5948007800286FD158480078C4
:10070000030003F0B9FE07A205173D4E6C8CA20052
:1007100000210120400202F039FA0121080202F012
:1007200035FA4F480078401C4D49087002204B496B
:1007300008708EE00021FF20013002F027FA01212D
:10074000880202F023FA47480078002803D10121EB
:10075000880202F041FB0121434802F03DFB0020EA
:100760003F49087001204149087000204049086055
:1007700001F0B6FC00F05EFA642000F00DFB68E0CA
:100780000021802002F002FA0121402002F0FEF94F
:1007900033480078401C3249087002202F49087005
:1007A00057E00021402002F0F1F90121880202F017
:1007B000EDF92C480078002803D10121880202F0CD
:1007C0000BFB0020264908702849087001F088FCBE
:1007D00000F030FA002000F071FC3AE03AE000212D
:1007E000202002F0D3F90121102002F0CFF91C489B
:1007F0000078401C1A4908700220184908701D48EA
:100800000078401C1B49087008460078032805D171
:1008100001201149087000201649087019E00021D4
:10082000102002F0B3F90121880202F0AFF90D485F
:100830000078002803D10121880202F0CDFA0020BF
:10084000074908700949087003E00020044908704E
:1008500000BF00BF00BF4CE7310000203400002083
:10086000300000202B000020FF03000018000020B3
:10087000700000203200002030B502460020140233
:10088000034D631901248C40E4435C6130BD0000DA
:10089000000C004070B5024600201502034EAB1953
:1008A0001C692546CD40E807C00F70BD000C004014
:1008B00010B502460020002A04D0012A0BD0022ADB
:1008C0001BD111E00F4B1B681B0C1B048CB2234384
:1008D0000C4C236013E00C4B1B681B0C1B048CB2EC
:1008E0002343094C23600AE0084B1B681B0C1B04C4
:1008F0008CB22343054C236001E0012000BF00BF00
:1009000010BD0000000C0040000D0040000E004033
:1009100010B502460020002A04D0012A0BD0022A7A
:100920001BD111E00F4B5B681B0C1B048CB22343E3
:100930000C4C636013E00C4B5B681B0C1B048CB20B
:100940002343094C63600AE0084B5B681B0C1B04E3
:100950008CB22343054C636001E0012000BF00BF5F
:1009600010BD0000000C0040000D0040000E0040D3
:1009700010B5014600200B02034C1A19D3685B081E
:100980005B005B1CD36010BD000C004010B501463D
:1009900000200B02034C1A19D3685B085B00D3607C
:1009A00010BD0000000C004010B5014600200B02F5
:1009B000034C1A19D3682415A3431B19D36010BD27
:1009C000000C004030B502460020002A04D0012A65
:1009D00056D0022A7ED1A9E0804BDB680324240391
:1009E000A3430C78240303252D032C4023437B4C85
:1009F000E3602346DB686415A3434C786402012559
:100A00006D022C402343754CE3602346DB68A4153C
:100A1000A3438C7824026D102C4023436F4CE36079
:100A20002346DB687024A343CC78240170252C4036
:100A300023436A4CE3602346DB680824A3430C7914
:100A4000E40008252C402343644CE3602346DB6824
:100A50000424A3434C79A40004252C4023435F4C79
:100A6000E3602346DB680224A3438C7964000225FB
:100A70002C402343594CE360594C8B682360ABE016
:100A8000584BDB6803242403A3430C782403032579
:100A90002D032C402343534CE3602346DB6864154D
:100AA000A3434C78640201256D022C4023434D4C36
:100AB000E3602346DB68A415A3438C7824026D1001
:100AC0002C402343474CE3602346DB687024A34358
:100AD000CC7800E07EE0240170252C402343414C7B
:100AE000E3602346DB680824A3430C79E40008256F
:100AF0002C4023433B4CE3602346DB680424A343A0
:100B00004C79A40004252C402343364CE360234653
:100B1000DB680224A3438C79640002252C40234324
:100B2000304CE360304CCB68236055E02F4BDB68E2
:100B300003242403A3430C78240303252D032C4012
:100B400023432A4CE3602346DB686415A3434C78B7
:100B5000640201256D022C402343244CE3602346AC
:100B6000DB68A415A3438C7824026D102C4023432A
:100B70001E4CE3602346DB687024A343CC78240139
:100B800070252C402343194CE3602346DB6808247E
:100B9000A3430C79E40008252C402343134CE36065
:100BA0002346DB680424A3434C79A40004252C408D
:100BB00023430E4CE3602346DB680224A3438C7975
:100BC000640002252C402343084CE360084C0B6969
:100BD000236001E0012000BF00BF30BD000C0040D9
:100BE000D4000020000D0040D8000020000E00407E
:100BF000DC00002070B50C4D0C480078AF21890056
:100C00000C1A21462846FFF7F6FA05460A2128461F
:100C1000FFF7F1FA064908700A24084600784443B1
:100C2000281B487070BD0000204B0C003D000020C8
:100C30004000002010B50A480478642044430A218B
:100C40002046FFF7D8FA074908600A2006490860DD
:100C5000084600680349096840180349086010BD48
:100C60002F0000208C0000208800002070B5124D5D
:100C7000124800684543124801682846FFF7BBFA4E
:100C80000446323464212046FFF7B5FAC0B20D495C
:100C9000086008460068AF218900884203D300201D
:100CA0000849086006E007480068AF218900081A73
:100CB0000449086070BD0000B63A010094000020AD
:100CC000640000205800002010B51B48007801285F
:100CD00031D11A48007864282DDA19480068401C80
:100CE00017490860084600684B21C90088420BD1AB
:100CF00000201349086001201249087002F008F929
:100D000000201149087016E00D4800680F49096875
:100D1000884210D101200C49087002F00AF90C48F1
:100D20000C4908600C4908600D21802001F036FB59
:100D300000200449087010BD280000202C0000206D
:100D4000B40000201D00002029000020B800002071
:100D500014050000A0000020A4000020F8B50746FC
:100D60003D460126002406E00121304601F00EFF39
:100D70007600601CC4B2AC42F6DB0A2D0ADA2C46BF
:100D800006E00021304601F001FF7600601CC4B28D
:100D90000A2CF6DBF8BD000010B5044625480078A3
:100DA000002800D010BD24480078012800D100247C
:100DB00022480078A04202D02048047000E0F1E709
:100DC000002C16D102F0B5F81D481E4908601E49D6
:100DD00008601E481E4908600D21802001F0DEFADF
:100DE00000201C4908701C49087001201B4908702C
:100DF0001EE019480078002804D101201649087027
:100E00001449087015480078012811D10A48007863
:100E100000280DD107480078002809D10F49087033
:100E20000F4908600D21802001F0B8FA02F070F837
:100E300000BFB7E71F000020450000202D00002064
:100E400014050000A0000020A400002010270000CE
:100E5000A80000201D0000202800002029000020FC
:100E6000B4000020F8B570480078002800D1F8BD23
:100E70006E480078002800D0F9E76D480078002817
:100E800000D0F4E76B480078002800D0EFE76A480C
:100E90000078002800D0EAE768480078002800D0F1
:100EA000E5E767480078002805D066480768664887
:100EB0000068009006E063480068471D62480068CB
:100EC0000F38009061480068B84256D901205C494B
:100ED00008705E4800685B490968451AC82D01D949
:100EE000282408E0642D01D9142404E0322D01D90E
:100EF0000A2400E00524564E53480068C82802D84A
:100F0000A000241801E00A20444336195148006823
:100F1000B0421CD34F480068001B4E490860084689
:100F200000684D490860084600684C49081A4C4959
:100F300008604C480078002874D10D21802001F011
:100F40002DFA01204749087001F0E2FF6AE001F044
:100F5000F0FF3F483F4908603F4908603F4840492B
:100F600008604048007800285CD000203D490870A7
:100F70000D21802001F012FA54E0344801680098F5
:100F800081424CD201202E4908702F4800682F4919
:100F90000968451AC82D01D9282408E0642D01D913
:100FA000142404E0322D01D90A2400E00524294844
:100FB000066825480068C82802D8A000241801E067
:100FC0000A20444336192848006886420BD8214835
:100FD0000660006820490860084600681F49081A32
:100FE0001F4908600DE0204800681A49086008465B
:100FF000006819490860084600681849081A184925
:1010000008601848007800280CD10D21802001F0DC
:10101000C5F901201349087001F07AFF02E00020B1
:101020000749087000BF22E72C0000201F000020A5
:101030002600002045000020290000202500002077
:1010400027000020880000208C0000206000002085
:1010500014050000A0000020A400002010270000BC
:10106000A80000201D000020B000002070B501F095
:1010700037F80025002400BF322000F06FFB28461F
:101080000A30C5B22046FFF769FE601CC4B20848AA
:1010900000788542F0DD064800780621484305497E
:1010A0000860FFF7C7FD04200349087070BD000009
:1010B0002C000020B80000203400002070B5044649
:1010C00059480078002803D158480078002800D0FB
:1010D00070BD57480078002832D0012C2FD102F083
:1010E000DBFB0121880201F051FD642000F036FB9A
:1010F0000021A00201F04AFD642000F02FFB012135
:10110000880201F043FD642000F028FB0021A002CA
:1011100001F03CFD642000F021FB0121880201F078
:1011200035FD642000F01AFB0021A00201F02EFD25
:10113000642000F013FB0121880201F04DFEC7E797
:101140003C480078002833D0012C11D13A4800687F
:101150003A49884208D23848006832303649086037
:101160003220FFF719FE16E034483349086012E0D8
:10117000022C10D1304800683149884208D32E48EB
:10118000006832382C4908603220FFF705FE02E083
:101190000020FFF701FE0A2127480068FFF72BF81F
:1011A0000546284601F0C4FD03202649087039E0B1
:1011B000012C09D124480078642814DA22480078E8
:1011C000401D214908700EE0022C0CD11E48007809
:1011D000052805DD1C480078401F1B49087002E007
:1011E000002019490870184800780621484317491B
:1011F0000860154805780A2631462846FEF7FBFFA9
:10120000C6B23046FFF7AAFD0F480078FFF7C4FDCD
:10121000002C07D000200E49086002F02BFA0320B2
:101220000849087000BF53E7300000201800002074
:101230002600002025000020A4000020342100000A
:1012400046050000340000202C000020B8000020DB
:10125000B400002010B50D21802001F087F800288F
:1012600007D10D21802001F099F8FF20F53000F022
:1012700075FA1D480078002818D01C4800781C49D1
:1012800008700121C02000F07BFF0021C02000F089
:1012900077FF052000F068FA0121C02001F07EF8F8
:1012A00000210120800201F097FD16E0114800782E
:1012B0000F4908700121C02000F062FF0021C0200A
:1012C00000F05EFF052000F04FFA0021C02001F081
:1012D00065F80121880201F07FFD0121880201F0FB
:1012E00055FCFFF787FC10BD2B0000203E000020BE
:1012F0003D0000203F00002010B5032000F0C8FA98
:101300000446012C03D100200649C87002E00120E8
:101310000449C87004480078012108430249087054
:1013200010BD0000E40000205C00002070B51648ED
:101330000078012800D170BD14480078002804D03E
:101340001348006801F0F4FC1BE012480078002804
:1013500001D1114908601048056814350A20454339
:101360000E4801682846FEF746FFC4B20A2C00DD8D
:101370000A240B480078002800D000242046FFF7FC
:10138000EDFC00BFD7E700001F0000202500002073
:10139000940000202C000020600000206400002049
:1013A0004500002000B50F480078002811D00E48F5
:1013B0000078002803D000200B49087002E00120CB
:1013C000094908700020074908708D2007490870F6
:1013D00005E001200349087000200449087002F06C
:1013E00049FA00BD3B0000202B0000203500002002
:1013F00010B50B480078012800D110BD09480078CD
:10140000002800D0F9E70021084600F0D3FE0028AC
:1014100004D105480078401C0349087000BFECE780
:101420001F000020260000204300002010B51948AE
:10143000006844081848006818490968884213D3AE
:1014400017480068A0420FD21648007800280BD138
:101450001548007800281CD101201349087001218B
:10146000C00201F0B9FC14E00F480078012810D147
:1014700000200D4908700D480078002809D100218E
:101480000120C00201F0A8FC00210120C00201F0EF
:101490007DFB10BD8C000020A0000020B0000020CB
:1014A00060000020290000201C00002045000020D2
:1014B00010B535480078002822D0344800783449E7
:1014C0000870FFF797FB02F0ADF800202E49087076
:1014D0003049087030480068304908600021012018
:1014E000C00201F079FC2E480078012807D10021C4
:1014F000800201F071FC0121880201F047FB10BD60
:1015000028480078002800D0F9E72748007800280C
:101510000ED101F025FD0121480201F037FB022028
:101520002249087020480078401C1F49087028E0B4
:101530001D480078022810D10021C00101F026FBCF
:101540000121802001F022FB022018490870164872
:101550000078401C1449087013E0134800780428F0
:101560000FD10021402001F011FB0121202001F0CA
:101570000DFB02200D4908700B480078401C0A49F9
:10158000087000BFBBE700002500002058000020C5
:101590003D00002055000020A4000020A0000020F5
:1015A0002B000020310000203000002034000020FB
:1015B0000B2004E00021034A1154411CC8B2122838
:1015C000F8DB7047E400002010B51E4800780028C2
:1015D00033D000F0A3F90121C80201F0D7FA64204A
:1015E00000F0BCF800210120C00201F0CFFA642015
:1015F00000F0B4F80121C80201F0C8FA642000F03C
:10160000ADF800210120C00201F0C0FA642000F012
:10161000A5F80121C80201F0B9FA642000F09EF893
:1016200000210120C00201F0B1FA642000F096F818
:101630000121C80201F0D0FB10BDFFF739FF00BF48
:10164000FAE700002600002010B512480078401C80
:1016500010490870104800681049098840180E4960
:1016600008600C480078502813DBFEF7ABFE02F050
:10167000C8F90B480078002806D1012008490870F5
:1016800005480068074908600020034908600149CF
:10169000087010BD3300002068000020C600002044
:1016A0001E0000207800002070B505462E4600245C
:1016B00007E0304600F0ECF826490855761C601C1F
:1016C000C4B20B2CF5DB23480078234949788842C3
:1016D00005D1204840782049C978884201D00120AE
:1016E00070BD1C488078012801DD0120F8E7194809
:1016F000C078012801DD0120F2E71648007964284E
:1017000001DD0120ECE713484079782801DD012054
:10171000E6E710488079782801DD0120E0E70D48F0
:10172000C079012801DD0120DAE70A48007A0128A2
:1017300001DD0120D4E70748407AFF2801D10120CC
:10174000CEE70448807AFF2801D10120C8E70020B5
:10175000C6E70000E40000209A00002010B504460F
:10176000204602F041FF10BD10B50446204602F0AD
:101770000DFF10BDFEB53FA00190002408E00198C8
:1017800000783E4908550198401C0190601CC4B285
:10179000042CF4DB312539484778781B3849087028
:1017A0003648C778781B3749087000200090FFF74B
:1017B0007BFF0646012E0FD18002FFF775FF002840
:1017C00002D00120009009E02F4A0B21002001F0F7
:1017D000A7FF0020009001E0002000902B4D002486
:1017E00009E0284600F054F821460B31264A5054AF
:1017F0006D1C601CC4B2072CF3DB2348C07A3C2864
:1018000017DC2148007B092813DC1F48407B09288E
:101810000FDC1D48807B09280BDC1B48C07B092896
:1018200007DC1948007C092803DC1748407C09289C
:1018300007DDFFF7BDFE144A0B320721134801F004
:101840006FFF02F0E9FC0098012810D10E49887062
:1018500002F042F80C4A0B21002001F061FF0A4A15
:101860000B210120800201F05BFF01F05FFE02F01E
:10187000F1FCFEBD56312E34000000009A0000201D
:101880009800002099000020E400002001020000E0
:1018900001460722120352181078704770B50446AB
:1018A0000E4615462046002805DBC206D20E012151
:1018B0009140184A116000BF3146204602F0EAFD0F
:1018C000012D0AD12046002805DBC206D20E0121D7
:1018D0009140114A116000BF1BE02046002816DB32
:1018E000C206D20E012191400B4A8032116000BF26
:1018F00000BF00BFBFF34F8F00BF00BF00BF00BFDE
:1019000000BF00BFBFF36F8F00BF00BF00BF00BFAD
:1019100000BF70BD80E200E000E100E010B501F022
:10192000BBFFFFF745FE044A0721044801F0F8FE1B
:1019300002F072FC10BD0000EF0000200102000068
:1019400010B5012000F0A6F8012804D100F010F82D
:10195000012000F04BF8002000F09CF8012805D190
:10196000002000F005F8002000F040F810BD000055
:1019700001460120002917D001292DD1184AD26A29
:10198000120C1204174BD218154BDA621A46D26A9F
:10199000120C1204144BD218114BDA621A46926AD6
:1019A00082439A62002019E00D4AD26A120C120496
:1019B0000C4BD2180A4BDA621A46D26A120C120485
:1019C000094BD218064BDA621A46926A02239A43EE
:1019D000034B9A62002001E0012000BF00BF704766
:1019E000000002405A5A0000A5A5000010B50146AB
:1019F0000120002902D0012942D120E0224AD26AE6
:101A0000120C1204214BD2181F4BDA621A46D26A0A
:101A1000120C12041E4BD2181B4BDA621B6A5B06B7
:101A20009B0F0224A3435B01602423401A46164BFC
:101A30001B6AA3431343144C2362002022E0124A82
:101A4000D26A120C1204114BD2180F4BDA621A46EA
:101A5000D26A120C12040E4BD2180B4BDA621B6ABC
:101A60005B069B0F5B085B005B01602423401A460A
:101A7000054B1B6AA3431343034C2362002001E080
:101A8000012000BF00BF10BD000002405A5A0000F4
:101A9000A5A5000001460020002906D0012909D192
:101AA000064A526AD007C00F06E0044A526A9207FB
:101AB000D00F01E0002000BF00BF704700000240CF
:101AC00070B50346002001290BD0022909D0042952
:101AD00007D0062905D0082903D00C2901D00420FD
:101AE00070BD9F4CE46A240C24049E4D64199C4DE7
:101AF000EC622C46E46A240C24049B4D6419984D36
:101B0000EC622C46246A6D15AC4355020126760220
:101B100035402C43924D2C622C46E46A240C24045C
:101B2000904D64198E4DEC622C46E46A240C24041A
:101B30008D4D64198A4DEC622C462468640A640257
:101B40000D07ED0D2C43864D2C602C46E46A240CC9
:101B50002404844D6419824DEC622C46E46A240C02
:101B60002404814D64197E4DEC622C466468240A7D
:101B7000240217254D43EDB22C43794D6C602C4661
:101B8000E46A240C2404774D6419754DEC622C46EC
:101B9000E46A240C2404744D6419714DEC622C46E3
:101BA000A468640A64021B254D43ED05ED0D2C432A
:101BB0006B4DAC602C46E46A240C2404694D641916
:101BC000674DEC622C46E46A240C2404664D6419CB
:101BD000634DEC622C46E468A40CA404634D4D43B1
:101BE000AD03AD0B2C435E4DEC602C46E46A240C37
:101BF00024045C4D64195A4DEC622C46E46A240CB2
:101C00002404594D6419564DEC622C462469640D28
:101C10006405574D4D43ED02ED0A2C43504D2C61A8
:101C20002C46E46A240C24044E4D64194C4DEC629D
:101C30002C46E46A240C24044B4D6419484DEC6294
:101C40002C466469240B240318254D432D052D0DC6
:101C50002C43434D6C612C46E46A240C2404414D12
:101C600064193F4DEC622C46E46A240C24043E4D7A
:101C700064193B4DEC622C46A469240B2403F02527
:101C80004D432D052D0D2C43354DAC612C46E46A9A
:101C9000240C2404334D6419314DEC622C46E46A63
:101CA000240C2404304D64192D4DEC622C46E4695B
:101CB000640B64037D25ED004D43ED04ED0C2C43D6
:101CC000274DEC61082917D12C46E46A240C240422
:101CD000244D6419224DEC622C46E46A240C240441
:101CE000214D64191E4DEC622C46246A0C25AC4330
:101CF000241D1B4D2C622FE00C2917D1184CE46ACF
:101D0000240C2404174D6419154DEC622C46E46A2A
:101D1000240C2404144D6419114DEC622C46246AE1
:101D20000C25AC43241D0E4D2C6215E00C4CE46ACE
:101D3000240C24040B4D6419094DEC622C46E46A12
:101D4000240C2404084D6419054DEC622C46246AC9
:101D50000C25AC43024D2C62064C236000BFBFE64D
:101D6000000002405A5A0000A5A50000504600009D
:101D7000E0220200D0000020014600202A4A9142C1
:101D800001D904207047294AD26A120C1204284B48
:101D9000D218264BDA621A46D26A120C1204254B6C
:101DA000D218224BDA621A46126B0022D2431A630F
:101DB00000BF1E4A126AD206D20F002AF9D11B4A6E
:101DC000D26A120C12041A4BD218184BDA621A4655
:101DD000D26A120C1204174BD218144BDA621A464C
:101DE000126A92089200921C1A6200220A7000BFC6
:101DF0000E4A126AD206D20F002AF9D10B4AD26AD1
:101E0000120C12040A4BD218084BDA621A46D26A34
:101E1000120C1204074BD218044BDA621A46126BEA
:101E200000221A6300BFADE7FFFF00000000024080
:101E30005A5A0000A5A5000001460020194A126A5E
:101E4000520052080123DB07D218164B1A62164AB9
:101E5000D26A120C1204154BD218134BDA621A46CE
:101E6000D26A120C1204124BD2180F4BDA620029FC
:101E700006D11A46126A0C239A430B4B1A6210E0E1
:101E8000012907D1084A126A0C239A43121D064BF6
:101E90001A6206E0044A126A0C239A430832024B83
:101EA0001A62704700200040000002405A5A0000A9
:101EB000A5A5000010B5024600202A4B9A4201D980
:101EC000042010BD284BDB6A1B0C1B04274C1B197C
:101ED000254CE3622346DB6A1B0C1B04244C1B19B4
:101EE000214CE36223461B6B0023DB43236300BFCB
:101EF0001D4B1B6ADB06DB0F002BF9D11A4BDB6A8B
:101F00001B0C1B04194C1B19174CE3622346DB6A9C
:101F10001B0C1B04164C1B19134CE36223461B6A53
:101F20009B089B005B1C2362117000BF0E4B1B6A59
:101F3000DB06DB0F002BF9D10B4BDB6A1B0C1B0400
:101F40000A4C1B19084CE3622346DB6A1B0C1B047A
:101F5000074C1B19044CE36223461B6B00232363CD
:101F600000BFAEE7FFFF0000000002405A5A000029
:101F7000A5A5000070B54B480078002817D00020B8
:101F80004949087049484A490860002049490860A1
:101F90004949086001204949087000204849086003
:101FA00048490860484908604849087070BD484879
:101FB0000078002874D0502142480068FEF71BF9D1
:101FC00004463C480068844201D93A4804603848D5
:101FD0000068844201D2364804603748006800191E
:101FE0003549086030480078401C2F490870084681
:101FF000007864284FD1002008702F4800682D49D0
:102000000968401A2C490860084600682849096890
:10201000401A29490860622127480068FEF7EBF85A
:1020200004460120C002844204D32A48201A2A49C7
:1020300008600FE027481238844205D80120C0020A
:10204000001B2549086005E00120C002001B400874
:1020500021490860214804781F48006844431F480C
:1020600045781D48006845430A212846FEF7C3F815
:102070000546641964212046FEF7BDF81049086042
:102080000A480B49086000200A4908600A490860AC
:1020900001200A49087000200A4908600C490870AC
:1020A00000BF83E7290000203C000020FFFF000064
:1020B000800000207C0000209000002021000020F3
:1020C000600000207800002068000020330000201D
:1020D0001E000020F30700009400002040000020B4
:1020E00016480078002803D11548007800280DD044
:1020F00014480078800014490858144908601448AE
:1021000010490978405C134908700CE00D480078CC
:102110008000114908580D4908601048094909789C
:10212000405C0C4908700A200D49086008460068A8
:102130000849097848430A4908607047310000207F
:10214000180000202A0000200C000020B000002011
:10215000160000202F0000200400002014000020A2
:1021600064000020024605481018006901238B40D6
:102170009843024BD318186100207047000E0240AC
:10218000024605481018406901238B401843024B52
:10219000D318586100207047000D024070B5044606
:1021A0000D461646012332462946204602F0EEF837
:1021B000002070BD0246034810184068C840C007A0
:1021C000C00F7047000D0240024603481018006817
:1021D000C840C007C00F7047000E024070B50546EA
:1021E000002D20D10C21FFF7EFFF01281BD10C217E
:1021F0000020FFF7B7FF0D21802000F0CFF80A483C
:10220000007800280BD10948006809494418A0B299
:1022100001F040FFA0B201F02FFF01F049FF01F0F3
:10222000EBFBFEF7C5F870BD29000020A4000020DC
:10223000EFD8000030B503460020494C1C198D0032
:1022400060511078012809D1464818180068012407
:102250008C402043434C1C19206008E0414818186A
:10226000006801248C40A0433E4C1C19206050782B
:10227000002809D13B481818C06901248C40A043AC
:10228000384C1C19E06108E036481818C069012470
:102290008C402043334C1C19E0619078012812D106
:1022A00030481818006A01248C4020432D4C1C191A
:1022B00020622C481818446A012088408443294829
:1022C0001818446227E09078022812D1254818187F
:1022D000006A01248C40A043224C1C192062214832
:1022E0001818406A01248C4020431E4C1C1960625F
:1022F00011E01C481818006A01248C40A043194CB6
:102300001C19206217481818406A01248C40A04309
:10231000144C1C196062D078002809D11148181893
:10232000C46A0120884084430E481818C46208E03B
:102330000C481818C06A01248C402043094C1C1911
:10234000E062094880680124E403A0431479E403AF
:102350000125ED032C402043034CA060002030BD3C
:10236000000C0240000D0240000F024002460348EC
:1023700010188068C840C007C00F7047000D0240A9
:10238000024605481018C06801238B401843024BD1
:10239000D318D86000207047000D0240024605485F
:1023A0001018006901238B401843024BD3181861A1
:1023B00000207047000D024008B50020009000BFCB
:1023C00000980028FCD008BD10B50020FFF706FFDC
:1023D00010BD10B50120FFF701FF10BD10B50220A0
:1023E000FFF7FCFE10BD10B50320FFF7F7FE10BD90
:1023F00010B50020C046C04610BD10B5002001F049
:1024000029FE10BD10B50020C046C04610BD10B555
:102410000120C046C04610BD10B50020C046C046D1
:1024200010BD10B50120C046C04610BD10B500203B
:10243000C046C04610BD10B50120C046C04610BD04
:1024400010B50020C046C04610BD10B50120C046E2
:10245000C04610BD10B5002001F0B4FE10BD10B58F
:10246000012001F0AFFE10BD10B5022001F0AAFE60
:1024700010BD10B50020C046C04610BD10B50420E8
:10248000C046C04610BD10B50520C046C04610BDB0
:1024900010B50620C046C04610BD10B50020C0468D
:1024A000C04610BD10B50020C046C04610BD10B5D6
:1024B0000020C046C04610BD10B50020FEF73EF813
:1024C00010BD10B50020C046C04610BD10B500209C
:1024D000C046C04610BD10B50120C046C04610BD64
:1024E00010B50020C046C04610BD10B50020C04643
:1024F000C04610BD10B50020C046C04610BD10B586
:102500000020C046C04610BD00B58DB005210BA807
:1025100001F0FEFF062109A801F0FAFF182103A827
:1025200001F0F6FF0621274801F0F2FF052101A87E
:1025300001F0EEFF0C214020FFF722FF0121684649
:10254000017101AA0C214020FFF774FE0121102027
:1025500001F02AFCFDF7CEFF1B4800684008400050
:10256000401C194908600846006802218843164942
:102570000860012001F0DCFF002108A8017341730D
:10258000022181730321C173002101740BA8FEF79E
:102590004FF80BA8FDF798FF1320FDF783FF0122EA
:1025A00011461820FFF77AF9FDF7AEFF012108A8C0
:1025B00041720648089003A909A8FDF739FF0DB03C
:1025C00000BD0000C90000200024004015040000E8
:1025D0001CB50521684601F09BFF01211C2001F07C
:1025E000E3FB012168460170417081700021C170D8
:1025F000012101716A4604210020FFF71BFE6A4693
:1026000005210020FFF716FE6A4600210846FFF765
:1026100011FE6A460C210020FFF70CFE0C21002061
:10262000FFF7A0FD08220C210020FFF7B7FD0021D5
:1026300068460170417081700D218020FFF7AEFE69
:102640006A460D218020FFF7F5FD0021C020FFF72D
:1026500097FD6A460021C020FFF7ECFD0121C02054
:10266000FFF78EFD6A460121C020FFF7E3FD002140
:102670006846817008210020FFF782FD0821402074
:10268000FFF77EFD07214020FFF77AFD092100209A
:10269000FFF776FD09214020FFF772FD0B21402056
:1026A000FFF76EFD0A214020FFF76AFD022140205E
:1026B000FFF766FD01214020FFF762FD0021402069
:1026C000FFF75EFD07210020FFF75AFD06210020DD
:1026D000FFF756FD6A4608210020FFF7ABFD6A466A
:1026E00008214020FFF7A6FD6A4607214020FFF79A
:1026F000A1FD6A4609210020FFF79CFD6A460921D9
:102700004020FFF797FD6A460B214020FFF792FD1E
:102710006A460A214020FFF78DFD6A4602214020CB
:10272000FFF788FD6A4601214020FFF783FD6A46D6
:1027300000214020FFF77EFD6A4607210020FFF7B9
:1027400079FD6A4606210020FFF774FD1CBD08B51F
:102750000020FFF771FB002001F044FB00216846D8
:1027600001704170817001F051F908BD30B58DB034
:102770000C21684601F0CCFE142108A801F0C8FE27
:10278000142103A801F0C4FE0121082001F00CFB74
:10279000002108A8017041710221C17001218171DD
:1027A000002101718170417036480A9008A900200B
:1027B000FEF708F9344C21460020FEF779F825464B
:1027C00029460020FEF7A4F800210846FEF754F839
:1027D0000020FEF7E9F8012203210E20FFF75EF842
:1027E0000020FEF7C5F800216846017341740221FC
:1027F000C1730121817400210174817341732348E5
:10280000069003A90120FEF7DDF8214C21460120A6
:10281000FEF74EF8254629460120FEF779F80021FB
:102820000120FEF729F80120FEF7BEF8012203215E
:102830000F20FFF733F801210B2001F0B5FA00213A
:102840006846017041710221C1700121817100212E
:102850000171817041700F480290684601F056FC8A
:102860000D4800880021C943081A84B2204601F0AF
:1028700011FC204601F000FC002001F0D5FB0DB05A
:1028800030BD0000993F000018FC0000B93F000077
:1028900083FF0000D53F0000AC00002010B53E498A
:1028A0000978002976D100F0C9F83C4909788842B6
:1028B0005ED13B490978002969D138490978002956
:1028C00052D038490978354A1278914237D1364981
:1028D000097800295BD035490978002910D034499E
:1028E0000978491C324A11701146097814294ED1D1
:1028F000002111702D4A11700121294A117046E002
:1029000001212C4A11702A490978491C284A117062
:1029100029490978002903D111460978062907D0E9
:1029200025490978002932D02149097803292ED177
:1029300000211F4A11700121194A117027E017491F
:102940000978184A11700121154A11700021194A9D
:1029500011700121154A1170134A11700021144A97
:102960001170154A117012E000210E4A11700EE02C
:102970000A49087000210F4A117001210B4A117099
:102980000021094A11700A4A11700B4A1170142172
:10299000014A117010BD0000C1000020C3000020DA
:1029A000BC000020C4000020BF000020BE000020AA
:1029B000C2000020BD000020C000002004480078B4
:1029C000002804D002480078401E01490870704772
:1029D000C100002010B5FFF761FF154800780028FE
:1029E00024D014480078012804D0022806D00328F7
:1029F00013D107E00120FEF761FB0FE00220FEF794
:102A00005DFB0BE00C480078002803D000200A4949
:102A1000087003E0FEF7D8FD00E000BF00BF0548E6
:102A2000007800F073FF00200149087010BD00001D
:102A3000BC000020C4000020BD00002070B50024B0
:102A400000F098FC0546012D04D0022D05D0032D81
:102A500009D105E00120044305E00220044302E01F
:102A60000320044300BF00BF204670BD14200B4963
:102A7000087000200A4908700A4908700A4908705D
:102A80000A49087001200A490870002009490870A5
:102A9000094908700949087070470000C10000200A
:102AA000C3000020C4000020BC000020BD000020A6
:102AB000BE000020BF000020C2000020C000002097
:102AC00010B50446002C30D008210020FFF766FC2A
:102AD00008214020FFF762FC07214020FFF75EFC41
:102AE00009210020FFF75AFC09214020FFF756FC7E
:102AF0000B214020FFF752FC0A214020FFF74EFC3B
:102B000002214020FFF74AFC01214020FFF746FC4C
:102B100000214020FFF742FC07210020FFF73EFC88
:102B200006210020FFF73AFC2FE008210020FFF7E4
:102B300027FB08214020FFF723FB07214020FFF758
:102B40001FFB09210020FFF71BFB09214020FFF795
:102B500017FB0B214020FFF713FB0A214020FFF752
:102B60000FFB02214020FFF70BFB01214020FFF764
:102B700007FB00214020FFF703FB07210020FFF7A0
:102B8000FFFA06210020FFF7FBFA10BD70B50446DE
:102B90000D46012D65D1402C3AD00EDC082C46D0D4
:102BA00006DC012C52D0022C4BD0042C58D143E02F
:102BB000102C37D0202C53D12FE001214902601A6C
:102BC0008C4216D006DC802C1DD0E01FF93800287E
:102BD00046D113E0FF38FF380238002804D0012125
:102BE0008902401A3CD136E008210020FFF7D6FBCD
:102BF00036E008214020FFF7D1FB31E007214020DB
:102C0000FFF7CCFB2CE009210020FFF7C7FB27E0F2
:102C100009214020FFF7C2FB22E00B214020FFF7F3
:102C2000BDFB1DE00A214020FFF7B8FB18E00221A0
:102C30004020FFF7B3FB13E001214020FFF7AEFB7C
:102C40000EE000214020FFF7A9FB09E0072100204A
:102C5000FFF7A4FB04E006210020FFF79FFB00BF65
:102C600065E0402C3AD00EDC082C46D006DC012C66
:102C700052D0022C4BD0042C58D143E0102C37D02A
:102C8000202C53D12FE001214902601A8C4216D02A
:102C900006DC802C1DD0E01FF938002846D113E057
:102CA000FF38FF380238002804D001218902401A79
:102CB0003CD136E008210020FFF762FA36E0082117
:102CC0004020FFF75DFA31E007214020FFF758FA76
:102CD0002CE009210020FFF753FA27E009214020CA
:102CE000FFF74EFA22E00B214020FFF749FA1DE0E2
:102CF0000A214020FFF744FA18E002214020FFF7A4
:102D00003FFA13E001214020FFF73AFA0EE00021DC
:102D10004020FFF735FA09E007210020FFF730FADD
:102D200004E006210020FFF72BFA00BF00BF70BDB2
:102D3000F8B5044601260127002510E02046304062
:102D4000002804D001213846FFF720FF03E00021CE
:102D50003846FFF71BFF76007F00681CC5B20A2DBE
:102D6000ECDBF8BD70B5012418480068002800D1DC
:102D700070BD17480078002826D0002514E01348BD
:102D80000068204000280CD012480078002804D0A9
:102D900000212046FFF7FAFE03E001212046FFF75D
:102DA000F5FE6400681CC5B20C2DE8DB094800780C
:102DB000002803D000200749087002E001200549DF
:102DC000087000200249087000BFD1E7740000209D
:102DD0001A0000202000002070B504460D46002D8A
:102DE00005D00848006820430649086008E0054807
:102DF0000068A0430349086000212046FFF7C6FE93
:102E000070BD00007400002010B5FFF7A0FCFFF7B4
:102E1000DFFBFFF7ABFCFFF777FB0A2001F0B6FB07
:102E200010BD000010B513480078401C114908700F
:102E30000846007864281CDB002008700E480078E3
:102E4000401C0D49087008460078052803D1012070
:102E50000A4908700DE0084800780A2809DB0020BC
:102E60000549087001200649087004490870FDF7FB
:102E70002BFF10BD390000203A0000201B0000206D
:102E80001900002010B50020FDF768FF0848007801
:102E9000002804D101218020FFF778FE07E00121FE
:102EA0000220FFF773FE01210820FFF76FFE10BD1F
:102EB0002A00002010B50446012C0DD112480078DC
:102EC000012805DA10480078401C0F49087012E00C
:102ED00000200D4908700EE0022C0CD10A48007841
:102EE000002805DD08480078401E0749087002E008
:102EF0000120054908700B2004490870FFF7C2FF44
:102F000000F0A2FC10BD00002A00002034000020C8
:102F100010B5002001F088F801F0ECF80122002142
:102F20000520FEF7BBFC012203210020FEF7B6FCC2
:102F300010BD10B5002001F077F801F0CFF80022A5
:102F400011460520FEF7AAFC01F0BEF80C21002076
:102F5000FFF708F9002203211046FEF79FFC10BD81
:102F600010B5002002490860FFF7AAFD10BD00005F
:102F70007400002010B5FFF779FD00200B490870A0
:102F80000B490870C820FEF7E9FBFEF7F3FB0020B1
:102F9000FFF796FD00F00EF8FEF704FAFEF75AF977
:102FA000C820FEF7DBFBFEF761F810BD3A000020F9
:102FB0003900002070B50026FFF740FD0646032EBD
:102FC0000AD101204349087001210F208002FFF738
:102FD00003FFFFF757FF34E0012E2FD103203D49B7
:102FE00008700525002407E03B48405D3B49085533
:102FF000681EC5B2601CC4B2062CF5DB0020FFF7CA
:103000005FFD00F093FA00BFFFF718FD0028FBD129
:1030100000240DE00020FFF753FD6420FEF79EFB27
:103020000120FFF74DFD6420FEF798FB601CC4B241
:10303000032CEFDB00202A49087002E0002025491C
:10304000087024480078002802D12649087002E060
:103050000B202449087035E022480078002800D170
:1030600031E0FFF71BFC20480078002813D01948F6
:103070000078012804D11D480078FFF71BFF07E006
:1030800014480078032803D11848007800F0E8F9C4
:1030900000201549087016480078002810D000203C
:1030A000134908700F480078002804DD0D480078A7
:1030B000401E0C49087001200E49087000F06EF99E
:1030C000FFF750FEC8E700BFFFF74AFF00200149A5
:1030D000087070BD36000020490000204F0000201D
:1030E0004700002034000020BC000020C400002065
:1030F000190000201A00002010B5FEF779F9824867
:10310000007800287ED000207F4908707F48007832
:10311000002804DD7D480078401E7C4908707C480A
:103120000078002804DD7A480078401E784908704D
:103130000120784908707848007800280ADD764830
:103140000078401E7449087008460078002801D1B4
:103150007249087072480078002801D0FDF786FD9A
:1031600001F0B2F8694800786F2805D100206D4958
:10317000087000F07FFB2FE064480078152809D123
:103180000020FDF7EBFD0020FDF706FE012066495B
:10319000087021E05D4800780C2807D100F0E0F8C5
:1031A000FEF758F800206049087015E0574800788D
:1031B000012811DB554800780B280DDC53480078B6
:1031C0000B2809D15948007806214843584908601E
:1031D00056480078FDF7E0FD56480068401C554908
:1031E000086008460068FF212D31884246D15248C8
:1031F0000078401C50490870084600784F4909780B
:10320000884200E069E010DB00204B490870FEF7BF
:1032100073F80020FDF7A2FD0020FDF7BDFD0120A1
:103220004149087047203949087000204149086029
:1032300000F032FA42480078401D414908700846C3
:1032400000783C2818DB0020087005220EE03D487D
:10325000805C401C3B4988540846805C0A2802D1A7
:103260000020885400E003E0501EC2B2002AEEDCC9
:1032700000BF00F035FA00BF00F020FA32480078B5
:10328000002814D031480068401C304908600846C6
:103290000068E121C901884209D300202A49087049
:1032A000FEF71EFFFDF7C6FC0020FDF707FFFDF748
:1032B0001BFA2748007800280DD123480078002801
:1032C00009D124480078002805D111480078002849
:1032D00001D1FEF72BF800F06DFA1D4800780028A8
:1032E0000FD1FEF747FEFEF7A1F81B480078002833
:1032F00007D0002019490870FDF7B4FD00201649D9
:103300000870FFF72FFD10BD1900002035000020C8
:10331000340000201A000020560000205500002034
:10332000250000203B0000201F0000202C00002072
:10333000B80000206C00002038000020370000207A
:1033400048000020490000201800002070000020E4
:103350003000002026000020210000201B0000205B
:1033600000B50320FEF794FA0149087000BD000083
:103370002B00002010B5002405210020FEF71AFFC5
:10338000002801D10120044304210020FEF712FF90
:10339000002801D102200443204610BD70B52B48FF
:1033A0000078032800D070BD29480078002826D076
:1033B00028480078012821D1FFF782FB6420FEF71E
:1033C000CDF90020FFF77CFB6420FEF7C7F9012050
:1033D000FFF776FB6420FEF7C1F90020FFF770FBD2
:1033E0006420FEF7BBF90120FFF76AFB6420FEF7BB
:1033F000B5F900201749087015490870D3E715483A
:103400000078062803D10020FFF75AFBCBE71148CC
:103410000078052818D1104810490978465C002E1C
:1034200003D10120FFF74CFB0EE00020FFF748FB23
:103430000125002406E001212846FFF7A7FB6D00C7
:10344000601CC4B2B442F6DB00BFACE7360000201B
:1034500024000020340000204F00002047000020FE
:1034600070B50446012C16D129480078052808DAE1
:1034700027480078401C2649087007202549087015
:1034800045E00120244908700320224908700020EB
:10349000FFF716FB3BE0022C1ED101201F490870EC
:1034A0001F481B490978405C002809DD1C48184961
:1034B0000978405C401E1A49154A1278885404E085
:1034C00009201749124A12788854062011490870B9
:1034D0000120144908701AE0032C18D10F48007815
:1034E000002814D000200D4908700526002507E0AB
:1034F0000B48405D0C498855701EC6B2681CC5B2A9
:10350000062DF5DB00F0ECF800200249087070BDD4
:103510004700002034000020240000202300002069
:103520004F000020190000204900002070B53B48E2
:1035300000783B49097888423CD00125374801781A
:1035400028468840054601212846FFF71FFB012435
:103550003348017820468840044601212046FFF781
:1035600015FBFF202D30FEF7F9F800212046FFF76C
:103570000DFBFF202D30FEF7F1F801212046FFF76B
:1035800005FBFF202D30FEF7E9F800212046FFF76C
:10359000FDFAFF202D30FEF7E1F801212046FFF76C
:1035A000F5FAFF202D30FEF7D9F8FF202D30FEF779
:1035B000D5F831E0012419480178204688400446B6
:1035C00001212046FFF7E2FAFF202D30FEF7C6F872
:1035D00000212046FFF7DAFAFF202D30FEF7BEF873
:1035E00001212046FFF7D2FAFF202D30FEF7B6F872
:1035F00000212046FFF7CAFAFF202D30FEF7AEF873
:1036000001212046FFF7C2FAFF202D30FEF7A6F871
:10361000FF202D30FEF7A2F870BD000098000020BA
:10362000990000200D480078012808D10C48007846
:103630000C490870084600780B49487207E00848B2
:1036400000780A49087008460078074988720848D7
:103650000078012108430649087070472B000020BC
:10366000580000203E000020E40000203F00002021
:103670005C0000200548007805490871054800787D
:103680000121084303490870704700002C00002006
:10369000E40000205C00002005480078054988719E
:1036A000054800780121084303490870704700006D
:1036B00038000020E40000205C000020054800786D
:1036C0000549C8720548007802210843034908707B
:1036D0007047000048000020E40000205C0000204B
:1036E0000C4800780C4908730A4840784873094828
:1036F000807888730748C078C873064800790874D2
:103700000448407948740548007802210843034979
:103710000870704749000020E40000205C00002091
:10372000F7B582B016460025012001900027FCF76E
:1037300060FE0724240302982418012211461C4825
:10374000FEF7BEF92046FEF717FB00BF28E000BFDA
:10375000715D2046FEF7AEFB0190019800280CD168
:103760002078715D884203D100200190641C08E03C
:1037700001200190781CC7B203E001200190781C61
:10378000C7B2032F07DB002706210020FEF706FE45
:10379000641C0020019001980128D9D0681CC5B292
:1037A00003988542D3DBFCF711FE05B0F0BD0000A5
:1037B0004119000010B521480078002800D110BD43
:1037C0001E480078C007C00F002810D01C4A0B21EB
:1037D0000020FFF7A5FF194800784008400017496E
:1037E00008700846007804210843144908701348FB
:1037F00000780221084000280BD0114A0B32072123
:103800001048FFF78DFF0D480078022188430B49CF
:1038100008700A4800780421084000280BD0084AA4
:103820000B2101208002FFF77BFF04480078042170
:1038300088430249087000BFC1E700005C00002017
:10384000E40000200102000010B508480078084993
:1038500088700A460B210020FFF762FF044A0B2103
:1038600001208002FFF75CFF10BD00002A0000204D
:10387000E4000020054800780549087205480078F2
:103880000121084303490870704700003B000020F5
:10389000E40000205C00002010B500F01DF80A4A8A
:1038A0000B210020FFF73CFF074A0B21012080027B
:1038B000FFF736FF00F0CEFC0020044908700449F1
:1038C00008700449087010BDE4000020300000209A
:1038D00018000020310000200A4840780A4908708A
:1038E0000848C07848700120C870642008715A20C8
:1038F000487100208871C8710872C82048728872A7
:10390000704700009A000020E400002010B5044633
:10391000012C1AD12E48007800280AD12D480078B1
:10392000002806D12C480078002802D103202B491A
:103930000870294800780121084327490870084683
:1039400000784006000E087007E0022C05D12248DE
:1039500000784006000E204908701F48007836287D
:1039600018D11F480078002830D11E480078002860
:103970002CD10120164908700020174908701A49F7
:103980000870642019490870012103208002FFF7A4
:1039900023FA1BE0104800782C2817D101200D498C
:1039A000087000200F4908700D4908700849087018
:1039B00009490870FFF784F80020FDF7EDF90020B1
:1039C0000B49087001210B48FFF706FA10BD0000F3
:1039D0002500002026000020550000205600002071
:1039E0001800002031000020350000202C000020AD
:1039F0001D0000200102000010B50120FCF7B8FFF7
:103A000010BD10B50120FCF7C1FF10BD70B5044614
:103A100000252078030000F02FFD0504050C101888
:103A20001C0018E0032000F073FA032000F03AFABB
:103A300011E0032000F024FA0DE00321084600F015
:103A400075FA032000F03EFA05E0072000F09AF92D
:103A500001E0042500BF00BF2078012100F00CF830
:103A6000207800F03FFA607800F060F9A07800F06C
:103A700073F9284670BD000070B505460C46002657
:103A800000F0EEFC002C01D0012000E000200446F4
:103A90002B0000F0F1FC050417394D7488004448F0
:103AA000006840084000E107C90F0843404908602A
:103AB00000BF002C05D03E48C0680005C00F00289C
:103AC000F7D072E03B48C06840084000401C3949CC
:103AD000C8600846C06802218843801C3549C86018
:103AE00033480068022188436100022211400843E4
:103AF0002F49086000BF002C05D02D480069400602
:103B0000C00F0028F7D050E02948006804218843FE
:103B1000A1000422114008432549086000BF002C81
:103B200005D023484069C004C00F0028F7D03CE00E
:103B300020484038C06801218903884340181D4946
:103B40004039C8600846C0680121C903884340184D
:103B500018494039C8601648006808218843E100C8
:103B60000822114008431249086000BF002C05D00C
:103B70000F4880694006C00F0028F7D015E00C48B8
:103B80000068102188432101102211400843084990
:103B9000086000BF002C05D00548C06B4003C00F73
:103BA0000028F7D001E0042600BF00BF304670BDFA
:103BB00000200040C00D024030B589B0002414221E
:103BC000564904A8FCF7CEFA544814300068039014
:103BD00000200090019002905148018868460181C0
:103BE0004F4841886846C1804D4881886846818039
:103BF0004B48C18868464180494820300188684662
:103C00000180484800680006450F2B0000F034FC96
:103C100005042E303E4178004248C0684005400D02
:103C200069460989884201D1089C1EE03D48C06868
:103C30004005400D6946C988884201D1079C14E0BF
:103C40003848C0684005400D69468988884201D1DE
:103C5000069C0AE03348C0684005400D6946498823
:103C6000884201D1059C00E0049C4BE02E4C49E0C9
:103C7000684600882B4949698905890D884202D127
:103C80006846C48901E0684684893BE00124E40376
:103C900038E02448C06B8007800F032829D168468C
:103CA00000892049C9684905490D884201D1089C0D
:103CB00020E06846C0881B49C9684905490D88420B
:103CC00001D1079C16E0684680881649C9684905F5
:103CD000490D884201D1069C0CE068464088114994
:103CE000C9684905490D884201D1059C02E0049C40
:103CF00000E00D4C0B48C06BC005000F444301E0D1
:103D0000002400BF00BF074800684005410F20465F
:103D1000C8400446204609B030BD000054460000AB
:103D2000000C1000002000400048E80170B5044677
:103D3000002500F095FB0748006807210902884329
:103D40002102072212021140084302490860284656
:103D500070BD00000020004070B50446002500F052
:103D60007FFB074800680321C9028843E102032260
:103D7000D2021140084302490860284670BD000085
:103D80000020004010B501460020064AD26B0723F0
:103D9000DB039A43CB030724E40323401A43014B7C
:103DA000DA6310BD0020004010B502460020002953
:103DB00001D0012300E000231946002907D0084B59
:103DC0001B6A012494402343054C236206E0044B04
:103DD0001B6A01249440A343014C236210BD0000E0
:103DE0000020004010B5014600200B0000F044FB0D
:103DF0000504101C283440001F4B1B895A05520D26
:103E00001E4BDB68DB0ADB0213431C4CE36031E032
:103E1000194BDB885A05520D184BDB68DB0ADB02B5
:103E20001343164CE36025E0134B9B885A05520D53
:103E3000124BDB68DB0ADB021343104CE36019E032
:103E40000D4B5B885A05520D0C4BDB68DB0ADB021D
:103E500013430A4CE3600DE0074B1B885A05520DD3
:103E6000064BDB68DB0ADB021343044CE36001E032
:103E7000042000BF00BF10BD000C10000020004057
:103E800010B501460020064A526903239B029A435B
:103E90008B020324A40223401A43014B5A6110BD34
:103EA0000020004010B501460020054A1269302369
:103EB0009A430B01302423401A43014B1A6110BD71
:103EC0000020004010B501460020054A92693023C9
:103ED0009A430B01302423401A43014B9A6110BDD1
:103EE0000020004070B504460025264600F0B8FAD0
:103EF00006480068E02188437101E0221140084330
:103F00000249086000F02CF8284670BD00200040EF
:103F100001460020044A1269920892008B079B0F09
:103F20001A43014B1A6170470020004030B5024629
:103F300000200A4B9B690C24A34394000C252C40C1
:103F40002343064CA36123469B699B089B008C0777
:103F5000A40F2343014CA36130BD000000200040AA
:103F600010B5FFF729FE0149086010BD00000020D0
:103F700010B5074909894805400D0649C968C90AAD
:103F8000C9020143034AD160FFF7EAFF10BD0000F8
:103F9000000C10000020004010B500210846FCF77E
:103FA00079FC012807D1FEF709FDFEF73BFF002150
:103FB0000846FCF761FC10BD10B500210120FCF79C
:103FC00069FC012805D1FCF7F3F900210120FCF779
:103FD00053FC10BD10B5002000F030F801281DD1B1
:103FE0000D218020FEF7C2F901280AD10D21802081
:103FF000FEF7C6F80A4800F04DF8094800F03CF812
:1040000009E00D218020FEF7C9F9064800F042F8CA
:10401000044800F031F8002000F006F810BD000060
:104020000CFE0000F0D800000146002001228A406A
:10403000D243014B5A6170470058004001460020AE
:10404000034B1A691346CB40D807C00F70470000D6
:104050000058004010B50446002C07D10548006800
:10406000002802D003480068804700E000BF00BF7E
:1040700010BD0000E000002001460020044A126844
:10408000120C12048BB21A43014B1A6070470000E5
:104090000058004001460020044A5268120C1204E5
:1040A0008BB21A43014B5A60704700000058004021
:1040B00000200449C96849084900491C014AD160E7
:1040C000704700000058004000200349C9684908B3
:1040D0004900014AD160704700580040002004495F
:1040E000C968012292029143014AD16070470000E1
:1040F0000058004000200449C968012292029143FF
:104100008918014AD16070470058004010B5014637
:1041100000202A4AD26803231B039A430B781B030F
:104120000324240323401A43244BDA601A46D2683E
:104130005B159A434B785B020124640223401A43C7
:104140001E4BDA601A46D2689B159A438B781B0285
:10415000641023401A43194BDA601A46D268702360
:104160009A43CB781B01702423401A43134BDA6027
:104170001A46D26808239A430B79DB0008242340AF
:104180001A430E4BDA601A46D26804239A434B79DD
:104190009B00042423401A43084BDA601A46D26875
:1041A00002239A438B795B00022423401A43034B7A
:1041B000DA60034B8A681A6010BD000000580040A6
:1041C000E000002010B50446002C04D0012C0AD0D9
:1041D000022C18D10FE00D480068002802D00B48CF
:1041E0000068804710E00A480068002802D00848AC
:1041F0000068804708E007480068002802D00548AA
:104200000068804700E000BF00BF10BDD400002060
:10421000D8000020DC0000200B48C07A0B49087051
:104220000948007B0A4908700748407B48700648E7
:10423000807B88700448C07BC8700348007C08718C
:104240000148407C48717047E4000020480000208D
:104250004900002012488078124908701048C07840
:10426000114908700E480079104908700C484079CF
:104270000F4908700A4880790E4908700848C079CB
:104280000D4908700648007A0C4908700448407AC5
:104290000B4908700248807A0A490870704700008C
:1042A000E40000202A0000202B0000202C00002029
:1042B0003700002038000020310000203B000020A3
:1042C0003E0000203F00002010B52948007801285A
:1042D00000D110BD27480078002801D1012403E057
:1042E000002400202349087023480078844207D026
:1042F00021480470002021490870214908700BE012
:104300001F480078401C1E490870084600780328A2
:1043100002DB01201949087018480078002800D1F4
:10432000D7E7184800781449097888421DD0124808
:1043300000781449087008460078002807D0012149
:10434000C802FEF749FD0020FCF726FD0DE0002124
:104350000120C002FEF740FD00210120C002FEF74F
:1043600015FC09480078FCF717FD00BFB1E7000015
:104370001F000020430000204600002022000020F3
:1043800044000020450000202C00002030B50446E9
:10439000D007C00F002814D0002B09D02F482018B8
:1043A000006B01258D4028432C4D6519286308E0DA
:1043B0002A482018006B01258D40A843274D651918
:1043C000286302201040002814D0002B09D0234875
:1043D0002018406B01258D402843204D65196863E6
:1043E00008E01E482018406B01258D40A8431B4D56
:1043F0006519686304201040002814D0002B09D0F0
:1044000016482018806B01258D402843134D6519EF
:10441000A86308E011482018806B01258D40A8434F
:104420000E4D6519A86308201040002814D0002BF9
:1044300009D00A482018C06B01258D402843074D3C
:104440006519E86308E005482018C06B01258D4018
:10445000A843024D6519E863002030BD000D0240FD
:104460000248034988600348886070475A5A000030
:1044700000200040A5A5000030B47446641E2578D5
:10448000641CAB4204D3635D5B00E31830BC184787
:104490001D46F8E710B5002819DB1A4A03231B0252
:1044A000D21883089B00D2588307DC0EFF23A34059
:1044B0009A438B071B0E8407E40EA3401A43114B4B
:1044C000032424021B198408A4001A5118E00E4A80
:1044D00003071B0F083B9B089B00D2588307DC0E89
:1044E000FF23A3409A438B071B0E8407E40EA340CF
:1044F0001A43054B0407240F083CA408A4001A51D2
:1045000010BD000000E100E01CED00E000BF7047BE
:1045100010B50A460146002900D110BD02E0002373
:104520000B70491C1346521E002BF8D100BFF4E754
:1045300070B5054611481249486100208861052080
:1045400008610FE000200E4988610E490E4800689E
:10455000FBF751FE012109060C1A00BF08488069CB
:10456000A042FBD828466D1E0028EBD10448006904
:10457000400840000249086170BD0000FFFFFF00D5
:1045800000E000E0102700000000002070B50546A4
:1045900011481249486100208861052008610FE038
:1045A00000200E4988610E490E480068FBF723FE83
:1045B000012109060C1A00BF08488069A042FBD8F7
:1045C00028466D1E0028EBD10448006940084000D1
:1045D0000249086170BD0000FFFFFF0000E000E03D
:1045E000A08601000000002070B505461148124960
:1045F0004861002088610520086110E000200E4914
:1046000088617D21C9000D480068FBF7F4FD012198
:1046100009060C1A00BF08488069A042FBD828464A
:104620006D1E0028EAD10448006940084000024994
:10463000086170BDFFFFFF0000E000E00000002007
:10464000FEF7E2FBFEF796FC03E0FEF7C3F9FEF788
:1046500053FDFAE700093D0000127A000024F4003F
:104660004086510100366E01008000968C460000A5
:1046700000000020E400000004010000704700007A
:10468000E40000208C0400002001000000093D002F
:1046900034210000342100003421000034210000C6
:1046A0001428193200000000000000000000000083
:1046B000000000000001000000FF000000000000FA
:1046C00000000000000000000000000000000000EA
:1046D00000FF0000000000000000000000000000DB
:1046E00000000000000000000000000000000000CA
:1046F00000000000000000000000000000000000BA
:10470000000000000000000000000000FFFF0000AB
:104710000000000000000000000000000000000099
:104720000000000000000000000000001405000070
:1047300014050000102700001027000000000000F2
:104740000000000000000000000000000000000069
:104750000000000000000000000000000000000059
:104760000000000000000000000000000000000049
:04000005000000C136
:00000001FF
