:020000040000FA
:10000000700500209D010000B70100002D230000B5
:1000100000000000000000000000000000000000E0
:10002000000000000000000000000000BB01000014
:100030000000000000000000BD010000BF01000042
:100040003D23000047230000512300005B230000F4
:10005000652300006F230000792300008323000044
:100060008D23000097230000A1230000AB23000094
:10007000B5230000BF230000C9230000D3230000E4
:10008000DD230000E7230000F1230000FB23000034
:10009000052400000F240000192400002324000080
:1000A0002D24000037240000412400004B240000D0
:1000B000552400005F240000692400007324000020
:1000C00000F002F800F03EF80CA030C80838241800
:1000D0002D18A246671EAB4654465D46AC4201D180
:1000E00000F030F87E460F3E0FCCB6460126334274
:1000F00000D0FB1AA246AB46334318470845000020
:1001000028450000103A02D378C878C1FAD85207BF
:1001100001D330C830C101D504680C6070470000BD
:100120000023002400250026103A01D378C1FBD813
:10013000520700D330C100D50B6070471FB51FBDFB
:1001400010B510BD00F008F91146FFF7F7FF04F0F5
:1001500043FA00F020F903B4FFF7F2FF03BC04F008
:10016000A1F9000070B505460C46164602E00FCC1A
:100170000FC5103E102EFAD2082E02D303CC03C5B1
:10018000083E042E07D301CC01C5361F03E02178B9
:100190002970641C6D1C761EF9D270BD0C480D4A86
:1001A000002100A1814200D902440B4802600B48A3
:1001B00080470B480047FEE7FEE7FEE7FEE7FEE765
:1001C000FEE7000007480849084A094B704700004D
:1001D000000000200000000008ED00E0013F0000EA
:1001E000C100000070010020700500207003002095
:1001F000700300207047002203098B422CD3030AAE
:100200008B4211D300239C464EE003460B433CD463
:10021000002243088B4231D303098B421CD3030ACB
:100220008B4201D394463FE0C3098B4201D3CB01FB
:10023000C01A524183098B4201D38B01C01A52412B
:1002400043098B4201D34B01C01A524103098B422F
:1002500001D30B01C01A5241C3088B4201D3CB001A
:10026000C01A524183088B4201D38B00C01A5241FD
:1002700043088B4201D34B00C01A5241411A00D2AD
:1002800001465241104670475DE0CA0F00D0494216
:10029000031000D34042534000229C4603098B4286
:1002A0002DD3030A8B4212D3FC22890112BA030A0E
:1002B0008B420CD3890192118B4208D38901921190
:1002C0008B4204D389013AD0921100E08909C30915
:1002D0008B4201D3CB01C01A524183098B4201D317
:1002E0008B01C01A524143098B4201D34B01C01A02
:1002F000524103098B4201D30B01C01A5241C3087A
:100300008B4201D3CB00C01A524183088B4201D3E8
:100310008B00C01A5241D9D243088B4201D34B0003
:10032000C01A5241411A00D20146634652415B1045
:10033000104601D34042002B00D549427047634626
:100340005B1000D3404201B50020C046C04602BD4C
:100350007047704770477047754600F025F8AE4605
:10036000050069465346C008C000854618B020B550
:10037000FFF728FF60BC00274908B6460026C0C525
:10038000C0C5C0C5C0C5C0C5C0C5C0C5C0C5403D4D
:1003900049008D46704710B50446C046C046204609
:1003A000FFF7D9FE10BD0000004870470C01002087
:1003B00010B500200249487100F086F910BD000018
:1003C000C500002010B500F089F910BD10B501205E
:1003D00000F0D2FA002000F0CFFA02F05BFD0D2110
:1003E000802001F095FF01220321002001F034FA62
:1003F00010BD10B500F072F9012000F0CBFA00201A
:1004000000F0C8FA00220321104601F025FA02F09C
:1004100055FD0D21802001F07BFF10BD10B5044873
:1004200000F082F801200349487101F0EBF810BD9B
:10043000C2000020C50000204279012A05D14A6986
:10044000002A02D0184B4A695A610278012A05D164
:100450000A68002A02D0144B0A681A604278012AFE
:1004600005D14A68002A02D00F4B4A685A60827848
:10047000012A05D18A68002A02D00B4B8A689A604B
:10048000C278012A05D1CA68002A02D0064BCA6880
:10049000DA600279012A05D10A69002A02D0024BEA
:1004A0000A691A6170470000F400002001460748FD
:1004B0004068FF22F13290430A01FF23F1331A40D2
:1004C0001043024A506000207047000000240040A2
:1004D0000146002901D104207047074880680122A5
:1004E000920290430A78920201239B021A40104321
:1004F000014A90600020EFE7002400400348406874
:1005000040084000401C01494860704700240040FA
:10051000044840680121C9038843401801494860E4
:1005200070470000002400400146002901D104204A
:1005300070470348006A0005000D08800020F7E7B7
:100540008024004010B504463948006B0007C00FF6
:1005500000280CD037488068002802D035498868C8
:1005600080473348406B082188433149486330480D
:10057000006B4007C00F00280CD02E48C068002830
:1005800002D02C49C86880472948406B0421884321
:10059000274948632648006B8007C00F00280CD00D
:1005A00024480069002802D0224908698047204871
:1005B000406B022188431E4948631D48006BC007F9
:1005C000C00F00280CD01B484069002802D01949F0
:1005D000486980471648406B40084000144948630A
:1005E0001348006BC006C00F00280CD011484068AB
:1005F000002802D00F49486880470D48406B102101
:1006000088430B4948630A48006B8006C00F0028E6
:100610000CD008480068002802D0064908688047C6
:100620000348406B202188430149486310BD000006
:1006300080240040F40000200146002901D104205C
:100640007047204840680C2290434A7892000C235F
:100650001A4010431B4A5060104640689A0290436B
:100660008A7812039B021A401043164A50601046C3
:100670004068DA109043CA785202DB101A401043E7
:10068000104A506010464068D21490430A79D20252
:100690000123DB021A4010430A4A5060104680686A
:1006A00012149043074A9060104680685214904399
:1006B000044A90601046806892149043014A90600A
:1006C0000020BDE7002400400348006840084000C7
:1006D000401C014908607047C0240040034800687E
:1006E000400840000149086070470000C0240040F5
:1006F00010B55B480078002800D010BD594800783C
:1007000000286FD158480078030003F081FE07A24B
:1007100005173D4E6C8CA20000210120400202F022
:10072000F5F90121080202F0F1F94F480078401C68
:100730004D49087002204B4908708EE00021FF20CF
:10074000013002F0E3F90121880202F0DFF94748A5
:100750000078002803D10121880202F0FDFA01216E
:10076000434802F0F9FA00203F490870012041494E
:10077000087000204049086001F06CFC00F05EFA4F
:10078000642000F00BFB68E00021802002F0BEF93D
:100790000121402002F0BAF933480078401C324968
:1007A000087002202F49087057E00021402002F015
:1007B000ADF90121880202F0A9F92C48007800283F
:1007C00003D10121880202F0C7FA002026490870EF
:1007D0002849087001F03EFC00F030FA002000F0DB
:1007E00055FC3AE03AE00021202002F08FF9012187
:1007F000102002F08BF91C480078401C1A49087040
:100800000220184908701D480078401C1B490870D8
:1008100008460078032805D10120114908700020FE
:100820001649087019E00021102002F06FF901212B
:10083000880202F06BF90D480078002803D10121ED
:10084000880202F089FA00200749087009490870F7
:1008500003E000200449087000BF00BF00BF4CE760
:100860003100002034000020300000202B00002048
:10087000FF030000180000206C0000203200002060
:1008800030B5024600201402034D631901248C4048
:10089000E4435C6130BD0000000C004070B50246CE
:1008A00000201502034EAB191C692546CD40E80710
:1008B000C00F70BD000C004010B502460020002A99
:1008C00004D0012A0BD0022A1BD111E00F4B1B6868
:1008D0001B0C1B048CB223430C4C236013E00C4B09
:1008E0001B681B0C1B048CB22343094C23600AE0D9
:1008F000084B1B681B0C1B048CB22343054C236064
:1009000001E0012000BF00BF10BD0000000C00404E
:10091000000D0040000E004010B502460020002AE5
:1009200004D0012A0BD0022A1BD111E00F4B5B68C7
:100930001B0C1B048CB223430C4C636013E00C4B68
:100940005B681B0C1B048CB22343094C63600AE0F8
:10095000084B5B681B0C1B048CB22343054C636083
:1009600001E0012000BF00BF10BD0000000C0040EE
:10097000000D0040000E004010B5014600200B02A3
:10098000034C1A19D3685B085B005B1CD36010BD75
:10099000000C004010B5014600200B02034C1A1950
:1009A000D3685B085B00D36010BD0000000C004002
:1009B00010B5014600200B02034C1A19D368241508
:1009C000A3431B19D36010BD000C004030B5024694
:1009D0000020002A04D0012A56D0022A7ED1A9E0A4
:1009E000804BDB6803242403A3430C7824030325F2
:1009F0002D032C4023437B4CE3602346DB686415C6
:100A0000A3434C78640201256D022C402343754CAE
:100A1000E3602346DB68A415A3438C7824026D10A1
:100A20002C4023436F4CE3602346DB687024A343D0
:100A3000CC78240170252C4023436A4CE360234684
:100A4000DB680824A3430C79E40008252C402343E9
:100A5000644CE3602346DB680424A3434C79A40080
:100A600004252C4023435F4CE3602346DB680224CB
:100A7000A3438C79640002252C402343594CE36046
:100A8000594C8B682360ABE0584BDB68032424038C
:100A9000A3430C78240303252D032C402343534CFC
:100AA000E3602346DB686415A3434C7864020125A8
:100AB0006D022C4023434D4CE3602346DB68A415B4
:100AC000A3438C7824026D102C402343474CE360F1
:100AD0002346DB687024A343CC7800E07EE0240149
:100AE00070252C402343414CE3602346DB680824F7
:100AF000A3430C79E40008252C4023433B4CE360DE
:100B00002346DB680424A3434C79A40004252C402D
:100B10002343364CE3602346DB680224A3438C79ED
:100B2000640002252C402343304CE360304CCB68FA
:100B3000236055E02F4BDB6803242403A3430C7888
:100B4000240303252D032C4023432A4CE360234632
:100B5000DB686415A3434C78640201256D022C40C8
:100B60002343244CE3602346DB68A415A3438C781D
:100B700024026D102C4023431E4CE3602346DB68A7
:100B80007024A343CC78240170252C402343194CB6
:100B9000E3602346DB680824A3430C79E4000825BE
:100BA0002C402343134CE3602346DB680424A34317
:100BB0004C79A40004252C4023430E4CE3602346CB
:100BC000DB680224A3438C79640002252C40234374
:100BD000084CE360084C0B69236001E0012000BF72
:100BE00000BF30BD000C0040D0000020000D0040D0
:100BF000D4000020000E0040D800002070B50B4D3E
:100C00000B4800780B490C1A21462846FFF7F3FAE7
:100C100005460A212846FFF7EEFA074908700A241C
:100C2000084600784443281B487070BD204B0C00D8
:100C30003D000020710200004000002010B50A486D
:100C40000478642044430A212046FFF7D4FA074978
:100C500008600A20064908600846006803490968D8
:100C600040180349086010BD2F00002088000020B4
:100C70008400002070B5104D1048006845431048AE
:100C800001682846FFF7B7FA04463234642120464B
:100C9000FFF7B1FA0B490870084600780A49884204
:100CA00003DB00200749087005E006480078064984
:100CB000081A0449087070BDB63A0100900000207F
:100CC00060000020570000207102000010B51B4892
:100CD0000078012831D11A48007864282DDA1948A3
:100CE0000068401C17490860084600684B2109014C
:100CF00088420BD100201349086001201249087076
:100D000002F0C8F800201149087016E00D4800688C
:100D10000F490968884210D102F0D0F80D480E49F9
:100D200008600E4908600D21802001F0F1FA0020D2
:100D30000549087001200549087010BD28000020F1
:100D40002C000020B00000201D0000202900002001
:100D5000B40000204C0400009C000020A0000020F3
:100D6000F8B507463D460126002406E0012130463D
:100D700001F0CCFE7600601CC4B2AC42F6DB0A2D5A
:100D80000ADA2C4606E00021304601F0BFFE76006C
:100D9000601CC4B20A2CF6DBF8BD000010B5044696
:100DA0001D480078002800D010BD1C48007801289C
:100DB00000D100241A480078A04202D018480470DC
:100DC00000E0F1E7002C16D102F078F8154816493A
:100DD0000860164908601648164908600D218020F1
:100DE00001F096FA00201449087014490870012097
:100DF000134908700EE010480078002805D10D2135
:100E0000802001F085FA02F045F801200A490870B7
:100E10000A49087000BFC7E71F00002045000020F6
:100E20002D0000204C0400009C000020A0000020A9
:100E300010270000A40000201D0000202800002032
:100E400029000020F8B569480078002800D1F8BDD5
:100E500067480078002800D0F9E766480078002845
:100E600000D0F4E764480078002800D0EFE763483A
:100E70000078002800D0EAE761480078002800D018
:100E8000E5E760480078002805D05F4807685F48BC
:100E90000068009006E05C480068471D5B480068F9
:100EA0000F3800905A480068B8424FD90120554980
:100EB00008705748006854490968451AC82D01D977
:100EC000282408E0642D01D9142404E0322D01D92E
:100ED0000A2400E005244F4E0A20444336194E48A8
:100EE0000068B0421CD34C480068001B4A490860A7
:100EF0000846006849490860084600684849081AD9
:100F0000484908604848007800286DD10D218020AC
:100F100001F0FEF901204449087001F0BBFF63E0D5
:100F200001F0CCFF3B483C4908603C4908603C4824
:100F30003C4908603C480078002855D000203A49D8
:100F400008700D21802001F0E3F94DE03048016880
:100F50000098814245D201202A4908702B48006838
:100F60002B490968451AC82D01D9282408E0642DA9
:100F700001D9142404E0322D01D90A2400E005240B
:100F8000254806680A2044433619284800688642E6
:100F90000BD82148066000682049086008460068B0
:100FA0001F49081A1F4908600DE0204800681A49C7
:100FB0000860084600681949086008460068184932
:100FC000081A184908601848007800280CD10D212B
:100FD000802001F09DF901201349087001F05AFFAB
:100FE00002E000200749087000BF30E72C00002015
:100FF0001F000020260000204500002029000020BE
:101000002500002027000020840000208800002008
:101010005C0000204C0400009C000020A000002088
:1010200010270000A40000201D000020AC000020BC
:1010300070B501F00FF80025002400BF322000F049
:101040006BFB28460A30C5B22046FFF789FE601CBC
:10105000C4B20B4800788542F0DD094800780C21C5
:1010600048430849086006480078FFF797FEFFF7F5
:10107000E5FDC82000F050FB03200349087070BD57
:101080002C000020B40000203400002070B504467D
:1010900058480078002803D157480078002800D02D
:1010A00070BD56480078002832D0012C2FD102F0B4
:1010B000BBFB0121880201F029FD642000F02CFB1C
:1010C0000021A00201F022FD642000F025FB012197
:1010D000880201F01BFD642000F01EFB0021A0022D
:1010E00001F014FD642000F017FB0121880201F0DB
:1010F0000DFD642000F010FB0021A00201F006FDB0
:10110000642000F009FB0121880201F025FEC7E7F9
:101110003B480078002833D0012C11D139480068B1
:101120003949884208D2374800683230354908606A
:101130003220FFF733FE16E033483249086012E0F0
:10114000022C10D12F4800683049884208D32D481E
:10115000006832382B4908603220FFF71FFE02E09A
:101160000020FFF71BFE0A2126480068FFF743F81E
:101170000546284601F09CFD03202549087036E00D
:10118000012C09D123480078642814DA214800781A
:101190000A30204908700EE0022C0CD11D4800785E
:1011A0000A2805DD1B4800780A381A49087002E051
:1011B000002018490870174800780C214843164948
:1011C0000860144805780A2631462846FFF713F8C8
:1011D000C6B23046FFF7C4FD0E480078FFF7DEFDCB
:1011E000002C04D002F012FA03200949087000BF55
:1011F00056E70000300000201800002026000020E4
:1012000025000020A0000020342100007E04000002
:10121000340000202C000020B400002010B50D2167
:10122000802001F05DF8002807D10D21802001F019
:101230006FF8FF20F53000F06FFA1D4800780028A5
:1012400018D01C4800781C4908700121C02000F00B
:1012500051FF0021C02000F04DFF052000F062FA90
:101260000121C02001F054F800210120800201F08A
:1012700073FD16E0114800780F4908700121C02065
:1012800000F038FF0021C02000F034FF052000F0FE
:1012900049FA0021C02001F03BF80121880201F049
:1012A0005BFD0121880201F031FCFFF7A7FC10BDB6
:1012B0002B0000203E0000203D0000203F000020C9
:1012C00010B5032000F0C2FA0446012C03D100201F
:1012D0000649C87002E001200449C870044800783B
:1012E000012108430249087010BD0000E000002001
:1012F0005800002070B516480078012800D170BD54
:1013000014480078002804D01348007801F0D0FC7D
:101310001BE012480078002801D1114908601048EC
:10132000056814350A2045430E4801682846FEF733
:1013300062FFC4B20A2C00DD0A240B4800780028A2
:1013400000D000242046FFF70BFD00BFD7E70000C8
:101350001F000020250000203D0000202C00002060
:101360005C000020600000204500002000B50F4810
:101370000078002810D00E480078002803D0002004
:101380000B49087002E00120094908700020074954
:1013900008700849087005E0012004490870002021
:1013A0000449087002F02EFA00BD00003B00002046
:1013B0002B0000203500002010B50B4800780128D4
:1013C00000D110BD09480078002800D0F9E70021BD
:1013D000084600F0A9FE002804D105480078401C0A
:1013E0000349087000BFECE71F0000202600002022
:1013F0004300002010B517480068440816480068EC
:101400001649096888420FD315480068A0420BD2DC
:101410001448007800281CD10120124908700121CD
:10142000C00201F099FC14E00E480078012810D1A8
:1014300000200C4908700C480078002809D10021D0
:101440000120C00201F088FC00210120C00201F04F
:101450005DFB10BD880000209C000020AC00002037
:101460005C0000201C0000204500002010B535481D
:101470000078002822D03448007834490870FFF7FB
:10148000BDFB02F09BF800202E490870304908701F
:10149000304800683049086000210120C00201F096
:1014A0005BFC2E480078012807D10021800201F062
:1014B00053FC0121880201F029FB10BD2848007867
:1014C000002800D0F9E72748007800280ED101F065
:1014D00003FD0121480201F019FB02202249087096
:1014E00020480078401C1F49087028E01D480078FB
:1014F000022810D10021C00101F008FB0121802049
:1015000001F004FB02201849087016480078401CBE
:101510001449087013E01348007804280FD1002103
:10152000402001F0F3FA0121202001F0EFFA02201F
:101530000D4908700B480078401C0A49087000BF2C
:10154000BBE7000025000020570000203D000020E0
:1015500055000020A00000209C0000202B0000204F
:101560003100002030000020340000200B2004E077
:101570000021034A1154411CC8B21228F8DB7047FD
:10158000E000002010B51E480078002833D000F09D
:10159000A3F90121C80201F0B9FA642000F0BCF8F7
:1015A00000210120C00201F0B1FA642000F0B4F87B
:1015B0000121C80201F0AAFA642000F0ADF8002170
:1015C0000120C00201F0A2FA642000F0A5F8012178
:1015D000C80201F09BFA642000F09EF8002101206F
:1015E000C00201F093FA642000F096F80121C802CD
:1015F00001F0B2FB10BDFFF739FF00BFFAE70000B2
:101600002600002010B512480078401C10490870D0
:10161000104800681049098840180E4908600C48B5
:101620000078502813DBFEF7CDFE02F0B2F90B482C
:101630000078002806D10120084908700548006894
:10164000074908600020034908600149087010BD7F
:101650003300002064000020C20000201E00002093
:101660007400002070B505462E46002407E0304681
:1016700000F0ECF826490855761C601CC4B20B2C0F
:10168000F5DB2348007823494978884205D1204872
:1016900040782049C978884201D0012070BD1C489B
:1016A0008078012801DD0120F8E71948C078012879
:1016B00001DD0120F2E716480079642801DD0120F0
:1016C000ECE713484079782801DD0120E6E710486F
:1016D0008079782801DD0120E0E70D48C0790128F4
:1016E00001DD0120DAE70A48007A012801DD012046
:1016F000D4E70748407AFF2801D10120CEE704480B
:10170000807AFF2801D10120C8E70020C6E7000049
:10171000E00000209600002010B50446204602F0AC
:101720002FFF10BD10B50446204602F0FBFE10BD91
:10173000FEB53FA00190002408E0019800783E49E2
:1017400008550198401C0190601CC4B2042CF4DBC5
:10175000312539484778781B384908703648C778AA
:10176000781B3749087000200090FFF77BFF064682
:10177000012E0FD18002FFF775FF002802D0012053
:10178000009009E02F4A0B21002001F095FF002076
:10179000009001E0002000902B4D002409E0284635
:1017A00000F054F821460B31264A50546D1C601C41
:1017B000C4B2072CF3DB2348C07A3C2817DC21484D
:1017C000007B092813DC1F48407B09280FDC1D48DB
:1017D000807B09280BDC1B48C07B092807DC1948E3
:1017E000007C092803DC1748407C092807DDFFF747
:1017F000BDFE144A0B320721134801F05DFF02F0D1
:10180000D3FC0098012810D10E49887002F02CF802
:101810000C4A0B21002001F04FFF0A4A0B21012046
:10182000800201F049FF01F04DFE02F0DBFCFEBD3D
:1018300056312E3300000000960000209400002056
:1018400095000020E0000020010200000146072270
:10185000120352181078704770B504460E461546AC
:101860002046002805DBC206D20E01219140184A0D
:10187000116000BF3146204602F0D8FD012D0AD18B
:101880002046002805DBC206D20E01219140114AF4
:10189000116000BF1BE02046002816DBC206D20EF6
:1018A000012191400B4A8032116000BF00BF00BF90
:1018B000BFF34F8F00BF00BF00BF00BF00BF00BF1E
:1018C000BFF36F8F00BF00BF00BF00BF00BF70BD80
:1018D00080E200E000E100E010B501F0A5FFFFF7B5
:1018E00045FE044A0721044801F0E6FE02F05CFCD4
:1018F00010BD0000EB0000200102000010B5012027
:1019000000F0A6F8012804D100F010F8012000F042
:101910004BF8002000F09CF8012805D1002000F0D1
:1019200005F8002000F040F810BD0000014601203D
:10193000002917D001292DD1184AD26A120C12049D
:10194000174BD218154BDA621A46D26A120C1204DF
:10195000144BD218114BDA621A46926A82439A6289
:10196000002019E00D4AD26A120C12040C4BD21856
:101970000A4BDA621A46D26A120C1204094BD218C8
:10198000064BDA621A46926A02239A43034B9A6222
:10199000002001E0012000BF00BF704700000240AE
:1019A0005A5A0000A5A5000010B5014601200029E3
:1019B00002D0012942D120E0224AD26A120C12043C
:1019C000214BD2181F4BDA621A46D26A120C12044B
:1019D0001E4BD2181B4BDA621B6A5B069B0F02245C
:1019E000A3435B01602423401A46164B1B6AA343A2
:1019F0001343144C2362002022E0124AD26A120CD4
:101A00001204114BD2180F4BDA621A46D26A120C2A
:101A100012040E4BD2180B4BDA621B6A5B069B0F4B
:101A20005B085B005B01602423401A46054B1B6A80
:101A3000A3431343034C2362002001E0012000BFB5
:101A400000BF10BD000002405A5A0000A5A50000CA
:101A500001460020002906D0012909D1064A526A10
:101A6000D007C00F06E0044A526A9207D00F01E087
:101A7000002000BF00BF70470000024070B5034661
:101A8000002001290BD0022909D0042907D00629FA
:101A900005D0082903D00C2901D0042070BD9F4C2B
:101AA000E46A240C24049E4D64199C4DEC622C467F
:101AB000E46A240C24049B4D6419984DEC622C4676
:101AC000246A6D15AC4355020126760235402C433D
:101AD000924D2C622C46E46A240C2404904D641927
:101AE0008E4DEC622C46E46A240C24048D4D64195E
:101AF0008A4DEC622C462468640A64020D07ED0DE1
:101B00002C43864D2C602C46E46A240C2404844D1E
:101B10006419824DEC622C46E46A240C2404814D45
:101B200064197E4DEC622C466468240A2402172551
:101B30004D43EDB22C43794D6C602C46E46A240C85
:101B40002404774D6419754DEC622C46E46A240C2C
:101B50002404744D6419714DEC622C46A468640A27
:101B600064021B254D43ED05ED0D2C436B4DAC6020
:101B70002C46E46A240C2404694D6419674DEC6218
:101B80002C46E46A240C2404664D6419634DEC620F
:101B90002C46E468A40CA404634D4D43AD03AD0B87
:101BA0002C435E4DEC602C46E46A240C24045C4D0E
:101BB00064195A4DEC622C46E46A240C2404594DF5
:101BC0006419564DEC622C462469640D6405574D2A
:101BD0004D43ED02ED0A2C43504D2C612C46E46A36
:101BE000240C24044E4D64194C4DEC622C46E46ADE
:101BF000240C24044B4D6419484DEC622C46646956
:101C0000240B240318254D432D052D0D2C43434D46
:101C10006C612C46E46A240C2404414D64193F4D48
:101C2000EC622C46E46A240C24043E4D64193B4DBE
:101C3000EC622C46A469240B2403F0254D432D05AA
:101C40002D0D2C43354DAC612C46E46A240C240444
:101C5000334D6419314DEC622C46E46A240C2404A3
:101C6000304D64192D4DEC622C46E469640B64031D
:101C70007D25ED004D43ED04ED0C2C43274DEC612B
:101C8000082917D12C46E46A240C2404244D641935
:101C9000224DEC622C46E46A240C2404214D641984
:101CA0001E4DEC622C46246A0C25AC43241D1B4DB2
:101CB0002C622FE00C2917D1184CE46A240C240460
:101CC000174D6419154DEC622C46E46A240C24046B
:101CD000144D6419114DEC622C46246A0C25AC435A
:101CE000241D0E4D2C6215E00C4CE46A240C2404D7
:101CF0000B4D6419094DEC622C46E46A240C240453
:101D0000084D6419054DEC622C46246A0C25AC4341
:101D1000024D2C62064C236000BFBFE6000002406B
:101D20005A5A0000A5A5000050460000E02202001B
:101D3000CC000020014600202A4A914201D904200B
:101D40007047294AD26A120C1204284BD218264B2B
:101D5000DA621A46D26A120C1204254BD218224BB0
:101D6000DA621A46126B0022D2431A6300BF1E4A7F
:101D7000126AD206D20F002AF9D11B4AD26A120C7B
:101D800012041A4BD218184BDA621A46D26A120C95
:101D90001204174BD218144BDA621A46126A9208D0
:101DA0009200921C1A6200220A7000BF0E4A126A48
:101DB000D206D20F002AF9D10B4AD26A120C1204B1
:101DC0000A4BD218084BDA621A46D26A120C120475
:101DD000074BD218044BDA621A46126B00221A63C0
:101DE00000BFADE7FFFF0000000002405A5A0000AC
:101DF000A5A5000001460020194A126A52005208A7
:101E00000123DB07D218164B1A62164AD26A120C4B
:101E10001204154BD218134BDA621A46D26A120C0E
:101E20001204124BD2180F4BDA62002906D11A465F
:101E3000126A0C239A430B4B1A6210E0012907D156
:101E4000084A126A0C239A43121D064B1A6206E0D6
:101E5000044A126A0C239A430832024B1A627047F2
:101E600000200040000002405A5A0000A5A50000D2
:101E700010B5024600202A4B9A4201D9042010BD19
:101E8000284BDB6A1B0C1B04274C1B19254CE362F7
:101E90002346DB6A1B0C1B04244C1B19214CE362F8
:101EA00023461B6B0023DB43236300BF1D4B1B6AD0
:101EB000DB06DB0F002BF9D11A4BDB6A1B0C1B0472
:101EC000194C1B19174CE3622346DB6A1B0C1B04DD
:101ED000164C1B19134CE36223461B6A9B089B009C
:101EE0005B1C2362117000BF0E4B1B6ADB06DB0F0D
:101EF000002BF9D10B4BDB6A1B0C1B040A4C1B1982
:101F0000084CE3622346DB6A1B0C1B04074C1B19BD
:101F1000044CE36223461B6B0023236300BFAEE740
:101F2000FFFF0000000002405A5A0000A5A5000073
:101F300070B53C480078002873D050213A480068BA
:101F4000FEF759F9044639480068844201D93748F8
:101F5000046037480068844201D23548046035483F
:101F6000006800193349086033480078401C324942
:101F700008700846007864284ED1002008702D486B
:101F800000682A490968401A2A490860084600681A
:101F900027490968401A27490860622125480068D6
:101FA000FEF729F904460120C002844204D32348E5
:101FB000201A234908600EE02048844205D80120F9
:101FC000C002001B1E49086005E00120C002001B82
:101FD00040081B4908601B480478194800684443BE
:101FE000184845781648006845430A212846FEF7F8
:101FF00002F90546641964212046FEF7FCF81249EF
:10200000086012480A490860002008490860094928
:10201000086001200E49087000200349086001494A
:10202000087070BD1E0000207400002078000020A1
:102030007C0000208C0000203C000020E107000014
:1020400090000020400000205C000020FFFF000006
:102050002100002016480078002803D11548007898
:1020600000280DD0144800788000144908581449FD
:102070000860144810490978405C134908700CE066
:102080000D4800788000114908580D490860104833
:1020900009490978405C0C4908700A200D4908601C
:1020A000084600680849097848430A4908607047AB
:1020B00031000020180000202A0000200C00002021
:1020C000AC000020160000202F000020040000209B
:1020D0001400002060000020024605481018006926
:1020E00001238B409843024BD3181861002070479E
:1020F000000E0240024605481018406901238B403B
:102100001843024BD318586100207047000D02405D
:1021100070B504460D461646012332462946204630
:1021200002F000F9002070BD024603481018406814
:10213000C840C007C00F7047000D02400246034868
:1021400010180068C840C007C00F7047000E02405A
:1021500070B50546002D20D10C21FFF7EFFF0128B7
:102160001BD10C210020FFF7B7FF0D21802000F0CC
:10217000CFF80A48007801280BD1094800680949BE
:102180004418A0B201F04EFFA0B201F03DFF01F0F3
:1021900057FF01F0F9FBFEF70BF970BD1D000020A1
:1021A000A0000020EFD8000030B503460020494CC5
:1021B0001C198D0060511078012809D14648181863
:1021C000006801248C402043434C1C19206008E027
:1021D00041481818006801248C40A0433E4C1C194B
:1021E00020605078002809D13B481818C0690124A4
:1021F0008C40A043384C1C19E06108E036481818A0
:10220000C06901248C402043334C1C19E061907854
:10221000012812D130481818006A01248C4020434C
:102220002D4C1C1920622C481818446A0120884043
:10223000844329481818446227E09078022812D174
:1022400025481818006A01248C40A043224C1C1910
:10225000206221481818406A01248C4020431E4CFB
:102260001C19606211E01C481818006A01248C4097
:10227000A043194C1C19206217481818406A012401
:102280008C40A043144C1C196062D078002809D1FE
:1022900011481818C46A0120884084430E48181851
:1022A000C46208E00C481818C06A01248C4020431E
:1022B000094C1C19E062094880680124E403A0432A
:1022C0001479E4030125ED032C402043034CA06066
:1022D000002030BD000C0240000D0240000F024003
:1022E0000246034810188068C840C007C00F7047F6
:1022F000000D0240024605481018C06801238B40BB
:102300001843024BD318D86000207047000D0240DC
:10231000024605481018006901238B401843024B00
:10232000D318186100207047000D024008B5002046
:10233000009000BF00980028FCD008BD10B5002018
:10234000FFF706FF10BD10B50120FFF701FF10BD1C
:1023500010B50220FFF7FCFE10BD10B50320FFF7FB
:10236000F7FE10BD10B50020C046C04610BD10B528
:10237000002001F037FE10BD10B50020C046C04659
:1023800010BD10B50120C046C04610BD10B50020DC
:10239000C046C04610BD10B50120C046C04610BDA5
:1023A00010B50020C046C04610BD10B50120C04683
:1023B000C04610BD10B50020C046C04610BD10B5C7
:1023C0000120C046C04610BD10B5002001F0C2FE7D
:1023D00010BD10B5012001F0BDFE10BD10B50220EA
:1023E00001F0B8FE10BD10B50020C046C04610BDBB
:1023F00010B50420C046C04610BD10B50520C0462B
:10240000C04610BD10B50620C046C04610BD10B570
:102410000020C046C04610BD10B50020C046C046D2
:1024200010BD10B50020C046C04610BD10B500203C
:10243000FEF788F810BD10B50020C046C04610BD9C
:1024400010B50020C046C04610BD10B50120C046E2
:10245000C04610BD10B50020C046C04610BD10B526
:102460000020C046C04610BD10B50020C046C04682
:1024700010BD10B50020C046C04610BD00B58DB0DF
:1024800005210BA802F010F8062109A802F00CF8AB
:10249000182103A802F008F80621274802F004F8E2
:1024A000052101A802F000F80C214020FFF722FFCF
:1024B00001216846017101AA0C214020FFF774FE3A
:1024C0000121102001F038FCFEF718F81B480068C5
:1024D00040084000401C1949086008460068022175
:1024E000884316490860012001F0EEFF002108A88A
:1024F00001734173022181730321C17300210174AF
:102500000BA8FEF799F80BA8FDF7E2FF1320FDF7E3
:10251000CDFF012211461820FFF79EF9FDF7F8FFC5
:10252000012108A841720648089003A909A8FDF7EF
:1025300083FF0DB000BD0000C50000200024004056
:102540001D0400001CB50521684601F0ADFF012106
:102550001C2001F0F1FB012168460170417081707F
:102560000021C170012101716A4604210020FFF79A
:102570001BFE6A4605210020FFF716FE6A46002171
:102580000846FFF711FE6A460C210020FFF70CFEFB
:102590000C210020FFF7A0FD08220C210020FFF7EE
:1025A000B7FD012203210020FFF756F900216846FC
:1025B0000170417081700D218020FFF7A9FE6A46ED
:1025C0000D218020FFF7F0FD0021C020FFF792FDD4
:1025D0006A460021C020FFF7E7FD0121C020FFF778
:1025E00089FD6A460121C020FFF7DEFD0021684613
:1025F000817008210020FFF77DFD08214020FFF7B2
:1026000079FD07214020FFF775FD09210020FFF724
:1026100071FD09214020FFF76DFD0B214020FFF7E0
:1026200069FD0A214020FFF765FD02214020FFF7E8
:1026300061FD01214020FFF75DFD00214020FFF7F3
:1026400059FD07210020FFF755FD06210020FFF767
:1026500051FD6A4608210020FFF7A6FD6A460821C1
:102660004020FFF7A1FD6A4607214020FFF79CFDAF
:102670006A4609210020FFF797FD6A46092140209C
:10268000FFF792FD6A460B214020FFF78DFD6A4659
:102690000A214020FFF788FD6A4602214020FFF70B
:1026A00083FD6A4601214020FFF77EFD6A46002136
:1026B0004020FFF779FD6A4607210020FFF774FDEF
:1026C0006A4606210020FFF76FFD1CBD08B50020FB
:1026D000FFF790FB002001F04DFB002168460170E0
:1026E0004170817001F05AF908BD000030B58DB01D
:1026F0000C21684601F0D8FE142108A801F0D4FE90
:10270000142103A801F0D0FE0121082001F014FBE0
:10271000002108A8017041710221C170012181715D
:10272000002101718170417036480A9008A900208B
:10273000FEF74CF9344C21460020FEF7BDF8254643
:1027400029460020FEF7E8F800210846FEF798F831
:102750000020FEF72DF9012203210E20FFF77CF85F
:102760000020FEF709F90021684601734174022137
:10277000C173012181740021017481734173234865
:10278000069003A90120FEF721F9214C21460120E2
:10279000FEF792F8254629460120FEF7BDF80021F4
:1027A0000120FEF76DF80120FEF702F90122032156
:1027B0000F20FFF751F801210B2001F0BDFA002195
:1027C0006846017041710221C170012181710021AF
:1027D0000171817041700F480290684601F05EFC03
:1027E0000D4800880021C943081A84B2204601F030
:1027F00019FC204601F008FC002001F0DDFB0DB0C3
:1028000030BD0000293F000018FC0000493F0000D7
:1028100083FF0000653F0000A800002010B53E497E
:102820000978002976D100F0C9F83C490978884236
:102830005ED13B490978002969D1384909780029D6
:1028400052D038490978354A1278914237D1364901
:10285000097800295BD035490978002910D034491E
:102860000978491C324A11701146097814294ED151
:10287000002111702D4A11700121294A117046E082
:1028800001212C4A11702A490978491C284A1170E3
:1028900029490978002903D111460978062907D06A
:1028A00025490978002932D02149097803292ED1F8
:1028B00000211F4A11700121194A117027E01749A0
:1028C0000978184A11700121154A11700021194A1E
:1028D00011700121154A1170134A11700021144A18
:1028E0001170154A117012E000210E4A11700EE0AD
:1028F0000A49087000210F4A117001210B4A11701A
:102900000021094A11700A4A11700B4A11701421F2
:10291000014A117010BD0000BD000020BF00002062
:10292000B8000020C0000020BB000020BA0000203A
:10293000BE000020B9000020BC0000200448007840
:10294000002804D002480078401E014908707047F2
:10295000BD00002010B5FFF761FF15480078002882
:1029600024D014480078012804D0022806D0032877
:1029700013D107E00120FEF789FB0FE00220FEF7EC
:1029800085FB0BE00C480078002803D000200A49A2
:10299000087003E0FEF7F6FD00E000BF00BF054849
:1029A000007800F07BFF00200149087010BD000096
:1029B000B8000020C0000020B900002070B500243D
:1029C00000F0A4FC0546012D04D0022D05D0032DF6
:1029D00009D105E00120044305E00220044302E0A0
:1029E0000320044300BF00BF204670BD14200B49E4
:1029F000087000200A4908700A4908700A490870DE
:102A00000A49087001200A49087000200949087025
:102A1000094908700949087070470000BD0000208E
:102A2000BF000020C0000020B8000020B900002036
:102A3000BA000020BB000020BE000020BC00002027
:102A400010B50446002C30D008210020FFF760FCB0
:102A500008214020FFF75CFC07214020FFF758FCCD
:102A600009210020FFF754FC09214020FFF750FC0A
:102A70000B214020FFF74CFC0A214020FFF748FCC7
:102A800002214020FFF744FC01214020FFF740FCD9
:102A900000214020FFF73CFC07210020FFF738FC15
:102AA00006210020FFF734FC2FE008210020FFF76B
:102AB00021FB08214020FFF71DFB07214020FFF7E5
:102AC00019FB09210020FFF715FB09214020FFF722
:102AD00011FB0B214020FFF70DFB0A214020FFF7DF
:102AE00009FB02214020FFF705FB01214020FFF7F1
:102AF00001FB00214020FFF7FDFA07210020FFF72E
:102B0000F9FA06210020FFF7F5FA10BD70B504466A
:102B10000D46012D65D1402C3AD00EDC082C46D054
:102B200006DC012C52D0022C4BD0042C58D143E0AF
:102B3000102C37D0202C53D12FE001214902601AEC
:102B40008C4216D006DC802C1DD0E01FF9380028FE
:102B500046D113E0FF38FF380238002804D00121A5
:102B60008902401A3CD136E008210020FFF7D0FB53
:102B700036E008214020FFF7CBFB31E00721402061
:102B8000FFF7C6FB2CE009210020FFF7C1FB27E07F
:102B900009214020FFF7BCFB22E00B214020FFF77A
:102BA000B7FB1DE00A214020FFF7B2FB18E002212D
:102BB0004020FFF7ADFB13E001214020FFF7A8FB09
:102BC0000EE000214020FFF7A3FB09E007210020D1
:102BD000FFF79EFB04E006210020FFF799FB00BFF2
:102BE00065E0402C3AD00EDC082C46D006DC012CE7
:102BF00052D0022C4BD0042C58D143E0102C37D0AB
:102C0000202C53D12FE001214902601A8C4216D0AA
:102C100006DC802C1DD0E01FF938002846D113E0D7
:102C2000FF38FF380238002804D001218902401AF9
:102C30003CD136E008210020FFF75CFA36E008219D
:102C40004020FFF757FA31E007214020FFF752FA02
:102C50002CE009210020FFF74DFA27E00921402050
:102C6000FFF748FA22E00B214020FFF743FA1DE06E
:102C70000A214020FFF73EFA18E002214020FFF72A
:102C800039FA13E001214020FFF734FA0EE0002169
:102C90004020FFF72FFA09E007210020FFF72AFA6A
:102CA00004E006210020FFF725FA00BF00BF70BD39
:102CB000F8B5044601260127002510E020463040E3
:102CC000002804D001213846FFF720FF03E000214F
:102CD0003846FFF71BFF76007F00681CC5B20A2D3F
:102CE000ECDBF8BD70B5012418480068002800D15D
:102CF00070BD17480078002826D0002514E013483E
:102D00000068204000280CD012480078002804D029
:102D100000212046FFF7FAFE03E001212046FFF7DD
:102D2000F5FE6400681CC5B20C2DE8DB094800788C
:102D3000002803D000200749087002E0012005495F
:102D4000087000200249087000BFD1E77000002021
:102D50001A0000202000002070B504460D46002D0A
:102D600005D00848006820430649086008E0054887
:102D70000068A0430349086000212046FFF7C6FE13
:102D800070BD00007000002010B5FFF79FFCFFF73A
:102D9000D9FBFFF7ABFCFFF771FB0A2001F0C2FB88
:102DA00010BD000010B514480078401C124908708E
:102DB0000846007864281EDB002008700F48007861
:102DC000401C0E49087008460078052805D10120EE
:102DD0000B490870FDF77AFF0DE0084800780A28D3
:102DE00009DB0020054908700120064908700449E4
:102DF0000870FDF76BFF10BD390000203A0000207D
:102E00001B0000201900002010B50020FDF7A8FFCE
:102E100008480078002804D101218020FFF776FEC1
:102E200007E001210220FFF771FE01210820FFF7D2
:102E30006DFE10BD2A00002010B50446012C0DD1F6
:102E400012480078012805DA10480078401C0F4924
:102E5000087012E000200D4908700EE0022C0CD121
:102E60000A480078002805DD08480078401E074918
:102E7000087002E00120054908700B200449087021
:102E8000FFF7C2FF00F0ACFC10BD00002A000020DC
:102E90003400002010B5084801F0C4F8064801F0DD
:102EA000B3F8002001F088F801F0ECF801220021CD
:102EB0000520FEF7D1FC10BDF0D8000010B50020B1
:102EC00001F07AF801F0D2F8002211460520FEF751
:102ED000C3FC01F0C1F810BD10B500200249086024
:102EE000FFF7AEFD10BD00007000002010B5FFF729
:102EF0007DFD00200B4908700B490870C820FEF7C3
:102F00000BFCFEF715FC0020FFF79AFD00F00EF811
:102F1000FEF72CFAFEF782F9C820FEF7FDFBFEF75C
:102F200087F810BD3A0000203900002070B5002657
:102F3000FFF744FD0646032E0AD1012043490870DD
:102F400001210F208002FFF707FFFFF75DFF34E04C
:102F5000012E2FD103203D4908700525002407E0EC
:102F60003B48405D3B490855681EC5B2601CC4B271
:102F7000062CF5DB0020FFF763FD00F0A3FA00BF8D
:102F8000FFF71CFD0028FBD100240DE00020FFF717
:102F900057FD6420FEF7C0FB0120FFF751FD6420C0
:102FA000FEF7BAFB601CC4B2032CEFDB00202A49F9
:102FB000087002E0002025490870244800780028A5
:102FC00002D12649087002E00B202449087035E040
:102FD00022480078002800D131E0FFF71FFC20488C
:102FE0000078002813D019480078012804D11D4822
:102FF0000078FFF721FF07E014480078032803D189
:103000001848007800F0F8F90020154908701648B3
:103010000078002810D00020134908700F4800786D
:10302000002804DD0D480078401E0C49087001207E
:103030000E49087000F07EF9FFF754FEC8E700BFA4
:10304000FFF74AFF00200149087070BD36000020DC
:10305000490000204F0000204700002034000020DD
:10306000B8000020C0000020190000201A00002035
:1030700010B5FEF7A1F98A48007800287ED000201C
:103080008749087087480078002804DD8548007863
:10309000401E8449087084480078002804DD824876
:1030A0000078401E804908700120804908708048DF
:1030B000007800280ADD7E480078401E7C490870B0
:1030C00008460078002801D17A4908707A480078CB
:1030D000002801D0FDF7CEFD01F0BEF87148007860
:1030E0006F2805D100207549087000F08BFB3EE089
:1030F0006C480078152809D10020FDF731FE00202A
:10310000FDF74CFE01206E49087030E065480078FC
:103110000C280DD100F0F0F8FEF780F8694800782F
:1031200069490870002067490870654908701EE009
:103130005C48007801281ADB5A4800780B2816DC16
:103140006048007860490978884204DA5D48007870
:103150000A305C4908700020FDF798FF03205249AF
:10316000087050480078012801D1002008705748A5
:103170000068401C55490860084600E078E0006897
:10318000FF212D31884244D151480078401C5049DC
:103190000870084600784F490978884210DB002003
:1031A0004B490870FEF78CF80020FDF7D9FD002090
:1031B000FDF7F4FD012042490870472039490870A5
:1031C00000204249086000F033FA43480078401D6F
:1031D00041490870084600783C2818DB0020087038
:1031E00005220EE03D48805C401C3C49885408465E
:1031F000805C0A2802D10020885400E003E0501EC1
:10320000C2B2002AEEDC00BF00F036FA00BF00F0C8
:1032100021FA33480078002814D032480068401C56
:103220003049086008460068E121C901884209D395
:1032300000202B490870FEF70DFFFDF7FFFC002072
:10324000FDF724FFFDF754FA2748007800280DD138
:1032500023480078002809D124480078002805D1A7
:1032600011480078002801D1FEF744F800F06EFA0A
:103270001D48007800280FD1FEF75AFEFEF7BAF875
:103280001B480078002807D000201A490870FDF775
:10329000D9FD002016490870FFF724FD10BD00007D
:1032A0001900002035000020340000201A00002002
:1032B0005600002055000020250000203B00002083
:1032C0001F0000202C0000202E000020680000209D
:1032D000380000203700002048000020490000206E
:1032E000180000206C000020300000202600002084
:1032F000210000201B00002000B50320FEF7A6FAE5
:103300000149087000BD00002B00002010B500240A
:1033100005210020FEF708FF002801D10120044309
:1033200004210020FEF700FF002801D10220044301
:10333000204610BD70B52B480078032800D070BD22
:1033400029480078002826D028480078012821D173
:10335000FFF776FB6420FEF7DFF90020FFF770FB34
:103360006420FEF7D9F90120FFF76AFB6420FEF71D
:10337000D3F90020FFF764FB6420FEF7CDF90120AC
:10338000FFF75EFB6420FEF7C7F9002017490870BD
:1033900015490870D3E715480078062803D10020A6
:1033A000FFF74EFBCBE711480078052818D11048ED
:1033B00010490978465C002E03D10120FFF740FB3D
:1033C0000EE00020FFF73CFB0125002406E0012170
:1033D0002846FFF79BFB6D00601CC4B2B442F6DBCD
:1033E00000BFACE73600002024000020340000209D
:1033F0004F0000204700002070B50446012C16D174
:1034000029480078052808DA27480078401C264912
:10341000087007202549087045E0012024490870FC
:103420000320224908700020FFF70AFB3BE0022C32
:103430001ED101201F4908701F481B490978405CB4
:10344000002809DD1C4818490978405C401E1A49CB
:10345000154A1278885404E009201749124A127854
:1034600088540620114908700120144908701AE098
:10347000032C18D10F480078002814D000200D49E3
:1034800008700526002507E00B48405D0C4988556B
:10349000701EC6B2681CC5B2062DF5DB00F0ECF854
:1034A00000200249087070BD470000203400002051
:1034B00024000020230000204F00002019000020DD
:1034C0004900002070B53B4800783B4909788842A4
:1034D0003CD001253748017828468840054601211F
:1034E0002846FFF713FB0124334801782046884023
:1034F000044601212046FFF709FBFF202D30FEF78F
:103500000BF900212046FFF701FBFF202D30FEF7CD
:1035100003F901212046FFF7F9FAFF202D30FEF7CD
:10352000FBF800212046FFF7F1FAFF202D30FEF7CF
:10353000F3F801212046FFF7E9FAFF202D30FEF7CE
:10354000EBF8FF202D30FEF7E7F831E001241948B1
:10355000017820468840044601212046FFF7D6FA2C
:10356000FF202D30FEF7D8F800212046FFF7CEFAD5
:10357000FF202D30FEF7D0F801212046FFF7C6FAD4
:10358000FF202D30FEF7C8F800212046FFF7BEFAD5
:10359000FF202D30FEF7C0F801212046FFF7B6FAD4
:1035A000FF202D30FEF7B8F8FF202D30FEF7B4F8DD
:1035B00070BD000094000020950000200D480078A8
:1035C000012808D10C4800780C490870084600789A
:1035D0000B49487207E0084800780A490870084615
:1035E0000078074988720848007801210843064995
:1035F000087070472B000020570000203E0000207C
:10360000E00000203F00002058000020054800781E
:1036100005490871054800780121084303490870ED
:10362000704700002C000020E0000020580000201F
:10363000054800780549887105480078012108434C
:10364000034908707047000038000020E0000020A7
:1036500058000020054800780549C87205480078E0
:103660000221084303490870704700004800002009
:10367000E0000020580000200C4800780C49087336
:103680000A48407848730948807888730748C078AA
:10369000C87306480079087404484079487405489E
:1036A0000078022108430349087070474900002050
:1036B000E000002058000020F7B582B01646002533
:1036C000012001900027FCF794FE072424030298B0
:1036D0002418012211461C48FEF7D0F92046FEF7B7
:1036E00029FB00BF28E000BF715D2046FEF7C0FB4C
:1036F0000190019800280CD12078715D884203D197
:1037000000200190641C08E001200190781CC7B2E1
:1037100003E001200190781CC7B2032F07DB0027CC
:1037200006210020FEF7F4FD641C002001900198A2
:103730000128D9D0681CC5B203988542D3DBFCF7B9
:1037400045FE05B0F0BD0000FD18000010B5214891
:103750000078002800D110BD1E480078C007C00FB7
:10376000002810D01C4A0B210020FFF7A5FF1948A4
:103770000078400840001749087008460078042186
:1037800008431449087013480078022108400028B3
:103790000BD0114A0B3207211048FFF78DFF0D485F
:1037A0000078022188430B4908700A4800780421F8
:1037B000084000280BD0084A0B2101208002FFF7A7
:1037C0007BFF04480078042188430249087000BF49
:1037D000C1E7000058000020E000002001020000C6
:1037E000054800780549887005480078012108439C
:1037F00003490870704700002A000020E000002004
:1038000058000020054800780549087205480078EE
:103810000121084303490870704700003B00002065
:10382000E00000205800002010B500F01DF80A4A02
:103830000B210020FFF740FF074A0B2101208002E7
:10384000FFF73AFF00F0CEFC00200449087004495D
:1038500008700449087010BDE0000020300000200E
:1038600018000020310000200A4840780A490870FA
:103870000848C07848700120C870642008715A2038
:10388000487100208871C87108722D2048725D202F
:103890008872704796000020E000002010B50446B2
:1038A000012C1AD12E48007800280AD12D48007822
:1038B000002806D12C480078002802D103202B498B
:1038C00008702948007801210843274908700846F4
:1038D00000784006000E087007E0022C05D122484F
:1038E00000784006000E204908701F4800783628EE
:1038F00018D11F480078002830D11E4800780028D1
:103900002CD10120164908700020174908701A4967
:103910000870642019490870012103208002FFF714
:103920001BFA1BE0104800782C2817D101200D4904
:10393000087000200F4908700D4908700849087088
:1039400009490870FFF77CF80020FDF727FA0020EE
:103950000B49087001210B48FFF7FEF910BD00006C
:1039600025000020260000205500002056000020E1
:103970001800002031000020350000202C0000201D
:103980001D0000200102000010B50120FCF7F4FF2B
:1039900010BD10B50120FCF7FDFF10BD70B5044649
:1039A00000252078030000F033FD0504050C1018F5
:1039B0001C0018E0032000F073FA032000F03AFA2C
:1039C00011E0032000F024FA0DE00321084600F086
:1039D00075FA032000F03EFA05E0072000F09AF99E
:1039E00001E0042500BF00BF2078012100F00CF8A1
:1039F000207800F03FFA607800F060F9A07800F0DD
:103A000073F9284670BD000070B505460C460026C7
:103A100000F0F2FC002C01D0012000E00020044660
:103A20002B0000F0F5FC050417394D74880044485C
:103A3000006840084000E107C90F0843404908609A
:103A400000BF002C05D03E48C0680005C00F00280C
:103A5000F7D072E03B48C06840084000401C39493C
:103A6000C8600846C06802218843801C3549C86088
:103A70003348006802218843610002221140084354
:103A80002F49086000BF002C05D02D480069400672
:103A9000C00F0028F7D050E029480068042188436F
:103AA000A1000422114008432549086000BF002CF2
:103AB00005D023484069C004C00F0028F7D03CE07F
:103AC00020484038C06801218903884340181D49B7
:103AD0004039C8600846C0680121C90388434018BE
:103AE00018494039C8601648006808218843E10039
:103AF0000822114008431249086000BF002C05D07D
:103B00000F4880694006C00F0028F7D015E00C4828
:103B10000068102188432101102211400843084900
:103B2000086000BF002C05D00548C06B4003C00FE3
:103B30000028F7D001E0042600BF00BF304670BD6A
:103B400000200040C00D024030B589B0002414228E
:103B5000564904A8FCF706FB54481430006803904B
:103B60000020009001900290514801886846018130
:103B70004F4841886846C1804D48818868468180A9
:103B80004B48C188684641804948203001886846D2
:103B90000180484800680006450F2B0000F038FC03
:103BA00005042E303E4178004248C0684005400D73
:103BB00069460989884201D1089C1EE03D48C068D9
:103BC0004005400D6946C988884201D1079C14E030
:103BD0003848C0684005400D69468988884201D14F
:103BE000069C0AE03348C0684005400D6946498894
:103BF000884201D1059C00E0049C4BE02E4C49E03A
:103C0000684600882B4949698905890D884202D197
:103C10006846C48901E0684684893BE00124E403E6
:103C200038E02448C06B8007800F032829D16846FC
:103C300000892049C9684905490D884201D1089C7D
:103C400020E06846C0881B49C9684905490D88427B
:103C500001D1079C16E0684680881649C968490565
:103C6000490D884201D1069C0CE068464088114904
:103C7000C9684905490D884201D1059C02E0049CB0
:103C800000E00D4C0B48C06BC005000F444301E041
:103C9000002400BF00BF074800684005410F2046D0
:103CA000C8400446204609B030BD0000EC45000085
:103CB000000C1000002000400048E80170B50446E8
:103CC000002500F099FB0748006807210902884396
:103CD00021020722120211400843024908602846C7
:103CE00070BD00000020004070B50446002500F0C3
:103CF00083FB074800680321C9028843E1020322CD
:103D0000D2021140084302490860284670BD0000F5
:103D10000020004010B501460020064AD26B072360
:103D2000DB039A43CB030724E40323401A43014BEC
:103D3000DA6310BD0020004010B5024600200029C3
:103D400001D0012300E000231946002907D0084BC9
:103D50001B6A012494402343054C236206E0044B74
:103D60001B6A01249440A343014C236210BD000050
:103D70000020004010B5014600200B0000F048FB79
:103D80000504101C283440001F4B1B895A05520D96
:103D90001E4BDB68DB0ADB0213431C4CE36031E0A3
:103DA000194BDB885A05520D184BDB68DB0ADB0226
:103DB0001343164CE36025E0134B9B885A05520DC4
:103DC000124BDB68DB0ADB021343104CE36019E0A3
:103DD0000D4B5B885A05520D0C4BDB68DB0ADB028E
:103DE00013430A4CE3600DE0074B1B885A05520D44
:103DF000064BDB68DB0ADB021343044CE36001E0A3
:103E0000042000BF00BF10BD000C100000200040C7
:103E100010B501460020064A526903239B029A43CB
:103E20008B020324A40223401A43014B5A6110BDA4
:103E30000020004010B501460020054A12693023D9
:103E40009A430B01302423401A43014B1A6110BDE1
:103E50000020004010B501460020054A9269302339
:103E60009A430B01302423401A43014B9A6110BD41
:103E70000020004070B504460025264600F0BCFA3C
:103E800006480068E02188437101E02211400843A0
:103E90000249086000F02CF8284670BD0020004060
:103EA00001460020044A1269920892008B079B0F7A
:103EB0001A43014B1A6170470020004030B502469A
:103EC00000200A4B9B690C24A34394000C252C4032
:103ED0002343064CA36123469B699B089B008C07E8
:103EE000A40F2343014CA36130BD0000002000401B
:103EF00010B5FFF729FE0149086010BD0000002041
:103F000010B5074909894805400D0649C968C90A1D
:103F1000C9020143034AD160FFF7EAFF10BD000068
:103F2000000C10000020004010B500210846FCF7EE
:103F3000B5FC012807D1FEF701FDFEF733FF002194
:103F40000846FCF79DFC10BD10B500210120FCF7D0
:103F5000A5FC012805D1FCF72BFA00210120FCF774
:103F60008FFC10BD10B5002000F030F801281DD1E5
:103F70000D218020FEF7B4F901280AD10D218020FF
:103F8000FEF7B8F80A4800F04DF8094800F03CF890
:103F900009E00D218020FEF7BBF9064800F042F849
:103FA000044800F031F8002000F006F810BD0000D1
:103FB0000CFE0000F0D800000146002001228A40DB
:103FC000D243014B5A61704700580040014600201F
:103FD000034B1A691346CB40D807C00F7047000047
:103FE0000058004010B50446002C07D10548006871
:103FF000002802D003480068804700E000BF00BFEF
:1040000010BD0000DC00002001460020044A1268B8
:10401000120C12048BB21A43014B1A607047000055
:104020000058004001460020044A5268120C120455
:104030008BB21A43014B5A60704700000058004091
:1040400000200449C96849084900491C014AD16057
:10405000704700000058004000200349C968490823
:104060004900014AD16070470058004000200449CF
:10407000C968012292029143014AD1607047000051
:104080000058004000200449C9680122920291436F
:104090008918014AD16070470058004010B50146A8
:1040A00000202A4AD26803231B039A430B781B0380
:1040B0000324240323401A43244BDA601A46D268AF
:1040C0005B159A434B785B020124640223401A4338
:1040D0001E4BDA601A46D2689B159A438B781B02F6
:1040E000641023401A43194BDA601A46D2687023D1
:1040F0009A43CB781B01702423401A43134BDA6098
:104100001A46D26808239A430B79DB00082423401F
:104110001A430E4BDA601A46D26804239A434B794D
:104120009B00042423401A43084BDA601A46D268E5
:1041300002239A438B795B00022423401A43034BEA
:10414000DA60034B8A681A6010BD00000058004016
:10415000DC00002010B50446002C04D0012C0AD04D
:10416000022C18D10FE00D480068002802D00B483F
:104170000068804710E00A480068002802D008481C
:104180000068804708E007480068002802D005481A
:104190000068804700E000BF00BF10BDD0000020D5
:1041A000D4000020D80000200B48C07A0B490870CA
:1041B0000948007B0A4908700748407B4870064858
:1041C000807B88700448C07BC8700348007C0871FD
:1041D0000148407C48717047E00000204800002002
:1041E0004900002012488078124908701048C078B1
:1041F000114908700E480079104908700C48407940
:104200000F4908700A4880790E4908700848C0793B
:104210000D4908700648007A0C4908700448407A35
:104220000B4908700248807A0A49087070470000FC
:10423000E00000202A0000202B0000202C0000209D
:104240003700002038000020310000203B00002013
:104250003E0000203F00002010B52A4800780128C9
:1042600000D110BD28480078002801D1012403E0C6
:10427000002400202449087024480078844207D094
:1042800022480470002022490870224908700BE07F
:1042900020480078401C1F49087008460078032811
:1042A00002DB01201A49087019480078002800D163
:1042B000D7E71948007815490978884220D0134873
:1042C00000781549087008460078002807D00121B9
:1042D000C802FEF741FD0020FCF760FD10E0002160
:1042E0000120C002FEF738FD00210120C002FEF7C8
:1042F0000DFC0A480078FCF751FD002008490860D1
:1043000000BFAEE71F000020430000204600002051
:104310002200002044000020450000202C00002046
:10432000B000002030B50446D007C00F002814D0DC
:10433000002B09D02F482018006B01258D40284301
:104340002C4D6519286308E02A482018006B0125C8
:104350008D40A843274D651928630220104000288E
:1043600014D0002B09D023482018406B01258D4024
:104370002843204D6519686308E01E482018406BEB
:1043800001258D40A8431B4D65196863042010402A
:10439000002814D0002B09D016482018806B012566
:1043A0008D402843134D6519A86308E01148201873
:1043B000806B01258D40A8430E4D6519A863082028
:1043C0001040002814D0002B09D00A482018C06BD8
:1043D00001258D402843074D6519E86308E005482D
:1043E0002018C06B01258D40A843024D6519E86374
:1043F000002030BD000D0240024803498860034898
:10440000886070475A5A000000200040A5A50000AF
:1044100030B47446641E2578641CAB4204D3635DDB
:104420005B00E31830BC18471D46F8E710B50028BC
:1044300019DB1A4A03231B02D21883089B00D258A7
:104440008307DC0EFF23A3409A438B071B0E8407D0
:10445000E40EA3401A43114B032424021B198408C1
:10446000A4001A5118E00E4A03071B0F083B9B08D3
:104470009B00D2588307DC0EFF23A3409A438B078F
:104480001B0E8407E40EA3401A43054B0407240FB8
:10449000083CA408A4001A5110BD000000E100E08F
:1044A0001CED00E000BF704710B50A460146002928
:1044B00000D110BD02E000230B70491C1346521EB0
:1044C000002BF8D100BFF4E770B50546114812493A
:1044D000486100208861052008610FE000200E4936
:1044E00088610E490E480068FBF785FE0121090628
:1044F0000C1A00BF08488069A042FBD828466D1EF0
:104500000028EBD1044800694008400002490861D6
:1045100070BD0000FFFFFF0000E000E0102700007A
:104520000000002070B5054611481249486100207E
:104530008861052008610FE000200E4988610E495E
:104540000E480068FBF757FE012109060C1A00BF50
:1045500008488069A042FBD828466D1E0028EBD190
:1045600004480069400840000249086170BD00002D
:10457000FFFFFF0000E000E0A08601000000002037
:1045800070B5054611481249486100208861052030
:10459000086110E000200E4988617D21C9000D48A6
:1045A0000068FBF728FE012109060C1A00BF084825
:1045B0008069A042FBD828466D1E0028EAD1044835
:1045C0000069400840000249086170BDFFFFFF001C
:1045D00000E000E000000020FEF7D6FBFEF786FCBE
:1045E00003E0FEF7B7F9FEF743FDFAE700093D00E7
:1045F00000127A000024F4004086510100366E015A
:10460000008000962446000000000020E00000002A
:104610000401000004470000E000002090040000B6
:104620002001000000093D00A00F000088130000D9
:1046300088130000701700001428193200000000D1
:10464000000000000000000000000000000000006A
:1046500000FF00000000000000000000000000005B
:10466000000000000000000000FF0000000000004B
:10467000000000000000000000000000000000003A
:10468000000000000000000000000000000000002A
:10469000000000000000000000000000000000001A
:1046A000FFFF00000000000000000000000000000C
:1046B00000000000000000000000000000000000FA
:1046C0004C0400004C0400001027000010270000DC
:1046D00000000000000000000000000000000000DA
:1046E00000000000000000000000000000000000CA
:1046F00000000000000000000000000000000000BA
:0447000000000000B5
:04000005000000C136
:00000001FF
