:020000040000FA
:10000000780500209D010000B70100000D210000CF
:1000100000000000000000000000000000000000E0
:10002000000000000000000000000000BB01000014
:100030000000000000000000BD010000BF01000042
:100040001D21000027210000312100003B2100007C
:10005000452100004F2100005921000063210000CC
:100060006D21000077210000812100008B2100001C
:10007000952100009F210000A9210000B32100006C
:10008000BD210000C7210000D1210000DB210000BC
:10009000E5210000EF210000F9210000032200000B
:1000A0000D22000017220000212200002B22000058
:1000B000352200003F2200004922000053220000A8
:1000C00000F002F800F03EF80CA030C80838241800
:1000D0002D18A246671EAB4654465D46AC4201D180
:1000E00000F030F87E460F3E0FCCB6460126334274
:1000F00000D0FB1AA246AB4633431847EC4700003A
:100100000C480000103A02D378C878C1FAD85207D8
:1001100001D330C830C101D504680C6070470000BD
:100120000023002400250026103A01D378C1FBD813
:10013000520700D330C100D50B6070471FB51FBDFB
:1001400010B510BD00F008F91146FFF7F7FF04F0F5
:10015000B5FB00F020F903B4FFF7F2FF03BC04F095
:1001600013FB000070B505460C46164602E00FCCA6
:100170000FC5103E102EFAD2082E02D303CC03C5B1
:10018000083E042E07D301CC01C5361F03E02178B9
:100190002970641C6D1C761EF9D270BD0C480D4A86
:1001A000002100A1814200D902440B4802600B48A3
:1001B00080470B480047FEE7FEE7FEE7FEE7FEE765
:1001C000FEE7000007480849084A094B704700004D
:1001D000000000200000000008ED00E0C93D000024
:1001E000C10000007801002078050020780300207D
:1001F000780300207047002203098B422CD3030AA6
:100200008B4211D300239C464EE003460B433CD463
:10021000002243088B4231D303098B421CD3030ACB
:100220008B4201D394463FE0C3098B4201D3CB01FB
:10023000C01A524183098B4201D38B01C01A52412B
:1002400043098B4201D34B01C01A524103098B422F
:1002500001D30B01C01A5241C3088B4201D3CB001A
:10026000C01A524183088B4201D38B00C01A5241FD
:1002700043088B4201D34B00C01A5241411A00D2AD
:1002800001465241104670475DE0CA0F00D0494216
:10029000031000D34042534000229C4603098B4286
:1002A0002DD3030A8B4212D3FC22890112BA030A0E
:1002B0008B420CD3890192118B4208D38901921190
:1002C0008B4204D389013AD0921100E08909C30915
:1002D0008B4201D3CB01C01A524183098B4201D317
:1002E0008B01C01A524143098B4201D34B01C01A02
:1002F000524103098B4201D30B01C01A5241C3087A
:100300008B4201D3CB00C01A524183088B4201D3E8
:100310008B00C01A5241D9D243088B4201D34B0003
:10032000C01A5241411A00D20146634652415B1045
:10033000104601D34042002B00D549427047634626
:100340005B1000D3404201B50020C046C04602BD4C
:100350007047704770477047754600F025F8AE4605
:10036000050069465346C008C000854618B020B550
:10037000FFF728FF60BC00274908B6460026C0C525
:10038000C0C5C0C5C0C5C0C5C0C5C0C5C0C5403D4D
:1003900049008D46704710B50446C046C046204609
:1003A000FFF7D9FE10BD000000487047180100207B
:1003B00010B50021044800F087F9044800F076F9F0
:1003C00001200349487010BDC8000020CC00002067
:1003D000D00000204279012A05D14A69002A02D0C2
:1003E000184B4A695A610278012A05D10A68002A25
:1003F00002D0144B0A681A604278012A05D14A6873
:10040000002A02D00F4B4A685A608278012A05D12F
:100410008A68002A02D00B4B8A689A60C278012A47
:1004200005D1CA68002A02D0064BCA68DA60027990
:10043000012A05D10A69002A02D0024B0A691A6111
:10044000704700000001002010B50246130004F0C0
:1004500051F9100913202D3A47545E6B7885929F0D
:10046000A9B6C3D06548006840094001CB06DB0E41
:100470001843624B1860BDE0604800681F235B01B1
:1004800098434B011F246401234018435B4B1860C1
:10049000B0E05A4800681F239B0298438B021F2438
:1004A000A40223401843554B1860A3E0534800684A
:1004B0001F23DB039843CB031F24E403234018438B
:1004C0004E4B186096E04D4800681F231B0598436B
:1004D0000B051F24240523401843484B186089E06E
:1004E000464800681F235B0698434B061F2464069A
:1004F00023401843414B18607CE040484068400965
:100500004001CB06DB0E18433C4B586072E03B4881
:1005100040681F235B0198434B011F246401234063
:100520001843364B586065E0344840681F239B02EF
:1005300098438B021F24A402234018432F4B58607A
:1005400058E02E4840681F23DB039843CB031F2449
:10055000E40323401843294B58604BE02748406888
:100560001F231B0598430B051F2424052340184314
:10057000224B58603EE0214840681F235B069843A9
:100580004B061F246406234018431C4B586031E07F
:100590001A48806840094001CB06DB0E1843174B10
:1005A000986027E0154880681F235B0198434B0142
:1005B0001F24640123401843104B98601AE00F4831
:1005C00080681F239B0298438B021F24A4022340B0
:1005D00018430A4B98600DE0084880681F23DB032E
:1005E0009843CB031F24E40323401843034B986034
:1005F00000E000BF00BF002010BD0000402400400C
:1006000030B50346002B01D1042030BD1B48806863
:100610000124A402A0431C78A4020125AD022C40B1
:100620002043164CA06020468068E413A043134C7E
:10063000A06020468068E414A043D4026D002C40E2
:1006400020430E4CA060002A06D020468068E413A8
:10065000A0430019094CA0600848403080680F246E
:100660002405A0434C1E24050F252D052C402043B6
:10067000024C4034A0600020C7E700000024004086
:100680000348406840084000401C014948607047EA
:1006900000240040044840680121C90388434018F1
:1006A00001494860704700000024004001460029CD
:1006B00001D1042070470348406A0003000B086022
:1006C0000020F7E7802400400246074B002A01D1B2
:1006D000042070470F2901DD0420FAE7880018582C
:1006E00010800020F5E7000050240040014600295A
:1006F00001D104207047204840680C2290434A787A
:1007000092000C231A4010431B4A50601046406868
:100710009A0290438A7812039B021A401043164AA9
:10072000506010464068DA109043CA785202DB10DD
:100730001A401043104A506010464068D21490434B
:100740000A79D2020123DB021A4010430A4A5060A0
:100750001046806812149043074A906010468068E3
:1007600052149043044A906010468068921490435B
:10077000014A90600020BDE7002400400348406823
:1007800040084000401C014948607047C0240040B8
:1007900010B55A480078002800D010BD584800789D
:1007A00000287DD157480078030003F0A3FF079F7E
:1007B00005173B4C67899F0000210120400202F091
:1007C000A7F80121080202F0A3F84E480078401C67
:1007D0004C49087002204A4908708BE00021FF2034
:1007E000013002F095F80121880202F091F84648A4
:1007F0000078002803D10121880202F0AFF901211D
:10080000424802F0ABF900203E49087001204049FF
:10081000087000203F49086001F05AFB642000F096
:10082000A3FA67E00021802002F072F80121402045
:1008300002F06EF833480078401C324908700220FC
:100840002F49087056E00021402002F061F8012194
:10085000880202F05DF82C480078002803D10121BD
:10086000880202F07BF900202649087028490870A8
:1008700001F02EFB002000F0B1FB3BE00021202026
:1008800002F046F80121102002F042F81D480078DD
:10089000401C1C4908700220194908701E4800E0DD
:1008A00029E00078401C1C4908700846007803289D
:1008B00005D101201149087000201749087019E07E
:1008C0000021102002F024F80121880202F020F813
:1008D0000D480078002803D10121880202F03EF97A
:1008E0000020084908700A49087003E00020054903
:1008F000087000BF00BF00BF4FE700003D000020B0
:10090000400000203C00002037000020FF030000D2
:1009100027000020780000203E00002030B502466D
:1009200000201402034D631901248C40E4435C61F0
:1009300030BD0000000C004070B5024600201502DA
:10094000034EAB191C692546CD40E807C00F70BDAA
:10095000000C004010B502460020002A04D0012AF5
:100960000BD0022A1BD111E00F4B1B681B0C1B0480
:100970008CB223430C4C236013E00C4B1B681B0C04
:100980001B048CB22343094C23600AE0084B1B680C
:100990001B0C1B048CB22343054C236001E0012097
:1009A00000BF00BF10BD0000000C0040000D004063
:1009B000000E004010B502460020002A04D0012A93
:1009C0000BD0022A1BD111E00F4B5B681B0C1B04E0
:1009D0008CB223430C4C636013E00C4B5B681B0C24
:1009E0001B048CB22343094C63600AE0084B5B682C
:1009F0001B0C1B048CB22343054C636001E00120F7
:100A000000BF00BF10BD0000000C0040000D004002
:100A1000000E004010B5014600200B02034C1A19CD
:100A2000D3685B085B005B1CD36010BD000C00400A
:100A300010B5014600200B02034C1A19D368241587
:100A4000A3431B19D36010BD000C004030B5024613
:100A50000020002A04D0012A56D0022A7ED1A9E023
:100A6000804BDB6803242403A3430C782403032571
:100A70002D032C4023437B4CE3602346DB68641545
:100A8000A3434C78640201256D022C402343754C2E
:100A9000E3602346DB68A415A3438C7824026D1021
:100AA0002C4023436F4CE3602346DB687024A34350
:100AB000CC78240170252C4023436A4CE360234604
:100AC000DB680824A3430C79E40008252C40234369
:100AD000644CE3602346DB680424A3434C79A40000
:100AE00004252C4023435F4CE3602346DB6802244B
:100AF000A3438C79640002252C402343594CE360C6
:100B0000594C8B682360ABE0584BDB68032424030B
:100B1000A3430C78240303252D032C402343534C7B
:100B2000E3602346DB686415A3434C786402012527
:100B30006D022C4023434D4CE3602346DB68A41533
:100B4000A3438C7824026D102C402343474CE36070
:100B50002346DB687024A343CC7800E07EE02401C8
:100B600070252C402343414CE3602346DB68082476
:100B7000A3430C79E40008252C4023433B4CE3605D
:100B80002346DB680424A3434C79A40004252C40AD
:100B90002343364CE3602346DB680224A3438C796D
:100BA000640002252C402343304CE360304CCB687A
:100BB000236055E02F4BDB6803242403A3430C7808
:100BC000240303252D032C4023432A4CE3602346B2
:100BD000DB686415A3434C78640201256D022C4048
:100BE0002343244CE3602346DB68A415A3438C789D
:100BF00024026D102C4023431E4CE3602346DB6827
:100C00007024A343CC78240170252C402343194C35
:100C1000E3602346DB680824A3430C79E40008253D
:100C20002C402343134CE3602346DB680424A34396
:100C30004C79A40004252C4023430E4CE36023464A
:100C4000DB680224A3438C79640002252C402343F3
:100C5000084CE360084C0B69236001E0012000BFF1
:100C600000BF30BD000C0040DC000020000D004043
:100C7000E0000020000E0040E400002070B50A4CA7
:100C80000A4801782046FFF7B6FA04460A212046B2
:100C9000FFF7B1FA064908700A250846007845436F
:100CA000601B487070BD0000ECBE00004A000020D0
:100CB0004D00002010B50B4804780B4800784443E1
:100CC0000A212046FFF797FA084908600A200849D8
:100CD000086008460068054909684018044908602A
:100CE00010BD00003B0000203800002094000020D0
:100CF0009000002070B5094D094800684543094837
:100D000001682846FFF777FA04463234642120460A
:100D1000FFF771FA0449087070BD0000ECBE0000D6
:100D2000980000206C00002063000020F8B5074602
:100D30003D460126002406E00121304601F0E8FD91
:100D40007600601CC4B2AC42F6DB0A2D0ADA2C46EF
:100D500006E00021304601F0DBFD7600601CC4B2E5
:100D60000A2CF6DBF8BD000010B5044618480078E0
:100D7000002800D010BD17480078012800D10024B9
:100D800015480078A04202D01348047000E0F1E753
:100D9000002C10D1002011490860114908607D2005
:100DA000C000104908600D21802001F0CBF8002020
:100DB0000D4908700AE00C480078002803D10D2185
:100DC000802001F0BFF801200749087000BFD1E77B
:100DD0002E0000205100002039000020A400002037
:100DE000A8000020AC0000202C00002070B55A485C
:100DF0000078002800D170BD58480078002800D045
:100E0000F9E757480078002800D0F4E75548007803
:100E1000002800D0EFE754480078002800D0EAE727
:100E20005248006852490968884248D94F480068CA
:100E30004F490968451AC82D01D9082408E0642DD6
:100E400001D9042404E0322D01D9022400E0012458
:100E50000026361947480068B0421BD34548006851
:100E6000001B44490860084600684349086008467A
:100E700000687D21C900081A404908604048007890
:100E8000002862D10D21802001F05CF801203C494E
:100E900008705AE0002037490860374908607D2013
:100EA000C000364908603648007800284DD0002040
:100EB000334908700D21802001F044F845E02B48AB
:100EC00000683049096888423FD22E4800682749A7
:100ED0000968451AC82D01D9082408E0642D01D9F4
:100EE000042404E0322D01D9022400E00124214829
:100EF000066836192448006886420CD81D480660EA
:100F000000681D490860084600687D21C900081A6C
:100F10001A4908600EE01C48006816490860084637
:100F2000006815490860084600687D21C900081A54
:100F30001249086012480078002806D10D2180204F
:100F400001F000F801200E4908700B48006801F01C
:100F5000B1FD00BF4FE70000380000202E00002048
:100F600035000020510000203400002068000020DF
:100F700090000020A4000020A8000020AC00002069
:100F80002C00002094000020B400002070B500F078
:100F90009FFF0025002400BFFF20F53000F0FCFA81
:100FA00028460A30C5B22046FFF7C0FE601CC4B216
:100FB000084800788542EFDD06480078FFF7D4FE48
:100FC000FFF778FEC82000F0E7FA03200249087016
:100FD00070BD0000380000204000002070B50446BD
:100FE00063480078002803D162480078002800D0C8
:100FF00070BD61480078002832D0012C2FD102F05A
:1010000079FB0121880201F083FC642000F0C4FA1E
:101010000021A00201F07CFC642000F0BDFA012157
:10102000880201F075FC642000F0B6FA0021A002ED
:1010300001F06EFC642000F0AFFA0121880201F09B
:1010400067FC642000F0A8FA0021A00201F060FC17
:10105000642000F0A1FA0121880201F07FFDC7E7BA
:1010600046480078002835D0012C17D14448006844
:101070004449096888420DD241480068401C4049F3
:10108000086041480068401E3F4908603220FFF771
:101090006BFE1AE06420FFF767FE16E0022C14D105
:1010A0003748006800280DD035480068401E344994
:1010B000086035480068401C334908603220FFF75B
:1010C00053FE02E00020FFF74FFE2D48006801F0BC
:1010D000F1FC41E0012C17D12C480078642804DA97
:1010E0002A4800780A3029490870294800682749A9
:1010F00009784843274908600A2126480068FFF715
:101100007AF82449086018E0022C16D11F480078AC
:10111000002804DD1D4800780A381C4908701C4866
:1011200000681A49097848431A4908600A21194891
:101130000068FFF760F817490860144806780A2528
:1011400029463046FFF757F8C5B22846FFF7EEFDAF
:101150000E480078FFF708FE002C06D002F0C8F910
:10116000FFF7A8FD03200C49087000BF40E700000E
:101170003C00002027000020350000203400002023
:10118000A8000020B0000020AC00002038000020A3
:10119000B8000020B40000204000002010B50D2150
:1011A000802000F083FF012807D10D21802000F06E
:1011B000C9FEFF20F53000F0EFF91948007800284B
:1011C00014D018480078184908700121C02000F098
:1011D000B9FE052000F0E6F90021C02000F088FFEC
:1011E00000210120800201F0B9FC12E00F480078D4
:1011F0000D4908700021C02000F0A4FE052000F079
:10120000D1F90121C02000F073FF0121880201F013
:10121000A5FC0121880201F07BFBFFF72FFD10BD2B
:10122000370000204B0000204A0000204C00002026
:1012300010B5032000F03CFA0446012C04D1002133
:10124000032000F03BFA03E00121032000F036FA0E
:1012500010BD000070B511480078002804D0104877
:10126000006801F027FC18E00E480078002801D142
:101270000D4908600C480468A41C0A2044430B482C
:1012800001682046FEF7B7FFC5B20A2D00DD0A252A
:1012900007480078002800D0002570BD34000020E9
:1012A0009800002038000020680000206C0000201A
:1012B0005100002000B50F480078002810D00E48DB
:1012C0000078002803D000200B49087002E00120BC
:1012D000094908700020074908700849087005E0AE
:1012E00001200449087000200449087002F0F0F958
:1012F00000BD000047000020370000204100002012
:1013000009480068962807D20848007800280AD1C2
:1013100001200649087006E004480078002802D041
:101320000020024908707047680000202B00002050
:1013300010B50D480078012800D110BD0B48007889
:10134000002800D0F9E70121002000F009FE002864
:1013500004D107480078401C05490870052004495D
:10136000087000BFE9E700002E00002035000020D3
:101370004F00002010B52A48007800280DD02948D9
:10138000007829490870FFF779FC02F089F80020FD
:10139000234908702549087010BD254800780028A9
:1013A00000D0F9E72348007800280ED101F088FC2E
:1013B0000121480201F0ACFA02201F4908701D48C3
:1013C0000078401C1B49087028E01A480078022861
:1013D00010D10021C00101F09BFA0121802001F011
:1013E00097FA02201449087012480078401C1149ED
:1013F000087013E00F48007804280FD10021402026
:1014000001F086FA0121202001F082FA02200A4927
:10141000087008480078401C0649087000BFBBE708
:1014200034000020630000204A00002061000020FA
:101430003D0000203C000020400000200B2004E084
:101440000021034A1154411CC8B21228F8DB70472E
:10145000EC00002010B51E480078002833D000F0C2
:101460008DF90121C80201F053FA642000F094F8CC
:1014700000210120C00201F04BFA642000F08CF83A
:101480000121C80201F044FA642000F085F800212F
:101490000120C00201F03CFA642000F07DF8012137
:1014A000C80201F035FA642000F076F8002101202E
:1014B000C00201F02DFA642000F06EF80121C8028C
:1014C00001F04CFB10BDFFF755FF00BFFAE700002D
:1014D0003500002070B505462E46002407E0304652
:1014E00000F0E6F82A490855761C601CC4B20B2CA3
:1014F000F5DB2748007827494978884205D12448F8
:1015000040782449C978884201D0012070BD204824
:101510008078052801DD0120F8E71D48C078012802
:1015200001DD0120F2E71A480079642801DD01207D
:10153000ECE717484079782801DD0120E6E71448F8
:101540008079782801DD0120E0E71148C079012881
:1015500001DD0120DAE70E48007A012801DD0120D3
:10156000D4E70B48407AFC2803DC0948407A642819
:1015700001DA0120CAE70648807AFC2803DC044827
:10158000807A642801DA0120C0E70020BEE700006D
:10159000EC0000209E00002010B50446204603F019
:1015A00061F910BD10B50446204603F02DF910BDB9
:1015B000FEB538A00190002408E001980078374972
:1015C00008550198401C0190601CC4B2042CF4DB47
:1015D000312532484778781B314908702F48C77841
:1015E000781B3049087000200090FFF773FF064613
:1015F000012E0FD18002FFF76DFF002802D00120DD
:10160000009009E0284A0B21002001F0D9FF0020BA
:10161000009001E000200090244D002409E02846BD
:1016200000F046F821460B311F4A50546D1C601CD7
:10163000C4B2072CF3DB1C48C07A3C2807DC1A48EC
:10164000007B092803DC1848807B092807DDFFF7A9
:10165000F5FE154A0B320721144801F0B1FF02F0E4
:101660008BFF0098012811D104200F49887002F0E7
:1016700061F80D4A0B21002001F0A2FF0A4A0B215C
:101680000120800201F09CFF01F088FE02F092FF31
:10169000FEBD000056312E32000000009E000020EA
:1016A0009C0000209D000020EC00002001020000B2
:1016B000014607221203521810787047F8B5054604
:1016C0000E460127072424036419012211460A4803
:1016D00000F026F9204600F07FFA3146204600F05F
:1016E00019FB0746002F05D12078B04200D102E057
:1016F000012700E00127F8BDA117000070B50446DE
:101700000E4615462046002805DBC206D20E0121F2
:101710009140184A116000BF3146204602F0F8FFA0
:10172000012D0AD12046002805DBC206D20E012178
:101730009140114A116000BF1BE02046002816DBD3
:10174000C206D20E012191400B4A8032116000BFC7
:1017500000BF00BFBFF34F8F00BF00BF00BF00BF7F
:1017600000BF00BFBFF36F8F00BF00BF00BF00BF4F
:1017700000BF70BD80E200E000E100E010B501F0C4
:10178000B9FFFFF75BFE044A0721044801F018FF88
:1017900002F0F2FE10BD0000F70000200102000080
:1017A00010B5012000F0A6F8012804D100F010F8CF
:1017B000012000F04BF8002000F09CF8012805D132
:1017C000002000F005F8002000F040F810BD0000F7
:1017D00001460120002917D001292DD1184AD26ACB
:1017E000120C1204174BD218154BDA621A46D26A41
:1017F000120C1204144BD218114BDA621A46926A78
:1018000082439A62002019E00D4AD26A120C120437
:101810000C4BD2180A4BDA621A46D26A120C120426
:10182000094BD218064BDA621A46926A02239A438F
:10183000034B9A62002001E0012000BF00BF704707
:10184000000002405A5A0000A5A5000010B501464C
:101850000120002902D0012942D120E0224AD26A87
:10186000120C1204214BD2181F4BDA621A46D26AAC
:10187000120C12041E4BD2181B4BDA621B6A5B0659
:101880009B0F0224A3435B01602423401A46164B9E
:101890001B6AA3431343144C2362002022E0124A24
:1018A000D26A120C1204114BD2180F4BDA621A468C
:1018B000D26A120C12040E4BD2180B4BDA621B6A5E
:1018C0005B069B0F5B085B005B01602423401A46AC
:1018D000054B1B6AA3431343034C2362002001E022
:1018E000012000BF00BF10BD000002405A5A000096
:1018F000A5A5000001460020002906D0012909D134
:10190000064A526AD007C00F06E0044A526A92079C
:10191000D00F01E0002000BF00BF70470000024070
:1019200070B50346002001290BD0022909D00429F3
:1019300007D0062905D0082903D00C2901D004209E
:1019400070BD9F4CE46A240C24049E4D64199C4D88
:10195000EC622C46E46A240C24049B4D6419984DD7
:10196000EC622C46246A6D15AC43550201267602C2
:1019700035402C43924D2C622C46E46A240C2404FE
:10198000904D64198E4DEC622C46E46A240C2404BC
:101990008D4D64198A4DEC622C462468640A6402F9
:1019A0000D07ED0D2C43864D2C602C46E46A240C6B
:1019B0002404844D6419824DEC622C46E46A240CA4
:1019C0002404814D64197E4DEC622C466468240A1F
:1019D000240217254D43EDB22C43794D6C602C4603
:1019E000E46A240C2404774D6419754DEC622C468E
:1019F000E46A240C2404744D6419714DEC622C4685
:101A0000A468640A64021B254D43ED05ED0D2C43CB
:101A10006B4DAC602C46E46A240C2404694D6419B7
:101A2000674DEC622C46E46A240C2404664D64196C
:101A3000634DEC622C46E468A40CA404634D4D4352
:101A4000AD03AD0B2C435E4DEC602C46E46A240CD8
:101A500024045C4D64195A4DEC622C46E46A240C53
:101A60002404594D6419564DEC622C462469640DCA
:101A70006405574D4D43ED02ED0A2C43504D2C614A
:101A80002C46E46A240C24044E4D64194C4DEC623F
:101A90002C46E46A240C24044B4D6419484DEC6236
:101AA0002C466469240B240318254D432D052D0D68
:101AB0002C43434D6C612C46E46A240C2404414DB4
:101AC00064193F4DEC622C46E46A240C24043E4D1C
:101AD00064193B4DEC622C46A469240B2403F025C9
:101AE0004D432D052D0D2C43354DAC612C46E46A3C
:101AF000240C2404334D6419314DEC622C46E46A05
:101B0000240C2404304D64192D4DEC622C46E469FC
:101B1000640B64037D25ED004D43ED04ED0C2C4377
:101B2000274DEC61082917D12C46E46A240C2404C3
:101B3000244D6419224DEC622C46E46A240C2404E2
:101B4000214D64191E4DEC622C46246A0C25AC43D1
:101B5000241D1B4D2C622FE00C2917D1184CE46A70
:101B6000240C2404174D6419154DEC622C46E46ACC
:101B7000240C2404144D6419114DEC622C46246A83
:101B80000C25AC43241D0E4D2C6215E00C4CE46A70
:101B9000240C24040B4D6419094DEC622C46E46AB4
:101BA000240C2404084D6419054DEC622C46246A6B
:101BB0000C25AC43024D2C62064C236000BFBFE6EF
:101BC000000002405A5A0000A5A50000504600003F
:101BD000E0220200D8000020014600202A4A91425B
:101BE00001D904207047294AD26A120C1204284BEA
:101BF000D218264BDA621A46D26A120C1204254B0E
:101C0000D218224BDA621A46126B0022D2431A63B0
:101C100000BF1E4A126AD206D20F002AF9D11B4A0F
:101C2000D26A120C12041A4BD218184BDA621A46F6
:101C3000D26A120C1204174BD218144BDA621A46ED
:101C4000126A92089200921C1A6200220A7000BF67
:101C50000E4A126AD206D20F002AF9D10B4AD26A72
:101C6000120C12040A4BD218084BDA621A46D26AD6
:101C7000120C1204074BD218044BDA621A46126B8C
:101C800000221A6300BFADE7FFFF00000000024022
:101C90005A5A0000A5A5000001460020194A126A00
:101CA000520052080123DB07D218164B1A62164A5B
:101CB000D26A120C1204154BD218134BDA621A4670
:101CC000D26A120C1204124BD2180F4BDA6200299E
:101CD00006D11A46126A0C239A430B4B1A6210E083
:101CE000012907D1084A126A0C239A43121D064B98
:101CF0001A6206E0044A126A0C239A430832024B25
:101D00001A62704700200040000002405A5A00004A
:101D1000A5A5000010B5024600202A4B9A4201D921
:101D2000042010BD284BDB6A1B0C1B04274C1B191D
:101D3000254CE3622346DB6A1B0C1B04244C1B1955
:101D4000214CE36223461B6B0023DB43236300BF6C
:101D50001D4B1B6ADB06DB0F002BF9D11A4BDB6A2C
:101D60001B0C1B04194C1B19174CE3622346DB6A3E
:101D70001B0C1B04164C1B19134CE36223461B6AF5
:101D80009B089B005B1C2362117000BF0E4B1B6AFB
:101D9000DB06DB0F002BF9D10B4BDB6A1B0C1B04A2
:101DA0000A4C1B19084CE3622346DB6A1B0C1B041C
:101DB000074C1B19044CE36223461B6B002323636F
:101DC00000BFAEE7FFFF0000000002405A5A0000CB
:101DD000A5A5000070B533480078002860D03221F6
:101DE00031480068FEF707FA04463048006884422C
:101DF00001D92E4804602E480068844201D22C4844
:101E000004602C48006800192A4908602A480078B4
:101E1000401C294908700846007832283BD1002030
:101E200008702448006821490968401A214908605F
:101E3000084600681E490968401A1E49086030219A
:101E40001C480068FEF7D7F904461C4804601C488B
:101E500004781A48006844431948457817480068D0
:101E600045430A212846FEF7C6F9054664190A21AA
:101E70002046FEF7C0F91349086013480C49086072
:101E800000200A4908600B49086001200F490870CA
:101E900000200C49086000200349086001490870CF
:101EA00070BD00002D000020800000208400002074
:101EB000880000208C0000204900002098000020AD
:101EC0004D00002068000020FFFF000030000020CF
:101ED00010B51348047813480078002803D112483D
:101EE0000078002801D0601CC4B2A0000F49085837
:101EF0000F4908600F48005D0F4908700A200F491C
:101F00000860084600680C49097848430B49086096
:101F10000A2107480068FEF76EF90949086010BDFC
:101F2000360000203D000020270000200400002093
:101F3000B4000020200000203B0000206C000020A6
:101F4000B8000020024605481018406901238B4064
:101F50001843024BD318586100207047000D02400F
:101F60000246034810184068C840C007C00F7047B9
:101F7000000D024030B503460020494C1C198D006D
:101F800060511078012809D14648181800680124CA
:101F90008C402043434C1C19206008E0414818182D
:101FA000006801248C40A0433E4C1C1920605078EE
:101FB000002809D13B481818C06901248C40A0436F
:101FC000384C1C19E06108E036481818C069012433
:101FD0008C402043334C1C19E0619078012812D1C9
:101FE00030481818006A01248C4020432D4C1C19DD
:101FF00020622C481818446A0120884084432948EC
:102000001818446227E09078022812D12548181841
:10201000006A01248C40A043224C1C1920622148F4
:102020001818406A01248C4020431E4C1C19606221
:1020300011E01C481818006A01248C40A043194C78
:102040001C19206217481818406A01248C40A043CC
:10205000144C1C196062D078002809D11148181856
:10206000C46A0120884084430E481818C46208E0FE
:102070000C481818C06A01248C402043094C1C19D4
:10208000E062094880680124E403A0431479E40372
:102090000125ED032C402043034CA060002030BDFF
:1020A000000C0240000D0240000F024002460348AF
:1020B00010188068C840C007C00F7047000D02406C
:1020C00010B50346024818188C000251002010BDBC
:1020D000000C0240024605481018C06801238B40DE
:1020E0001843024BD318D86000207047000D0240FF
:1020F000024605481018006901238B401843024B23
:10210000D318186100207047000D024008B5002068
:10211000009000BF00980028FCD008BD10B500203A
:10212000C046C04610BD10B50120C046C04610BD17
:1021300010B50220C046C04610BD10B50320C046F1
:10214000C04610BD10B50020C046C04610BD10B539
:10215000002001F0FFFE10BD10B50020C046C046B3
:1021600010BD10B50120C046C04610BD10B50020FE
:10217000C046C04610BD10B50120C046C04610BDC7
:1021800010B50020C046C04610BD10B50120C046A5
:10219000C04610BD10B50020C046C04610BD10B5E9
:1021A0000120C046C04610BD10B5002002F0BAF9AB
:1021B00010BD10B5012002F0B5F910BD10B5022018
:1021C00002F0B0F910BD10B50020C046C04610BDE9
:1021D00010B50420C046C04610BD10B50520C0464D
:1021E000C04610BD10B50620C046C04610BD10B593
:1021F0000020C046C04610BD10B50020C046C046F5
:1022000010BD10B50020C046C04610BD10B500205E
:10221000C046C04610BD10B50020C046C04610BD27
:1022200010B50020C046C04610BD10B50120C04604
:10223000C04610BD10B50020C046C04610BD10B548
:102240000020C046C04610BD10B50020C046C046A4
:1022500010BD10B50020C046C04610BD10B58CB0F2
:1022600005210AA802F092FA062108A802F08EFAC7
:10227000182102A802F08AFA06212A4802F086FAFA
:102280000521684602F082FA00210846FFF722FF86
:102290000121684601706A4600210846FFF76AFE80
:1022A0000121102001F0ACFCFEF7EAF91E4800689D
:1022B00040084000401C1C49086008460068022194
:1022C000884319490860012002F070FA002108A82B
:1022D00001724172022181720321C17200210173D6
:1022E0000AA8FEF703FA00210846FEF7ADF801221E
:1022F00003211820FFF702FAFEF7CCF9012108A804
:1023000041700A48039002A908A8FEF763F8032465
:10231000012221460AA8FEF773F9FEF72FFA0CB046
:1023200010BD0000D000002000240040B1030000D8
:102330001CB50521684602F029FA01211C2001F094
:102340005FFC012168460170417081700021C170FD
:10235000012101716A4604210020FFF70BFE6A4645
:1023600005210020FFF706FE6A4601210020FFF745
:1023700001FE002168460170012141700221817037
:102380006A460021C020FFF7F5FD6A460121C02002
:10239000FFF7F0FD0021C020FFF7D4FD0121C02090
:1023A000FFF7D0FD6A4608210020FFF7E3FD6A46EB
:1023B00008214020FFF7DEFD6A460A210020FFF7D2
:1023C000D9FD6A460D214020FFF7D4FD6A46092158
:1023D0004020FFF7CFFD6A460B214020FFF7CAFDE2
:1023E0006A460A214020FFF7C5FD6A4602214020C7
:1023F000FFF7C0FD6A4601214020FFF7BBFD6A469A
:1024000000214020FFF7B6FD6A4607210020FFF7B4
:10241000B1FD6A4606210020FFF7ACFD082100202F
:10242000FFF790FD08214020FFF78CFD0A210020D6
:10243000FFF788FD0D214020FFF784FD0921402092
:10244000FFF780FD0B214020FFF77CFD0A21402093
:10245000FFF778FD02214020FFF774FD01214020A5
:10246000FFF770FD00214020FFF76CFD07210020E1
:10247000FFF768FD06210020FFF764FD1CBD08B5CD
:102480000020FFF709FC002001F0D8FB002168467E
:1024900001704170817001F0E5F908BDF0B589B0B7
:1024A0000C2105A802F072F90521684602F06EF9C8
:1024B0000A2102A802F06AF901210B2001F0A0FB19
:1024C0000021684601706A460D218020FFF752FD09
:1024D00003220D218020FFF7F3FD032168460175DB
:1024E0000021C17501218175002101764176817637
:1024F000C1762848079005A801F0AEFF05202649BF
:1025000008602648264908602648008884B20121D0
:10251000204601F031FD2048008885B2204800881F
:1025200086B22946022001F03FFD3146032001F02A
:102530003BFD072168464172002181720121C17271
:1025400000210173072181730021C17301210174EE
:102550000021417402A9012001F0A4FD012008908E
:10256000089801F005FF0027384601F071FD01F0E1
:102570007DFC002001F00AFF012200210520FFF769
:10258000BDF80021012001F071FD01F0E5FE09B068
:10259000F0BD0000113E0000A8000020E303000091
:1025A000AC000020B000002030B585B01421684692
:1025B00002F0ECF80121082001F022FB002168461E
:1025C000017041710221C1700121817100210171ED
:1025D000817041701048029069460020FEF736FA7B
:1025E0000E4C21460020FEF7B5F92546294600206D
:1025F000FEF7E0F900210846FEF790F90020FEF70B
:1026000017FA012203210E20FFF778F80020FEF7C9
:1026100001FA05B030BD0000F13D000018FC0000DB
:1026200010B53E490978002976D100F0C9F83C4937
:10263000097888425ED13B490978002969D1384937
:102640000978002952D038490978354A12789142E0
:1026500037D13649097800295BD0354909780029F6
:1026600010D034490978491C324A11701146097852
:1026700014294ED1002111702D4A11700121294ACF
:10268000117046E001212C4A11702A490978491C31
:10269000284A117029490978002903D1114609787F
:1026A000062907D025490978002932D0214909781F
:1026B00003292ED100211F4A11700121194A1170DE
:1026C00027E017490978184A11700121154A11703D
:1026D0000021194A11700121154A1170134A117015
:1026E0000021144A1170154A117012E000210E4A9F
:1026F00011700EE00A49087000210F4A1170012183
:102700000B4A11700021094A11700A4A11700B4AD4
:1027100011701421014A117010BD0000C100002089
:10272000C3000020BC000020C4000020BF00002027
:10273000BE000020C2000020BD000020C00000201C
:1027400004480078002804D002480078401E01495F
:1027500008707047C100002010B5FFF761FF1548F1
:102760000078002824D014480078012804D00228DA
:1027700006D0032813D107E00120FEF72FFC0FE05D
:102780000220FEF72BFC0BE00C480078002803D059
:1027900000200A49087003E0FEF75CFE00E000BF7D
:1027A00000BF0548007800F0EDFF002001490870E7
:1027B00010BD0000BC000020C4000020BD000020AF
:1027C00070B5002400F0BCFC0546012D04D0022D9C
:1027D00005D0032D09D105E00120044305E00220C6
:1027E000044302E00320044300BF00BF204670BD45
:1027F00014200B49087000200A4908700A49087023
:102800000A4908700A49087001200A490870002026
:1028100009490870094908700949087070470000A3
:10282000C1000020C3000020C4000020BC00002024
:10283000BD000020BE000020BF000020C20000201C
:10284000C000002010B50446002C30D00821002024
:10285000FFF74EFC08214020FFF74AFC0A21002028
:10286000FFF746FC0D214020FFF742FC09214020E4
:10287000FFF73EFC0B214020FFF73AFC0A214020E5
:10288000FFF736FC02214020FFF732FC01214020F7
:10289000FFF72EFC00214020FFF72AFC0721002033
:1028A000FFF726FC06210020FFF722FC2FE008217D
:1028B0000020FFF747FB08214020FFF743FB0A21D8
:1028C0000020FFF73FFB0D214020FFF73BFB0921D4
:1028D0004020FFF737FB0B214020FFF733FB0A2195
:1028E0004020FFF72FFB02214020FFF72BFB0121A7
:1028F0004020FFF727FB00214020FFF723FB0721A3
:102900000020FFF71FFB06210020FFF71BFB10BD77
:1029100070B504460D46012D65D1402C3AD00EDC31
:10292000082C46D006DC012C52D0022C4BD0042CB3
:1029300058D143E0102C37D0202C53D12FE0012167
:102940004902601A8C4216D006DC802C1DD0E01F94
:10295000F938002846D113E0FF38FF380238002844
:1029600004D001218902401A3CD136E00821002020
:10297000FFF7BEFB36E008214020FFF7B9FB31E04E
:102980000A210020FFF7B4FB2CE00D214020FFF7C7
:10299000AFFB27E009214020FFF7AAFB22E00B2133
:1029A0004020FFF7A5FB1DE00A214020FFF7A0FB18
:1029B00018E002214020FFF79BFB13E0012140209B
:1029C000FFF796FB0EE000214020FFF791FB09E0A6
:1029D00007210020FFF78CFB04E006210020FFF711
:1029E00087FB00BF65E0402C3AD00EDC082C46D0B7
:1029F00006DC012C52D0022C4BD0042C58D143E0E1
:102A0000102C37D0202C53D12FE001214902601A1D
:102A10008C4216D006DC802C1DD0E01FF93800282F
:102A200046D113E0FF38FF380238002804D00121D6
:102A30008902401A3CD136E008210020FFF782FAD3
:102A400036E008214020FFF77DFA31E00A2100201E
:102A5000FFF778FA2CE00D214020FFF773FA27E00A
:102A600009214020FFF76EFA22E00B214020FFF7FA
:102A700069FA1DE00A214020FFF764FA18E00221FC
:102A80004020FFF75FFA13E001214020FFF75AFAD8
:102A90000EE000214020FFF755FA09E00721002051
:102AA000FFF750FA04E006210020FFF74BFA00BFC1
:102AB00000BF70BDF8B5044601267702002510E07E
:102AC00020463040002804D001213846FFF720FF7F
:102AD00003E000213846FFF71BFF76007F08681CE3
:102AE000C5B20A2DECDBF8BD70B5012418480068AA
:102AF000002800D170BD17480078002826D0002596
:102B000014E013480068204000280CD012480078D8
:102B1000002804D000212046FFF7FAFE03E001213F
:102B20002046FFF7F5FE6400681CC5B20C2DE8DBFB
:102B300009480078002803D000200749087002E007
:102B400001200549087000200249087000BFD1E744
:102B50007C000020290000202F00002070B50446D2
:102B60000D46002D05D0084800682043064908603E
:102B700008E005480068A04303490860002120469A
:102B8000FFF7C6FE70BD00007C00002010B5FFF707
:102B900076FCFFF7CDFBFFF707FDFFF75FFBFFF7C5
:102BA0007DFC10BD16480078401C15490870084689
:102BB0000078642823DB0020087012480078401C4D
:102BC0001049087008460078052803D101200E49F5
:102BD00008700BE00B4800780A2807DB0020094941
:102BE00008700120094908700749087008480078F2
:102BF000002804D006480078401E05490870704738
:102C000045000020460000202A0000202800002067
:102C10004800002010B50020FEF788F80D48007825
:102C2000042804D101210820FFF798FF11E00021BA
:102C30000820FFF793FF01210820FFF769FE012418
:102C40000448017820468840044601212046FFF7C9
:102C50005FFE10BD3600002010B50446012C14D1D3
:102C600015480078052805DA13480078401C1249F9
:102C7000087002E00020104908700B200F4908700E
:102C8000FFF7C8FF00F012FD15E0022C13D10A482F
:102C90000078002805DD08480078401E06490870C5
:102CA00002E00520044908700B2004490870FFF772
:102CB000B1FF00F0FBFC10BD3600002040000020FA
:102CC00010B5002002490860FFF7BCFD10BD0000F0
:102CD0007C00002010B5FFF78BFDFEF769FC00209B
:102CE000FFF7B0FD00F020F8FEF7E4FAFEF756FA21
:102CF000C820FEF751FCFEF749F910BD10B50024BD
:102D00000EE0012000F030FAFF202D30FEF744FCE9
:102D1000002000F029FA9620FEF73EFC601CC4B2A9
:102D2000032CEEDB10BD000070B50025FFF748FD59
:102D30000546032D0AD101205049087001210F20BA
:102D40008002FFF70BFFFFF765FF43E0022D0CD178
:102D500002204A49087078204949087000F0DAFBDF
:102D600001210720FFF7FAFE34E0012D2FD10320C7
:102D7000424908700526002407E04248805D424928
:102D80000855701EC6B2601CC4B2062CF5DB0020CC
:102D9000FFF758FD00F002FB00BFFFF711FD002810
:102DA000FBD100240DE00020FFF74CFD6420FEF76E
:102DB000F3FB0120FFF746FD6420FEF7EDFB601CEE
:102DC000C4B2032CEFDB00203049087002E0002081
:102DD0002A49087029480078002802D12C49087037
:102DE00002E00B202A4908703AE0294800780028C0
:102DF00000D136E0FFF714FC26480078002818D0F0
:102E00001E480078022804D12348007800F0CAF94F
:102E10000CE01A480078032804D11F48007800F01D
:102E200057FA03E01C480078FFF716FF0020194905
:102E300008701A480078002810D000201749087040
:102E400013480078002804DD11480078401E10491E
:102E5000087001201249087000F0D8F9FFF744FE0D
:102E6000C3E700BFFFF72CFF04480078022801D019
:102E7000FFF744FF00200149087070BD42000020A8
:102E800043000020550000205B000020530000207C
:102E900040000020BC000020C400002028000020CA
:102EA0002900002010B5FEF743FA8A480078002870
:102EB0007ED000208749087087480078002804DD0C
:102EC00085480078401E84490870844800780028AE
:102ED00004DD82480078401E804908700120804946
:102EE00008708048007800280ADD7E480078401E7F
:102EF0007C49087008460078002801D17A4908709A
:102F00007A480078002801D0FDF7F4FE01F08CFB30
:102F1000714800786F2805D100207549087000F0CD
:102F2000D7FB3EE06C480078152809D10020FDF75A
:102F3000FDFE0020FDF718FF01206E49087030E00B
:102F4000654800780C280DD100F0F0F8FEF726F95E
:102F50006948007869490870002067490870654928
:102F600008701EE05C48007801281ADB5A48007897
:102F70000B2816DC6048007860490978884204DA3A
:102F80005D4800780A305C4908700020FEF726F89A
:102F900003205249087050480078012801D10020D0
:102FA000087057480068401C55490860084600E012
:102FB00071E00068FF212D3188423BD151480078F3
:102FC000401C50490870084600784F4909788842EB
:102FD00007DB00204B490870FEF72AF916203E490E
:102FE000087000204649086000F0A6FA47480078BB
:102FF000401D46490870084600783C2818DB002030
:10300000087005220EE04248805C401C404988540C
:103010000846805C0A2802D10020885400E003E0C2
:10302000501EC2B2002AEEDC00BF00F0A9FA00BFB9
:1030300000F094FA37480078002812D0364800682B
:10304000401C3549086008460068E121C9018842F2
:1030500007D300202F490870FEF73AFF0020FDF744
:10306000BDFFFDF795FB2D480078002813D12948B6
:10307000007800280FD12A48007800280BD1174883
:103080000078002807D1FEF7E5F81A4800780028F4
:1030900001D1FEF735F900F0C5FA20480078002884
:1030A00014D1FEF797FE0D480078002802DD0020BD
:1030B0001C4908701B480078002807D000201949D7
:1030C0000870FDF793FE002017490870FFF70CFD0C
:1030D00010BD00002800002041000020400000201A
:1030E0002900002062000020610000203400002040
:1030F000470000202E000020380000203A00002069
:1031000074000020440000204300002054000020F0
:103110005500002027000020780000203C000020FF
:10312000350000202A0000203000002000B50320D8
:10313000FEF7BEFA0149087000BD0000370000200C
:1031400010B5002405210020FEF70AFF002801D158
:103150000120044304210020FEF702FF002801D1D2
:1031600002200443204610BD10B50446214601202C
:10317000FFF7CEFB0A480078782807D121460420C3
:10318000FFF7C6FB21460220FFF7C2FB0448007888
:103190005A2803D121460220FFF7BAFB10BD0000D8
:1031A0004300002010B50446012C14D115480078C6
:1031B000782826D15A201349087000210420FFF7EF
:1031C000CDFC00210420FFF7A3FB0B200E49087063
:1031D00000F0A0F915E0022C13D10A4800785A2813
:1031E0000FD13C200749087000210220FFF7B6FCF0
:1031F00000210220FFF78CFB0B200349087000F030
:1032000089F910BD430000204000002070B52B4814
:103210000078032800D070BD29480078002826D007
:1032200028480078012821D1FFF70CFB6420FEF725
:10323000B3F90020FFF706FB6420FEF7ADF901208B
:10324000FFF700FB6420FEF7A7F90020FFF7FAFA6A
:103250006420FEF7A1F90120FFF7F4FA6420FEF7DD
:103260009BF900201749087015490870D3E71548E5
:103270000078062803D10020FFF7E4FACBE71148D5
:103280000078052818D1104810490978465C002EAE
:1032900003D10120FFF7D6FA0EE00020FFF7D2FAA3
:1032A0000125002406E001212846FFF731FB6D00CF
:1032B000601CC4B2B442F6DB00BFACE742000020A1
:1032C00033000020400000205B000020530000205D
:1032D00070B50446012C16D129480078052808DA73
:1032E00027480078401C26490870072025490870A7
:1032F00045E001202449087003202249087000207D
:10330000FFF7A0FA3BE0022C1ED101201F490870F4
:103310001F481B490978405C002809DD1C481849F2
:103320000978405C401E1A49154A1278885404E016
:1033300009201749124A127888540620114908704A
:103340000120144908701AE0032C18D10F480078A6
:10335000002814D000200D4908700526002507E03C
:103360000B48405D0C498855701EC6B2681CC5B23A
:10337000062DF5DB00F004F900200249087070BD4D
:1033800053000020400000203300002032000020C5
:103390005B000020280000205500002070B53E484A
:1033A00000783E490978884242D001253A480178A0
:1033B00028468840054601212846FFF7A9FA01243E
:1033C0003648017820468840044601212046FFF710
:1033D0009FFAC820FEF7E0F800212046FFF798FA90
:1033E0006420FEF7D9F801212046FFF791FAC820A2
:1033F000FEF7D2F800212046FFF78AFA6420FEF794
:10340000CBF801212046FFF783FAC820FEF7C4F865
:1034100000212046FFF77CFA6420FEF7BDF800216A
:103420002046FFF775FA00212846FFF771FA32E0CF
:10343000012419480178204688400446012120468D
:10344000FFF766FAFF20F530FEF7A6F800212046C8
:10345000FFF75EFAC820FEF79FF801212046FFF72C
:1034600057FAFF20F530FEF797F800212046FFF7C6
:103470004FFAC820FEF790F801212046FFF748FADE
:10348000FF20F530FEF788F800212046FFF740FACC
:10349000C820FEF781F870BD9C0000209D00002030
:1034A0000D480078012808D10C4800780C490870B4
:1034B000084600780B49487207E0084800780A4936
:1034C000087008460078074988720848007801218A
:1034D0000843064908707047370000206300002049
:1034E0004B000020EC0000204C0000206400002075
:1034F000054800780549087105480078012108430E
:10350000034908707047000038000020EC000020DC
:103510006400002005480078054948710548007896
:103520000121084303490870704700004300002050
:10353000EC000020640000200548007805498871EF
:1035400005480078012108430349087070470000CE
:1035500044000020EC0000206400002005480078B2
:103560000549C872054800780221084303490870DC
:103570007047000054000020EC0000206400002090
:103580000C4800780C4908730A4840784873094889
:10359000807888730748C078C87306480079087433
:1035A00004484079487405480078022108430349DB
:1035B0000870704755000020EC00002064000020D7
:1035C000F7B582B007461646002501200190072472
:1035D0002403E419012211461148FEF7A1F92046FF
:1035E000FEF7FAFA00BF16E0715D2046FEF792FB87
:1035F0000190019800280AD12078715D884203D19A
:1036000000200190641C04E00120019001E00120F1
:103610000190681CC5B203988542E5DB05B0F0BD9A
:10362000A117000010B51E480078002800D110BD79
:103630001B480078C007C00F00280AD0194A0B2188
:103640000020FFF7BDFF16480078400840001449ED
:103650000870134800780221084000280BD0114A56
:103660000B3207211048FFF7ABFF0D48007802210D
:1036700088430B4908700A48007804210840002854
:103680000BD0084A0B2101208002FFF799FF044864
:103690000078042188430249087000BFC7E7000092
:1036A00064000020EC0000200102000005480078C2
:1036B00005498870054800780121084303490870CE
:1036C0007047000036000020EC000020640000205D
:1036D000054800780549087205480078012108432B
:1036E000034908707047000047000020EC000020EC
:1036F0006400002010B500F01DF80A4A0B210020DC
:10370000FFF75EFF074A0B2101208002FFF758FFF9
:1037100000F050FF00200449087004490870044973
:10372000087010BDEC0000203C00002027000020A5
:103730003D00002011484078114908700F48C078BA
:1037400048700120C87064200871084680780028FD
:1037500003D008468078012803D1782008494871B1
:1037600002E05A2006494871002005498871C87155
:103770000872732048728C20887270479E00002067
:10378000EC00002010B50446012C1AD12C4800781A
:1037900000280AD12B480078002806D12A48007852
:1037A000002802D103202949087027480078012108
:1037B000084325490870084600784006000E087046
:1037C00007E0022C05D1204800784006000E1E4973
:1037D00008701D480078362814D11D48007800284C
:1037E0002CD11C480078002828D1012014490870E9
:1037F000002015490870184908700121C802FFF718
:10380000ADF91BE0104800782C2817D101200D4994
:10381000087000200F4908700D49087008490870A9
:1038200009490870FFF70EF80020FDF79DFA002007
:103830000A49087001210A48FFF790F910BD0000FD
:1038400034000020350000206100002062000020CC
:10385000270000203D000020410000202C00002017
:103860000102000070B5044600252078030000F036
:1038700041FF0504050C10181C0018E0032000F09F
:1038800073FA032000F03AFA11E0032000F024FA62
:103890000DE00321084600F075FA032000F03EFA1F
:1038A00005E0072000F09AF901E0042500BF00BF01
:1038B0002078012100F00CF8207800F03FFA6078C1
:1038C00000F060F9A07800F073F9284670BD0000A0
:1038D00070B505460C46002600F000FF002C01D014
:1038E000012000E0002004462B0000F003FF050447
:1038F00017394D7488004448006840084000E107CB
:10390000C90F08434049086000BF002C05D03E485D
:10391000C0680005C00F0028F7D072E03B48C068BF
:1039200040084000401C3949C8600846C068022170
:103930008843801C3549C8603348006802218843A9
:1039400061000222114008432F49086000BF002C8B
:1039500005D02D4800694006C00F0028F7D050E080
:103960002948006804218843A1000422114008432B
:103970002549086000BF002C05D023484069C004D9
:10398000C00F0028F7D03CE020484038C068012133
:103990008903884340181D494039C8600846C068FB
:1039A0000121C9038843401818494039C8601648A6
:1039B000006808218843E1000822114008431249A9
:1039C000086000BF002C05D00F4880694006C00F7A
:1039D0000028F7D015E00C48006810218843210129
:1039E0001022114008430849086000BF002C05D090
:1039F0000548C06B4003C00F0028F7D001E0042643
:103A000000BF00BF304670BD00200040C00D024026
:103A100030B589B000241422564904A8FCF7A2FB53
:103A200054481430006803900020009001900290E8
:103A300051480188684601814F4841886846C180E5
:103A40004D488188684681804B48C18868464180DE
:103A500049482030018868460180484800680006CF
:103A6000450F2B0000F046FE05042E303E41780045
:103A70004248C0684005400D69460989884201D125
:103A8000089C1EE03D48C0684005400D6946C98855
:103A9000884201D1079C14E03848C0684005400DB9
:103AA00069468988884201D1069C0AE03348C0688B
:103AB0004005400D69464988884201D1059C00E0D7
:103AC000049C4BE02E4C49E0684600882B4949692C
:103AD0008905890D884202D16846C48901E068469B
:103AE00084893BE00124E40338E02448C06B80076C
:103AF000800F032829D1684600892049C9684905F3
:103B0000490D884201D1089C20E06846C0881B49C5
:103B1000C9684905490D884201D1079C16E06846ED
:103B200080881649C9684905490D884201D1069C1B
:103B30000CE0684640881149C9684905490D88422A
:103B400001D1059C02E0049C00E00D4C0B48C06BC9
:103B5000C005000F444301E0002400BF00BF074838
:103B600000684005410F2046C8400446204609B081
:103B700030BD0000D0480000000C100000200040C4
:103B80000048E80170B50446002500F0A7FD07488D
:103B9000006807210902884321020722120211400E
:103BA000084302490860284670BD0000002000401C
:103BB00070B50446002500F091FD07480068032118
:103BC000C9028843E1020322D2021140084302499C
:103BD0000860284670BD00000020004010B5014676
:103BE0000020064AD26B0723DB039A43CB0307244A
:103BF000E40323401A43014BDA6310BD0020004068
:103C000010B502460020002901D0012300E0002366
:103C10001946002907D0084B1B6A0124944023430E
:103C2000054C236206E0044B1B6A01249440A34325
:103C3000014C236210BD00000020004010B5014679
:103C400000200B0000F056FD0504101C2834400035
:103C50001F4B1B895A05520D1E4BDB68DB0ADB022A
:103C600013431C4CE36031E0194BDB885A05520DBD
:103C7000184BDB68DB0ADB021343164CE36025E0DC
:103C8000134B9B885A05520D124BDB68DB0ADB0293
:103C90001343104CE36019E00D4B5B885A05520D3D
:103CA0000C4BDB68DB0ADB0213430A4CE3600DE0DC
:103CB000074B1B885A05520D064BDB68DB0ADB02FB
:103CC0001343044CE36001E0042000BF00BF10BDBB
:103CD000000C10000020004010B501460020064AEC
:103CE000526903239B029A438B020324A4022340BC
:103CF0001A43014B5A6110BD0020004010B5014627
:103D00000020054A126930239A430B0130242340D6
:103D10001A43014B1A6110BD0020004010B5014646
:103D20000020054A926930239A430B013024234036
:103D30001A43014B9A6110BD0020004070B5044643
:103D40000025264600F0CAFC06480068E0218843AA
:103D50007101E022114008430249086000F02CF88C
:103D6000284670BD0020004001460020044A126928
:103D7000920892008B079B0F1A43014B1A61704700
:103D80000020004030B5024600200A4B9B690C24FD
:103D9000A34394000C252C402343064CA3612346E7
:103DA0009B699B089B008C07A40F2343014CA361D4
:103DB00030BD00000020004010B5FFF729FE01498A
:103DC000086010BD0000002010B5074909894805AA
:103DD000400D0649C968C90AC9020143034AD160B6
:103DE000FFF7EAFF10BD0000000C100000200040AB
:103DF00010B500210846FCF79FFD012807D1FEF70A
:103E00009FFCFEF7CFFE00210846FCF787FD10BDA2
:103E100010B5002000F092F801281FD1104800785A
:103E2000002811D10F48008881B2022000F0BCF8B0
:103E30000D48008881B2032000F0B6F808480078E9
:103E4000401C0749087006E005480078012802D1A7
:103E5000002003490870002000F066F810BD000043
:103E6000D6000020A8000020AC00002000202D4932
:103E70004969490849002B4A5161114649690422A0
:103E80009143284A51611146496908229143254AC4
:103E900051611146496910229143224A51611146EC
:103EA0004969202291431F4A5161114649694022C4
:103EB00091431C4A51611146496980229143194A34
:103EC00051611146496912149143164A51611146D4
:103ED0004969D2139143134A5161114649699215B8
:103EE0009143104A516111464969521591430D4A57
:103EF000516111464969121591430A4A51611146AF
:103F00004969D2149143074A516111464969921493
:103F10009143044A51611146496952149143014A3F
:103F200051617047005800400146002001228A403C
:103F3000D243014B5A6170470058004001460020AF
:103F4000034B1A691346CB40D807C00F70470000D7
:103F50000058004010B50446002C07D10548006801
:103F6000002802D003480068804700E000BF00BF7F
:103F700010BD0000E800002030B502460020094BCB
:103F80001B681B0C1B0494B22343064C236023467E
:103F9000DB688024A343CC0180252C402343014CC3
:103FA000E36030BD0058004010B502460020002AF2
:103FB00008D1264BDB6B1B0C1B048CB22343234C18
:103FC000E36341E0012A0AD1204B40331B681B0CFC
:103FD0001B048CB223431D4C4034236034E0022A7E
:103FE0000AD11A4B40335B681B0C1B048CB2234371
:103FF000164C4034636027E0032A0AD1134B403348
:104000009B681B0C1B048CB22343104C4034A360F0
:104010001AE0042A0AD10D4B4033DB681B0C1B0449
:104020008CB22343094C4034E3600DE0052A0AD1E9
:10403000064B40331B691B0C1B048CB22343034CFF
:104040004034236100E0012010BD00000058004012
:1040500001460020044A5268120C12048BB21A4323
:10406000014B5A60704700000058004030B50246CE
:1040700000200B4B1B6B01242403A34314030125D5
:104080002D032C402343064C236323461B6BE4146F
:10409000A343CC026D102C402343014C236330BD5D
:1040A0000058004030B502460020002A04D0012A02
:1040B00069D0022A7ED1D7E0A64B5B6A1024A343C5
:1040C000A44C63622346DB69DB08DB004C786407A1
:1040D000640F23439F4CE3612346DB690824A34319
:1040E0008C78E40008252C4023439A4CE361234656
:1040F0005B6A4024A343CC78A40140252C40234391
:10410000944C63622346DB6803246405A3430C7963
:10411000640503256D052C4023438E4CE360234644
:104120005B6A2024A3438B4C63622346DB697024C3
:10413000A3438C79240170252C402343854CE361F3
:104140002346DB698024A343CC79E40180252C40FD
:104150002343804CE36123465B6A8024A3430C7AAB
:10416000E4012C4023437B4C636223465B6A0324B7
:104170002403A3434C7A240303252D032C4023431B
:10418000744C6362E3E0734B9B6A1024A343714C4D
:10419000A3622346DB6907242402A3434C7824024C
:1041A00007252D022C4023436A4CE3612346DB693B
:1041B000E41400E0C9E0A3438C78E4020125ED0299
:1041C0002C402343634CE36123469B6A4024A34372
:1041D000CC78A40140252C4023435E4CA3622346A7
:1041E000DB6803246405A3430C79640503256D058E
:1041F0002C402343574CE36023469B6A2024A3436F
:10420000544CA3622346DB6907242403A3438C791F
:10421000240307252D032C4023434E4CE361234602
:10422000DB69E413A343CC79E4030125ED032C40BF
:104230002343484CE36123469B6A8024A3430C7AC2
:10424000E40180252C402343424CA36223469B6A11
:1042500003242403A3434C7A240303252D032C4079
:1042600023433C4CA36272E03A4BDB6A1024A34325
:10427000384CE3622346DB6907242404A3434C78CB
:10428000240407252D042C402343324CE3612346AC
:10429000DB690124E404A3438C78E4040125ED04E4
:1042A0002C4023432B4CE3612346DB6A4024A34389
:1042B000CC78A40140252C402343264CE3622346BE
:1042C000DB6803246405A3430C79640503256D05AD
:1042D0002C4023431F4CE3602346DB6A2024A34386
:1042E0001C4CE3622346DB6907242405A3438C7935
:1042F000240507252D052C402343164CE361234656
:10430000DB690124E405A343CC79E4050125ED052F
:104310002C4023430F4CE3612346DB6A8024A343F4
:104320000C7AE40180252C4023430A4CE3622346A7
:10433000DB6A03242403A3434C7A240303252D03BF
:104340002C402343034CE36201E0012000BF00BF87
:1043500030BD00000058004000200449C9684908E9
:104360004900491C014AD1607047000000580040D4
:1043700001460020044A526B120A1202CBB21A43C1
:10438000014B5A63704700000058004000B50146D9
:1043900000200B0000F0AEF910095A1224361B2D34
:1043A0003F5A5A5A5A5A5A48515A2A4AD2680123ED
:1043B0009B029A43D218274BDA6049E0254A526A99
:1043C000FF2301339A43D218224B5A6240E0214A1C
:1043D000526A01235B029A43D2181E4B5A6237E09D
:1043E0001C4A926AFF2301339A43D218194B9A62EE
:1043F0002EE0184A926A01235B029A43D218154BA9
:104400009A6225E0134AD26AFF2301339A43D218F5
:10441000104BDA621CE00F4AD26A01235B029A4316
:10442000D2180C4BDA6213E00A4AD26801231B054A
:104430009A43D218074BDA600AE0064AD268012391
:10444000DB049A43D218034BDA6001E0012000BF7D
:1044500000BF00BD0058004010B5014600202F4AA3
:10446000D26803231B039A430B781B030324240302
:1044700023401A43294BDA601A46D26870239A43C4
:104480008B781B01702423401A43244BDA601A46B0
:10449000D26804239A43CB789B00042423401A4318
:1044A0001E4BDA601A46D26802239A430B795B00EE
:1044B000022423401A43194BDA601A46D2680823B3
:1044C0009A434B79DB00082423401A43134BDA60EC
:1044D0001A46D2681B149A438B799B03E40223404B
:1044E0001A430E4BDA601A46D268E3009A43CB793E
:1044F0005B04E40023401A43084BDA601A46D26892
:10450000A3029A434B78DB06A40223401A43034BD1
:10451000DA60034B8A681A6010BD00000058004042
:10452000E800002010B50446002C04D0012C0AD06D
:10453000022C18D10FE00D480068002802D00B486B
:104540000068804710E00A480068002802D0084848
:104550000068804708E007480068002802D0054846
:104560000068804700E000BF00BF10BDDC000020F5
:10457000E0000020E40000200B48C07A0B490870DE
:104580000948007B0A4908700748407B4870064884
:10459000807B88700448C07BC8700348007C087129
:1045A0000148407C48717047EC0000205400002016
:1045B0005500002012488078124908701048C078D1
:1045C000114908700E480079104908700C4840796C
:1045D0000F4908700A4880790E4908700848C07968
:1045E0000D4908700648007A0C4908700448407A62
:1045F0000B4908700248807A0A4908707047000029
:10460000EC00002036000020370000203800002099
:1046100043000020440000203D000020470000200F
:104620004B0000204C00002010B5264800780028E0
:1046300001D1012403E0002400202249087022480F
:104640000078844207D02048047000201F49087079
:104650001F4908700BE01E480078401C1C49087078
:1046600008460078032802DB012018490870174823
:104670000078002800D110BD16480078124909784A
:1046800088421DD01048007812490870084600780A
:10469000002807D00121C802FEF760FA0020FCF7CD
:1046A00063FB0DE000210120C002FEF757FA002154
:1046B0000120C002FEF72CF907480078FCF754FBF4
:1046C00000BFD8E74F00002052000020310000203A
:1046D000500000205100002038000020024803490B
:1046E00088600348886070475A5A000000200040E4
:1046F000A5A5000030B47446641E2578641CAB4246
:1047000004D3635D5B00E31830BC18471D46F8E72F
:1047100010B5002819DB1A4A03231B02D21883089C
:104720009B00D2588307DC0EFF23A3409A438B07DC
:104730001B0E8407E40EA3401A43114B03242402EA
:104740001B198408A4001A5118E00E4A03071B0F16
:10475000083B9B089B00D2588307DC0EFF23A34035
:104760009A438B071B0E8407E40EA3401A43054BA4
:104770000407240F083CA408A4001A5110BD00002F
:1047800000E100E01CED00E000BF704710B50A46F4
:104790000146002900D110BD02E000230B70491C26
:1047A0001346521E002BF8D100BFF4E770B5054642
:1047B00011481249486100208861052008610FE016
:1047C00000200E4988610E490E480068FBF713FD72
:1047D000012109060C1A00BF08488069A042FBD8D5
:1047E00028466D1E0028EBD10448006940084000AF
:1047F0000249086170BD0000FFFFFF0000E000E01B
:10480000102700000000002070B50546114812492D
:10481000486100208861052008610FE000200E49F2
:1048200088610E490E480068FBF7E5FC0121090686
:104830000C1A00BF08488069A042FBD828466D1EAC
:104840000028EBD104480069400840000249086193
:1048500070BD0000FFFFFF0000E000E0A086010047
:104860000000002070B5054611481249486100203B
:1048700088610520086110E000200E4988617D21D3
:10488000C9000D480068FBF7B6FC012109060C1AA7
:1048900000BF08488069A042FBD828466D1E00284A
:1048A000EAD104480069400840000249086170BD2F
:1048B000FFFFFF0000E000E000000020FEF766F9C7
:1048C000FEF708FA03E0FDF747FFFEF7EBFAFAE719
:1048D00000093D0000127A000024F40040865101D6
:1048E00000366E010080009608490000000000209C
:1048F000EC00000004010000F4490000EC0000207E
:104900008C0400002001000000093D00F0000000C0
:1049100068010000F40100008A0200004803000062
:10492000C0030000E80300001E28323C465055003A
:104930000000000000000000000000000000000077
:1049400000FF000000000000000000000000000068
:10495000000000000000000000FF00000000000058
:104960000000000000000000000000000000000047
:104970000000000000000000000000000000000037
:104980000000000000000000000000000000000027
:10499000FFFF000000000000000000000000000019
:1049A0000000000000000000000000000000000007
:1049B00000000000E8030000E80300000000000021
:1049C00000000000000000000000000000000000E7
:1049D00000000000000000000000000000000000D7
:1049E00000000000000000000000000000000000C7
:0449F00000000000C3
:04000005000000C136
:00000001FF
