:020000040000FA
:10000000700500209D010000B7010000CD23000015
:1000100000000000000000000000000000000000E0
:10002000000000000000000000000000BB01000014
:100030000000000000000000BD010000BF01000042
:10004000DD230000E7230000F1230000FB23000074
:10005000052400000F2400001924000023240000C0
:100060002D24000037240000412400004B24000010
:10007000552400005F240000692400007324000060
:100080007D24000087240000912400009B240000B0
:10009000A5240000AF240000B9240000C324000000
:1000A000CD240000D7240000E1240000EB24000050
:1000B000F5240000FF24000009250000132500009E
:1000C00000F002F800F03EF80CA030C80838241800
:1000D0002D18A246671EAB4654465D46AC4201D180
:1000E00000F030F87E460F3E0FCCB6460126334274
:1000F00000D0FB1AA246AB463343184730550000E8
:1001000050550000103A02D378C878C1FAD8520787
:1001100001D330C830C101D504680C6070470000BD
:100120000023002400250026103A01D378C1FBD813
:10013000520700D330C100D50B6070471FB51FBDFB
:1001400010B510BD00F008F91146FFF7F7FF04F0F5
:1001500053FE00F020F903B4FFF7F2FF03BC04F0F4
:10016000B1FD000070B505460C46164602E00FCC06
:100170000FC5103E102EFAD2082E02D303CC03C5B1
:10018000083E042E07D301CC01C5361F03E02178B9
:100190002970641C6D1C761EF9D270BD0C480D4A86
:1001A000002100A1814200D902440B4802600B48A3
:1001B00080470B480047FEE7FEE7FEE7FEE7FEE765
:1001C000FEE7000007480849084A094B704700004D
:1001D000000000200000000008ED00E029470000BA
:1001E000C100000070010020700500207003002095
:1001F000700300207047002203098B422CD3030AAE
:100200008B4211D300239C464EE003460B433CD463
:10021000002243088B4231D303098B421CD3030ACB
:100220008B4201D394463FE0C3098B4201D3CB01FB
:10023000C01A524183098B4201D38B01C01A52412B
:1002400043098B4201D34B01C01A524103098B422F
:1002500001D30B01C01A5241C3088B4201D3CB001A
:10026000C01A524183088B4201D38B00C01A5241FD
:1002700043088B4201D34B00C01A5241411A00D2AD
:1002800001465241104670475DE0CA0F00D0494216
:10029000031000D34042534000229C4603098B4286
:1002A0002DD3030A8B4212D3FC22890112BA030A0E
:1002B0008B420CD3890192118B4208D38901921190
:1002C0008B4204D389013AD0921100E08909C30915
:1002D0008B4201D3CB01C01A524183098B4201D317
:1002E0008B01C01A524143098B4201D34B01C01A02
:1002F000524103098B4201D30B01C01A5241C3087A
:100300008B4201D3CB00C01A524183088B4201D3E8
:100310008B00C01A5241D9D243088B4201D34B0003
:10032000C01A5241411A00D20146634652415B1045
:10033000104601D34042002B00D549427047634626
:100340005B1000D3404201B50020C046C04602BD4C
:100350007047704770477047754600F025F8AE4605
:10036000050069465346C008C000854618B020B550
:10037000FFF728FF60BC00274908B6460026C0C525
:10038000C0C5C0C5C0C5C0C5C0C5C0C5C0C5403D4D
:1003900049008D46704710B50446C046C046204609
:1003A000FFF7D9FE10BD0000004870471001002083
:1003B00010B500200249487100F082F910BD00001C
:1003C000C900002010B500F085F910BD10B501205E
:1003D00000F0CEFA002000F0CBFA03F04BF80D212C
:1003E000802001F0E5FF01220321002001F05CFAEA
:1003F00010BD10B500F06EF9012000F0C7FA002022
:1004000000F0C4FA03F047F80D21802001F0D0FF7E
:1004100010BD000010B5044800F082F80120034927
:10042000487101F0D7F810BDC6000020C9000020B7
:100430004279012A05D14A69002A02D0184B4A693B
:100440005A610278012A05D10A68002A02D0144BA9
:100450000A681A604278012A05D14A68002A02D047
:100460000F4B4A685A608278012A05D18A68002AAF
:1004700002D00B4B8A689A60C278012A05D1CA68FB
:10048000002A02D0064BCA68DA600279012A05D137
:100490000A69002A02D0024B0A691A6170470000FB
:1004A000F8000020014607484068FF22F1329043DF
:1004B0000A01FF23F1331A401043024A5060002022
:1004C00070470000002400400146002901D10420AB
:1004D0007047074880680122920290430A7892028E
:1004E00001239B021A401043014A90600020EFE76D
:1004F000002400400348406840084000401C014977
:100500004860704700240040044840680121C90346
:1005100088434018014948607047000000240040AB
:100520000146002901D1042070470348006A0005F4
:10053000000D08800020F7E78024004010B5044635
:100540003948006B0007C00F00280CD0374880687E
:10055000002802D03549886880473348406B08211D
:100560008843314948633048006B4007C00F00287A
:100570000CD02E48C068002802D02C49C86880479B
:100580002948406B04218843274948632648006B6B
:100590008007C00F00280CD024480069002802D032
:1005A0002249086980472048406B022188431E4940
:1005B00048631D48006BC007C00F00280CD01B48C3
:1005C0004069002802D01949486980471648406BA5
:1005D00040084000144948631348006BC006C00F30
:1005E00000280CD011484068002802D00F49486804
:1005F00080470D48406B102188430B4948630A48E7
:10060000006B8006C00F00280CD008480068002846
:1006100002D00649086880470348406B2021884380
:100620000149486310BD000080240040F80000200C
:100630000146002901D104207047204840680C225F
:1006400090434A7892000C231A4010431B4A506092
:10065000104640689A0290438A7812039B021A401F
:100660001043164A506010464068DA109043CA782A
:100670005202DB101A401043104A50601046406886
:10068000D21490430A79D2020123DB021A401043AC
:100690000A4A50601046806812149043074A9060DE
:1006A0001046806852149043044A90601046806857
:1006B00092149043014A90600020BDE7002400405E
:1006C0000348006840084000401C0149086070472A
:1006D000C024004003480068400840000149086009
:1006E00070470000C024004010B55B480078002827
:1006F00000D010BD5948007800286FD158480078C4
:10070000030004F095FA07A205173D4E6C8CA20079
:1007100000210120400202F0EAFC0121080202F05F
:10072000E6FC4F480078401C4D49087002204B49B8
:1007300008708EE00021FF20013002F0D8FC01217A
:10074000880202F0D4FC47480078002803D1012138
:10075000880202F0F3FD0121434802F0EFFD002082
:100760003F49087001204149087000204049086055
:1007700001F0C0FC00F05AFA642000F0F7FA68E0DB
:100780000021802002F0B3FC0121402002F0AFFCE8
:1007900033480078401C3249087002202F49087005
:1007A00057E00021402002F0A2FC0121880202F063
:1007B0009EFC2C480078002803D10121880202F019
:1007C000BDFD0020264908702849087001F092FC00
:1007D00000F02CFA002000F05BFC3AE03AE0002147
:1007E000202002F084FC0121102002F080FC1C4833
:1007F0000078401C1A4908700220184908701D48EA
:100800000078401C1B49087008460078032805D171
:1008100001201149087000201649087019E00021D4
:10082000102002F064FC0121880202F060FC0D48F7
:100830000078002803D10121880202F07FFD00200A
:10084000074908700949087003E00020044908704E
:1008500000BF00BF00BF4CE7320000203500002081
:10086000310000202C000020FF03000018000020B1
:10087000700000203300002030B502460020140232
:10088000034D631901248C40E4435C6130BD0000DA
:10089000000C004070B5024600201502034EAB1953
:1008A0001C692546CD40E807C00F70BD000C004014
:1008B00010B502460020002A04D0012A0BD0022ADB
:1008C0001BD111E00F4B1B681B0C1B048CB2234384
:1008D0000C4C236013E00C4B1B681B0C1B048CB2EC
:1008E0002343094C23600AE0084B1B681B0C1B04C4
:1008F0008CB22343054C236001E0012000BF00BF00
:1009000010BD0000000C0040000D0040000E004033
:1009100010B502460020002A04D0012A0BD0022A7A
:100920001BD111E00F4B5B681B0C1B048CB22343E3
:100930000C4C636013E00C4B5B681B0C1B048CB20B
:100940002343094C63600AE0084B5B681B0C1B04E3
:100950008CB22343054C636001E0012000BF00BF5F
:1009600010BD0000000C0040000D0040000E0040D3
:1009700010B5014600200B02034C1A19D3685B081E
:100980005B005B1CD36010BD000C004010B501463D
:1009900000200B02034C1A19D3685B085B00D3607C
:1009A00010BD0000000C004010B5014600200B02F5
:1009B000034C1A19D3682415A3431B19D36010BD27
:1009C000000C004030B502460020002A04D0012A65
:1009D00056D0022A7ED1A9E0804BDB680324240391
:1009E000A3430C78240303252D032C4023437B4C85
:1009F000E3602346DB686415A3434C786402012559
:100A00006D022C402343754CE3602346DB68A4153C
:100A1000A3438C7824026D102C4023436F4CE36079
:100A20002346DB687024A343CC78240170252C4036
:100A300023436A4CE3602346DB680824A3430C7914
:100A4000E40008252C402343644CE3602346DB6824
:100A50000424A3434C79A40004252C4023435F4C79
:100A6000E3602346DB680224A3438C7964000225FB
:100A70002C402343594CE360594C8B682360ABE016
:100A8000584BDB6803242403A3430C782403032579
:100A90002D032C402343534CE3602346DB6864154D
:100AA000A3434C78640201256D022C4023434D4C36
:100AB000E3602346DB68A415A3438C7824026D1001
:100AC0002C402343474CE3602346DB687024A34358
:100AD000CC7800E07EE0240170252C402343414C7B
:100AE000E3602346DB680824A3430C79E40008256F
:100AF0002C4023433B4CE3602346DB680424A343A0
:100B00004C79A40004252C402343364CE360234653
:100B1000DB680224A3438C79640002252C40234324
:100B2000304CE360304CCB68236055E02F4BDB68E2
:100B300003242403A3430C78240303252D032C4012
:100B400023432A4CE3602346DB686415A3434C78B7
:100B5000640201256D022C402343244CE3602346AC
:100B6000DB68A415A3438C7824026D102C4023432A
:100B70001E4CE3602346DB687024A343CC78240139
:100B800070252C402343194CE3602346DB6808247E
:100B9000A3430C79E40008252C402343134CE36065
:100BA0002346DB680424A3434C79A40004252C408D
:100BB00023430E4CE3602346DB680224A3438C7975
:100BC000640002252C402343084CE360084C0B6969
:100BD000236001E0012000BF00BF30BD000C0040D9
:100BE000D4000020000D0040D8000020000E00407E
:100BF000DC00002070B50A4D0A48046821462846EA
:100C0000FFF7F9FA054664212846FFF7F4FA06498A
:100C100008706424084600784443281B487070BD5F
:100C2000204B0C00580000204100002010B50A485D
:100C30000478642044430A212046FFF7DCFA074980
:100C400008600A20064908600846006803490968E8
:100C500040180349086010BD300000208C000020BF
:100C60008800002070B5094D0948006845430948CF
:100C700001682846FFF7BFFA044632346421204653
:100C8000FFF7B9FA0449086070BD0000B63A0100E8
:100C900094000020640000205800002010B51B487C
:100CA0000078012831D11A48007864282DDA1948D3
:100CB0000068401C17490860084600684B21C900BD
:100CC00088420BD1002013490860012012490870A6
:100CD00002F0D0FB00201149087016E00D480068B2
:100CE0000F490968884210D101200C49087002F0B0
:100CF000D2FB0C480C4908600C4908600D2180208B
:100D000001F056FB00200449087010BD28000020A7
:100D10002D000020B40000201D000020290000202C
:100D2000B800002014050000A0000020A40000204E
:100D3000F8B507463D460126002406E0012130466D
:100D400002F0D5F97600601CC4B2AC42F6DB0A2D85
:100D50000ADA2C4606E00021304602F0C8F9760097
:100D6000601CC4B20A2CF6DBF8BD000010B50446C6
:100D700025480078002800D010BD244800780128BC
:100D800000D1002422480078A04202D020480470FC
:100D900000E0F1E7002C16D102F07DFB1D481E4952
:100DA00008601E4908601E481E4908600D21802009
:100DB00001F0FEFA00201C4908701C49087001204F
:100DC0001B4908701EE019480078002804D1012052
:100DD000164908701449087015480078012811D187
:100DE0000A48007800280DD107480078002809D16A
:100DF0000F4908700F4908600D21802001F0D8FAD2
:100E000002F038FB00BFB7E71F00002046000020BB
:100E10002E00002014050000A0000020A4000020E7
:100E200010270000A80000201D000020280000203E
:100E300029000020B4000020F8B570480078002890
:100E400000D1F8BD6E480078002800D0F9E76D4861
:100E50000078002800D0F4E76B480078002800D024
:100E6000EFE76A480078002800D0EAE76848007891
:100E7000002800D0E5E767480078002805D06648DC
:100E8000076866480068009005E0634807686348A3
:100E900000680A38009062480068B84256D90120BC
:100EA0005C4908705E4800685B490968451AC82DAE
:100EB00001D9282408E0642D01D9142404E0322D3E
:100EC00001D90A2400E00524564E54480068C82879
:100ED00002D8A000241801E00A20444336195248E1
:100EE0000068B0421CD350480068001B4E4908609F
:100EF000084600684D490860084600684C49081AD1
:100F00004C4908604C480078002874D10D2180209D
:100F100001F04EFA01204849087002F0ABFA6AE08D
:100F200002F0B9FA3F48404908604049086040482B
:100F3000404908604048007800285CD000203E49C5
:100F400008700D21802001F033FA54E03448016824
:100F5000009881424CD201202E4908702F48006829
:100F60002F490968451AC82D01D9282408E0642DA5
:100F700001D9142404E0322D01D90A2400E005240B
:100F80002948066825480068C82802D8A000241807
:100F900001E00A20444336192848006886420BD8ED
:100FA0002148066000682149086008460068204919
:100FB000081A204908600DE0204800681A490860B6
:100FC0000846006819490860084600681849081A68
:100FD000184908601848007800280CD10D2180209D
:100FE00001F0E6F901201449087002F043FA02E02A
:100FF00000200849087000BF23E700002D000020F2
:101000001F000020260000204600002029000020AC
:101010002500002027000020880000208C000020F0
:101020006000002014050000A0000020A4000020A3
:1010300010270000A80000201D000020B0000020A4
:1010400070B501F057F80025002400BF322000F0F1
:1010500057FB28460A30C5B22046FFF769FE601CE0
:10106000C4B2084800788542F0DD064800780621C1
:10107000484305490860FFF7D9FD0420034908707B
:1010800070BD00002D000020B800002035000020B9
:10109000F8B5044665480078002803D16448007814
:1010A000002800D0F8BD63480078002832D0012C19
:1010B0002FD102F0C9FF0121880202F018F8642044
:1010C00000F01EFB0021A00202F011F8642000F0E5
:1010D00017FB0121880202F00AF8642000F010FBDF
:1010E0000021A00202F003F8642000F009FB0121B6
:1010F000880201F0FCFF642000F002FB0021A00246
:1011000001F0F5FF642000F0FBFA0121880202F0F3
:1011100015F9C7E748480078002833D0012C11D1D1
:10112000464800684649884208D244480068323040
:10113000424908603220FFF719FE16E040483F4957
:10114000086012E0022C10D13C4800683D498842FA
:1011500008D33A4800683238384908603220FFF72F
:1011600005FE02E00020FFF701FE0A213348006877
:10117000FFF741F80646304602F08BF8032032496B
:10118000087051E0314800683F21890208402F492A
:101190000860012C09D12E480078642814DA2C4804
:1011A0000078401D2A4908700EE0022C0CD1284816
:1011B0000078052805DD26480078401F244908707E
:1011C00002E00020224908702148007806214843A7
:1011D000204908601E4806780A2529463046FFF750
:1011E0000AF8C5B20A20684306462846FFF7A0FD64
:1011F00017480078B04209D90127AF40012138468D
:1012000002F09CF80121384601F071FF1048007887
:10121000FFF7ACFD002C07D000200F49086002F05A
:10122000EFFD05200849087000BF3BE731000020B2
:10123000180000202600002025000020A400002027
:101240003421000046050000350000207400002015
:101250002D000020B8000020B400002010B50D21A2
:10126000802001F08DF8002807D10D21802001F0A9
:101270009FF8FF20F53000F043FA1F48007800285F
:101280001BD01E48407A1E4908701C48807A48705E
:101290000121C02000F07EFF0021C02000F07AFF75
:1012A000052000F033FA0121C02001F081F800216F
:1012B0000120800202F042F819E01048C07A10497B
:1012C00008700E48007B48700121C02000F062FFCA
:1012D0000021C02000F05EFF052000F017FA002179
:1012E000C02001F065F80121880202F027F80121F1
:1012F000880201F0FCFE10BD2C000020E40000205C
:101300004100002010B5032000F0C8FA0446012C6B
:1013100003D100200649C87002E001200449C870CA
:1013200004480078012108430249087010BD0000FC
:10133000E40000205C00002070B5194800683F21DF
:10134000890208401649086016480078012800D133
:1013500070BD15480078002804D01448006801F0DA
:1013600098FF1BE012480078002801D1114908605D
:101370001048056814350A2045430F48016828467F
:10138000FEF739FFC4B20A2C00DD0A240B480078AE
:10139000002800D000242046FFF7CAFC00BFD7E792
:1013A000740000201F000020250000209400002071
:1013B0002D00002060000020640000204600002076
:1013C00000B50F480078002811D00E48007800289A
:1013D00003D000200B49087002E001200949087081
:1013E0000020074908708D200749087005E001209A
:1013F0000349087000200449087002F013FE00BD84
:101400003C0000202C0000203600002010B50B48C6
:101410000078012800D110BD09480078002800D0CC
:10142000F9E70021084600F0CFFE002804D1054866
:101430000078401C0349087000BFECE71F00002043
:10144000260000204400002010B519480068440818
:101450001848006818490968884213D3174800687B
:10146000A0420FD21648007800280BD1154800780A
:1014700000281CD10120134908700121C00201F08D
:101480005DFF14E00F480078012810D100200D49BD
:1014900008700D480078002809D100210120C00201
:1014A00001F04CFF00210120C00201F020FE10BD20
:1014B0008C000020A0000020B00000206000002070
:1014C000290000201C0000204600002010B5144810
:1014D0000078002822D01348007813490870FFF7DD
:1014E00089FB02F06BFC00200D4908700F49087061
:1014F0000F4800680F49086000210120C00201F078
:101500001DFF0D480078012807D10021800201F05D
:1015100015FF0121880201F0EAFD10BD00BFFCE7C4
:1015200025000020580000203E000020560000202A
:10153000A4000020A00000202C0000200D2004E0CA
:101540000021034A1154411CC8B21428F8DB70472B
:10155000E400002010B51E480078002833D000F0C9
:10156000E7F90121C80201F0C2FD642000F0C8F8CB
:1015700000210120C00201F0BAFD642000F0C0F893
:101580000121C80201F0B3FD642000F0B9F8002188
:101590000120C00201F0ABFD642000F0B1F8012190
:1015A000C80201F0A4FD642000F0AAF80021012087
:1015B000C00201F09CFD642000F0A2F80121C802E5
:1015C00001F0BCFE10BDFFF781FF00BFFAE700008D
:1015D0002600002010B512480078401C1049087001
:1015E000104800681049098840180E4908600C48E6
:1015F0000078502813DBFEF7E5FE02F0DEFD0B4815
:101600000078002806D101200849087005480068C4
:10161000074908600020034908600149087010BDAF
:101620003400002068000020C60000201E000020BA
:101630007800002070B505462E46002407E03046AD
:1016400000F02CF92C490855761C601CC4B20D2CF6
:10165000F5DB2948007829494978884205D1264890
:1016600040782649C978884201D0012070BD2248BF
:101670008078012801DD0120F8E71F48C0780128A3
:1016800001DD0120F2E71C480079642801DD01201A
:10169000ECE719484079782801DD0120E6E7164893
:1016A0008079782801DD0120E0E71348C07901281E
:1016B00001DD0120DAE71048007A012801DD012070
:1016C000D4E70D48407AFF2801D10120CEE70A482F
:1016D000807A642801DD0120C8E70748C07AFF2826
:1016E00001D10120C2E70448007B642801DD01200C
:1016F000BCE70020BAE70000E40000209A000020C8
:1017000010B50446204603F04BFB10BD10B504464F
:10171000204603F017FB10BDF7B584B00F46154601
:10172000002424E0285D01281FDB285D7E281CDCC6
:10173000285D0007000E10490870002608E00E48DA
:10174000007880190D49085C69468855701CC6B23E
:10175000102EF4DB6A463946049801F0D2FB601C77
:10176000C4B238460830C7B201E0601CC4B2285D7C
:101770000028D7DC07B0F0BDCF000020144E0000D9
:10178000FEB53FA00190002408E0019800783E4992
:1017900008550198401C0190601CC4B2042CF4DB75
:1017A000312539484778781B384908703648C7785A
:1017B000781B3749087000200090FFF73BFF064672
:1017C000012E0FD18002FFF735FF002802D0012043
:1017D000009009E02F4A0D21002002F07DFB00203F
:1017E000009001E0002000902B4D002409E02846E5
:1017F00000F054F821460D31264A50546D1C601CEF
:10180000C4B2072CF3DB2348407B3C2817DC21487B
:10181000807B092813DC1F48C07B09280FDC1D488A
:10182000007C09280BDC1B48407C092807DC194890
:10183000807C092803DC1748C07C092807DDFFF7F6
:101840007DFE144A0D320721134802F045FB03F0D8
:10185000BFF80098012810D10E49887002F014FCDE
:101860000C4A0D21002002F037FB0A4A0D2101200D
:10187000800202F031FB02F025FA03F0C7F8FEBD4A
:1018800056312E36000000009A00002098000020FB
:1018900099000020E4000020010200000146072218
:1018A000120352181078704770B504460E4615465C
:1018B0002046002805DBC206D20E012191401A4ABB
:1018C000116000BF3146204603F0C0F9012D0ED152
:1018D0002046002809DB00BF00BFC206D20E01214E
:1018E0009140124A116000BF00BF00BF1BE02046BC
:1018F000002816DBC206D20E012191400B4A80322D
:10190000116000BF00BF00BFBFF34F8F00BF00BF1B
:1019100000BF00BF00BF00BFBFF36F8F00BF00BF9D
:1019200000BF00BF00BF70BD80E200E000E100E04A
:1019300010B502F089FBFFF701FE044A07210448B5
:1019400002F0CAFA03F044F810BD0000F1000020D4
:101950000102000010B5012000F0A6F8012804D112
:1019600000F010F8012000F04BF8002000F09CF887
:10197000012805D1002000F005F8002000F040F813
:1019800010BD000001460120002917D001292DD1EA
:10199000184AD26A120C1204174BD218154BDA628D
:1019A0001A46D26A120C1204144BD218114BDA6286
:1019B0001A46926A82439A62002019E00D4AD26A5E
:1019C000120C12040C4BD2180A4BDA621A46D26A75
:1019D000120C1204094BD218064BDA621A46926AAC
:1019E00002239A43034B9A62002001E0012000BFCA
:1019F00000BF7047000002405A5A0000A5A5000031
:101A000010B501460120002902D0012942D120E071
:101A1000224AD26A120C1204214BD2181F4BDA62EE
:101A20001A46D26A120C12041E4BD2181B4BDA62F1
:101A30001B6A5B069B0F0224A3435B0160242340C7
:101A40001A46164B1B6AA3431343144C236200200F
:101A500022E0124AD26A120C1204114BD2180F4B18
:101A6000DA621A46D26A120C12040E4BD2180B4BD1
:101A7000DA621B6A5B069B0F5B085B005B016024FC
:101A800023401A46054B1B6AA3431343034C2362AE
:101A9000002001E0012000BF00BF10BD0000024097
:101AA0005A5A0000A5A5000001460020002906D0D2
:101AB000012909D1064A526AD007C00F06E0044A3C
:101AC000526A9207D00F01E0002000BF00BF7047AC
:101AD0000000024070B50346002001290BD0022906
:101AE00009D0042907D0062905D0082903D00C29DC
:101AF00001D0042070BD9F4CE46A240C24049E4D48
:101B000064199C4DEC622C46E46A240C24049B4D21
:101B10006419984DEC622C46246A6D15AC4355024D
:101B20000126760235402C43924D2C622C46E46A05
:101B3000240C2404904D64198E4DEC622C46E46A0A
:101B4000240C24048D4D64198A4DEC622C462468C3
:101B5000640A64020D07ED0D2C43864D2C602C4663
:101B6000E46A240C2404844D6419824DEC622C46F2
:101B7000E46A240C2404814D64197E4DEC622C46E9
:101B80006468240A240217254D43EDB22C43794D95
:101B90006C602C46E46A240C2404774D6419754D5E
:101BA000EC622C46E46A240C2404744D6419714DD3
:101BB000EC622C46A468640A64021B254D43ED05C3
:101BC000ED0D2C436B4DAC602C46E46A240C2404D0
:101BD000694D6419674DEC622C46E46A240C2404B8
:101BE000664D6419634DEC622C46E468A40CA404B1
:101BF000634D4D43AD03AD0B2C435E4DEC602C4665
:101C0000E46A240C24045C4D64195A4DEC622C46A1
:101C1000E46A240C2404594D6419564DEC622C4698
:101C20002469640D6405574D4D43ED02ED0A2C43C4
:101C3000504D2C612C46E46A240C24044E4D64194A
:101C40004C4DEC622C46E46A240C24044B4D641980
:101C5000484DEC622C466469240B240318254D433F
:101C60002D052D0D2C43434D6C612C46E46A240C4C
:101C70002404414D64193F4DEC622C46E46A240C67
:101C800024043E4D64193B4DEC622C46A469240BA0
:101C90002403F0254D432D052D0D2C43354DAC610E
:101CA0002C46E46A240C2404334D6419314DEC6253
:101CB0002C46E46A240C2404304D64192D4DEC624A
:101CC0002C46E469640B64037D25ED004D43ED046F
:101CD000ED0C2C43274DEC61082917D12C46E46A02
:101CE000240C2404244D6419224DEC622C46E46A31
:101CF000240C2404214D64191E4DEC622C46246AE8
:101D00000C25AC43241D1B4D2C622FE00C2917D150
:101D1000184CE46A240C2404174D6419154DEC6228
:101D20002C46E46A240C2404144D6419114DEC6211
:101D30002C46246A0C25AC43241D0E4D2C6215E064
:101D40000C4CE46A240C24040B4D6419094DEC621C
:101D50002C46E46A240C2404084D6419054DEC62F9
:101D60002C46246A0C25AC43024D2C62064C2360A1
:101D700000BFBFE6000002405A5A0000A5A50000BF
:101D800050460000E0220200D00000200146002062
:101D90002A4A914201D904207047294AD26A120C7A
:101DA0001204284BD218264BDA621A46D26A120C59
:101DB0001204254BD218224BDA621A46126B00220B
:101DC000D2431A6300BF1E4A126AD206D20F002AFB
:101DD000F9D11B4AD26A120C12041A4BD218184BB2
:101DE000DA621A46D26A120C1204174BD218144B3C
:101DF000DA621A46126A92089200921C1A62002253
:101E00000A7000BF0E4A126AD206D20F002AF9D118
:101E10000B4AD26A120C12040A4BD218084BDA622F
:101E20001A46D26A120C1204074BD218044BDA621B
:101E30001A46126B00221A6300BFADE7FFFF0000D5
:101E4000000002405A5A0000A5A5000001460020EB
:101E5000194A126A520052080123DB07D218164BA6
:101E60001A62164AD26A120C1204154BD218134B7E
:101E7000DA621A46D26A120C1204124BD2180F4BB5
:101E8000DA62002906D11A46126A0C239A430B4BD8
:101E90001A6210E0012907D1084A126A0C239A43FA
:101EA000121D064B1A6206E0044A126A0C239A437A
:101EB0000832024B1A6270470020004000000240C6
:101EC0005A5A0000A5A5000010B5024600202A4B72
:101ED0009A4201D9042010BD284BDB6A1B0C1B045D
:101EE000274C1B19254CE3622346DB6A1B0C1B04A1
:101EF000244C1B19214CE36223461B6B0023DB435C
:101F0000236300BF1D4B1B6ADB06DB0F002BF9D1DF
:101F10001A4BDB6A1B0C1B04194C1B19174CE36290
:101F20002346DB6A1B0C1B04164C1B19134CE36283
:101F300023461B6A9B089B005B1C2362117000BF39
:101F40000E4B1B6ADB06DB0F002BF9D10B4BDB6A58
:101F50001B0C1B040A4C1B19084CE3622346DB6A6A
:101F60001B0C1B04074C1B19044CE36223461B6B20
:101F70000023236300BFAEE7FFFF00000000024024
:101F80005A5A0000A5A5000070B54B4800780028FB
:101F900017D000204949087049484A490860002084
:101FA00049490860494908600120494908700020F2
:101FB000484908604849086048490860484908702D
:101FC00070BD48480078002874D05021424800680D
:101FD000FEF711F904463C480068844201D93A48AA
:101FE000046038480068844201D2364804603748AB
:101FF000006800193549086030480078401C2F49B6
:1020000008700846007864284FD1002008702F48D7
:1020100000682D490968401A2C4908600846006884
:1020200028490968401A2949086062212748006840
:10203000FEF7E1F804460120C002844204D32A4896
:10204000201A2A4908600FE027481238844205D830
:102050000120C002001B2549086005E00120C002E4
:10206000001B400821490860214804781F48006887
:1020700044431F4845781D4800684543642128466D
:10208000FEF7B9F8054664190A212046FEF7B3F8B1
:10209000104908600A480B49086000200A49086096
:1020A0000A49086001200A49087000200A490860AE
:1020B0000C49087000BF83E7290000203D00002084
:1020C000FFFF0000800000207C0000209000002026
:1020D000210000206000002078000020680000201F
:1020E000340000201E000020F307000094000020B0
:1020F0004100002016480078002803D115480078D8
:1021000000280DD01448007880001449085814495C
:102110000860144810490978405C134908700CE0C5
:102120000D4800788000114908580D490860104892
:1021300009490978405C0C4908700A200D4908607B
:10214000084600680849097848430A49086070470A
:1021500032000020180000202B0000200C0000207E
:10216000B0000020160000203000002004000020F5
:102170001400002064000020024605481018006981
:1021800001238B409843024BD318186100207047FD
:10219000000E0240024605481018406901238B409A
:1021A0001843024BD318586100207047000D0240BD
:1021B00070B504460D461646012332462946204690
:1021C00002F0C0FC002070BD0246034810184068B1
:1021D000C840C007C00F7047000D024002460348C8
:1021E00010180068C840C007C00F7047000E0240BA
:1021F00070B50546002D20D10C21FFF7EFFF012817
:102200001BD10C210020FFF7B7FF0D21802000F02B
:10221000CFF80A48007800280BD10948006809491E
:102220004418A0B202F012FBA0B202F001FB02F0CF
:102230001BFB01F0BDFFFEF7BBF870BD29000020BD
:10224000A4000020EFD8000030B503460020494C20
:102250001C198D0060511078012809D146481818C2
:10226000006801248C402043434C1C19206008E086
:1022700041481818006801248C40A0433E4C1C19AA
:1022800020605078002809D13B481818C069012403
:102290008C40A043384C1C19E06108E036481818FF
:1022A000C06901248C402043334C1C19E0619078B4
:1022B000012812D130481818006A01248C402043AC
:1022C0002D4C1C1920622C481818446A01208840A3
:1022D000844329481818446227E09078022812D1D4
:1022E00025481818006A01248C40A043224C1C1970
:1022F000206221481818406A01248C4020431E4C5B
:102300001C19606211E01C481818006A01248C40F6
:10231000A043194C1C19206217481818406A012460
:102320008C40A043144C1C196062D078002809D15D
:1023300011481818C46A0120884084430E481818B0
:10234000C46208E00C481818C06A01248C4020437D
:10235000094C1C19E062094880680124E403A04389
:102360001479E4030125ED032C402043034CA060C5
:10237000002030BD000C0240000D0240000F024062
:102380000246034810188068C840C007C00F704755
:10239000000D0240024605481018C06801238B401A
:1023A0001843024BD318D86000207047000D02403C
:1023B000024605481018006901238B401843024B60
:1023C000D318186100207047000D024008B50020A6
:1023D000009000BF00980028FCD008BD10B5002078
:1023E000FFF706FF10BD10B50120FFF701FF10BD7C
:1023F00010B50220FFF7FCFE10BD10B50320FFF75B
:10240000F7FE10BD10B50020C046C04610BD10B587
:10241000002002F0FBF910BD10B50020C046C046F8
:1024200010BD10B50120C046C04610BD10B500203B
:10243000C046C04610BD10B50120C046C04610BD04
:1024400010B50020C046C04610BD10B50120C046E2
:10245000C04610BD10B50020C046C04610BD10B526
:102460000120C046C04610BD10B5002002F086FA1B
:1024700010BD10B5012002F081FA10BD10B5022088
:1024800002F07CFA10BD10B50020C046C04610BD59
:1024900010B50420C046C04610BD10B50520C0468A
:1024A000C04610BD10B50620C046C04610BD10B5D0
:1024B0000020C046C04610BD10B50020C046C04632
:1024C00010BD10B50020C046C04610BD10B500209C
:1024D000FEF734F810BD10B50020C046C04610BD50
:1024E00010B50020C046C04610BD10B50120C04642
:1024F000C04610BD10B50020C046C04610BD10B586
:102500000020C046C04610BD10B50020C046C046E1
:1025100010BD10B50020C046C04610BD00B58DB03E
:1025200005210BA802F0D0FB062109A802F0CCFB84
:10253000182103A802F0C8FB0621274802F0C4FBBB
:10254000052101A802F0C0FB0C214020FFF722FF6B
:1025500001216846017101AA0C214020FFF774FE99
:102560000121102001F0FCFFFDF7C4FF1B480068AB
:1025700040084000401C19490860084600680221D4
:10258000884316490860012002F0AEFB002108A82C
:1025900001734173022181730321C173002101740E
:1025A0000BA8FEF745F80BA8FDF78EFF1320FDF7EB
:1025B00079FF012211461820FFF776F9FDF7A4FFF5
:1025C000012108A841720648089003A909A8FDF74F
:1025D0002FFF0DB000BD0000C90000200024004006
:1025E000150400001CB50521684602F06DFB0121B1
:1025F0001C2001F0B5FF0121684601704170817017
:102600000021C170012101716A4600210846FFF7CF
:102610001BFE6A460C210020FFF716FE0C2100204D
:10262000FFF7AAFD08220C210020FFF7C1FD0021C1
:1026300068460170417081700D218020FFF7B8FE5F
:102640006A460D218020FFF7FFFD0021C020FFF723
:10265000A1FD6A460021C020FFF7F6FD0121C02040
:10266000FFF798FD6A460121C020FFF7EDFD6A469D
:102670000A210020FFF7E8FD6A460C214020FFF701
:10268000E3FD6A460D214020FFF7DEFD6A46082182
:102690000020FFF7D9FD6A460F210020FFF7D4FD87
:1026A0000A210020FFF784FE0C214020FFF780FE66
:1026B0000D214020FFF76EFD08210020FFF76AFD85
:1026C0000F210020FFF766FD1CBD08B50020FFF7B5
:1026D000BDFB002001F062FF0021684601704170DF
:1026E000817001F06FFD08BD30B58DB00C216846DA
:1026F00002F0EAFA142108A802F0E6FA142103A86D
:1027000002F0E2FA0121082001F02AFF002108A8C6
:10271000017041710221C17001218171002101719B
:102720008170417036480A9008A90020FEF74AF9E6
:10273000344C21460020FEF7BBF8254629460020F0
:10274000FEF7E6F800210846FEF796F80020FEF7AF
:102750002BF9012203210E20FFF7A6F80020FEF737
:1027600007F900216846017341740221C1730121F8
:10277000817400210174817341732348069003A979
:102780000120FEF71FF9214C21460120FEF790F8A9
:10279000254629460120FEF7BBF800210120FEF75F
:1027A0006BF80120FEF700F9012203210F20FFF74B
:1027B0007BF801210B2001F0D3FE00216846017057
:1027C00041710221C170012181710021017181706B
:1027D00041700F480290684602F074F80D48008876
:1027E0000021C943081A84B2204602F02FF820467F
:1027F00002F01EF8002001F0F3FF0DB030BD000024
:102800005147000018FC00007147000083FF0000E2
:102810008D470000AC00002010B53E490978002922
:1028200076D100F0C9F83C49097888425ED13B492D
:102830000978002969D138490978002952D03849E6
:102840000978354A1278914237D1364909780029FA
:102850005BD035490978002910D034490978491CE2
:10286000324A11701146097814294ED10021117095
:102870002D4A11700121294A117046E001212C4A8C
:1028800011702A490978491C284A11702949097888
:10289000002903D111460978062907D0254909786E
:1028A000002932D02149097803292ED100211F4A5D
:1028B00011700121194A117027E017490978184A47
:1028C00011700121154A11700021194A117001215E
:1028D000154A1170134A11700021144A1170154ADB
:1028E000117012E000210E4A11700EE00A490870C2
:1028F00000210F4A117001210B4A11700021094A71
:1029000011700A4A11700B4A11701421014A11709A
:1029100010BD0000C1000020C3000020BC0000204A
:10292000C4000020BF000020BE000020C200002024
:10293000BD000020C000002004480078002804D01A
:1029400002480078401E014908707047C10000200D
:1029500010B5FFF761FF15480078002824D014480F
:102960000078012804D0022806D0032813D107E0FC
:102970000120FEF78DFB0FE00220FEF789FB0BE044
:102980000C480078002803D000200A49087003E0B2
:10299000FEF7E0FD00E000BF00BF0548007801F051
:1029A00091FB00200149087010BD0000BC00002010
:1029B000C4000020BD00002070B5002400F0F0FF2E
:1029C0000546012D04D0022D05D0032D09D105E0C7
:1029D0000120044305E00220044302E003200443F5
:1029E00000BF00BF204670BD14200B4908700020B6
:1029F0000A4908700A4908700A4908700A490870AB
:102A000001200A4908700020094908700949087026
:102A10000949087070470000C1000020C300002071
:102A2000C4000020BC000020BD000020BE0000202B
:102A3000BF000020C2000020C0000020FFB589B008
:102A4000164609984000401EC0B202900A9801281C
:102A500006DD0A98401EC000401CC0B2019001E093
:102A60000A980190002005A98855584804901298AA
:102A7000002830D005240EE004991298FDF7BBFB26
:102A8000002801D0274608E00A210498FDF7B3FB8F
:102A90000490601EC4B2002CEEDC00BF12980390BC
:102AA00000253C4614E004990398FDF7A4FB303060
:102AB00007A9485504990398FDF79DFB03910A2146
:102AC0000498FDF798FB0490681CC5B2601EC4B260
:102AD000002CE8DC03E03020694608770127002459
:102AE00004E0202005A90855601CC4B2B442F8DBFC
:102AF00005AA01990298FEF70FFE0C98012815D13E
:102B00003D4634460FE0002D07DD681EC5B207A81C
:102B1000415D601E05AA115403E02021601E05AA34
:102B20001154601EC4B2002CEDDC47E00C98022862
:102B300035D1B7420ADB002405E007A8005D05A9EE
:102B40000855601CC4B2B442F7DB37E0F01BC10F7C
:102B50000918C9050D0E002D01D1681CC5B200244D
:102B600004E0202005A90855601CC4B2AC42F8DB83
:102B70002C4606E0601B07A9085C05A90855601CE7
:102B8000C4B27819A042F5DC7819C4B204E0202060
:102B900005A90855601CC4B2B442F8DB0EE000245D
:102BA0000AE007A8005D05A90855781EA04201DAD1
:102BB00020200855601CC4B2B442F2DB05AA01997A
:102BC0000298FEF7A9FD0DB0F0BD0000102700002F
:102BD000FFB589B00E46174609984000401EC0B2A6
:102BE0000190012E05DD701EC000401CC0B2009097
:102BF00000E00096002005A9C855324803900C98C3
:102C0000002830D005240EE003990C98FDF7F3FA64
:102C1000002801D0049408E00A210398FDF7EBFA9C
:102C20000390601EC4B2002CEEDC00BF0C98029032
:102C30000025049C14E003990298FDF7DCFA30307B
:102C400007A9485503990298FDF7D5FA02910A2180
:102C50000398FDF7D0FA0390681CC5B2601EC4B299
:102C6000002CE8DC04E0302069460877012004905D
:102C7000002404E0202005A90855601CC4B2BC4211
:102C8000F8DB05AA00990198FEF746FD049D3C4635
:102C90000FE0002D07DD681EC5B207A8415D601E6C
:102CA00005AA115403E03021601E05AA1154601ECC
:102CB000C4B2002CEDDC05AA00990198FEF72CFDAA
:102CC0000DB0F0BD10270000FFB58BB00F461D46BC
:102CD000002001900B984000401EC0B20390012FCD
:102CE00005DD781EC000401CC0B2029000E00297D3
:102CF000002107AA0D98115439480590002D33D0B2
:102D000002DA012001906D4205240EE02846059963
:102D1000FDF771FA002801D0069408E00A21059811
:102D2000FDF769FA0590601EC4B2002CEEDC00BF0E
:102D300004950026069C14E005990498FDF75BFABB
:102D4000303009A9885505990498FDF754FA049183
:102D50000A210598FDF74FFA0590701CC6B2601E57
:102D6000C4B2002CE8DC04E0302008A9087101207E
:102D70000690002404E0202007A90855601CC4B276
:102D80000D988442F7DB07AA02990398FEF7C4FC6A
:102D9000069E0D9C0CE0002E07DD701EC6B209A831
:102DA000815D601E07AA115400E003E0601EC4B2FA
:102DB000002CF0DC00BF0198002804D02D21601EFB
:102DC00007AA115405E0002D03D02B21601E07AA8D
:102DD000115407AA02990398FEF79EFC0FB0F0BDAC
:102DE00010270000F8B506460C4617467000401E36
:102DF000C0B20090012C04DD601EC000401CC5B2B2
:102E000000E025463A4629460098FEF785FCF8BDC5
:102E100010B500F0C8F800F059F810BD08B500F082
:102E2000C2F800F053F8FF21084600F09DF87D201D
:102E3000C000FEF765FC5521084600F095F87D209E
:102E4000C000FEF75DFCFF21002000F08DF87D2022
:102E5000C000FEF755FCAA21552000F085F87D2022
:102E6000C000FEF74DFC0FA201210846FFF7BAFF94
:102E700011A201210220FFF7B5FF022001231A460B
:102E80000C210090FFF7DAFD032302220E211046E9
:102E9000FFF79EFE6323DB43032211461046FFF734
:102EA00013FF08BD202020202041494151554120D9
:102EB000202020200000000048792D436C6F7220F4
:102EC000202056312E3030200000000070B5002444
:102ED00014E02046B03000F09FFE102000F09CFE71
:102EE000002000F099FE002504E0002000F0BFFE65
:102EF000681CC5B2802DF8DB601CC4B2082CE8DB6E
:102F000070BDF0B585B006460C4615463046AF306C
:102F100003902007000F401EC0B202902006000F51
:102F2000103001900020009019E0039800F074FE2A
:102F3000019800F071FE029800F06EFE002705E097
:102F4000287800F094FE6D1C781CC7B2082FF7DBC0
:102F50000398401C03900098401CC0B20090009859
:102F60000228E2DB05B0F0BDF8B507460D46B024F7
:102F700016E0204600F050FE102000F04DFE00202C
:102F800000F04AFE002607E0384600F070FE2846B2
:102F900000F06DFE701CC6B2402EF5DB601CC4B2A2
:102FA000B82CE6DBF8BD10B57D20C000FEF7A8FB0D
:102FB0000A210020FFF7EEF81420FEF7A1FB0A21FA
:102FC0000020FFF7F5F91420FEF79AFB2C2000F003
:102FD00023FE0520FEF794FB2E2000F01DFE0520A9
:102FE000FEF78EFB2F2000F017FE0520FEF788FB72
:102FF000242000F011FE812000F00EFE2F2000F0B2
:103000000BFEA22000F008FEC82000F005FEA02064
:1030100000F002FE402000F0FFFDAF2000F0FCFDBC
:1030200010BD10B50446002C30D008210020FFF759
:10303000BFF908214020FFF7BBF907214020FFF727
:10304000B7F909210020FFF7B3F909214020FFF764
:10305000AFF90B214020FFF7ABF90A214020FFF721
:10306000A7F902214020FFF7A3F901214020FFF733
:103070009FF900214020FFF79BF907210020FFF76F
:1030800097F906210020FFF793F92FE0082100208F
:10309000FFF780F808214020FFF77CF80721402047
:1030A000FFF778F809210020FFF774F80921402084
:1030B000FFF770F80B214020FFF76CF80A21402041
:1030C000FFF768F802214020FFF764F80121402053
:1030D000FFF760F800214020FFF75CF8072100208F
:1030E000FFF758F806210020FFF754F810BD70B51F
:1030F00004460D46012D65D1402C3AD00EDC082C3B
:1031000046D006DC012C52D0022C4BD0042C58D1D6
:1031100043E0102C37D0202C53D12FE0012149025D
:10312000601A8C4216D006DC802C1DD0E01FF938C6
:10313000002846D113E0FF38FF380238002804D0B9
:1031400001218902401A3CD136E008210020FFF716
:103150002FF936E008214020FFF72AF931E0072156
:103160004020FFF725F92CE009210020FFF720F986
:1031700027E009214020FFF71BF922E00B21402026
:10318000FFF716F91DE00A214020FFF711F918E0BA
:1031900002214020FFF70CF913E001214020FFF746
:1031A00007F90EE000214020FFF702F909E00721AE
:1031B0000020FFF7FDF804E006210020FFF7F8F8F3
:1031C00000BF65E0402C3AD00EDC082C46D006DC6F
:1031D000012C52D0022C4BD0042C58D143E0102C9F
:1031E00037D0202C53D12FE001214902601A8C42A4
:1031F00016D006DC802C1DD0E01FF938002846D1FF
:1032000013E0FF38FF380238002804D0012189027A
:10321000401A3CD136E008210020FEF7BBFF36E023
:1032200008214020FEF7B6FF31E007214020FEF7DD
:10323000B1FF2CE009210020FEF7ACFF27E00921B7
:103240004020FEF7A7FF22E00B214020FEF7A2FF5F
:103250001DE00A214020FEF79DFF18E002214020DA
:10326000FEF798FF13E001214020FEF793FF0EE0E8
:1032700000214020FEF78EFF09E007210020FEF725
:1032800089FF04E006210020FEF784FF00BF00BF95
:1032900070BDF8B5044601260127002510E0204640
:1032A0003040002804D001213846FFF720FF03E01A
:1032B00000213846FFF71BFF76007F00681CC5B26F
:1032C0000A2DECDBF8BD000070B501241848006839
:1032D000002800D170BD17480078002826D00025AE
:1032E00014E013480068204000280CD012480078F1
:1032F000002804D000212046FFF7F9FE03E0012159
:103300002046FFF7F4FE6400681CC5B20C2DE8DB14
:1033100009480078002803D000200749087002E01F
:1033200001200549087000200249087000BFD1E75C
:10333000740000201A0000202000002070B5044610
:103340000D46002D05D00848006820430649086056
:1033500008E005480068A0430349086000212046B2
:10336000FFF7C5FE70BD00007400002010B5FFF728
:10337000ACF9FFF737F9FFF7B7F9FFF7CFF80A20F5
:1033800001F0E0FC10BD000010B513480078401CAF
:10339000114908700846007864281CDB002008707A
:1033A0000E480078401C0D49087008460078052832
:1033B00003D101200A4908700DE0084800780A2866
:1033C00009DB0020054908700120064908700449FE
:1033D0000870FDF763FC10BD3A0000203B000020A0
:1033E0001B0000201900002010B50020FDF7A0FCF4
:1033F00008480078002804D101218020FFF777FEDB
:1034000007E001210220FFF772FE01210820FFF7EB
:103410006EFE10BD2B00002010B50446012C0DD10E
:1034200012480078012805DA10480078401C0F493E
:10343000087012E000200D4908700EE0022C0CD13B
:103440000A480078002805DD08480078401E074932
:10345000087002E00120054908700B20044908703B
:10346000FFF7C2FF00F0C8FD10BD00002B000020D8
:103470003500002010B5002001F0B2F901F016FA75
:10348000012200210520FEF70FFA0122032100206E
:10349000FEF70AFA10BD10B5002001F0A1F901F005
:1034A000F9F9002211460520FEF7FEF901F0E8F9CE
:1034B0000C210020FEF760FE002203211046FEF7DB
:1034C000F3F910BD10B5002002490860FFF7A9FD0F
:1034D00010BD00007400002010B5FFF785FA002031
:1034E0000B4908700B490870C820FEF709F9FEF770
:1034F00047F90020FFF795FD00F024F8FDF760FF85
:10350000FDF7ACFEC820FEF7FBF8FDF799FD10BDF6
:103510003B0000203A00002010B500240EE00120FE
:1035200000F052FAFF202D30FEF7EAF8002000F0FC
:103530004BFA9620FEF7E4F8601CC4B2032CEEDBD5
:1035400010BD000070B50025FFF736FA0546032DC3
:103550000AD101206849087001210F208002FFF77D
:10356000EDFEFFF741FF42E0022D0BD10220624940
:1035700008705A206149087000F054FC0820FDF7DB
:10358000D7FB34E0012D2FD103205B4908700526BD
:10359000002407E05A48805D5A490855701EC6B29B
:1035A000601CC4B2062CF5DB0020FFF73AFD00F0EA
:1035B00089FB00BFFFF700FA0028FBD100240DE0D3
:1035C0000020FFF72EFD6420FEF79AF80120FFF798
:1035D00028FD6420FEF794F8601CC4B2032CEFDBD6
:1035E00006204949087002E000204349087042481B
:1035F0000078002802D14549087002E00B204349B9
:1036000008703EE041480078002800D13AE0FFF71A
:1036100003F93F48007800281CD03748007801287B
:1036200004D13C480078FFF7F7FE10E032480078FC
:10363000022804D13748007800F0E4F907E02E486A
:103640000078032803D13348007800F073FA002093
:103650002F49087030480078002810D000202E49EB
:1036600008702A480078002804DD28480078401EA9
:103670002649087001202949087000F0F9F9FFF780
:1036800023FEBFE700BFFFF71DFF1B48007802289D
:103690002DD01A4800780C280BD101210846FFF7DD
:1036A00026FD1F48FEF72CF800210120FFF71FFD23
:1036B0001DE012480078182813D101210846FFF7B1
:1036C00016FD01210220FFF712FD1548FEF718F83C
:1036D00000210120FFF70BFD00210220FFF707FD6D
:1036E00005E0064800785A2801D0FFF715FF0020B2
:1036F0000149087070BD000037000020380000202C
:103700004A00002050000020480000203500002022
:10371000BC000020C4000020190000201A00002076
:10372000B80B000010B5FDF771FE82480078002844
:103730007ED000207F4908707F480078002804DD93
:103740007D480078401E7C4908707C48007800283D
:1037500004DD7A480078401E7849087001207849D5
:1037600008707848007800280ADD76480078401E06
:103770007449087008460078002801D17249087021
:1037800072480078002801D0FDF76CFA01F078F952
:10379000694800786F2805D100206D49087000F055
:1037A00041FC2FE064480078152809D10020FDF77E
:1037B000BFFA0020FDF7DAFA01206649087021E01F
:1037C0005D4800780C2807D100F0E0F8FDF746FDD1
:1037D00000206049087015E057480078012811DB87
:1037E000554800780B280DDC534800780B2809D188
:1037F00059480078062148435849086056480078DF
:10380000FDF7B4FA56480068401C55490860084660
:103810000068FF212D31884246D152480078401C73
:1038200050490870084600784F490978884200E0FE
:1038300069E010DB00204B490870FDF763FD0020B4
:10384000FDF776FA0020FDF791FA01204149087052
:1038500047203949087000204149086000F0F8FA13
:1038600042480078401D41490870084600783C28CD
:1038700018DB0020087005220EE03D48805C401CEB
:103880003B4988540846805C0A2802D100208854AD
:1038900000E003E0501EC2B2002AEEDC00BF00F0E0
:1038A000FBFA00BF00F0E6FA32480078002814D096
:1038B00031480068401C3049086008460068E12132
:1038C000C901884209D300202A490870FEF712FC7A
:1038D000FDF7ACF90020FDF7DBFBFCF705FF2748FF
:1038E000007800280DD123480078002809D1244809
:1038F0000078002805D111480078002801D1FDF793
:103900001BFD00F02FFB1D48007800280FD1FEF7AB
:103910003BFBFDF799FD1B480078002807D00020ED
:1039200019490870FDF788FA002016490870FFF75A
:10393000CBFC10BD1900002036000020350000200F
:103940001A0000205700002056000020250000200B
:103950003C0000201F0000202D000020B8000020A7
:103960006C000020390000203800002049000020B1
:103970004A000020180000207000002031000020C4
:1039800026000020210000201B00002000B503209D
:10399000FDF784FF0149087000BD00002C000020E5
:1039A00010B5002405210020FEF70EFC002801D1EF
:1039B0000120044304210020FEF706FC002801D169
:1039C00002200443204610BD10B5044621460120C4
:1039D000FFF78DFB0A480078782807D1214604209C
:1039E000FFF785FB21460220FFF781FB04480078A2
:1039F000602803D121460220FFF779FB10BD0000AB
:103A00003800002010B50446032C02D101201549CE
:103A1000087014480078012822D1012C0FD11248D7
:103A200000785A281CD118200F4908700220FDF791
:103A30007FF90B200D49087000F0F4F910E0022C1A
:103A40000ED10948007818280AD10C2006490870C0
:103A50000120FDF76DF90B200449087000F0E2F930
:103A600010BD00002A000020380000203500002092
:103A700070B52B480078032800D070BD2948007825
:103A8000002826D028480078012821D1FFF7C9FA5C
:103A90006420FDF735FE0020FFF7C3FA6420FDF730
:103AA0002FFE0120FFF7BDFA6420FDF729FE00205C
:103AB000FFF7B7FA6420FDF723FE0120FFF7B1FA04
:103AC0006420FDF71DFE0020174908701549087095
:103AD000D3E715480078062803D10020FFF7A1FAA4
:103AE000CBE711480078052818D11048104909780B
:103AF000465C002E03D10120FFF793FA0EE0002070
:103B0000FFF78FFA0125002406E001212846FFF780
:103B1000EEFA6D00601CC4B2B442F6DB00BFACE745
:103B20003700002024000020350000205000002035
:103B30004800002070B50446012C21D12F480078A0
:103B4000052808DA2D480078401C2C490870072009
:103B50002B49087050E029480078062806D100203B
:103B60002649087007202649087045E001202549AC
:103B700008700320224908700020FFF752FA3BE04A
:103B8000022C1ED101202049087020481B490978C9
:103B9000405C002809DD1D4818490978405C401E3A
:103BA0001A49164A1278885404E009211748134A22
:103BB00012788154062012490870012014490870B7
:103BC0001AE0032C18D110480078002814D00020E7
:103BD0000D4908700526002507E00C48405D0D4999
:103BE0008855701EC6B2681CC5B2062DF5DB00F004
:103BF00053F900200249087070BD00004800002001
:103C00003500002024000020230000205000002068
:103C1000190000204A00002070B504460C21402005
:103C2000FEF7B8FA0D214020FEF7B4FA002517E0A0
:103C300008210020FEF7AEFA80202040002804D0A2
:103C40000F210020FEF7B4FB03E00F210020FEF758
:103C5000A1FA08210020FEF7ABFB6400681CC5B286
:103C6000082DE5DB0C214020FEF7A2FB70BD70B5EE
:103C700004460C214020FEF78DFA0D214020FEF76E
:103C800097FB002517E008210020FEF783FA80202B
:103C90002040002804D00F210020FEF789FB03E01C
:103CA0000F210020FEF776FA08210020FEF780FBA6
:103CB0006400681CC5B2082DE5DB0C214020FEF72E
:103CC00077FB70BD70B53B4800783B490978884266
:103CD0003CD0012537480178284688400546012117
:103CE0002846FFF704FA012433480178204688402B
:103CF000044601212046FFF7FAF9FF202D30FDF799
:103D0000FFFC00212046FFF7F2F9FF202D30FDF7E0
:103D1000F7FC01212046FFF7EAF9FF202D30FDF7DF
:103D2000EFFC00212046FFF7E2F9FF202D30FDF7E0
:103D3000E7FC01212046FFF7DAF9FF202D30FDF7DF
:103D4000DFFCFF202D30FDF7DBFC31E001241948BA
:103D5000017820468840044601212046FFF7C7F934
:103D6000FF202D30FDF7CCFC00212046FFF7BFF9E6
:103D7000FF202D30FDF7C4FC01212046FFF7B7F9E5
:103D8000FF202D30FDF7BCFC00212046FFF7AFF9E6
:103D9000FF202D30FDF7B4FC01212046FFF7A7F9E5
:103DA000FF202D30FDF7ACFCFF202D30FDF7A8FCE7
:103DB00070BD000098000020990000200C48007899
:103DC000012807D10B4800780B4948720948407810
:103DD000887206E0074800780749C87205484078AD
:103DE00008730648007801210843044908707047A9
:103DF0002C00002041000020E40000205C00002096
:103E000005480078054908710548007801210843F4
:103E100003490870704700002D000020E4000020D6
:103E20005C00002010B508480078084948710A462F
:103E30000D21002000F050F8044A0D2101208002DD
:103E400000F04AF810BD000038000020E400002017
:103E50000548007805498871054800780121084324
:103E6000034908707047000039000020E40000207A
:103E70005C00002005480078054948730548007833
:103E800002210843034908707047000049000020E0
:103E9000E40000205C0000200C4800780C49887386
:103EA0000A484078C8730948807808740748C07881
:103EB000487406480079887404484079C8740548F5
:103EC0000078022108430349087070474A00002027
:103ED000E40000205C000020F7B582B01646002503
:103EE000012001900027FCF784FA0724240302989C
:103EF0002418012211461A48FDF7ECFD2046FDF773
:103F000045FF00BF24E000BF715D2046FDF7DCFFE8
:103F10000190019800280CD12078715D884203D16E
:103F200000200190641C08E001200190781CC7B2B9
:103F300003E001200190781CC7B2032F03DB0027A8
:103F4000641C0020019001980128DDD0681CC5B2D6
:103F500003988542D7DBFCF739FA05B0F0BD0000C5
:103F60005519000010B521480078002800D110BD77
:103F70001E480078C007C00F002810D01C4A0D2131
:103F80000020FFF7A9FF19480078400840001749B2
:103F90000870084600780421084314490870134843
:103FA00000780221084000280BD0114A0D32072169
:103FB0001048FFF791FF0D480078022188430B4914
:103FC00008700A4800780421084000280BD0084AED
:103FD0000D2101208002FFF77FFF044800780421B3
:103FE00088430249087000BFC1E700005C00002060
:103FF000E40000200102000010B5084800780849DC
:1040000088700A460D210020FFF766FF044A0D2143
:1040100001208002FFF760FF10BD00002B00002090
:10402000E40000200548007805490872054800783A
:104030000121084303490870704700003C0000203C
:10404000E40000205C00002010B500F01DF80A4AD2
:104050000D210020FFF740FF074A0D2101208002BB
:10406000FFF73AFF00F0D2FC002004490870044931
:1040700008700449087010BDE400002031000020E1
:1040800018000020320000200C4840780C490870CD
:104090000A48C07848700120C870642008715A200E
:1040A000487100208871C87108720E2048721E2065
:1040B00088721020C8721420087370479A0000207C
:1040C000E400002010B50446012C1AD12E480078D7
:1040D00000280AD12D480078002806D12C48007805
:1040E000002802D103202B490870294800780121BB
:1040F000084327490870084600784006000E0870FB
:1041000007E0022C05D1224800784006000E204925
:1041100008701F480078362818D11F4800780028FA
:1041200030D11E48007800282CD101201649087093
:104130000020174908701A4908706420194908704E
:10414000012103208002FFF7F9F81BE010480078F6
:104150002C2817D101200D49087000200F49087044
:104160000D4908700849087009490870FEF759FFA1
:104170000020FCF7FBFD00200B49087001210B48D3
:10418000FFF7DCF810BD000025000020260000200D
:1041900056000020570000201800002032000020A8
:1041A000360000202D0000201D000020010200002C
:1041B00010B50120FCF7DCFB10BD10B50120FCF7A9
:1041C000E5FB10BD70B5044600252078030000F023
:1041D0002FFD0504050C10181C0018E0032000F04A
:1041E00073FA032000F03AFA11E0032000F024FAF9
:1041F0000DE00321084600F075FA032000F03EFAB6
:1042000005E0072000F09AF901E0042500BF00BF97
:104210002078012100F00CF8207800F03FFA607857
:1042200000F060F9A07800F073F9284670BD000036
:1042300070B505460C46002600F0EEFC002C01D0BF
:10424000012000E0002004462B0000F0F1FC0504F2
:1042500017394D7488004448006840084000E10761
:10426000C90F08434049086000BF002C05D03E48F4
:10427000C0680005C00F0028F7D072E03B48C06856
:1042800040084000401C3949C8600846C068022107
:104290008843801C3549C860334800680221884340
:1042A00061000222114008432F49086000BF002C22
:1042B00005D02D4800694006C00F0028F7D050E017
:1042C0002948006804218843A100042211400843C2
:1042D0002549086000BF002C05D023484069C00470
:1042E000C00F0028F7D03CE020484038C0680121CA
:1042F0008903884340181D494039C8600846C06892
:104300000121C9038843401818494039C86016483C
:10431000006808218843E10008221140084312493F
:10432000086000BF002C05D00F4880694006C00F10
:104330000028F7D015E00C480068102188432101BF
:104340001022114008430849086000BF002C05D026
:104350000548C06B4003C00F0028F7D001E00426D9
:1043600000BF00BF304670BD00200040C00D0240BD
:1043700030B589B000241422564904A8FBF7F2FE98
:10438000544814300068039000200090019002907F
:1043900051480188684601814F4841886846C1807C
:1043A0004D488188684681804B48C1886846418075
:1043B0004948203001886846018048480068000666
:1043C000450F2B0000F034FC05042E303E417800F0
:1043D0004248C0684005400D69460989884201D1BC
:1043E000089C1EE03D48C0684005400D6946C988EC
:1043F000884201D1079C14E03848C0684005400D50
:1044000069468988884201D1069C0AE03348C06821
:104410004005400D69464988884201D1059C00E06D
:10442000049C4BE02E4C49E0684600882B494969C2
:104430008905890D884202D16846C48901E0684631
:1044400084893BE00124E40338E02448C06B800702
:10445000800F032829D1684600892049C968490589
:10446000490D884201D1089C20E06846C0881B495C
:10447000C9684905490D884201D1079C16E0684684
:1044800080881649C9684905490D884201D1069CB2
:104490000CE0684640881149C9684905490D8842C1
:1044A00001D1059C02E0049C00E00D4C0B48C06B60
:1044B000C005000F444301E0002400BF00BF0748CF
:1044C00000684005410F2046C8400446204609B018
:1044D00030BD000014560000000C10000020004009
:1044E0000048E80170B50446002500F095FB074838
:1044F00000680721090288432102072212021140A5
:10450000084302490860284670BD000000200040B2
:1045100070B50446002500F07FFB074800680321C2
:10452000C9028843E1020322D20211400843024932
:104530000860284670BD00000020004010B501460C
:104540000020064AD26B0723DB039A43CB030724E0
:10455000E40323401A43014BDA6310BD00200040FE
:1045600010B502460020002901D0012300E00023FD
:104570001946002907D0084B1B6A012494402343A5
:10458000054C236206E0044B1B6A01249440A343BC
:10459000014C236210BD00000020004010B5014610
:1045A00000200B0000F044FB0504101C28344000E0
:1045B0001F4B1B895A05520D1E4BDB68DB0ADB02C1
:1045C00013431C4CE36031E0194BDB885A05520D54
:1045D000184BDB68DB0ADB021343164CE36025E073
:1045E000134B9B885A05520D124BDB68DB0ADB022A
:1045F0001343104CE36019E00D4B5B885A05520DD4
:104600000C4BDB68DB0ADB0213430A4CE3600DE072
:10461000074B1B885A05520D064BDB68DB0ADB0291
:104620001343044CE36001E0042000BF00BF10BD51
:10463000000C10000020004010B501460020064A82
:10464000526903239B029A438B020324A402234052
:104650001A43014B5A6110BD0020004010B50146BD
:104660000020054A126930239A430B01302423406D
:104670001A43014B1A6110BD0020004010B50146DD
:104680000020054A926930239A430B0130242340CD
:104690001A43014B9A6110BD0020004070B50446DA
:1046A0000025264600F0B8FA06480068E021884355
:1046B0007101E022114008430249086000F02CF823
:1046C000284670BD0020004001460020044A1269BF
:1046D000920892008B079B0F1A43014B1A61704797
:1046E0000020004030B5024600200A4B9B690C2494
:1046F000A34394000C252C402343064CA36123467E
:104700009B699B089B008C07A40F2343014CA3616A
:1047100030BD00000020004010B5FFF729FE014920
:10472000086010BD0000002010B507490989480540
:10473000400D0649C968C90AC9020143034AD1604C
:10474000FFF7EAFF10BD0000000C10000020004041
:1047500010B500210846FCF79DF8012807D1FEF7A7
:10476000EBF8FEF711FE00210846FCF785F810BDB6
:1047700010B500210120FCF78DF8012805D1FBF7C9
:1047800017FE00210120FCF777F810BD10B50020BE
:1047900000F030F801281DD10D218020FDF7F0FD3B
:1047A00001280AD10D218020FDF7F4FC0A4800F011
:1047B0004DF8094800F03CF809E00D218020FDF794
:1047C000F7FD064800F042F8044800F031F80020F8
:1047D00000F006F810BD00000CFE0000F0D800004C
:1047E0000146002001228A40D243014B5A617047A2
:1047F0000058004001460020034B1A691346CB4085
:10480000D807C00F704700000058004010B504469C
:10481000002C07D105480068002802D00348006832
:10482000804700E000BF00BF10BD0000E000002096
:1048300001460020044A1268120C12048BB21A437B
:10484000014B1A60704700000058004001460020EC
:10485000044A5268120C12048BB21A43014B5A607C
:10486000704700000058004000200449C96849080A
:104870004900491C014AD1607047000000580040BF
:1048800000200349C96849084900014AD1607047BE
:104890000058004000200449C96801229202914357
:1048A000014AD160704700000058004000200449D0
:1048B000C9680122920291438918014AD160704768
:1048C0000058004010B5014600202A4AD268032350
:1048D0001B039A430B781B030324240323401A432E
:1048E000244BDA601A46D2685B159A434B785B0218
:1048F0000124640223401A431E4BDA601A46D26830
:104900009B159A438B781B02641023401A43194B62
:10491000DA601A46D26870239A43CB781B01702460
:1049200023401A43134BDA601A46D26808239A438D
:104930000B79DB00082423401A430E4BDA601A4639
:10494000D26804239A434B799B00042423401A43E2
:10495000084BDA601A46D26802239A438B795B00CF
:10496000022423401A43034BDA60034B8A681A601F
:1049700010BD000000580040E000002010B50446C3
:10498000002C04D0012C0AD0022C18D10FE00D48C5
:104990000068002802D00B480068804710E00A48F1
:1049A0000068002802D008480068804708E00748EF
:1049B0000068002802D005480068804700E000BF7A
:1049C00000BF10BDD4000020D8000020DC00002073
:1049D0000B48407B0B4908700948807B0A490870E6
:1049E0000748C07B48700648007C88700448407CBB
:1049F000C8700348807C08710148C07C48717047CA
:104A0000E4000020490000204A000020124880787D
:104A1000124908701048C078114908700E48007992
:104A2000104908700C4840790F4908700A4880798D
:104A30000E4908700848C0790D4908700648007A88
:104A40000C4908700448407A0B4908700248807A83
:104A50000A49087070470000E40000202B00002085
:104A60002C0000202D0000203800002039000020FC
:104A7000320000203C0000203F00002040000020C9
:104A800010B529480078012800D110BD27480078CA
:104A9000002801D1012403E00024002023490870EC
:104AA00023480078844207D021480470002021491F
:104AB0000870214908700BE01F480078401C1E490F
:104AC000087008460078032802DB012019490870A5
:104AD00018480078002800D1D7E718480078144912
:104AE000097888421DD01248007814490870084699
:104AF0000078002807D00121C802FEF71FFC002023
:104B0000FCF734F90DE000210120C002FEF716FC8D
:104B100000210120C002FEF7EAFA09480078FCF7FC
:104B200025F900BFB1E700001F000020440000206D
:104B30004700002022000020450000204600002001
:104B40002D00002030B50446D007C00F002814D037
:104B5000002B09D02F482018006B01258D402843D9
:104B60002C4D6519286308E02A482018006B0125A0
:104B70008D40A843274D6519286302201040002866
:104B800014D0002B09D023482018406B01258D40FC
:104B90002843204D6519686308E01E482018406BC3
:104BA00001258D40A8431B4D651968630420104002
:104BB000002814D0002B09D016482018806B01253E
:104BC0008D402843134D6519A86308E0114820184B
:104BD000806B01258D40A8430E4D6519A863082000
:104BE0001040002814D0002B09D00A482018C06BB0
:104BF00001258D402843074D6519E86308E0054805
:104C00002018C06B01258D40A843024D6519E8634B
:104C1000002030BD000D024002480349886003486F
:104C2000886070475A5A000000200040A5A5000087
:104C300030B47446641E2578641CAB4204D3635DB3
:104C40005B00E31830BC18471D46F8E710B5002894
:104C500019DB1A4A03231B02D21883089B00D2587F
:104C60008307DC0EFF23A3409A438B071B0E8407A8
:104C7000E40EA3401A43114B032424021B19840899
:104C8000A4001A5118E00E4A03071B0F083B9B08AB
:104C90009B00D2588307DC0EFF23A3409A438B0767
:104CA0001B0E8407E40EA3401A43054B0407240F90
:104CB000083CA408A4001A5110BD000000E100E067
:104CC0001CED00E000BF704710B50A460146002900
:104CD00000D110BD02E000230B70491C1346521E88
:104CE000002BF8D100BFF4E770B505461148124912
:104CF000486100208861052008610FE000200E490E
:104D000088610E490E480068FBF775FA0121090613
:104D10000C1A00BF08488069A042FBD828466D1EC7
:104D20000028EBD1044800694008400002490861AE
:104D300070BD0000FFFFFF0000E000E01027000052
:104D40000000002070B50546114812494861002056
:104D50008861052008610FE000200E4988610E4936
:104D60000E480068FBF747FA012109060C1A00BF3C
:104D700008488069A042FBD828466D1E0028EBD168
:104D800004480069400840000249086170BD000005
:104D9000FFFFFF0000E000E0A0860100000000200F
:104DA00070B5054611481249486100208861052008
:104DB000086110E000200E4988617D21C9000D487E
:104DC0000068FBF718FA012109060C1A00BF084811
:104DD0008069A042FBD828466D1E0028EAD104480D
:104DE0000069400840000249086170BDFFFFFF00F4
:104DF00000E000E000000020FEF7B8FAFEF708F837
:104E0000FEF76AFBFEF70AF803E0FDF7A1FDFEF7E7
:104E100089FCFAE70000000000000000000000002C
:104E200000000000F804C6C6C6C604F87F80B6B607
:104E3000B6B6807F0000FCFEFEFC00003078CF811B
:104E400081CF783000C0E0F0783800FE030F1F3FBC
:104E50007870E0E1FE003878F0E0C000E1E07078C2
:104E60003F1F0F038080E8FCF87C3C1F0101373FA7
:104E70001F3E3CF81F3C7CF8FCE88080F83C3E1F5D
:104E80003F37010100C0C0C0C0C0FEFE00030303E5
:104E900003037F7FFEFEC0C0C0C0C0007F7F03034E
:104EA0000303030000C0C0C0C0C0C0C000030303B0
:104EB00003030303C0C0C0C0C0C0C000030303039A
:104EC000030303000000000C12120C00000000009D
:104ED000000000000000000E00078003C03FC03F3C
:104EE000800300070080C0404040C080002F3F305A
:104EF00000303F2F0000FE3F02200220022002204F
:104F0000022002200000FE3F022002200220022098
:104F1000022002200000FE3F022002200220022088
:104F2000022002200000FE3F022002200220022078
:104F3000022002200000FE3F022002200220022068
:104F4000022002200000FE3F022002200220022058
:104F5000022002200000FE3F022002200220022048
:104F6000022002200000FE3F022002200220022038
:104F7000022002200000FE3F022002200220022028
:104F8000022002200000FE3F022002200220022018
:104F9000022002200000FE3F022002200220022008
:104FA000022002200000FE3F0220022002200220F8
:104FB000022002200000FE3F0220022002200220E8
:104FC000022002200000FE3F0220022002200220D8
:104FD000022002200000000000000000000000008D
:104FE00000000000000000000000000000000000C1
:104FF00000000000000000000000000000000000B1
:1050000000000000000000000000000000000000A0
:105010000000000000000000000000000000000090
:1050200000000000000000FEFE0000000000003351
:1050300033300000000407030507030100000000EF
:105040000000000020E0FE3EE0FE3E20047F7F04E2
:105050007F7F0400183C66FFFF861C180C1C307F05
:105060007F311F0E1C3E22BEFC781E06303C0F1FF7
:105070003E223E1C003CFEC27E3C00001E3F21330F
:105080001F1F332000000B0F07000000000000006E
:10509000000000000000F0FC0E0301000000071FEC
:1050A000386040000001030EFCF000000040603852
:1050B0001F070000103060F8F86030100406030F7E
:1050C0000F030604808080F0F080808000000007DD
:1050D00007000000000000000000000000005878F9
:1050E0003800000000808080808080000000000088
:1050F0000000000000000000000000000000303050
:105100000000000000000080E0781E06303C0F0325
:1051100000000000F8FC060206FCF8000F1F30201B
:10512000301F0F00000404FEFE0000000000003FDE
:105130003F000000181C0602C6FC380030382E273D
:1051400021202000181C8682C67C38000C1C3020D0
:10515000311F0E000080E078FEFE00000607050407
:105160003F3F0400FEFE622262C282000818302027
:10517000301F0F00F8FCC642C69C18000F1F3020DD
:10518000301F0F0002020282F27E0E0000003C3F40
:1051900003000000387CC682C67C38000E1F312018
:1051A000311F0E0078FC860286FCF8000C1C3121B1
:1051B000311F0F0000006060600000000000181840
:1051C00018000000000060606000000000005878D7
:1051D0003800000080C06030180C04000001030695
:1051E0000C181000002020202020200000020202C5
:1051F00002020200040C183060C0800010180C0677
:1052000003010000181C0682C67C380000003333FE
:1052100030000000F8FCE6F2F2F6FCF80F1F33272E
:10522000272737130080F87E7EF88000383F070478
:1052300004073F38FEFE828282C67C383F3F202032
:1052400020311F0EF8FC060202061C180F1F30202A
:1052500020301C0CFEFE02020206FCF83F3F20201C
:1052600020301F0FFEFE8282828282023F3F20207A
:1052700020202020FEFE8282828282023F3F0000A8
:1052800000000000F8FC060202061C180F1F302068
:1052900021313F3FFEFE80808080FEFE3F3F0000C8
:1052A00000003F3F000002FEFE0200000000203F21
:1052B0003F2000000000000000FEFE000C1C30201B
:1052C000301F0F00FEFE80E0701C0E023F3F010108
:1052D000070E3830FEFE0000000000003F3F202097
:1052E00020202020FEFEF88080F8FEFE3F3F073F92
:1052F0003F073F3FFEFE78E08000FEFE3F3F00019B
:10530000071E3F3FF8FC06020206FCF80F1F302084
:1053100020301F0FFEFE828282C67C383F3F000095
:1053200000000000F8FC06020206FCF80F1F302403
:105330002C383F2FFEFE828282C67C383F3F000021
:10534000030F3C30387C46C282861C180C1C30206F
:1053500020311F0E020202FEFE0202020000003F88
:105360003F000000FEFE00000000FEFE0F1F302088
:1053700020301F0F0EFEF00000F0FE0E0000073F71
:105380003F070000FEFEE0FEFEE0FEFE013F3F01A3
:10539000013F3F01061E78E0E0781E06303C0F0317
:1053A000030F3C30061E78E0E0781E060000003F48
:1053B0003F00000002020282E27A1E06303C2F23E8
:1053C0002020202000FFFF0101010100007F7F401D
:1053D00040404000069EF8E0E0F89E060004043FCE
:1053E0003F0404000001010101FFFF0000404040B4
:1053F000407F7F0000040603030604000000000055
:10540000000000000000000000000000808080809C
:10541000808080800000010306040000000000007E
:105420000000000080C0404040C08000183C2622A0
:10543000323F3F20FEFEC04040C080003F3F302052
:1054400020301F0F0080C0404040C0800F1F302020
:10545000202030100080C04040C0FEFE0F1F3020D2
:1054600020303F3F0080C04040C080000F1F3222EC
:10547000222233134040FCFE4242000000003F3F26
:10548000000000000080C04040C0C040307D4F4A56
:105490004A4B7930FEFEC04040C080003F3F0000D4
:1054A00000003F3F000000CCCC0000000000003FA7
:1054B0003F000000000000CCCC0000000040407F16
:1054C0003F000000FEFE000080C040003F3F060796
:1054D0000D183020000000FEFE0000000000003F1C
:1054E0003F000000C0C0C0C0C040C0803F3F003F80
:1054F0003F003F3FC0C0C04040C080003F3F000071
:1055000000003F3F0080C04040C080000F1F30209F
:1055100020301F0FC0C0C04040C080007F7F1810E7
:1055200010180F070080C04040C0C0C0070F1810FF
:1055300010187F7F0000C0C0C040404000003F3FC7
:105540000000000080C040404040C080113322264F
:1055500024243C184040FCFC4040000000001F3F59
:1055600020200000C0C000000000C0C00F1F30207D
:1055700020303F3FC0C000000000C0C000030F3C0F
:105580003C0F0300C0C000C0C000C0C0073F3E07C2
:10559000073E3F0740C080000080C0402030190F08
:1055A0000F193020C0C000000000C0C040436F3C55
:1055B0001C0F03004040404040C0C04030382C2603
:1055C00023212020000080FF7F0101000000007FD8
:1055D0007F404000000000FFFF000000000000FFCF
:1055E000FF0000000001017FFF8000000040407FBD
:1055F0007F0000000203010302030100000000001D
:10560000000000000000000000000000000000009A
:105610000000000000093D0000127A000024F400A0
:105620004086510100366E01008000964C56000005
:1056300000000020E40000000401000030570000DA
:10564000E40000208C0400002001000000093D005F
:1056500034210000342100003421000034210000F6
:1056600014281932000000000000000000000000B3
:1056700000000000000100000000FF00000000002A
:10568000000000000000000000000000000000001A
:105690000000FF000000000000000000000000000B
:1056A00000000000000000000000000000000000FA
:1056B00000000000000000000000000000000000EA
:1056C000000000000000000000000000FFFF0000DC
:1056D00000000000000000000000000000000000CA
:1056E00000000000000000000000000014050000A1
:1056F0001405000010270000102700000000000023
:105700000000000000000000000000000000000099
:105710000000000000000000000000000000000089
:105720000000000000000000000000000000000079
:04000005000000C136
:00000001FF
