:020000040000FA
:1000000090080020810100009B0100000D260000E7
:1000100000000000000000000000000000000000E0
:100020000000000000000000000000009F01000030
:100030000000000000000000A1010000A30100007A
:10004000FD28000007290000112900001B290000DD
:10005000252900002F29000039290000432900002C
:100060004D29000057290000612900006B2900007C
:10007000752900007F2900008929000093290000CC
:100080009D290000A7290000B1290000BB2900001C
:10009000C5290000CF290000D9290000E32900006C
:1000A000ED290000F7290000012A00000B2A0000BA
:1000B000152A00001F2A0000292A0000332A000008
:1000C00000F002F800F030F80CA030C8083824180E
:1000D0002D18A246671EAB4654465D46AC4201D180
:1000E00000F022F87E460F3E0FCCB6460126334282
:1000F00000D0FB1AA246AB463343184764620000A7
:10010000846200000023002400250026103A01D359
:1001100078C1FBD8520700D330C100D50B607047BF
:100120001FB51FBD10B510BD00F0BAF91146FFF79D
:10013000F7FF05F0C7FC00F0D2F903B4FFF7F2FFB8
:1001400003BC05F025FC000070B505460C461646BC
:1001500002E00FCC0FC5103E102EFAD2082E02D3AB
:1001600003CC03C5083E042E07D301CC01C5361FBE
:1001700003E021782970641C6D1C761EF9D270BDD5
:100180000C480D4A002100A1814200D902440B48CD
:1001900002600B4880470B480047FEE7FEE7FEE79A
:1001A000FEE7FEE7FEE7000007480849084A094B5A
:1001B00070470000000000200000000008ED00E093
:1001C000B54D0000C1000000900400209008002000
:1001D0009006002090060020704700000346F0B50E
:1001E0000B439B072DD1244DEF01042A29D308C8C6
:1001F00010C95E1B9E43121F3E4017D0D8B2E1B219
:10020000401A3106014310D198B2A1B2401A31040C
:1002100001430AD118022102000A090A401A3102D8
:10022000014302D1180E210E401AF0BDA342DCD0CA
:1002300018BA21BA884201D90120F0BD0020C0437C
:10024000F0BD002A01D10020F0BD03780C78401CDD
:10025000491C002B0DD0A3420BD1521E09D00378AC
:100260000C78401C491C002B03D0A34201D1521E24
:10027000EBD1181BF0BD000001010101F8B5042A03
:100280002CD3830712D00B78491C0370401C521EDC
:1002900083070BD00B78491C0370401C521E830748
:1002A00004D00B78491C0370401C521E8B079B0F17
:1002B00005D0C91ADF002023DE1B08C90AE0FFF7BA
:1002C00043FFF8BD1D4608C9FD401C46B4402C4301
:1002D00010C0121F042AF5D2F308C91A521EF0D416
:1002E0000B78491C0370401C521EEAD40B78491C41
:1002F0000370401C012AE4D409780170F8BD01E0C4
:1003000004C0091F0429FBD28B0701D50280801C81
:10031000C90700D00270704700290BD0C30702D074
:100320000270401C491E022904D3830702D50280B3
:10033000801C891EE3E70022EEE70022DFE70022AF
:1003400003098B422CD3030A8B4211D300239C4612
:100350004EE003460B433CD4002243088B4231D38A
:1003600003098B421CD3030A8B4201D394463FE01E
:10037000C3098B4201D3CB01C01A524183098B427E
:1003800001D38B01C01A524143098B4201D34B0167
:10039000C01A524103098B4201D30B01C01A5241CA
:1003A000C3088B4201D3CB00C01A524183088B4251
:1003B00001D38B00C01A524143088B4201D34B003A
:1003C000C01A5241411A00D20146524110467047AC
:1003D0005DE0CA0F00D04942031000D340425340B1
:1003E00000229C4603098B422DD3030A8B4212D371
:1003F000FC22890112BA030A8B420CD389019211A3
:100400008B4208D3890192118B4204D389013AD0DF
:10041000921100E08909C3098B4201D3CB01C01AB4
:10042000524183098B4201D38B01C01A52414309C7
:100430008B4201D34B01C01A524103098B4201D3B5
:100440000B01C01A5241C3088B4201D3CB00C01A22
:10045000524183088B4201D38B00C01A5241D9D23A
:1004600043088B4201D34B00C01A5241411A00D2BB
:100470000146634652415B10104601D34042002BB7
:1004800000D54942704763465B1000D3404201B536
:100490000020C046C04602BD704770477047704795
:1004A000754600F025F8AE46050069465346C0087B
:1004B000C000854618B020B5FFF776FE60BC002767
:1004C0004908B6460026C0C5C0C5C0C5C0C5C0C520
:1004D000C0C5C0C5C0C5403D49008D46704710B578
:1004E0000446C046C0462046FFF727FE10BD000068
:1004F000004870473004002070B58C180578401C07
:100500006B075B0F01D10378401C2A1106D10278DA
:10051000401C03E00678401C0E70491C5B1EF9D19C
:100520002B0705D40023521E0DD40B70491CFAE78B
:100530000378401CCB1A921C03E01D780D70491CF7
:100540005B1C521EF9D5A142D8D3002070BD00001B
:1005500010B500200249487100F0B4F910BD000048
:10056000C900002010B500F0B7F910BD10B501208A
:1005700000F000FB002000F0FDFA03F080FA0D21EE
:10058000802002F035F801220321002001F0A0FABA
:1005900010BD10B500F0A0F9012000F0F9FA00201C
:1005A00000F0F6FA03F07CFA0D21802002F020F82A
:1005B00010BD000010B513480078142805DA114862
:1005C0000078401C0F4908700CE00E480078142891
:1005D00008D10D4802F084F8FF200A490870002075
:1005E0000A4908700A480078642804DC0848007842
:1005F000401C0749087007480078401C05490870EE
:1006000010BD0000FE000020B403002019010020EE
:10061000010100200801002010B5044800F082F814
:1006200001200349487101F0D9F810BDC60000202F
:10063000C90000204279012A05D14A69002A02D066
:10064000184B4A695A610278012A05D10A68002AC2
:1006500002D0144B0A681A604278012A05D14A6810
:10066000002A02D00F4B4A685A608278012A05D1CD
:100670008A68002A02D00B4B8A689A60C278012AE5
:1006800005D1CA68002A02D0064BCA68DA6002792E
:10069000012A05D10A69002A02D0024B0A691A61AF
:1006A0007047000018040020014607484068FF22F8
:1006B000F13290430A01FF23F1331A401043024AFA
:1006C00050600020704700000024004001460029CF
:1006D00001D10420704707488068012292029043AC
:1006E0000A78920201239B021A401043014A90604B
:1006F0000020EFE700240040034840684008400025
:10070000401C01494860704700240040044840688C
:100710000121C9038843401801494860704700001F
:10072000002400400146002901D1042070470348FD
:10073000006A0005000D08800020F7E780240040D3
:1007400010B504463948006B0007C00F00280CD0D4
:1007500037488068002802D0354988688047334888
:10076000406B08218843314948633048006B40079B
:10077000C00F00280CD02E48C068002802D02C4999
:10078000C86880472948406B04218843274948634B
:100790002648006B8007C00F00280CD02448006951
:1007A000002802D02249086980472048406B022176
:1007B00088431E4948631D48006BC007C00F0028CE
:1007C0000CD01B484069002802D01949486980476D
:1007D0001648406B40084000144948631348006BBA
:1007E000C006C00F00280CD011484068002802D075
:1007F0000F49486880470D48406B102188430B49DA
:1008000048630A48006B8006C00F00280CD00848D7
:100810000068002802D00649086880470348406BFA
:10082000202188430149486310BD00008024004016
:10083000180400200146002901D1042070472048F7
:1008400040680C2290434A7892000C231A401043CF
:100850001B4A5060104640689A0290438A781203FF
:100860009B021A401043164A506010464068DA1046
:100870009043CA785202DB101A401043104A50606D
:1008800010464068D21490430A79D2020123DB0259
:100890001A4010430A4A5060104680681214904370
:1008A000074A90601046806852149043044A906052
:1008B0001046806892149043014A90600020BDE782
:1008C000002400400348006840084000401C0149E3
:1008D00008607047C024004003480068400840009A
:1008E0000149086070470000C024004010B55B4813
:1008F0000078002800D010BD5948007800286FD13A
:1009000058480078030004F0B1FF07A205173D4ED8
:100910006C8CA20000210120400202F0E6FE0121C1
:10092000080202F0E2FE4F480078401C4D49087072
:1009300002204B4908708EE00021FF20013002F0B8
:10094000D4FE0121880202F0D0FE4748007800283A
:1009500003D10121880202F0EFFF0121434802F098
:10096000EBFF00203F49087001204149087000203A
:100970004049086001F0D4FC00F05AFA642000F00D
:10098000F7FA68E00021802002F0AFFE012140204C
:1009900002F0ABFE33480078401C32490870022058
:1009A0002F49087057E00021402002F09EFE0121EF
:1009B000880202F09AFE2C480078002803D1012119
:1009C000880202F0B9FF0020264908702849087003
:1009D00001F0A6FC00F02CFA002000F05BFC3AE0ED
:1009E0003AE00021202002F080FE0121102002F0D8
:1009F0007CFE1C480078401C1A49087002201849E7
:100A000008701D480078401C1B4908700846007893
:100A1000032805D1012011490870002016490870EB
:100A200019E00021102002F060FE0121880202F08E
:100A30005CFE0D480078002803D10121880202F0F5
:100A40007BFF0020074908700949087003E0002077
:100A50000449087000BF00BF00BF4CE7320000200F
:100A600035000020310000202C000020FF03000092
:100A700018000020700000203300002030B502462E
:100A800000201402034D631901248C40E4435C618F
:100A900030BD0000000C004070B502460020150279
:100AA000034EAB191C692546CD40E807C00F70BD49
:100AB000000C004010B502460020002A04D0012A94
:100AC0000BD0022A1BD111E00F4B1B681B0C1B041F
:100AD0008CB223430C4C236013E00C4B1B681B0CA3
:100AE0001B048CB22343094C23600AE0084B1B68AB
:100AF0001B0C1B048CB22343054C236001E0012036
:100B000000BF00BF10BD0000000C0040000D004001
:100B1000000E004010B502460020002A04D0012A31
:100B20000BD0022A1BD111E00F4B5B681B0C1B047E
:100B30008CB223430C4C636013E00C4B5B681B0CC2
:100B40001B048CB22343094C63600AE0084B5B68CA
:100B50001B0C1B048CB22343054C636001E0012095
:100B600000BF00BF10BD0000000C0040000D0040A1
:100B7000000E004010B5014600200B02034C1A196C
:100B8000D3685B085B005B1CD36010BD000C0040A9
:100B900010B5014600200B02034C1A19D3685B08FC
:100BA0005B00D36010BD0000000C004010B5014692
:100BB00000200B02034C1A19D3682415A3431B19F8
:100BC000D36010BD000C004030B502460020002A62
:100BD00004D0012A56D0022A7ED1A9E0804BDB68DE
:100BE00003242403A3430C78240303252D032C4062
:100BF00023437B4CE3602346DB686415A3434C78B6
:100C0000640201256D022C402343754CE3602346AA
:100C1000DB68A415A3438C7824026D102C40234379
:100C20006F4CE3602346DB687024A343CC78240137
:100C300070252C4023436A4CE3602346DB6808247C
:100C4000A3430C79E40008252C402343644CE36063
:100C50002346DB680424A3434C79A40004252C40DC
:100C600023435F4CE3602346DB680224A3438C7973
:100C7000640002252C402343594CE360594C8B6897
:100C80002360ABE0584BDB6803242403A3430C78B8
:100C9000240303252D032C402343534CE3602346B8
:100CA000DB686415A3434C78640201256D022C4077
:100CB00023434D4CE3602346DB68A415A3438C78A3
:100CC00024026D102C402343474CE3602346DB682D
:100CD0007024A343CC7800E07EE0240170252C40F2
:100CE0002343414CE3602346DB680824A3430C798B
:100CF000E40008252C4023433B4CE3602346DB689B
:100D00000424A3434C79A40004252C402343364CEF
:100D1000E3602346DB680224A3438C796400022548
:100D20002C402343304CE360304CCB68236055E0CB
:100D30002F4BDB6803242403A3430C7824030325EF
:100D40002D032C4023432A4CE3602346DB686415C3
:100D5000A3434C78640201256D022C402343244CAC
:100D6000E3602346DB68A415A3438C7824026D104E
:100D70002C4023431E4CE3602346DB687024A343CE
:100D8000CC78240170252C402343194CE360234682
:100D9000DB680824A3430C79E40008252C40234396
:100DA000134CE3602346DB680424A3434C79A4007E
:100DB00004252C4023430E4CE3602346DB680224C9
:100DC000A3438C79640002252C402343084CE36044
:100DD000084C0B69236001E0012000BF00BF30BD5B
:100DE000000C00403C010020000D004040010020AC
:100DF000000E00404401002070B50A4D0A48046806
:100E000021462846FFF79BFA054664212846FFF74E
:100E100096FA064908706424084600784443281B63
:100E2000487070BD204B0C0058000020410000208D
:100E300010B50A480478642044430A212046FFF78D
:100E40007EFA074908600A200649086008460068DB
:100E50000349096840180349086010BD30000020AC
:100E60008C0000208800002070B5094D09480068FA
:100E70004543094801682846FFF761FA04463234C1
:100E800064212046FFF75BFA0449086070BD00004A
:100E9000B63A0100940000206400002058000020B1
:100EA00010B51B480078012831D11A480078642811
:100EB0002DDA19480068401C174908600846006888
:100EC0004B21C90088420BD1002013490860012042
:100ED0001249087002F0D3FD00201149087016E095
:100EE0000D4800680F490968884210D101200C495B
:100EF000087002F0D5FD0C480C4908600C490860E8
:100F00000D21802001F074FB00200449087010BD01
:100F1000280000202D000020B40000201D0000202B
:100F200029000020B800002014050000A0000020C7
:100F3000A4000020F8B507463D460126002406E03F
:100F40000121304602F0D1FB7600601CC4B2AC42F5
:100F5000F6DB0A2D0ADA2C4606E00021304602F0C4
:100F6000C4FB7600601CC4B20A2CF6DBF8BD00009E
:100F700010B5044625480078002800D010BD24484C
:100F80000078012800D1002422480078A04202D035
:100F90002048047000E0F1E7002C16D102F080FD3B
:100FA0001D481E4908601E4908601E481E49086009
:100FB0000D21802001F01CFB00201C4908701C49F9
:100FC000087001201B4908701EE0194800780028AD
:100FD00004D101201649087014490870154800789A
:100FE000012811D10A48007800280DD1074800785F
:100FF000002809D10F4908700F4908600D21802091
:1010000001F0F6FA02F03BFD00BFB7E71F00002039
:10101000460000202E00002014050000A000002043
:10102000A400002010270000A80000201D000020C0
:101030002800002029000020B4000020F8B57048E6
:101040000078002800D1F8BD6E480078002800D054
:10105000F9E76D480078002800D0F4E76B48007885
:10106000002800D0EFE76A480078002800D0EAE7BF
:1010700068480078002800D0E5E767480078002835
:1010800005D06648076866480068009005E0634838
:101090000768634800680A38009062480068B842F0
:1010A00056D901205C4908705E4800685B490968B0
:1010B000451AC82D01D9282408E0642D01D914242B
:1010C00004E0322D01D90A2400E00524564E54488C
:1010D0000068C82802D8A000241801E00A20444370
:1010E000361952480068B0421CD350480068001BB3
:1010F0004E490860084600684D4908600846006887
:101100004C49081A4C4908604C480078002874D1B2
:101110000D21802001F06CFA01204849087002F08E
:10112000AEFC6AE002F0BCFC3F4840490860404920
:1011300008604048404908604048007800285CD07A
:1011400000203E4908700D21802001F051FA54E042
:1011500034480168009881424CD201202E49087021
:101160002F4800682F490968451AC82D01D928243D
:1011700008E0642D01D9142404E0322D01D90A2499
:1011800000E005242948066825480068C82802D8D8
:10119000A000241801E00A204443361928480068BA
:1011A00086420BD82148066000682149086008463D
:1011B00000682049081A204908600DE020480068AE
:1011C0001A4908600846006819490860084600681E
:1011D0001849081A184908601848007800280CD1E6
:1011E0000D21802001F004FA01201449087002F05A
:1011F00046FC02E000200849087000BF23E7000019
:101200002D0000201F0000202600002046000020A6
:101210002900002025000020270000208800002051
:101220008C0000206000002014050000A0000020B9
:10123000A400002010270000A80000201D000020AE
:10124000B000002070B501F06BF80025002400BF4D
:10125000322000F059FB28460A30C5B22046FFF77D
:1012600069FE601CC4B2084800788542F0DD06487B
:1012700000780621484305490860FFF7D9FD04209E
:101280000349087070BD00002D000020B800002048
:1012900035000020F8B5044665480078002803D1E1
:1012A00064480078002800D0F8BD63480078002822
:1012B00032D0012C2FD103F0FDF90121880202F078
:1012C00014FA642000F020FB0021A00202F00DFAC5
:1012D000642000F019FB0121880202F006FA642064
:1012E00000F012FB0021A00202F0FFF9642000F0E0
:1012F0000BFB0121880202F0F8F9642000F004FBE6
:101300000021A00202F0F1F9642000F0FDFA0121B1
:10131000880202F011FBC7E748480078002833D064
:10132000012C11D1464800684649884208D24448F9
:1013300000683230424908603220FFF719FE16E09B
:1013400040483F49086012E0022C10D13C48006838
:101350003D49884208D33A48006832383849086025
:101360003220FFF705FE02E00020FFF701FE0A2110
:1013700033480068FEF7E3FF0646304602F087FA7E
:1013800003203249087051E0314800683F2189024A
:1013900008402F490860012C09D12E4800786428A4
:1013A00014DA2C480078401D2A4908700EE0022CFF
:1013B0000CD128480078052805DD26480078401F14
:1013C0002449087002E00020224908702148007872
:1013D00006214843204908601E4806780A25294608
:1013E0003046FEF7ACFFC5B20A20684306462846E1
:1013F000FFF7A0FD17480078B04209D90127AF4098
:101400000121384602F098FA0121384602F06DF9C0
:1014100010480078FFF7ACFD002C07D000200F49E2
:10142000086003F023F805200849087000BF3BE777
:101430003100002018000020260000202500002098
:10144000A4000020342100004605000035000020E3
:10145000740000202D000020B8000020B4000020FF
:1014600010B50D21802001F0A1F8002807D10D2131
:10147000802001F0BDF8FF20F53000F045FA1F484C
:10148000007800281BD01E48407A1E4908701C486E
:10149000807A48700121C02000F092FF0021C02016
:1014A00000F08EFF052000F035FA0121C02001F088
:1014B0009FF800210120800202F03EFA19E0104856
:1014C000C07A104908700E48007B48700121C02086
:1014D00000F076FF0021C02000F072FF052000F030
:1014E00019FA0021C02001F083F80121880202F0DE
:1014F00023FA0121880202F0F8F810BD2C00002028
:10150000840100204100002010B5032000F0DAFA29
:101510000446012C03D100200649C87002E00120D6
:101520000449C87004480078012108430249087042
:1015300010BD0000840100205C00002070B5194837
:1015400000683F2189020840164908601648007863
:10155000012800D170BD15480078002804D0144837
:10156000006802F094F91BE012480078002801D1CD
:10157000114908601048056814350A2045430F4892
:1015800001682846FEF7DBFEC4B20A2C00DD0A24FF
:101590000B480078002800D000242046FFF7CAFC42
:1015A00000BFD7E7740000201F00002025000020A6
:1015B000940000202D000020600000206400002026
:1015C0004600002000B50F480078002811D00E48D2
:1015D0000078002803D000200B49087002E00120A9
:1015E000094908700020074908708D2007490870D4
:1015F00005E001200349087000200449087003F049
:1016000047F800BD3C0000202C00002036000020E0
:1016100010B50B480078012800D110BD09480078AA
:10162000002800D0F9E70021084600F0E3FE00287A
:1016300004D105480078401C0349087000BFECE75E
:101640001F000020260000204400002010B519488B
:10165000006844081848006818490968884213D38C
:1016600017480068A0420FD21648007800280BD116
:101670001548007800281CD1012013490870012169
:10168000C00202F059F914E00F480078012810D187
:1016900000200D4908700D480078002809D100216C
:1016A0000120C00202F048F900210120C00202F02E
:1016B0001CF810BD8C000020A0000020B00000200D
:1016C00060000020290000201C00002046000020AF
:1016D00010B514480078002822D013480078134928
:1016E0000870FFF789FB02F09FFE00200D4908708B
:1016F0000F4908700F4800680F4908600021012059
:10170000C00202F019F90D480078012807D1002124
:10171000800202F011F90121880201F0E6FF10BDFC
:1017200000BFFCE725000020580000203E000020FC
:1017300056000020A4000020A00000202C00002063
:101740000D2004E00021034A1154411CC8B21428A2
:10175000F8DB70478401002010B51E48007800288F
:1017600033D000F0FBF90121C80201F0BEFF642074
:1017700000F0CAF800210120C00201F0B6FF642089
:1017800000F0C2F80121C80201F0AFFF642000F0B0
:10179000BBF800210120C00201F0A7FF642000F087
:1017A000B3F80121C80201F0A0FF642000F0ACF8FA
:1017B00000210120C00201F098FF642000F0A4F88D
:1017C0000121C80202F0B8F810BDFFF781FF00BF89
:1017D000FAE70000260000207047000010B512480C
:1017E0000078401C104908701048006810490988AA
:1017F00040180E4908600C480078502813DBFEF7AB
:10180000B1FE03F010F80B480078002806D1012043
:101810000849087005480068074908600020034926
:1018200008600149087010BD3400002068000020E5
:10183000C60000201E0000207800002070B505467C
:101840002E46002407E0304600F03CF92C490855AC
:10185000761C601CC4B20D2CF5DB294800782949A0
:101860004978884205D1264840782649C978884277
:1018700001D0012070BD22488078012801DD0120BF
:10188000F8E71F48C078012801DD0120F2E71C4875
:101890000079642801DD0120ECE7194840797828B7
:1018A00001DD0120E6E716488079782801DD012076
:1018B000E0E71348C079012801DD0120DAE710488C
:1018C000007A012801DD0120D4E70D48407AFF2885
:1018D00001D10120CEE70A48807A642801DD012089
:1018E000C8E70748C07AFF2801D10120C2E70448B1
:1018F000007B642801DD0120BCE70020BAE700007E
:10190000840100209A00002010B50446204604F00F
:10191000ADF810BD10B50446204604F079F810BDAE
:10192000F7B584B00F461546002424E0285D012851
:101930001FDB285D7E281CDC285D0007000E104997
:101940000870002608E00E48007880190D49085CF0
:1019500069468855701CC6B2102EF4DB6A463946BB
:10196000049801F0CCFD601CC4B238460830C7B200
:1019700001E0601CC4B2285D0028D7DC07B0F0BDD0
:10198000CF000020F05A00000021054A11700549DF
:10199000086000BF024909780029FBD070470000A9
:1019A0001801002000010040FEB53FA00190002476
:1019B00008E0019800783E4908550198401C0190C4
:1019C000601CC4B2042CF4DB312539484778781BFD
:1019D000384908703648C778781B374908700020A6
:1019E0000090FFF72BFF0646012E0FD18002FFF774
:1019F00025FF002802D00120009009E02F4A0D2188
:101A0000002002F09FFD0020009001E000200090E7
:101A10002B4D002409E0284600F054F821460D31F2
:101A2000264A50546D1C601CC4B2072CF3DB2348BB
:101A3000407B3C2817DC2148807B092813DC1F48A9
:101A4000C07B09280FDC1D48007C09280BDC1B48E3
:101A5000407C092807DC1948807C092803DC1748EA
:101A6000C07C092807DDFFF76BFE144A0D32072101
:101A7000134802F067FD03F0C9FD0098012810D15A
:101A80000E49887002F036FE0C4A0D21002002F04B
:101A900059FD0A4A0D210120800202F053FD02F097
:101AA00047FC03F0D1FDFEBD56312E36000000008C
:101AB0009A00002098000020990000208401002056
:101AC00001020000014607221203521810787047E5
:101AD00070B504460E4615462046002805DBC206B2
:101AE000D20E012191401A4A116000BF31462046B2
:101AF00003F0D6FE012D0ED12046002809DB00BFE1
:101B000000BFC206D20E01219140124A116000BFEF
:101B100000BF00BF1BE02046002816DBC206D20E25
:101B2000012191400B4A8032116000BF00BF00BF0D
:101B3000BFF34F8F00BF00BF00BF00BF00BF00BF9B
:101B4000BFF36F8F00BF00BF00BF00BF00BF70BDFD
:101B500080E200E000E100E07047000010B502F014
:101B6000A9FDFFF7EDFD044A0721044802F0EAFC55
:101B700003F04CFD10BD00009101002001020000A7
:101B800010B5012000F0A6F8012804D100F010F8EB
:101B9000012000F04BF8002000F09CF8012805D14E
:101BA000002000F005F8002000F040F810BD000013
:101BB00001460120002917D001292DD1184AD26AE7
:101BC000120C1204174BD218154BDA621A46D26A5D
:101BD000120C1204144BD218114BDA621A46926A94
:101BE00082439A62002019E00D4AD26A120C120454
:101BF0000C4BD2180A4BDA621A46D26A120C120443
:101C0000094BD218064BDA621A46926A02239A43AB
:101C1000034B9A62002001E0012000BF00BF704723
:101C2000000002405A5A0000A5A5000010B5014668
:101C30000120002902D0012942D120E0224AD26AA3
:101C4000120C1204214BD2181F4BDA621A46D26AC8
:101C5000120C12041E4BD2181B4BDA621B6A5B0675
:101C60009B0F0224A3435B01602423401A46164BBA
:101C70001B6AA3431343144C2362002022E0124A40
:101C8000D26A120C1204114BD2180F4BDA621A46A8
:101C9000D26A120C12040E4BD2180B4BDA621B6A7A
:101CA0005B069B0F5B085B005B01602423401A46C8
:101CB000054B1B6AA3431343034C2362002001E03E
:101CC000012000BF00BF10BD000002405A5A0000B2
:101CD000A5A5000001460020002906D0012909D150
:101CE000064A526AD007C00F06E0044A526A9207B9
:101CF000D00F01E0002000BF00BF7047000002408D
:101D000070B50346002001290BD0022909D004290F
:101D100007D0062905D0082903D00C2901D00420BA
:101D200070BD9F4CE46A240C24049E4D64199C4DA4
:101D3000EC622C46E46A240C24049B4D6419984DF3
:101D4000EC622C46246A6D15AC43550201267602DE
:101D500035402C43924D2C622C46E46A240C24041A
:101D6000904D64198E4DEC622C46E46A240C2404D8
:101D70008D4D64198A4DEC622C462468640A640215
:101D80000D07ED0D2C43864D2C602C46E46A240C87
:101D90002404844D6419824DEC622C46E46A240CC0
:101DA0002404814D64197E4DEC622C466468240A3B
:101DB000240217254D43EDB22C43794D6C602C461F
:101DC000E46A240C2404774D6419754DEC622C46AA
:101DD000E46A240C2404744D6419714DEC622C46A1
:101DE000A468640A64021B254D43ED05ED0D2C43E8
:101DF0006B4DAC602C46E46A240C2404694D6419D4
:101E0000674DEC622C46E46A240C2404664D641988
:101E1000634DEC622C46E468A40CA404634D4D436E
:101E2000AD03AD0B2C435E4DEC602C46E46A240CF4
:101E300024045C4D64195A4DEC622C46E46A240C6F
:101E40002404594D6419564DEC622C462469640DE6
:101E50006405574D4D43ED02ED0A2C43504D2C6166
:101E60002C46E46A240C24044E4D64194C4DEC625B
:101E70002C46E46A240C24044B4D6419484DEC6252
:101E80002C466469240B240318254D432D052D0D84
:101E90002C43434D6C612C46E46A240C2404414DD0
:101EA00064193F4DEC622C46E46A240C24043E4D38
:101EB00064193B4DEC622C46A469240B2403F025E5
:101EC0004D432D052D0D2C43354DAC612C46E46A58
:101ED000240C2404334D6419314DEC622C46E46A21
:101EE000240C2404304D64192D4DEC622C46E46919
:101EF000640B64037D25ED004D43ED04ED0C2C4394
:101F0000274DEC61082917D12C46E46A240C2404DF
:101F1000244D6419224DEC622C46E46A240C2404FE
:101F2000214D64191E4DEC622C46246A0C25AC43ED
:101F3000241D1B4D2C622FE00C2917D1184CE46A8C
:101F4000240C2404174D6419154DEC622C46E46AE8
:101F5000240C2404144D6419114DEC622C46246A9F
:101F60000C25AC43241D0E4D2C6215E00C4CE46A8C
:101F7000240C24040B4D6419094DEC622C46E46AD0
:101F8000240C2404084D6419054DEC622C46246A87
:101F90000C25AC43024D2C62064C236000BFBFE60B
:101FA000000002405A5A0000A5A50000504600005B
:101FB000E022020038010020014600202A4A914216
:101FC00001D904207047294AD26A120C1204284B06
:101FD000D218264BDA621A46D26A120C1204254B2A
:101FE000D218224BDA621A46126B0022D2431A63CD
:101FF00000BF1E4A126AD206D20F002AF9D11B4A2C
:10200000D26A120C12041A4BD218184BDA621A4612
:10201000D26A120C1204174BD218144BDA621A4609
:10202000126A92089200921C1A6200220A7000BF83
:102030000E4A126AD206D20F002AF9D10B4AD26A8E
:10204000120C12040A4BD218084BDA621A46D26AF2
:10205000120C1204074BD218044BDA621A46126BA8
:1020600000221A6300BFADE7FFFF0000000002403E
:102070005A5A0000A5A5000001460020194A126A1C
:10208000520052080123DB07D218164B1A62164A77
:10209000D26A120C1204154BD218134BDA621A468C
:1020A000D26A120C1204124BD2180F4BDA620029BA
:1020B00006D11A46126A0C239A430B4B1A6210E09F
:1020C000012907D1084A126A0C239A43121D064BB4
:1020D0001A6206E0044A126A0C239A430832024B41
:1020E0001A62704700200040000002405A5A000067
:1020F000A5A5000010B5024600202A4B9A4201D93E
:10210000042010BD284BDB6A1B0C1B04274C1B1939
:10211000254CE3622346DB6A1B0C1B04244C1B1971
:10212000214CE36223461B6B0023DB43236300BF88
:102130001D4B1B6ADB06DB0F002BF9D11A4BDB6A48
:102140001B0C1B04194C1B19174CE3622346DB6A5A
:102150001B0C1B04164C1B19134CE36223461B6A11
:102160009B089B005B1C2362117000BF0E4B1B6A17
:10217000DB06DB0F002BF9D10B4BDB6A1B0C1B04BE
:102180000A4C1B19084CE3622346DB6A1B0C1B0438
:10219000074C1B19044CE36223461B6B002323638B
:1021A00000BFAEE7FFFF0000000002405A5A0000E7
:1021B000A5A5000070B54B480078002817D0002076
:1021C0004949087049484A4908600020494908605F
:1021D00049490860012049490870002048490860C1
:1021E00048490860484908604849087070BD484837
:1021F0000078002874D0502142480068FEF79FF80C
:1022000004463C480068844201D93A480460384892
:102210000068844201D236480460374800680019DB
:102220003549086030480078401C2F49087008463E
:10223000007864284FD1002008702F4800682D498D
:102240000968401A2C49086008460068284909684E
:10225000401A29490860622127480068FEF76FF894
:1022600004460120C002844204D32A48201A2A4985
:1022700008600FE027481238844205D80120C002C8
:10228000001B2549086005E00120C002001B400832
:1022900021490860214804781F48006844431F48CA
:1022A00045781D480068454364212846FEF747F8F5
:1022B000054664190A212046FEF741F810490860D6
:1022C0000A480B49086000200A4908600A4908606A
:1022D00001200A49087000200A4908600C4908706A
:1022E00000BF83E7290000203D000020FFFF000021
:1022F000800000207C0000209000002021000020B1
:1023000060000020780000206800002034000020D9
:102310001E000020F3070000940000204100002070
:1023200016480078002803D11548007800280DD001
:10233000144800788000144908581449086014486B
:1023400010490978405C134908700CE00D4800788A
:102350008000114908580D4908601048094909785A
:10236000405C0C4908700A200D4908600846006866
:102370000849097848430A4908607047320000203C
:10238000180000202B0000200C000020B0000020CE
:10239000160000203000002004000020140000205F
:1023A00064000020024605481018006901238B4094
:1023B0009843024BD318186100207047000E02406A
:1023C000024605481018406901238B401843024B10
:1023D000D318586100207047000D024070B50446C4
:1023E0000D461646012332462946204603F0C8F919
:1023F000002070BD0246034810184068C840C0075E
:10240000C00F7047000D02400246034810180068D4
:10241000C840C007C00F7047000E024070B50546A7
:10242000002D20D10C21FFF7EFFF01281BD10C213B
:102430000020FFF7B7FF0D21802000F0D9F80A48EF
:10244000007800280BD10948006809494418A0B257
:1024500002F042FDA0B202F031FD02F04BFD02F0AD
:10246000DDF9FEF775F870BD29000020A4000020FA
:10247000EFD8000030B503460020494C1C198D00F0
:1024800060511078012809D14648181800680124C5
:102490008C402043434C1C19206008E04148181828
:1024A000006801248C40A0433E4C1C1920605078E9
:1024B000002809D13B481818C06901248C40A0436A
:1024C000384C1C19E06108E036481818C06901242E
:1024D0008C402043334C1C19E0619078012812D1C4
:1024E00030481818006A01248C4020432D4C1C19D8
:1024F00020622C481818446A0120884084432948E7
:102500001818446227E09078022812D1254818183C
:10251000006A01248C40A043224C1C1920622148EF
:102520001818406A01248C4020431E4C1C1960621C
:1025300011E01C481818006A01248C40A043194C73
:102540001C19206217481818406A01248C40A043C7
:10255000144C1C196062D078002809D11148181851
:10256000C46A0120884084430E481818C46208E0F9
:102570000C481818C06A01248C402043094C1C19CF
:10258000E062094880680124E403A0431479E4036D
:102590000125ED032C402043034CA060002030BDFA
:1025A000000C0240000D0240000F024002460348AA
:1025B00010188068C840C007C00F7047000D024067
:1025C00010B50346024818188C000251002010BDB7
:1025D000000C0240024605481018C06801238B40D9
:1025E0001843024BD318D86000207047000D0240FA
:1025F000024605481018006901238B401843024B1E
:10260000D318186100207047000D024008B5002063
:10261000009000BF00980028FCD008BD10B594B011
:1026200050216846FDF789FE00F096F8002810D189
:10263000684600F033F86C46204600F027F9002881
:1026400001D014B010BD204600F092F8002800D050
:10265000F7E700BFF5E7000005480078FF2806D13E
:102660000020044908700249087003490870704747
:10267000090100200A0100200B010020002004496C
:102680000870FF2003490870002003490870704754
:102690000A010020090100200B01002070B504464A
:1026A0000D4805684E220168C91C2046FDF7E6FD6D
:1026B00000200949096808700748016807488142F5
:1026C00004D1FF3845380449086004E00248006836
:1026D00051300149086070BD10010020DC0200206B
:1026E00010B5044619480068804208D117480068B0
:1026F000804224D115480068007800281FD150225C
:10270000214612480068401CFDF7B8FD50211048D2
:10271000FDF713FE01200D49096808700B48016898
:102720000C48814204D1FF3845380849086004E06C
:1027300006480068513005490860012010BD50214D
:102740000348FDF7FAFD0020F8E700000C01002027
:10275000B4030020DC020020044800680078002850
:1027600001D1012070470020FCE70000100100208B
:1027700070B504460025607967284AD1A07B5428AB
:102780000FD1E07D30380A214843217E401830388F
:10279000C5B200BF20A002F0C7FC26480078264939
:1027A0000870A07B462834D1A07D30280AD1234868
:1027B000007800282DD022A002F0B6FC81201E490E
:1027C000087026E0A07D31280AD11C480078002836
:1027D0001FD121A002F0A8FC82201749087018E040
:1027E000A07D332815D1FF20F53003F07BF9134885
:1027F0000078002803D01FA002F096FC02E010A091
:1028000002F092FCFF20F53003F06CF984200A49B5
:102810000870284670BD000041542B4144413D22C0
:1028200073222C225447222C2273222C2239392243
:102830000D0A0000150100203501002017010020BD
:1028400041542B4144413D2273222C224644222CE8
:102850002269222C300D0A0041542B4144413D2273
:1028600073222C224644222C226922202C310D0A6C
:102870000000000041542B4144413D2273222C2290
:102880004644222C2269222C310D0A0070B50446E0
:1028900000250D220FA12046FF309630FDF79EFC4B
:1028A000002806D101200F490870FFF7E7FE012537
:1028B0000DE010220CA12046FF309630FDF78EFC73
:1028C000002804D107490870FFF7C6FE01252846F5
:1028D00070BD00002B4144413A20226C222C22750D
:1028E00070220000060100202B4144413A20226C56
:1028F000222C22646F776E220000000010B50020A9
:10290000FFF78CFD10BD10B50120FFF787FD10BD4E
:1029100010B50220FFF782FD10BD10B50320FFF7B0
:102920007DFD10BD10B50020C046C04610BD10B5DD
:10293000002002F0B1FA10BD10B5002002F003FD36
:1029400010BD10B5012002F0FEFC10BD10B5002036
:10295000C046C04610BD10B50120C046C04610BDDF
:1029600010B50020C046C04610BD10B50120C046BD
:10297000C04610BD10B50020C046C04610BD10B501
:102980000120C046C04610BD10B5002002F03CFB3F
:1029900010BD10B5012002F037FB10BD10B50220AC
:1029A00002F032FB10BD10B50020C046C04610BD7D
:1029B00010B50420C046C04610BD10B50520C04665
:1029C000C04610BD10B50620C046C04610BD10B5AB
:1029D0000020C046C04610BD10B50020C046C0460D
:1029E00010BD10B50020C046C04610BD10B5002077
:1029F000FDF7A6FE10BD10B50020C046C04610BDB4
:102A000010B50020C046C04610BD10B50120C0461C
:102A1000C04610BD10B50020C046C04610BD10B560
:102A20000020C046C04610BD10B50020C046C046BC
:102A300010BD10B50020C046C04610BD00B58DB019
:102A400005210BA802F0A6FF062109A802F0A2FFAB
:102A5000182103A802F09EFF0621274802F09AFFE2
:102A6000052101A802F096FF0C214020FFF7B2FDDE
:102A700001216846017101AA0C214020FFF7FAFCF0
:102A80000121102002F0B2F8FDF736FE1B48006865
:102A900040084000401C19490860084600680221AF
:102AA000884316490860012002F084FF002108A82D
:102AB00001734173022181730321C17300210174E9
:102AC0000BA8FDF7B7FE0BA8FDF700FE1320FDF7DE
:102AD000EBFD012211461820FEF7FAFFFDF716FE66
:102AE000012108A841720648089003A909A8FDF72A
:102AF000A1FD0DB000BD0000C90000200024004071
:102B00001906000030B58DB00024102109A802F08C
:102B100041FF142104A802F03DFF032103A802F0A5
:102B200039FF0C21684602F035FF01211C2002F01C
:102B30005DF801211D2002F059F80121084602F03C
:102B400055F802F09BFC214806902148049021484A
:102B50000590214808902148079004A80B90012176
:102B600008A80174017100214171684601730125B3
:102B70002946012002F0D3FC03A80A9009A90120EC
:102B800002F03AFC0121084602F0B3FC01F0E0FF3C
:102B900000900321684601714B20C00102906946F4
:102BA000012002F0D1FA04462146012002F095FCF2
:102BB0000121084602F07AFB0121084602F0F8FAEA
:102BC0000121084602F02EFB0DB030BD3942000055
:102BD0005D500000591B00007D3A0000D91700002D
:102BE0001CB50521684602F0D5FE01211C2001F02C
:102BF000FDFF012168460170417081700021C170A4
:102C0000012101716A4600210846FFF733FC6A463C
:102C10000C210020FFF72EFC0C210020FFF7C2FB47
:102C200008220C210020FFF7D9FB00216846017023
:102C3000417081700D218020FFF7DAFC6A460D217A
:102C40008020FFF717FC0021C020FFF7B9FB6A4680
:102C50000021C020FFF70EFC0121C020FFF7B0FBD0
:102C60006A460121C020FFF705FC6A460A210020C0
:102C7000FFF700FC6A460C214020FFF7FBFB6A4689
:102C80000D214020FFF7F6FB6A4608210020FFF7E0
:102C9000F1FB6A460F210020FFF7ECFB0A21002020
:102CA000FFF7A6FC0C214020FFF7A2FC0D214020DD
:102CB000FFF786FB08210020FFF782FB0F21002091
:102CC000FFF77EFB1CBD08B50020FFF7D5F90020FB
:102CD00001F0AAFF0021684601704170817001F087
:102CE000A7FD08BD30B58DB00C21684602F052FE3C
:102CF000142108A802F04EFE142103A802F04AFE97
:102D00000121082001F072FF002108A80170417123
:102D10000221C17001218171002101718170417016
:102D200036480A9008A90020FDF74EFF344C214692
:102D30000020FDF7BFFE254629460020FDF7EAFEEC
:102D400000210846FDF79AFE0020FDF72FFF012223
:102D500003210E20FEF7BCFE0020FDF70BFF002133
:102D60006846017341740221C173012181740021FD
:102D70000174817341732348069003A90120FDF774
:102D800023FF214C21460120FDF794FE25462946CC
:102D90000120FDF7BFFE00210120FDF76FFE01209D
:102DA000FDF704FF012203210F20FEF791FE012110
:102DB0000B2001F01BFF00216846017041710221C8
:102DC000C1700121817100210171817041700F4832
:102DD0000290684602F0BCF80D4800880021C94303
:102DE000081A84B2204602F077F8204602F066F80E
:102DF000002002F03BF80DB030BD0000DD4D0000BA
:102E000018FC0000FD4D000083FF0000194E00007B
:102E1000AC00002010B53E490978002976D100F0B9
:102E2000C9F83C49097888425ED13B4909780029B4
:102E300069D138490978002952D038490978354A8A
:102E40001278914237D13649097800295BD035494B
:102E50000978002910D034490978491C324A117088
:102E60001146097814294ED1002111702D4A117094
:102E70000121294A117046E001212C4A11702A498A
:102E80000978491C284A117029490978002903D179
:102E900011460978062907D025490978002932D03A
:102EA0002149097803292ED100211F4A11700121DF
:102EB000194A117027E017490978184A1170012141
:102EC000154A11700021194A11700121154A11701B
:102ED000134A11700021144A1170154A117012E042
:102EE00000210E4A11700EE00A49087000210F4AB5
:102EF000117001210B4A11700021094A11700A4A10
:102F000011700B4A11701421014A117010BD00009C
:102F1000C1000020C3000020BC000020C40000202D
:102F2000BF000020BE000020C2000020BD00002025
:102F3000C000002004480078002804D0024800782F
:102F4000401E014908707047C100002010B5FFF70E
:102F500061FF15480078002824D014480078012823
:102F600004D0022806D0032813D107E00120FEF781
:102F700091F90FE00220FEF78DF90BE00C48007884
:102F8000002803D000200A49087003E0FEF7E4FBA4
:102F900000E000BF00BF0548007801F0C9FB002039
:102FA0000149087010BD0000BC000020C4000020D2
:102FB000BD00002070B5002401F002F80546012D87
:102FC00004D0022D05D0032D09D105E001200443D2
:102FD00005E00220044302E00320044300BF00BFD9
:102FE000204670BD14200B49087000200A49087063
:102FF0000A4908700A4908700A49087001200A49FC
:1030000008700020094908700949087009490870CA
:1030100070470000C1000020C3000020C400002051
:10302000BC000020BD000020BE000020BF0000202A
:10303000C2000020C0000020FFB589B016460998E4
:103040004000401EC0B202900A98012806DD0A988E
:10305000401EC000401CC0B2019001E00A980190DF
:10306000002005A98855584804901298002830D0AF
:1030700005240EE004991298FDF761F9002801D0AB
:10308000274608E00A210498FDF759F90490601ECC
:10309000C4B2002CEEDC00BF1298039000253C4621
:1030A00014E004990398FDF74AF9303007A9485510
:1030B00004990398FDF743F903910A210498FDF759
:1030C0003EF90490681CC5B2601EC4B2002CE8DC56
:1030D00003E03020694608770127002404E020201F
:1030E00005A90855601CC4B2B442F8DB05AA0199D1
:1030F0000298FEF715FC0C98012815D13D46344680
:103100000FE0002D07DD681EC5B207A8415D601EF7
:1031100005AA115403E02021601E05AA1154601E67
:10312000C4B2002CEDDC47E00C98022835D1B74240
:103130000ADB002405E007A8005D05A90855601C0E
:10314000C4B2B442F7DB37E0F01BC10F0918C90560
:103150000D0E002D01D1681CC5B2002404E0202012
:1031600005A90855601CC4B2AC42F8DB2C4606E049
:10317000601B07A9085C05A90855601CC4B2781932
:10318000A042F5DC7819C4B204E0202005A9085556
:10319000601CC4B2B442F8DB0EE000240AE007A8C9
:1031A000005D05A90855781EA04201DA20200855C7
:1031B000601CC4B2B442F2DB05AA01990298FEF782
:1031C000AFFB0DB0F0BD000010270000FFB589B0C7
:1031D0000E46174609984000401EC0B20190012ECD
:1031E00005DD701EC000401CC0B2009000E00096DB
:1031F000002005A9C855324803900C98002830D00B
:1032000005240EE003990C98FDF799F8002801D0E9
:10321000049408E00A210398FDF791F80390601EDA
:10322000C4B2002CEEDC00BF0C9802900025049C78
:1032300014E003990298FDF782F8303007A9485549
:1032400003990298FDF77BF802910A210398FDF794
:1032500076F80390681CC5B2601EC4B2002CE8DC8E
:1032600004E030206946087701200490002404E03F
:10327000202005A90855601CC4B2BC42F8DB05AA91
:1032800000990198FEF74CFB049D3C460FE0002D91
:1032900007DD681EC5B207A8415D601E05AA11546E
:1032A00003E03021601E05AA1154601EC4B2002C38
:1032B000EDDC05AA00990198FEF732FB0DB0F0BDD8
:1032C00010270000FFB58BB00F461D46002001906F
:1032D0000B984000401EC0B20390012F05DD781E00
:1032E000C000401CC0B2029000E00297002107AA73
:1032F0000D98115439480590002D33D002DA012081
:1033000001906D4205240EE028460599FDF717F857
:10331000002801D0069408E00A210598FDF70FF86F
:103320000590601EC4B2002CEEDC00BF04950026A0
:10333000069C14E005990498FDF701F8303009A9BE
:10334000885505990498FCF7FAFF04910A2105981D
:10335000FCF7F5FF0590701CC6B2601EC4B2002CCD
:10336000E8DC04E0302008A9087101200690002460
:1033700004E0202007A90855601CC4B20D988442BF
:10338000F7DB07AA02990398FEF7CAFA069E0D9C7E
:103390000CE0002E07DD701EC6B209A8815D601E1C
:1033A00007AA115400E003E0601EC4B2002CF0DC58
:1033B00000BF0198002804D02D21601E07AA1154D7
:1033C00005E0002D03D02B21601E07AA115407AA87
:1033D00002990398FEF7A4FA0FB0F0BD1027000081
:1033E000F8B506460C4617467000401EC0B2009065
:1033F000012C04DD601EC000401CC5B200E0254663
:103400003A4629460098FEF78BFAF8BD10B500F051
:10341000C8F800F059F810BD08B500F0C2F800F087
:1034200053F8FF21084600F09DF87D20C000FEF70C
:103430006BFA5521084600F095F87D20C000FEF794
:1034400063FAFF21002000F08DF87D20C000FEF718
:103450005BFAAA21552000F085F87D20C000FEF718
:1034600053FA0FA201210846FFF7BAFF11A201216A
:103470000220FFF7B5FF022001231A460C2100901D
:10348000FFF7DAFD032302220E211046FFF79EFE0E
:103490006323DB43032211461046FFF713FF08BDE9
:1034A000202020202041494151554120202020202A
:1034B0000000000048792D436C6F722020205631A7
:1034C0002E3030200000000070B5002414E02046AB
:1034D000B03000F0D7FE102000F0D4FE002000F045
:1034E000D1FE002504E0002000F0F7FE681CC5B204
:1034F000802DF8DB601CC4B2082CE8DB70BDF0B591
:1035000085B006460C4615463046AF30039020077E
:10351000000F401EC0B202902006000F1030019034
:103520000020009019E0039800F0ACFE019800F034
:10353000A9FE029800F0A6FE002705E0287800F01A
:10354000CCFE6D1C781CC7B2082FF7DB0398401C1B
:1035500003900098401CC0B2009000980228E2DB63
:1035600005B0F0BDF8B507460D46B02416E020467C
:1035700000F088FE102000F085FE002000F082FEA2
:10358000002607E0384600F0A8FE284600F0A5FE19
:10359000701CC6B2402EF5DB601CC4B2B82CE6DB52
:1035A000F8BD10B57D20C000FEF7AEF90A2100205D
:1035B000FEF706FF1420FEF7A7F90A210020FFF707
:1035C00017F81420FEF7A0F92C2000F05BFE052070
:1035D000FEF79AF92E2000F055FE0520FEF794F92B
:1035E0002F2000F04FFE0520FEF78EF9242000F07A
:1035F00049FE812000F046FE2F2000F043FEA2206D
:1036000000F040FEC82000F03DFEA02000F03AFE91
:10361000402000F037FEAF2000F034FE10BD10B5A2
:103620000446002C30D008210020FEF7E1FF0821DD
:103630004020FEF7DDFF07214020FEF7D9FF0921DA
:103640000020FEF7D5FF09214020FEF7D1FF0B2116
:103650004020FEF7CDFF0A214020FEF7C9FF0221DE
:103660004020FEF7C5FF01214020FEF7C1FF0021E9
:103670004020FEF7BDFF07210020FEF7B9FF06211D
:103680000020FEF7B5FF2FE008210020FEF798FE8E
:1036900008214020FEF794FE07214020FEF790FE0F
:1036A00009210020FEF78CFE09214020FEF788FE4C
:1036B0000B214020FEF784FE0A214020FEF780FE09
:1036C00002214020FEF77CFE01214020FEF778FE1B
:1036D00000214020FEF774FE07210020FEF770FE57
:1036E00006210020FEF76CFE10BD70B504460D46A5
:1036F000012D65D1402C3AD00EDC082C46D006DCDA
:10370000012C52D0022C4BD0042C58D143E0102C69
:1037100037D0202C53D12FE001214902601A8C426E
:1037200016D006DC802C1DD0E01FF938002846D1C9
:1037300013E0FF38FF380238002804D00121890245
:10374000401A3CD136E008210020FEF751FF36E058
:1037500008214020FEF74CFF31E007214020FEF712
:1037600047FF2CE009210020FEF742FF27E0092156
:103770004020FEF73DFF22E00B214020FEF738FFFE
:103780001DE00A214020FEF733FF18E0022140200F
:10379000FEF72EFF13E001214020FEF729FF0EE087
:1037A00000214020FEF724FF09E007210020FEF75A
:1037B0001FFF04E006210020FEF71AFF00BF65E0AE
:1037C000402C3AD00EDC082C46D006DC012C52D01E
:1037D000022C4BD0042C58D143E0102C37D0202C95
:1037E00053D12FE001214902601A8C4216D006DC29
:1037F000802C1DD0E01FF938002846D113E0FF3897
:10380000FF380238002804D001218902401A3CD137
:1038100036E008210020FEF7D3FD36E008214020E5
:10382000FEF7CEFD31E007214020FEF7C9FD2CE078
:1038300009210020FEF7C4FD27E009214020FEF702
:10384000BFFD22E00B214020FEF7BAFD1DE00A215A
:103850004020FEF7B5FD18E002214020FEF7B0FD44
:1038600013E001214020FEF7ABFD0EE000214020D7
:10387000FEF7A6FD09E007210020FEF7A1FD04E008
:1038800006210020FEF79CFD00BF00BF70BDF8B50B
:10389000044601260127002510E02046304000287C
:1038A00004D001213846FFF720FF03E0002138460D
:1038B000FFF71BFF76007F00681CC5B20A2DECDB0A
:1038C000F8BD000070B5012418480068002800D138
:1038D00070BD17480078002826D0002514E0134852
:1038E0000068204000280CD012480078002804D03E
:1038F00000212046FFF7F9FE03E001212046FFF7F3
:10390000F4FE6400681CC5B20C2DE8DB09480078A1
:10391000002803D000200749087002E00120054973
:10392000087000200249087000BFD1E77400002031
:103930001A0000202000002070B504460D46002D1E
:1039400005D00848006820430649086008E005489B
:103950000068A0430349086000212046FFF7C5FE28
:1039600070BD00007400002010B5FFF7ACF9FFF740
:1039700037F9FFF7B7F9FFF761F80A2002F048F8C6
:10398000FFF7C0F810BD000010B515480078401CC6
:1039900013490870FCF70EFE1148007864281DDBFF
:1039A00000200F4908700F480078401C0D4908702E
:1039B00008460078052803D101200B4908700DE066
:1039C000084800780A2809DB002006490870012011
:1039D0000649087004490870FDF762FA10BD00003E
:1039E0003A0000203B0000201B00002019000020AE
:1039F00010B50020FDF79EFA08480078002804D191
:103A000001218020FFF771FE07E001210220FFF76E
:103A10006CFE01210820FFF768FE10BD2B0000207E
:103A200010B50446012C0DD112480078012805DAA2
:103A300010480078401C0F49087012E000200D4922
:103A400008700EE0022C0CD10A480078002805DD31
:103A500008480078401E0749087002E00120054927
:103A600008700B2004490870FFF7C2FF00F0FAFD50
:103A700010BD00002B00002035000020704710B55D
:103A8000002001F0F3F901F057FA0122002105208E
:103A9000FEF71EF8012203210020FEF719F810BDE1
:103AA00010B5002001F0E2F901F03AFA00221146C7
:103AB0000520FEF70DF801F029FA0C210020FEF791
:103AC00071FC002203211046FEF702F810BD000031
:103AD00010B5002002490860FFF7A1FD10BD0000ED
:103AE0007400002010B5FFF77DFA00200B49087024
:103AF0000B490870C820FDF707FFFDF755FF0020B0
:103B0000FFF78DFD00F024F8FDF75CFDFDF7A8FC44
:103B1000C820FDF7F9FEFDF795FB10BD3B00002026
:103B20003A00002010B500240EE0012000F05CFAFD
:103B3000FF202D30FDF7E8FE002000F055FA96201A
:103B4000FDF7E2FE601CC4B2032CEEDB10BD0000EA
:103B500070B50025FFF72EFA0546032D0AD1012086
:103B60006849087001210F208002FFF7E5FEFFF78A
:103B70003FFF42E0022D0BD10220624908705A201B
:103B80006149087000F084FC0820FDF7D3F934E0A7
:103B9000012D2FD103205B4908700526002407E082
:103BA0005A48805D5A490855701EC6B2601CC4B29E
:103BB000062CF5DB0020FFF732FD00F0B9FB00BF5B
:103BC000FFF7F8F90028FBD100240DE00020FFF7F3
:103BD00026FD6420FDF798FE0120FFF720FD6420FC
:103BE000FDF792FE601CC4B2032CEFDB06204949AE
:103BF000087002E00020434908704248007800281D
:103C000002D14549087002E00B20434908703EE0AC
:103C100041480078002800D13AE0FFF7FBF83F4820
:103C2000007800281CD037480078012804D13C488F
:103C30000078FFF7F5FE10E032480078022804D142
:103C40003748007800F0EEF907E02E4800780328A6
:103C500003D13348007800F07DFA00202F49087026
:103C600030480078002810D000202E4908702A48DB
:103C70000078002804DD28480078401E2649087096
:103C800001202949087000F003FAFFF71BFEBFE787
:103C900000BFFFF71DFF1B48007802282DD01A48EF
:103CA00000780C280BD101210846FFF71EFD1F48A4
:103CB000FDF72AFE00210120FFF717FD1DE0124845
:103CC0000078182813D101210846FFF70EFD0121C5
:103CD0000220FFF70AFD1548FDF716FE002101201E
:103CE000FFF703FD00210220FFF7FFFC05E0064877
:103CF00000785A2801D0FFF715FF0020014908700D
:103D000070BD000037000020380000204A0000206D
:103D1000500000204800002035000020BC0000209A
:103D2000C4000020190000201A000020B80B000079
:103D300010B5FDF76DFC8448007800287ED083A084
:103D400001F0F2F9002080490870834800780028CB
:103D500004DD81480078401E7F4908707F48007864
:103D6000002804DD7D480078401E7C490870012051
:103D70007B4908707B48007800280ADD7948007884
:103D8000401E7849087008460078002801D176491D
:103D9000087076480078002801D0FDF765F801F03A
:103DA0008DFC6D4800786F2805D10020704908709F
:103DB00000F06EFC2FE068480078152809D100203B
:103DC000FDF7B8F80020FDF7D3F801206949087025
:103DD00021E0614800780C2807D100F0E7F8FDF7F2
:103DE0003FFB00206349087015E05B48007801281C
:103DF00011DB594800780B280DDC574800780B2858
:103E000009D15D480078062148435C4908605A485A
:103E10000078FDF7ADF85A480068401C5849086022
:103E200008460068FF212D31884246D15548007868
:103E3000401C544908700846007800E06CE0524984
:103E40000978884210DB00204E490870FDF75CFBC2
:103E50000020FDF76FF80020FDF78AF801204549A2
:103E6000087047203C49087000204549086000F070
:103E700025FB46480078401D4449087008460078F4
:103E80003C2818DB0020087005220EE04048805CCA
:103E9000401C3F4988540846805C0A2802D1002013
:103EA000885400E003E0501EC2B2002AEEDC00BFDE
:103EB00000F028FB00BF00F013FB36480078002814
:103EC00014D035480068401C334908600846006833
:103ED000E121C901884209D300202E490870FEF76C
:103EE0001FFAFCF7A5FF0020FDF7D4F9FCF7FEFC54
:103EF0002A48007800280DD126480078002809D1EA
:103F000027480078002805D114480078002801D1FE
:103F1000FDF714FB00F05CFB2048007800280FD16F
:103F2000FEF748F9FDF792FB1E480078002807D0FD
:103F300000201D490870FDF781F80020194908701C
:103F4000FFF7C0FC10BD0000190000206F6E657304
:103F500065636F6E64730A00360000203500002030
:103F60001A000020570000205600002025000020E5
:103F70003C0000201F0000202D000020B800002081
:103F80006C0000203900002038000020490000208B
:103F90004A0000201800002070000020310000209E
:103FA00026000020210000201B00002000B5032077
:103FB000FDF788FD0149087000BD00002C000020BD
:103FC00010B5002405210020FEF714FA002801D1C5
:103FD0000120044304210020FEF70CFA002801D13F
:103FE00002200443204610BD10B50446214601209E
:103FF000FFF77BFB0A480078782807D12146042088
:10400000FFF773FB21460220FFF76FFB044800789F
:10401000602803D121460220FFF767FB10BD000096
:104020003800002010B50446032C02D101201549A8
:10403000087014480078012822D1012C0FD11248B1
:1040400000785A281CD118200F4908700220FCF76C
:1040500071FF0B200D49087000F01AFA10E0022CD5
:104060000ED10948007818280AD10C20064908709A
:104070000120FCF75FFF0B200449087000F008FAEC
:1040800010BD00002A00002038000020350000206C
:1040900070B52B480078032800D070BD29480078FF
:1040A000002826D028480078012821D1FFF7B7FA48
:1040B0006420FDF729FC0020FFF7B1FA6420FDF72A
:1040C00023FC0120FFF7ABFA6420FDF71DFC002064
:1040D000FFF7A5FA6420FDF717FC0120FFF79FFA10
:1040E0006420FDF711FC002017490870154908707D
:1040F000D3E715480078062803D10020FFF78FFA90
:10410000CBE711480078052818D1104810490978E4
:10411000465C002E03D10120FFF781FA0EE000205B
:10412000FFF77DFA0125002406E001212846FFF76C
:10413000DCFA6D00601CC4B2B442F6DB00BFACE731
:10414000370000202400002035000020500000200F
:104150004800002070B50446012C21D12F4800787A
:10416000052808DA2D480078401C2C4908700720E3
:104170002B49087050E029480078062806D1002015
:104180002649087007202649087045E00120254986
:1041900008700320224908700020FFF740FA3BE036
:1041A000022C1ED101202049087020481B490978A3
:1041B000405C002809DD1D4818490978405C401E14
:1041C0001A49164A1278885404E009211748134AFC
:1041D0001278815406201249087001201449087091
:1041E0001AE0032C18D110480078002814D00020C1
:1041F0000D4908700526002507E00C48405D0D4973
:104200008855701EC6B2681CC5B2062DF5DB00F0DD
:1042100079F900200249087070BD000048000020B4
:104220003500002024000020230000205000002042
:10423000190000204A00002010B5012001F03EF9CD
:104240000C49087000200C4908700A4800780B4996
:104250000B4A127888540A480078632804D2084828
:104260000078401C064908700121084600F0A0FFB4
:1042700010BD0000FC000020FE000020B403002060
:104280001901002070B504460C214020FEF798F873
:104290000D214020FEF794F8002517E008210020AA
:1042A000FEF78EF880202040002804D00F21002047
:1042B000FEF79EF903E00F210020FEF781F80821A8
:1042C0000020FEF795F96400681CC5B2082DE5DBF7
:1042D0000C214020FEF78CF970BD70B504460C210E
:1042E0004020FEF76DF80D214020FEF781F90025F2
:1042F00017E008210020FEF763F880202040002806
:1043000004D00F210020FEF773F903E00F210020F5
:10431000FEF756F808210020FEF76AF96400681CD1
:10432000C5B2082DE5DB0C214020FEF761F970BD18
:1043300070B53B4800783B49097888423CD001255C
:104340003748017828468840054601212846FFF76E
:10435000CCF90124334801782046884004460121E5
:104360002046FFF7C2F9FF202D30FDF7CDFA0021DE
:104370002046FFF7BAF9FF202D30FDF7C5FA0121DD
:104380002046FFF7B2F9FF202D30FDF7BDFA0021DE
:104390002046FFF7AAF9FF202D30FDF7B5FA0121DD
:1043A0002046FFF7A2F9FF202D30FDF7ADFAFF20E0
:1043B0002D30FDF7A9FA31E0012419480178204693
:1043C0008840044601212046FFF78FF9FF202D3059
:1043D000FDF79AFA00212046FFF787F9FF202D30DC
:1043E000FDF792FA01212046FFF77FF9FF202D30DB
:1043F000FDF78AFA00212046FFF777F9FF202D30DC
:10440000FDF782FA01212046FFF76FF9FF202D30DA
:10441000FDF77AFAFF202D30FDF776FA70BD000027
:1044200098000020990000200C480078012807D14E
:104430000B4800780B49487209484078887206E0BA
:10444000074800780749C87205484078087306484D
:104450000078012108430449087070472C000020AF
:1044600041000020840100205C0000200548007805
:10447000054908710548007801210843034908707F
:10448000704700002D000020840100205C00002007
:1044900010B508480078084948710A460D210020E7
:1044A00000F050F8044A0D210120800200F04AF883
:1044B00010BD00003800002084010020054800786D
:1044C00005498871054800780121084303490870AF
:1044D0007047000039000020840100205C000020AB
:1044E00005480078054948730548007802210843CB
:1044F0000349087070470000490000208401002033
:104500005C0000200C4800780C4988730A48407809
:10451000C8730948807808740748C078487406480A
:104520000079887404484079C874054800780221ED
:1045300008430349087070474A00002084010020A6
:104540005C000020F7B582B01646002501200190DE
:104550000027FCF71EF807242403029824180122E0
:1045600011461A48FDF7CCFB2046FDF725FD00BF9C
:1045700024E000BF715D2046FDF7BCFD019001986D
:1045800000280CD12078715D884203D10020019071
:10459000641C08E001200190781CC7B203E00120F0
:1045A0000190781CC7B2032F03DB0027641C002096
:1045B000019001980128DDD0681CC5B2039885429E
:1045C000D7DBFBF7D3FF05B0F0BD0000811B000077
:1045D00010B521480078002800D110BD1E48007891
:1045E000C007C00F002810D01C4A0D210020FFF783
:1045F000A9FF19480078400840001749087008468C
:1046000000780421084314490870134800780221F7
:10461000084000280BD0114A0D3207211048FFF73F
:1046200091FF0D480078022188430B4908700A4821
:1046300000780421084000280BD0084A0D210120F1
:104640008002FFF77FFF0448007804218843024975
:10465000087000BFC1E700005C000020840100205A
:104660000102000010B508480078084988700A4621
:104670000D210020FFF766FF044A0D210120800272
:10468000FFF760FF10BD00002B0000208401002018
:10469000054800780549087205480078012108435B
:1046A00003490870704700003C000020840100208E
:1046B0005C00002010B500F01DF80A4A0D21002012
:1046C000FFF740FF074A0D2101208002FFF73AFF64
:1046D00000F0BAFF0020044908700449087004493A
:1046E000087010BD84010020310000201800002057
:1046F000320000200C4840780C4908700A48C07805
:1047000048700120C870642008715A204871002048
:104710008871C87108720E2048721E20887210209D
:10472000C8721420087370479A000020840100208A
:1047300010B50446012C1AD12E48007800280AD161
:104740002D480078002806D12C480078002802D196
:1047500003202B4908702948007801210843274984
:104760000870084600784006000E087007E0022C2A
:1047700005D1224800784006000E204908701F48E5
:104780000078362818D11F480078002830D11E48FC
:10479000007800282CD10120164908700020174904
:1047A00008701A4908706420194908700121032013
:1047B0008002FFF7C1F81BE0104800782C2817D1C1
:1047C00001200D49087000200F4908700D4908703C
:1047D0000849087009490870FEF721FF0020FCF71E
:1047E000C7FB00200B49087001210B48FFF7A4F814
:1047F00010BD0000250000202600002056000020EB
:104800005700002018000020320000203600002051
:104810002D0000201D0000200102000010B5012025
:10482000FCF7A8F910BD10B50120FCF7B1F910BDD7
:1048300070B5044600252078030001F017F8050440
:10484000050C10181C0018E0032000F083FA032068
:1048500000F04AFA11E0032000F034FA0DE00321E1
:10486000084600F085FA032000F04EFA05E0072024
:1048700000F0AAF901E0042500BF00BF2078012163
:1048800000F00CF8207800F04FFA607800F070F932
:10489000A07800F083F9284670BD000070B5054689
:1048A0000C46002600F0D6FF002C01D0012000E0CD
:1048B000002004462B0000F0D9FF050417394D7481
:1048C00088004448006840084000E107C90F0843D9
:1048D0004049086000BF002C05D03E48C068000574
:1048E000C00F0028F7D072E03B48C0684008400085
:1048F000401C3949C8600846C06802218843801CB2
:104900003549C860334800680221884361000222AB
:10491000114008432F49086000BF002C05D02D48E6
:1049200000694006C00F0028F7D050E02948006811
:1049300004218843A100042211400843254908604E
:1049400000BF002C05D023484069C004C00F0028D8
:10495000F7D03CE020484038C068012189038843F3
:1049600040181D494039C8600846C0680121C90384
:104970008843401818494039C86016480068082123
:104980008843E1000822114008431249086000BF33
:10499000002C05D00F4880694006C00F0028F7D0D2
:1049A00015E00C48006810218843210110221140B5
:1049B00008430849086000BF002C05D00548C06BBB
:1049C0004003C00F0028F7D001E0042600BF00BF5D
:1049D000304670BD00200040C00D024030B589B0A7
:1049E00000241422564904A8FBF7AEFB54481430A7
:1049F00000680390002000900190029051480188C7
:104A0000684601814F4841886846C1804D48818889
:104A1000684681804B48C1886846418049482030BB
:104A2000018868460180484800680006450F2B0051
:104A300000F01CFF05042E303E4178004248C0685B
:104A40004005400D69460989884201D1089C1EE055
:104A50003D48C0684005400D6946C988884201D17B
:104A6000079C14E03848C0684005400D69468988B5
:104A7000884201D1069C0AE03348C0684005400DD9
:104A800069464988884201D1059C00E0049C4BE0BE
:104A90002E4C49E0684600882B4949698905890DF3
:104AA000884202D16846C48901E0684684893BE0B7
:104AB0000124E40338E02448C06B8007800F0328FA
:104AC00029D1684600892049C9684905490D8842AD
:104AD00001D1089C20E06846C0881B49C968490587
:104AE000490D884201D1079C16E068468088164926
:104AF000C9684905490D884201D1069C0CE0684609
:104B000040881149C9684905490D884201D1059C71
:104B100002E0049C00E00D4C0B48C06BC005000F88
:104B2000444301E0002400BF00BF0748006840057F
:104B3000410F2046C8400446204609B030BD000061
:104B4000F0620000000C1000002000400048E80166
:104B500010B50024FFF742FF044604480068C00473
:104B6000810F2046C8400446204610BD002000406A
:104B700070B50446002500F06DFE07480068072167
:104B80000902884321020722120211400843024908
:104B90000860284670BD00000020004070B5044643
:104BA000002500F057FE074800680321C90288432A
:104BB000E1020322D202114008430249086028465C
:104BC00070BD00000020004010B501460020064ADC
:104BD000D26B0723DB039A43CB030724E403234070
:104BE0001A43014BDA6310BD0020004010B50246A5
:104BF0000020002901D0012300E0002319460029EC
:104C000007D0084B1B6A012494402343054C2362C0
:104C100006E0044B1B6A01249440A343014C236229
:104C200010BD00000020004010B5014600200B0020
:104C300000F01CFE0504101C283440001F4B1B898B
:104C40005A05520D1E4BDB68DB0ADB0213431C4C7A
:104C5000E36031E0194BDB885A05520D184BDB68D5
:104C6000DB0ADB021343164CE36025E0134B9B8801
:104C70005A05520D124BDB68DB0ADB021343104C62
:104C8000E36019E00D4B5B885A05520D0C4BDB6855
:104C9000DB0ADB0213430A4CE3600DE0074B1B8881
:104CA0005A05520D064BDB68DB0ADB021343044C4A
:104CB000E36001E0042000BF00BF10BD000C100045
:104CC0000020004010B501460020064A5269032327
:104CD0009B029A438B020324A40223401A43014BF4
:104CE0005A6110BD0020004010B501460020054A61
:104CF000126930239A430B01302423401A43014B9D
:104D00001A6110BD0020004010B501460020054A80
:104D1000926930239A430B01302423401A43014BFC
:104D20009A6110BD0020004070B50446002526465B
:104D300000F090FD06480068E02188437101E02200
:104D4000114008430249086000F02CF8284670BD65
:104D50000020004001460020044A12699208920097
:104D60008B079B0F1A43014B1A61704700200040CC
:104D700030B5024600200A4B9B690C24A3439400E3
:104D80000C252C402343064CA36123469B699B08BA
:104D90009B008C07A40F2343014CA36130BD00008E
:104DA0000020004010B5FFF719FE0149086010BD52
:104DB0000000002010B5074909894805400D064943
:104DC000C968C90AC9020143034AD160FFF7EAFF73
:104DD00010BD0000000C10000020004010B50021A4
:104DE0000846FBF759FE012807D1FEF7A3F8FEF7A6
:104DF000CBFD00210846FBF741FE10BD10B5002198
:104E00000120FBF749FE012805D1FBF7A1FB00219A
:104E10000120FBF733FE10BD10B5002000F030F884
:104E200001281DD10D218020FDF7C0FB01280AD1EA
:104E30000D218020FDF7C4FA0A4800F04DF809481A
:104E400000F03CF809E00D218020FDF7D1FB064879
:104E500000F042F8044800F031F8002000F006F8B5
:104E600010BD00000CFE0000F0D80000014600203C
:104E700001228A40D243014B5A61704700580040DA
:104E800001460020034B1A691346CB40D807C00FD8
:104E9000704700000058004010B50446002C07D1B0
:104EA00005480068002802D003480068804700E0F9
:104EB00000BF00BF10BD00004801002001460020D7
:104EC000044A1268120C12048BB21A43014B1A6086
:104ED000704700000058004001460020044A526814
:104EE000120C12048BB21A43014B5A607047000037
:104EF0000058004000200449C96849084900491C7D
:104F0000014AD1607047000000580040002003496A
:104F1000C96849084900014AD160704700580040FB
:104F200000200449C968012292029143014AD160DC
:104F3000704700000058004000200449C968012261
:104F4000920291438918014AD1607047005800408D
:104F500010B5014600202A4AD26803231B039A4356
:104F60000B781B030324240323401A43244BDA60E9
:104F70001A46D2685B159A434B785B02012464029F
:104F800023401A431E4BDA601A46D2689B159A4397
:104F90008B781B02641023401A43194BDA601A46BF
:104FA000D26870239A43CB781B01702423401A43A4
:104FB000134BDA601A46D26808239A430B79DB0058
:104FC000082423401A430E4BDA601A46D2680423A1
:104FD0009A434B799B00042423401A43084BDA6020
:104FE0001A46D26802239A438B795B00022423403D
:104FF0001A43034BDA60034B8A681A6010BD000045
:10500000005800404801002010B50446002C04D090
:10501000012C0AD0022C18D10FE00D48006800289E
:1050200002D00B480068804710E00A48006800285A
:1050300002D008480068804708E007480068002858
:1050400002D005480068804700E000BF00BF10BDE7
:105050003C010020400100204401002010B5012047
:1050600002490870022100F0A3F810BD18010020C9
:1050700070B50546A81D44B2204600F005FC03218A
:10508000204600F049FC2046002815DBC206D20E5F
:1050900001219140094A116000BF00BF00BFBFF36A
:1050A0004F8F00BF00BF00BF00BF00BF00BFBFF3F6
:1050B0006F8F00BF00BF00BF00BF70BD80E100E088
:1050C00010B502460020002100BF0BE01C234B431B
:1050D000064CE358934203D11C234B43181903E0B9
:1050E0004B1CD9B20229F1D300BF10BD4C010020E6
:1050F00070B50546A81D44B2204600F0C5FB03214B
:10510000204600F009FC2046002809DB00BF00BF54
:10511000C206D20E01219140024A116000BF00BFB9
:1051200000BF70BD00E100E070B50446002500211D
:10513000012000F0BBF803E02078FCF725FC641C9C
:1051400020780028F8DC70BDF8B506460C4600272C
:105150000020009000253046FFF7B2FF0746786830
:1051600040688005C50F2079002800D1F8BD20795E
:10517000012802D0207903280DD1002D01D110255E
:1051800000E00825A2686A4311462068FBF7D7F8BB
:1051900080B200900AE0002D01D1202500E010250A
:1051A00029462068FBF7CBF880B200900098DDE735
:1051B00070B506460D4600243046FFF781FF0446D1
:1051C000002C01D1042070BD2B0000F04FFB050422
:1051D0000B1219202700606840692021884361680C
:1051E00048611CE0606840694008400061684861AF
:1051F00015E06068406902218843616848610EE0FB
:1052000060684069102188436168486107E0606810
:105210004069042188436168486100E000BF00BF25
:105220000020D0E770B506460D4600243046FFF753
:1052300047FF0446002C01D1042070BD2B0000F074
:1052400015FB060405300D161F3000BF606840686E
:105250001021884310306168486024E0606840682D
:105260000121490488434018616848601BE0606878
:10527000406801210904884340186168486012E0D1
:10528000606840680121C90488434018616848602B
:10529000606840680121890488434018616848605B
:1052A00001E00420C9E700BF0020C6E770B506464C
:1052B0000D4600243046FFF703FF0446002C01D1C1
:1052C000042070BD2B0000F0D1FA07050D39151E22
:1052D000273039006068406802218843801C61687B
:1052E00048602DE06068406840084000401C6168EC
:1052F000486025E0606840680121490588434018FE
:10530000616848601CE060684068012109058843C5
:1053100040186168486013E06068406801214903F3
:1053200088434018616848600AE060684068FF216F
:105330000131884340186168486001E00420C0E7FB
:1053400000BF0020BDE770B5054600242846FFF7E2
:10535000B7FE0446002C00D170BD606800694007AC
:10536000C00F002809D004212846FFF721FFE0687C
:10537000002801D0E0688047EEE760680069C00659
:10538000C00F002809D003212846FFF711FFA069AC
:10539000002801D0A0698047DEE7606800698006C8
:1053A000C00F002808D000212846FFF701FF6069E0
:1053B000002801D06069804760680069C007C00F9D
:1053C000002808D001212846FFF7F2FE20690028B6
:1053D00001D020698047606800698007C00F0028FD
:1053E00008D002212846FFF7E3FEA068002801D07C
:1053F000A068804700BFAFE7F8B506460C46012716
:1054000000253046FFF75CFE0546002D01D1042043
:10541000F8BD002C01D10420FAE72178304600F0D5
:1054200096F807466178304600F0CDF80746606888
:10543000002804D03046616800F0A1F80746A06853
:1054400000280ED0A0684168E960A06881682961E1
:10545000A0680068A860A068C1686961A068016967
:10546000A961207B012803D13046FFF741FE02E00D
:105470003046FFF7FDFD00273846C9E71CB505217A
:10548000684600F087FA0021684601706A460221EA
:105490000020FCF7EFFF012202210020FDF790F829
:1054A0000121684601706A4603210020FCF7E2FFF3
:1054B000012203210020FDF783F81CBD70B50546CD
:1054C00000242846FFF7FCFD0446002C01D10420EF
:1054D00070BD60680068C0B2FAE770B505460C465A
:1054E00000262846FFF7ECFD064670688461002020
:1054F00070BD70B506460C4600253046FFF7E0FD4E
:10550000054668684068012149028843610201221A
:1055100052021140084369684860002070BD70B5B0
:1055200006460D4600243046FFF7CAFD0446002C0F
:1055300001D1042070BD606840680C218843A90037
:105540000C2211400843616848600020F2E770B502
:1055500006460D4600243046FFF7B2FD0446002CF7
:1055600001D1042070BD60684068C0218843A90152
:10557000C02211400843616848600020F2E770B51E
:1055800006460C4600253046FFF79AFD0546002DDD
:1055900001D1042070BD002C13D068684068202120
:1055A00088432178490120221140084369684860F6
:1055B0002078012805D1607869688860A0786968DA
:1055C000C8600020E6E770B506460C460025304668
:1055D000FFF776FD0546002C04D0012C03D0022CE9
:1055E0000FD101E000BF00BF686840680321890354
:1055F0008843A1030322920311400843696848606D
:1056000001E0042070BD00BF0020FBE70B48407B99
:105610000B4908700948807B0A4908700748C07B1D
:1056200048700648007C88700448407CC870034875
:10563000807C08710148C07C48717047840100205B
:10564000490000204A000020124880781249087062
:105650001048C078114908700E4800791049087048
:105660000C4840790F4908700A4880790E49087043
:105670000848C0790D4908700648007A0C4908703E
:105680000448407A0B4908700248807A0A49087039
:1056900070470000840100202B0000202C00002017
:1056A0002D000020380000203900002032000020AA
:1056B0003C0000203F0000204000002010B5294899
:1056C0000078012800D110BD27480078002801D1BA
:1056D000012403E0002400202349087023480078B7
:1056E000844207D0214804700020214908702149D4
:1056F00008700BE01F480078401C1E4908700846DF
:105700000078032802DB0120194908701848007846
:10571000002800D1D7E71848007814490978884252
:105720001DD01248007814490870084600780028F7
:1057300007D00121C802FEF7FFF80020FBF718FC94
:105740000DE000210120C002FEF7F6F80021012043
:10575000C002FDF7CAFF09480078FBF709FC00BF4B
:10576000B1E700001F000020440000204700002097
:105770002200002045000020460000202D000020CF
:1057800030B50446D007C00F002814D0002B09D034
:105790002F482018006B01258D4028432C4D65199A
:1057A000286308E02A482018006B01258D40A84393
:1057B000274D6519286302201040002814D0002BC3
:1057C00009D023482018406B01258D402843204DE7
:1057D0006519686308E01E482018406B01258D405C
:1057E000A8431B4D6519686304201040002814D09D
:1057F000002B09D016482018806B01258D402843C6
:10580000134D6519A86308E011482018806B012525
:105810008D40A8430E4D6519A8630820104000284C
:1058200014D0002B09D00A482018C06B01258D40E8
:105830002843074D6519E86308E005482018C06B48
:1058400001258D40A843024D6519E863002030BD55
:10585000000D024002480349886003488860704791
:105860005A5A000000200040A5A5000030B474463C
:10587000641E2578641CAB4204D3635D5B00E318AF
:1058800030BC18471D46F8E7002805DBC206D20EDB
:1058900001219140014A11607047000080E200E060
:1058A00010B5002819DB1A4A03231B02D2188308FB
:1058B0009B00D2588307DC0EFF23A3409A438B073B
:1058C0001B0E8407E40EA3401A43114B0324240249
:1058D0001B198408A4001A5118E00E4A03071B0F75
:1058E000083B9B089B00D2588307DC0EFF23A34094
:1058F0009A438B071B0E8407E40EA3401A43054B03
:105900000407240F083CA408A4001A5110BD00008D
:1059100000E100E01CED00E010B5002819DB1A4A98
:1059200003231B02D21883089B00D2588307DC0E86
:10593000FF23A3409A438B071B0E8407E40EA3406A
:105940001A43114B032424021B198408A4001A5182
:1059500018E00E4A03071B0F083B9B089B00D25818
:105960008307DC0EFF23A3409A438B071B0E84079B
:10597000E40EA3401A43054B0407240F083CA40877
:10598000A4001A5110BD000000E100E01CED00E091
:1059900000BF704710B50A460146002900D110BD6E
:1059A00002E000230B70491C1346521E002BF8D155
:1059B00000BFF4E770B50546114812494861002060
:1059C0008861052008610FE000200E4988610E49BA
:1059D0000E480068FAF7B3FC012109060C1A00BF53
:1059E00008488069A042FBD828466D1E0028EBD1EC
:1059F00004480069400840000249086170BD000089
:105A0000FFFFFF0000E000E0102700000000002082
:105A100070B505461148124948610020886105208B
:105A200008610FE000200E4988610E490E480068A9
:105A3000FAF785FC012109060C1A00BF08488069A5
:105A4000A042FBD828466D1E0028EBD1044800690F
:105A5000400840000249086170BD0000FFFFFF00E0
:105A600000E000E0A08601000000002070B50546BF
:105A7000114812494861002088610520086110E042
:105A800000200E4988617D21C9000D480068FAF7A1
:105A900056FC012109060C1A00BF08488069A04283
:105AA000FBD828466D1E0028EAD10448006940084A
:105AB00040000249086170BDFFFFFF0000E000E008
:105AC00000000020FDF750FFFDF7A0FCFEF70AF8EC
:105AD000FDF7A2FC05E0FCF7A1FDFDF737FAFEF7A4
