:020000040000FA
:10000000500A0020810100009B010000C52600006D
:1000100000000000000000000000000000000000E0
:100020000000000000000000000000009F01000030
:100030000000000000000000A1010000A30100007A
:10004000612B00006B2B0000752B00007F2B000044
:10005000892B0000932B00009D2B0000A72B000094
:10006000B12B0000BB2B0000C52B0000CF2B0000E4
:10007000D92B0000E32B0000ED2B0000F72B000034
:10008000012C00000B2C0000152C00001F2C000080
:10009000292C0000332C00003D2C0000472C0000D0
:1000A000512C00005B2C0000652C00006F2C000020
:1000B000792C0000832C00008D2C0000972C000070
:1000C00000F002F800F030F80CA030C8083824180E
:1000D0002D18A246671EAB4654465D46AC4201D180
:1000E00000F022F87E460F3E0FCCB6460126334282
:1000F00000D0FB1AA246AB46334318472C570000EA
:100100004C5700000023002400250026103A01D39C
:1001100078C1FBD8520700D330C100D50B607047BF
:100120001FB51FBD10B510BD00F069F91146FFF7EE
:10013000F7FF05F027FB00F081F903B4FFF7F2FFAA
:1001400003BC05F085FA000070B505460C4616465E
:1001500002E00FCC0FC5103E102EFAD2082E02D3AB
:1001600003CC03C5083E042E07D301CC01C5361FBE
:1001700003E021782970641C6D1C761EF9D270BDD5
:100180000C480D4A002100A1814200D902440B48CD
:1001900002600B4880470B480047FEE7FEE7FEE79A
:1001A000FEE7FEE7FEE7000007480849084A094B5A
:1001B00070470000000000200000000008ED00E093
:1001C000494A0000C100000050060020500A0020EB
:1001D00050080020500800207047F8B5042A2CD39E
:1001E000830712D00B78491C0370401C521E8307F2
:1001F0000BD00B78491C0370401C521E830704D09F
:100200000B78491C0370401C521E8B079B0F05D0B6
:10021000C91ADF002023DE1B08C90AE0FFF794FF9C
:10022000F8BD1D4608C9FD401C46B4402C4310C013
:10023000121F042AF5D2F308C91A521EF0D40B7803
:10024000491C0370401C521EEAD40B78491C0370F1
:10025000401C012AE4D409780170F8BD01E004C013
:10026000091F0429FBD28B0701D50280801CC90716
:1002700000D00270704700290BD0C30702D0027073
:10028000401C491E022904D3830702D50280801C2A
:10029000891EE3E70022EEE70022DFE700220309E0
:1002A0008B422CD3030A8B4211D300239C464EE091
:1002B00003460B433CD4002243088B4231D303094D
:1002C0008B421CD3030A8B4201D394463FE0C309FF
:1002D0008B4201D3CB01C01A524183098B4201D317
:1002E0008B01C01A524143098B4201D34B01C01A02
:1002F000524103098B4201D30B01C01A5241C3087A
:100300008B4201D3CB00C01A524183088B4201D3E8
:100310008B00C01A524143088B4201D34B00C01AD4
:100320005241411A00D201465241104670475DE0E9
:10033000CA0F00D04942031000D34042534000226C
:100340009C4603098B422DD3030A8B4212D3FC2215
:10035000890112BA030A8B420CD3890192118B4294
:1003600008D3890192118B4204D389013AD09211AA
:1003700000E08909C3098B4201D3CB01C01A524165
:1003800083098B4201D38B01C01A524143098B422E
:1003900001D34B01C01A524103098B4201D30B0117
:1003A000C01A5241C3088B4201D3CB00C01A52413C
:1003B00083088B4201D38B00C01A5241D9D2430823
:1003C0008B4201D34B00C01A5241411A00D2014660
:1003D000634652415B10104601D34042002B00D5CA
:1003E0004942704763465B1000D3404201B500208C
:1003F000C046C04602BD704770477047704775469B
:1004000000F024F8AE46050069465346C008C00017
:10041000854618B020B5FFF7C7FE60BC0027490825
:10042000B6460026C0C5C0C5C0C5C0C5C0C5C0C58C
:10043000C0C5C0C5403D49008D46704710B5044653
:10044000C046C0462046FFF778FE10BD0048704702
:10045000F005002070B58C180578401C6B075B0F09
:1004600001D10378401C2A1106D10278401C03E018
:100470000678401C0E70491C5B1EF9D12B0705D471
:100480000023521E0DD40B70491CFAE70378401C60
:10049000CB1A921C03E01D780D70491C5B1C521E88
:1004A000F9D5A142D8D3002070BD000010B50020BE
:1004B0000249487100F0E0F910BD0000C9000020B9
:1004C00010B500F0E3F910BD10B5012000F02CFBD1
:1004D000002000F029FB03F082F90D21802002F0BA
:1004E000E3F801220321002001F04EFB10BD10B5FE
:1004F00000F0CCF9012000F025FB002000F022FBE9
:1005000003F07EF90D21802002F0CEF810BD00002E
:1005100010B525480078142805DA23480078401CD7
:10052000214908700CE020480078142808D11F48A1
:1005300002F03AFAFF201C49087000201C4908709C
:100540001C480078642804DC1A480078401C1949CB
:10055000087019480078401C17490870174800684F
:10056000002804D015480068401E1449086014484B
:100570000068002804D012480068401E1049086036
:1005800010480068642804D20E480068401C0D49D9
:1005900008600D480068002804D00B480068401E21
:1005A0000949086010BD000004010020C4010020BA
:1005B000D40000200C01002013010020480100207D
:1005C0004C010020080100205001002010B5044813
:1005D00000F082F801200349487101F05FF910BD75
:1005E000C6000020C90000204279012A05D14A69CD
:1005F000002A02D0184B4A695A610278012A05D1B3
:100600000A68002A02D0144B0A681A604278012A4C
:1006100005D14A68002A02D00F4B4A685A60827896
:10062000012A05D18A68002A02D00B4B8A689A6099
:10063000C278012A05D1CA68002A02D0064BCA68CE
:10064000DA600279012A05D10A69002A02D0024B38
:100650000A691A6170470000D80500200146074862
:100660004068FF22F13290430A01FF23F1331A4020
:100670001043024A506000207047000000240040F0
:100680000146002901D104207047074880680122F3
:10069000920290430A78920201239B021A4010436F
:1006A000014A90600020EFE70024004003484068C2
:1006B00040084000401C0149486070470024004049
:1006C000044840680121C903884340180149486033
:1006D00070470000002400400146002901D1042099
:1006E00070470348006A0005000D08800020F7E706
:1006F0008024004010B504463948006B0007C00F45
:1007000000280CD037488068002802D03549886816
:1007100080473348406B082188433149486330485B
:10072000006B4007C00F00280CD02E48C06800287E
:1007300002D02C49C86880472948406B042188436F
:10074000274948632648006B8007C00F00280CD05B
:1007500024480069002802D02249086980472048BF
:10076000406B022188431E4948631D48006BC00747
:10077000C00F00280CD01B484069002802D019493E
:10078000486980471648406B400840001449486358
:100790001348006BC006C00F00280CD011484068F9
:1007A000002802D00F49486880470D48406B10214F
:1007B00088430B4948630A48006B8006C00F002835
:1007C0000CD008480068002802D006490868804715
:1007D0000348406B202188430149486310BD000055
:1007E00080240040D80500200146002901D10420C2
:1007F0007047204840680C2290434A7892000C23AE
:100800001A4010431B4A5060104640689A029043B9
:100810008A7812039B021A401043164A5060104611
:100820004068DA109043CA785202DB101A40104335
:10083000104A506010464068D21490430A79D202A0
:100840000123DB021A4010430A4A506010468068B8
:1008500012149043074A90601046806852149043E7
:10086000044A90601046806892149043014A906058
:100870000020BDE700240040034800684008400015
:10088000401C014908607047C024004003480068CC
:10089000400840000149086070470000C024004043
:1008A00010B55B480078002800D010BD594800788A
:1008B00000286FD158480078030004F037FE07A2E3
:1008C00005173D4E6C8CA20000210120400202F071
:1008D000BBFD0121080202F0B7FD4F480078401C23
:1008E0004D49087002204B4908708EE00021FF201E
:1008F000013002F0A9FD0121880202F0A5FD474860
:100900000078002803D10121880202F0C3FE0121F2
:10091000434802F0BFFE00203F49087001204149D2
:10092000087000204049086001F056FD00F05AFAB6
:10093000642000F0F7FA68E00021802002F084FDD6
:100940000121402002F080FD33480078401C3249EC
:10095000087002202F49087057E00021402002F063
:1009600073FD0121880202F06FFD2C4800780028F9
:1009700003D10121880202F08DFE00202649087073
:100980002849087001F028FD00F02CFA002000F042
:100990005BFC3AE03AE00021202002F055FD012105
:1009A000102002F051FD1C480078401C1A490870C4
:1009B0000220184908701D480078401C1B49087027
:1009C00008460078032805D101201149087000204D
:1009D0001649087019E00021102002F035FD0121B0
:1009E000880202F031FD0D480078002803D1012172
:1009F000880202F04FFE002007490870094908707C
:100A000003E000200449087000BF00BF00BF4CE7AE
:100A10003200002035000020310000202C00002092
:100A2000FF030000180000207000002033000020A9
:100A300030B5024600201402034D631901248C4096
:100A4000E4435C6130BD0000000C004070B502461C
:100A500000201502034EAB191C692546CD40E8075E
:100A6000C00F70BD000C004010B502460020002AE7
:100A700004D0012A0BD0022A1BD111E00F4B1B68B6
:100A80001B0C1B048CB223430C4C236013E00C4B57
:100A90001B681B0C1B048CB22343094C23600AE027
:100AA000084B1B681B0C1B048CB22343054C2360B2
:100AB00001E0012000BF00BF10BD0000000C00409D
:100AC000000D0040000E004010B502460020002A34
:100AD00004D0012A0BD0022A1BD111E00F4B5B6816
:100AE0001B0C1B048CB223430C4C636013E00C4BB7
:100AF0005B681B0C1B048CB22343094C63600AE047
:100B0000084B5B681B0C1B048CB22343054C6360D1
:100B100001E0012000BF00BF10BD0000000C00403C
:100B2000000D0040000E004010B5014600200B02F1
:100B3000034C1A19D3685B085B005B1CD36010BDC3
:100B4000000C004010B5014600200B02034C1A199E
:100B5000D3685B085B00D36010BD0000000C004050
:100B600010B5014600200B02034C1A19D368241556
:100B7000A3431B19D36010BD000C004030B50246E2
:100B80000020002A04D0012A56D0022A7ED1A9E0F2
:100B9000804BDB6803242403A3430C782403032540
:100BA0002D032C4023437B4CE3602346DB68641514
:100BB000A3434C78640201256D022C402343754CFD
:100BC000E3602346DB68A415A3438C7824026D10F0
:100BD0002C4023436F4CE3602346DB687024A3431F
:100BE000CC78240170252C4023436A4CE3602346D3
:100BF000DB680824A3430C79E40008252C40234338
:100C0000644CE3602346DB680424A3434C79A400CE
:100C100004252C4023435F4CE3602346DB68022419
:100C2000A3438C79640002252C402343594CE36094
:100C3000594C8B682360ABE0584BDB6803242403DA
:100C4000A3430C78240303252D032C402343534C4A
:100C5000E3602346DB686415A3434C7864020125F6
:100C60006D022C4023434D4CE3602346DB68A41502
:100C7000A3438C7824026D102C402343474CE3603F
:100C80002346DB687024A343CC7800E07EE0240197
:100C900070252C402343414CE3602346DB68082445
:100CA000A3430C79E40008252C4023433B4CE3602C
:100CB0002346DB680424A3434C79A40004252C407C
:100CC0002343364CE3602346DB680224A3438C793C
:100CD000640002252C402343304CE360304CCB6849
:100CE000236055E02F4BDB6803242403A3430C78D7
:100CF000240303252D032C4023432A4CE360234681
:100D0000DB686415A3434C78640201256D022C4016
:100D10002343244CE3602346DB68A415A3438C786B
:100D200024026D102C4023431E4CE3602346DB68F5
:100D30007024A343CC78240170252C402343194C04
:100D4000E3602346DB680824A3430C79E40008250C
:100D50002C402343134CE3602346DB680424A34365
:100D60004C79A40004252C4023430E4CE360234619
:100D7000DB680224A3438C79640002252C402343C2
:100D8000084CE360084C0B69236001E0012000BFC0
:100D900000BF30BD000C004068010020000D004085
:100DA0006C010020000E00407001002070B50A4D5B
:100DB0000A48046821462846FFF770FA0546642170
:100DC0002846FFF76BFA0649087064240846007845
:100DD0004443281B487070BD204B0C005800002075
:100DE0004100002010B50A480478642044430A21D9
:100DF0002046FFF753FA074908600A2006490860B1
:100E0000084600680349096840180349086010BD96
:100E1000300000208C0000208800002070B5094DB3
:100E2000094800684543094801682846FFF736FA33
:100E30000446323464212046FFF730FA0449086042
:100E400070BD0000B63A010094000020640000204C
:100E50005800002010B51B480078012831D11A48ED
:100E6000007864282DDA19480068401C174908608A
:100E7000084600684B21C90088420BD10020134965
:100E8000086001201249087002F0A9FC00201149F5
:100E9000087016E00D4800680F490968884210D1B3
:100EA00001200C49087002F0ABFC0C480C490860AA
:100EB0000C4908600D21802001F0F6FB0020044958
:100EC000087010BD280000202D000020B400002074
:100ED0001D00002029000020B8000020140500009B
:100EE000A0000020A4000020F8B507463D460126DA
:100EF000002406E00121304602F0A6FA7600601CCC
:100F0000C4B2AC42F6DB0A2D0ADA2C4606E0002118
:100F1000304602F099FA7600601CC4B20A2CF6DB67
:100F2000F8BD000010B5044625480078002800D020
:100F300010BD24480078012800D100242248007800
:100F4000A04202D02048047000E0F1E7002C16D146
:100F500002F056FC1D481E4908601E4908601E48E4
:100F60001E4908600D21802001F09EFB00201C49D5
:100F700008701C49087001201B4908701EE01948C0
:100F80000078002804D1012016490870144908701F
:100F900015480078012811D10A48007800280DD1A1
:100FA00007480078002809D10F4908700F490860E8
:100FB0000D21802001F078FB02F011FC00BFB7E7A3
:100FC0001F000020460000202E0000201405000015
:100FD000A0000020A400002010270000A80000208E
:100FE0001D0000202800002029000020B40000205F
:100FF000F8B570480078002800D1F8BD6E48007838
:10100000002800D0F9E76D480078002800D0F4E708
:101010006B480078002800D0EFE76A480078002885
:1010200000D0EAE768480078002800D0E5E7674884
:101030000078002805D06648076866480068009078
:1010400005E063480768634800680A380090624812
:101050000068B84256D901205C4908705E480068B3
:101060005B490968451AC82D01D9282408E0642D78
:1010700001D9142404E0322D01D90A2400E005240A
:10108000564E54480068C82802D8A000241801E031
:101090000A204443361952480068B0421CD35048D5
:1010A0000068001B4E490860084600684D4908600A
:1010B000084600684C49081A4C4908604C480078BA
:1010C000002874D10D21802001F0EEFA012048495A
:1010D000087002F084FB6AE002F092FB3F4840494E
:1010E000086040490860404840490860404800782E
:1010F00000285CD000203E4908700D21802001F0BE
:10110000D3FA54E034480168009881424CD201205F
:101110002E4908702F4800682F490968451AC82DC4
:1011200001D9282408E0642D01D9142404E0322DCB
:1011300001D90A2400E005242948066825480068EA
:10114000C82802D8A000241801E00A204443361918
:101150002848006886420BD821480660006821496B
:101160000860084600682049081A204908600DE018
:10117000204800681A490860084600681949086054
:10118000084600681849081A184908601848007885
:1011900000280CD10D21802001F086FA012014498D
:1011A000087002F01CFB02E000200849087000BF34
:1011B00023E700002D0000201F0000202600002053
:1011C00046000020290000202500002027000020E4
:1011D000880000208C000020600000201405000022
:1011E000A0000020A400002010270000A80000207C
:1011F0001D000020B000002070B501F0EDF80025C2
:10120000002400BF322000F0DFFB28460A30C5B2C0
:101210002046FFF769FE601CC4B20848007885428A
:10122000F0DD064800780621484305490860FFF7CD
:10123000D9FD04200349087070BD00002D00002076
:10124000B800002035000020F8B504466548007855
:10125000002803D164480078002800D0F8BD634816
:101260000078002832D0012C2FD103F06DF8012135
:10127000880202F0E9F8642000F0A6FB0021A00239
:1012800002F0E2F8642000F09FFB0121880202F0E6
:10129000DBF8642000F098FB0021A00202F0D4F8F3
:1012A000642000F091FB0121880202F0CDF8642057
:1012B00000F08AFB0021A00202F0C6F8642000F0D2
:1012C00083FB0121880202F0E5F9C7E7484800786E
:1012D000002833D0012C11D1464800684649884285
:1012E00008D2444800683230424908603220FFF793
:1012F00019FE16E040483F49086012E0022C10D168
:101300003C4800683D49884208D33A480068323872
:10131000384908603220FFF705FE02E00020FFF7A1
:1013200001FE0A2133480068FEF7B8FF0646304642
:1013300002F05CF903203249087051E0314800683E
:101340003F21890208402F490860012C09D12E480D
:101350000078642814DA2C480078401D2A49087067
:101360000EE0022C0CD128480078052805DD26481F
:101370000078401F2449087002E0002022490870CC
:101380002148007806214843204908601E48067815
:101390000A2529463046FEF781FFC5B20A20684378
:1013A00006462846FFF7A0FD17480078B04209D945
:1013B0000127AF400121384602F06CF9012138467F
:1013C00002F042F810480078FFF7ACFD002C07D07F
:1013D00000200F49086002F093FE052008490870BC
:1013E00000BF3BE73100002018000020260000204D
:1013F00025000020A4000020342100004605000044
:1014000035000020740000202D000020B8000020CE
:10141000B4000020F8B5054623480570234800783D
:10142000002803D122480078002800D0F8BD2148C8
:101430000078002800D0F9E71F4800683F218902A2
:1014400008401D49086018480078062148431B4998
:101450000860154806780A2421463046FEF71EFF2C
:10146000C4B20A20604306462046FFF73DFD0E4801
:101470000078B04209D90127A7400121384602F07F
:1014800009F90121384601F0DFFF07480078FFF72E
:1014900049FD00200A49086002F032FE0520094992
:1014A000087000BFC2E700002D00002031000020BE
:1014B000180000202600002074000020B800002042
:1014C000B40000203500002010B50D21802001F06F
:1014D000C9F8002807D10D21802001F0E5F8FF2090
:1014E000F53000F071FA1F48007800281BD01E4824
:1014F000407A1E4908701C48807A48700121C0203B
:1015000000F0BAFF0021C02000F0B6FF052000F077
:1015100061FA0121C02001F0C7F8002101208002FA
:1015200002F0B8F819E01048C07A104908700E4867
:10153000007B48700121C02000F09EFF0021C020E8
:1015400000F09AFF052000F045FA0021C02001F0CC
:10155000ABF80121880202F09DF80121880201F018
:1015600073FF10BD2C000020B001002041000020BE
:1015700010B5032000F002FB0446012C03D100202B
:101580000649C87002E001200449C8700448007888
:10159000012108430249087010BD0000B00100207D
:1015A0005C00002070B5214800683F218902084096
:1015B0001E4908601E480078012800D170BD1D48F2
:1015C0000078002804D01C48006802F00FF82BE0D7
:1015D0001A480078002801D11949086018480568A0
:1015E00014350A204543174801682846FEF756FE81
:1015F000C4B20A2C00DD0A2413480078002800D069
:1016000000241248007884420BD01048047010481F
:101610000078042108430E490870FF20F5300D4979
:1016200008602046FFF760FC00BFC7E77400002099
:101630001F00002025000020940000202D00002025
:10164000600000206400002046000020D10000203F
:10165000450100204C01002000B50F48007800280B
:1016600011D00E480078002803D000200B490870E4
:1016700002E00120094908700020074908708D2008
:101680000749087005E0012003490870002004495B
:10169000087002F047FE00BD3C0000202C00002036
:1016A0003600002010B50B480078012800D110BD8D
:1016B00009480078002800D0F9E70021084600F02A
:1016C000F5FE002804D105480078401C0349087045
:1016D00000BFECE71F00002026000020440000208F
:1016E00010B522480068440821480068214909686B
:1016F00088421CD320480068A04218D21F480078B6
:10170000002814D11E48007800282ED101201C4941
:1017100008700121C00201F0BDFF1A4800780221C3
:101720000843184908700B20174908701DE0144839
:101730000078012819D10020114908701348007859
:10174000002812D100210120C00201F0A3FF0021D6
:101750000120C00201F078FE0A4800780221084307
:10176000084908700A200849087010BD8C00002044
:10177000A0000020B0000020600000202900002010
:101780001C000020450100204601002046000020EA
:1017900010B514480078002822D013480078134967
:1017A0000870FFF703FB02F089FC00200D49087068
:1017B0000F4908700F4800680F4908600021012098
:1017C000C00201F067FF0D480078012807D1002111
:1017D000800201F05FFF0121880201F035FE10BD9B
:1017E00000BFFCE725000020580000203E0000203C
:1017F00056000020A4000020A00000202C000020A3
:101800000D2004E00021034A1154411CC8B21428E1
:10181000F8DB7047B001002010B51E4800780028A2
:1018200033D000F0F7F90121C80201F00DFE642069
:1018300000F0CAF800210120C00201F005FE64207A
:1018400000F0C2F80121C80201F0FEFD642000F0A2
:10185000BBF800210120C00201F0F6FD642000F079
:10186000B3F80121C80201F0EFFD642000F0ACF8EC
:1018700000210120C00201F0E7FD642000F0A4F87F
:101880000121C80201F006FF10BDFFF781FF00BF74
:10189000FAE70000260000207047000010B512484B
:1018A0000078401C104908701048006810490988E9
:1018B00040180E4908600C480078502813DBFEF7EA
:1018C000FFFD02F0FAFD0B480078002806D1012048
:1018D0000849087005480068074908600020034966
:1018E00008600149087010BD340000206800002025
:1018F000C60000201E0000207800002070B50546BC
:101900002E46002407E0304600F038F92C490855EF
:10191000761C601CC4B20D2CF5DB294800782949DF
:101920004978884205D1264840782649C9788842B6
:1019300001D0012070BD22488078012801DD0120FE
:10194000F8E71F48C078012801DD0120F2E71C48B4
:101950000079642801DD0120ECE7194840797828F6
:1019600001DD0120E6E716488079782801DD0120B5
:10197000E0E71348C079012801DD0120DAE71048CB
:10198000007A012801DD0120D4E70D48407AFF28C4
:1019900001D10120CEE70A48807A642801DD0120C8
:1019A000C8E70748C07AFF2801D10120C2E70448F0
:1019B000007B642801DD0120BCE70020BAE70000BD
:1019C000B00100209A00002010B50446204603F024
:1019D000ADFE10BD10B50446204603F079FE10BDE3
:1019E0000021054A11700549086000BF02490978C5
:1019F0000029FBD070470000D30000200001004008
:101A000070B5002400250026FF200D49087001F064
:101A1000ABF900F099FF00BF09E0A100094A505856
:101A200003F0CCF9642003F081FE601CC4B2062CE4
:101A3000F3DB05A003F0C2F900F074FF70BD0000F5
:101A4000040100202801002041542B4144413D2243
:101A500073222C224644222C2269222C310D0A00AA
:101A6000FEB53FA00190002408E0019800783E49AF
:101A700008550198401C0190601CC4B2042CF4DB92
:101A8000312539484778781B384908703648C77877
:101A9000781B3749087000200090FFF72FFF06469B
:101AA000012E0FD18002FFF729FF002802D001206C
:101AB000009009E02F4A0D21002002F08DFB00204C
:101AC000009001E0002000902B4D002409E0284602
:101AD00000F054F821460D31264A50546D1C601C0C
:101AE000C4B2072CF3DB2348407B3C2817DC214899
:101AF000807B092813DC1F48C07B09280FDC1D48A8
:101B0000007C09280BDC1B48407C092807DC1948AD
:101B1000807C092803DC1748C07C092807DDFFF713
:101B20006FFE144A0D320721134802F055FB03F0F3
:101B3000BDFB0098012810D10E49887002F024FCEA
:101B40000C4A0D21002002F047FB0A4A0D2101201A
:101B5000800202F041FB02F035FA03F0C5FBFEBD46
:101B600056312E36000000009A0000209800002018
:101B700099000020B0010020010200000146072268
:101B8000120352181078704770B504460E46154679
:101B90002046002805DBC206D20E012191401A4AD8
:101BA000116000BF3146204603F0DAFC012D0ED152
:101BB0002046002809DB00BF00BFC206D20E01216B
:101BC0009140124A116000BF00BF00BF1BE02046D9
:101BD000002816DBC206D20E012191400B4A80324A
:101BE000116000BF00BF00BFBFF34F8F00BF00BF39
:101BF00000BF00BF00BF00BFBFF36F8F00BF00BFBB
:101C000000BF00BF00BF70BD80E200E000E100E067
:101C10007047000010B502F097FBFFF7F1FD044A92
:101C20000721044802F0D8FA03F040FB10BD000081
:101C3000BD0100200102000010B5012000F0A6F84F
:101C4000012804D100F010F8012000F04BF800202A
:101C500000F09CF8012805D1002000F005F80020D4
:101C600000F040F810BD000001460120002917D007
:101C700001292DD1184AD26A120C1204174BD2181E
:101C8000154BDA621A46D26A120C1204144BD2189F
:101C9000114BDA621A46926A82439A62002019E076
:101CA0000D4AD26A120C12040C4BD2180A4BDA629B
:101CB0001A46D26A120C1204094BD218064BDA6289
:101CC0001A46926A02239A43034B9A62002001E06B
:101CD000012000BF00BF7047000002405A5A0000B8
:101CE000A5A5000010B501460120002902D0012958
:101CF00042D120E0224AD26A120C1204214BD2189F
:101D00001F4BDA621A46D26A120C12041E4BD2180A
:101D10001B4BDA621B6A5B069B0F0224A3435B0129
:101D2000602423401A46164B1B6AA3431343144CEA
:101D30002362002022E0124AD26A120C1204114BD4
:101D4000D2180F4BDA621A46D26A120C12040E4BEA
:101D5000D2180B4BDA621B6A5B069B0F5B085B00B9
:101D60005B01602423401A46054B1B6AA3431343BF
:101D7000034C2362002001E0012000BF00BF10BD22
:101D8000000002405A5A0000A5A5000001460020AC
:101D9000002906D0012909D1064A526AD007C00F8E
:101DA00006E0044A526A9207D00F01E0002000BF0B
:101DB00000BF70470000024070B5034600200129B3
:101DC0000BD0022909D0042907D0062905D00829FB
:101DD00003D00C2901D0042070BD9F4CE46A240C70
:101DE00024049E4D64199C4DEC622C46E46A240C3C
:101DF00024049B4D6419984DEC622C46246A6D15A1
:101E0000AC4355020126760235402C43924D2C629C
:101E10002C46E46A240C2404904D64198E4DEC6227
:101E20002C46E46A240C24048D4D64198A4DEC621E
:101E30002C462468640A64020D07ED0D2C43864D80
:101E40002C602C46E46A240C2404844D6419824DD1
:101E5000EC622C46E46A240C2404814D64197E4D06
:101E6000EC622C466468240A240217254D43EDB227
:101E70002C43794D6C602C46E46A240C2404774D85
:101E80006419754DEC622C46E46A240C2404744DEC
:101E90006419714DEC622C46A468640A64021B2527
:101EA0004D43ED05ED0D2C436B4DAC602C46E46AC3
:101EB000240C2404694D6419674DEC622C46E46AD5
:101EC000240C2404664D6419634DEC622C46E468CE
:101ED000A40CA404634D4D43AD03AD0B2C435E4DE8
:101EE000EC602C46E46A240C24045C4D64195A4DC1
:101EF000EC622C46E46A240C2404594D6419564DB6
:101F0000EC622C462469640D6405574D4D43ED0287
:101F1000ED0A2C43504D2C612C46E46A240C240419
:101F20004E4D64194C4DEC622C46E46A240C24049A
:101F30004B4D6419484DEC622C466469240B240314
:101F400018254D432D052D0D2C43434D6C612C461A
:101F5000E46A240C2404414D64193F4DEC622C4684
:101F6000E46A240C24043E4D64193B4DEC622C467B
:101F7000A469240B2403F0254D432D052D0D2C437E
:101F8000354DAC612C46E46A240C2404334D6419AD
:101F9000314DEC622C46E46A240C2404304D641963
:101FA0002D4DEC622C46E469640B64037D25ED0045
:101FB0004D43ED04ED0C2C43274DEC61082917D15E
:101FC0002C46E46A240C2404244D6419224DEC624E
:101FD0002C46E46A240C2404214D64191E4DEC6245
:101FE0002C46246A0C25AC43241D1B4D2C622FE08B
:101FF0000C2917D1184CE46A240C2404174D6419D9
:10200000154DEC622C46E46A240C2404144D64192A
:10201000114DEC622C46246A0C25AC43241D0E4D58
:102020002C6215E00C4CE46A240C24040B4D64195A
:10203000094DEC622C46E46A240C2404084D641912
:10204000054DEC622C46246A0C25AC43024D2C62F3
:10205000064C236000BFBFE6000002405A5A000051
:10206000A5A5000050460000E02202006401002007
:10207000014600202A4A914201D904207047294A8A
:10208000D26A120C1204284BD218264BDA621A4676
:10209000D26A120C1204254BD218224BDA621A466D
:1020A000126B0022D2431A6300BF1E4A126AD20684
:1020B000D20F002AF9D11B4AD26A120C12041A4B11
:1020C000D218184BDA621A46D26A120C1204174B55
:1020D000D218144BDA621A46126A92089200921CC5
:1020E0001A6200220A7000BF0E4A126AD206D20F8C
:1020F000002AF9D10B4AD26A120C12040A4BD218E8
:10210000084BDA621A46D26A120C1204074BD21834
:10211000044BDA621A46126B00221A6300BFADE765
:10212000FFFF0000000002405A5A0000A5A5000071
:1021300001460020194A126A520052080123DB07A7
:10214000D218164B1A62164AD26A120C1204154B98
:10215000D218134BDA621A46D26A120C1204124BCE
:10216000D2180F4BDA62002906D11A46126A0C23E4
:102170009A430B4B1A6210E0012907D1084A126AF0
:102180000C239A43121D064B1A6206E0044A126A97
:102190000C239A430832024B1A6270470020004019
:1021A000000002405A5A0000A5A5000010B50246E2
:1021B00000202A4B9A4201D9042010BD284BDB6A2B
:1021C0001B0C1B04274C1B19254CE3622346DB6ABE
:1021D0001B0C1B04244C1B19214CE36223461B6B74
:1021E0000023DB43236300BF1D4B1B6ADB06DB0FB1
:1021F000002BF9D11A4BDB6A1B0C1B04194C1B1961
:10220000174CE3622346DB6A1B0C1B04164C1B199C
:10221000134CE36223461B6A9B089B005B1C2362F2
:10222000117000BF0E4B1B6ADB06DB0F002BF9D1D0
:102230000B4BDB6A1B0C1B040A4C1B19084CE3629A
:102240002346DB6A1B0C1B04074C1B19044CE3627E
:1022500023461B6B0023236300BFAEE7FFFF000094
:10226000000002405A5A0000A5A5000070B54B4876
:102270000078002817D000204949087049484A4989
:10228000086000204949086049490860012049491F
:1022900008700020484908604849086048490860BB
:1022A0004849087070BD48480078002874D0502113
:1022B00042480068FDF7F2FF04463C48006884424B
:1022C00001D93A48046038480068844201D236484F
:1022D00004603748006800193549086030480078C4
:1022E000401C2F4908700846007864284FD1002010
:1022F00008702F4800682D490968401A2C49086069
:102300000846006828490968401A2949086062217E
:1023100027480068FDF7C2FF04460120C00284423E
:1023200004D32A48201A2A4908600FE027481238A7
:10233000844205D80120C002001B2549086005E041
:102340000120C002001B4008214908602148047890
:102350001F48006844431F4845781D4800684543AE
:1023600064212846FDF79AFF054664190A21204694
:10237000FDF794FF104908600A480B4908600020E7
:102380000A4908600A49086001200A4908700020CB
:102390000A4908600C49087000BF83E72900002043
:1023A0003D000020FFFF0000800000207C00002096
:1023B0009000002021000020600000207800002014
:1023C00068000020340000201E000020F3070000F9
:1023D000940000204100002016480078002803D116
:1023E0001548007800280DD0144800788000144962
:1023F000085814490860144810490978405C13498A
:1024000008700CE00D4800788000114908580D490B
:102410000860104809490978405C0C4908700A2096
:102420000D490860084600680849097848430A4988
:102430000860704732000020180000202B000020A8
:102440000C000020B000002016000020300000200A
:10245000040000201400002064000020024605480B
:102460001018006901238B409843024BD318186160
:1024700000207047000E02400246054810184069CF
:1024800001238B401843024BD3185861002070473A
:10249000000D024070B504460D4616460123324633
:1024A0002946204602F0CCFF002070BD02460348BA
:1024B00010184068C840C007C00F7047000D0240A8
:1024C0000246034810180068C840C007C00F704794
:1024D000000E024070B50546002D20D10C21FFF7FB
:1024E000EFFF01281BD10C210020FFF7B7FF0D21C2
:1024F000802000F0D9F80A48007800280BD109485C
:10250000006809494418A0B202F030FBA0B202F002
:102510001FFB02F039FB01F0CBFFFDF7C7FF70BDD9
:1025200029000020A4000020EFD8000030B50346A9
:102530000020494C1C198D0060511078012809D1E8
:1025400046481818006801248C402043434C1C194D
:10255000206008E041481818006801248C40A0431E
:102560003E4C1C1920605078002809D13B481818AF
:10257000C06901248C40A043384C1C19E06108E07C
:1025800036481818C06901248C402043334C1C196C
:10259000E0619078012812D130481818006A0124AF
:1025A0008C4020432D4C1C1920622C481818446A7A
:1025B00001208840844329481818446227E0907815
:1025C000022812D125481818006A01248C40A04323
:1025D000224C1C19206221481818406A01248C40A2
:1025E00020431E4C1C19606211E01C481818006A38
:1025F00001248C40A043194C1C192062174818185C
:10260000406A01248C40A043144C1C196062D078AD
:10261000002809D111481818C46A01208840844351
:102620000E481818C46208E00C481818C06A012443
:102630008C402043094C1C19E06209488068012441
:10264000E403A0431479E4030125ED032C40204367
:10265000034CA060002030BD000C0240000D024081
:10266000000F02400246034810188068C840C007A7
:10267000C00F7047000D024010B5034602481818FD
:102680008C000251002010BD000C0240024605489B
:102690001018C06801238B401843024BD318D86030
:1026A00000207047000D02400246054810180069DE
:1026B00001238B401843024BD31818610020704748
:1026C000000D024008B50020009000BF00980028CF
:1026D000FCD008BD70B588B0202256A16846FDF731
:1026E00033FD002400255B480078C007C00F002898
:1026F00035D059480068002831D11E2003F016F863
:102700001724642155480078FDF7D2FD3030C2B25D
:102710002146641C68464254642150480078FDF705
:10272000C7FD0E460A213046FDF7C2FD3030C2B269
:102730002146641C684642540A2148480078FDF747
:10274000B7FD3031CAB22146641C6846425402F0DB
:1027500035FB40480078400840003E4908703D483D
:10276000007804210840042848D13D48006800282A
:1027700044D11E2002F0DAFF20223AA16846FDF77C
:10278000E3FC17243F4805780A214D43642128467D
:10279000FDF784FD3030C2B22146641C68464254C5
:1027A00064212846FDF77AFD0E460A213046FDF7E2
:1027B00075FD014630312246641C684681540A2169
:1027C0002846FDF76BFD30312246641C6846815473
:1027D00002F0F4FA1F480078042188431D4908706C
:1027E0001E2002F0A3FF284800780A2803D127A062
:1027F00002F0E4FA02E02CA002F0E0FA15480078BA
:1028000002210840022813D11F4800780A2803D16A
:102810001EA002F0D3FA02E023A002F0CFFA0D4886
:102820000078022188430B490870322002F07EFFB5
:1028300008B070BD41542B4144413D2273222C22EB
:102840005555222C226922202C39323030300D0A85
:102850000000000045010020480100202D0000205C
:102860004C01002041542B4144413D2273222C2233
:102870005555222C226922202C39333030300D0A54
:1028800000000000D10000204601002041542B41EF
:1028900044413D2273222C224644222C22692220CC
:1028A0002C300D0A0000000041542B4144413D22D0
:1028B00073222C224644222C226922202C310D0A1C
:1028C0000000000010B500BF00F00AF8FFF702FF9B
:1028D00002480078002800D1F6E710BDD2000020A1
:1028E00010B594B00E480068642801D214B010BD31
:1028F00000200B49086050216846FDF7CDFC00F030
:1029000095F8002809D1684600F02AF86C46204660
:1029100000F0BCF8002800D0E8E700BFE6E70000C0
:102920000801002005480078FF2806D1002004494E
:1029300008700249087003490870704714010020AC
:1029400015010020160100200248034908600349D0
:102950000860704728020020180100201C01002098
:1029600070B5044650220D480168491C2046FDF709
:1029700034FC0020094909680870084805680668A1
:1029800000680749884203D106480449086004E00A
:102990000248006851300149086070BD1C010020E8
:1029A000010500202802002010B504461A480068DE
:1029B0001A49096888420AD1174800681749096806
:1029C000884223D114480068007800281ED1502284
:1029D000214611480068401CFDF7FFFB50211048BC
:1029E000FDF75AFC01200C49096808700A48006884
:1029F0000C49884203D10C480749086004E00648A6
:102A00000068513004490860012010BD502104487D
:102A1000FDF742FC0020F8E7180100201C0100200F
:102A2000C401002001050020280200200B48016895
:102A300002680FE00878002803D0084801600020F1
:102A400070470748814201D1064900E051318A426E
:102A500000D100E0EEE700BF0120F1E71C010020FB
:102A600001050020280200200146074800780028C0
:102A700007D00548007808700020034A1070012034
:102A800070470020FCE70000D000002070B504462D
:102A90000025E079672849D1207C542814D1607E34
:102AA00030380A214843A17E40183038C5B2032D82
:102AB00003D21F48405D1F4908701FA002F07EF935
:102AC0001C48007823490870207C5A2815D1607E64
:102AD0000546303D0A206843A17E40180546303D3A
:102AE0000A206843E17E40183038C5B22846FEF718
:102AF00091FC0320184908700125207C412815D13C
:102B0000A07E522801D1012500E00025134800785D
:102B1000A84206D011480570642002F007FEFEF7B7
:102B2000D3FC00BF012503200B490870284670BD67
:102B3000220100202101002041542B4144413D222B
:102B400073222C225447222C2273222C2239392220
:102B50000D0A0000D0000020350000202C000020CD
:102B600010B50020FFF7B6FC10BD10B50120FFF72F
:102B7000B1FC10BD10B50220FFF7ACFC10BD10B5C4
:102B80000320FFF7A7FC10BD10B50020C046C046CB
:102B900010BD10B5002001F0C9FF10BD10B5002018
:102BA00002F021FA10BD10B5012002F01CFA10BD90
:102BB00010B50020C046C04610BD10B50120C0466B
:102BC000C04610BD10B50020C046C04610BD10B5AF
:102BD0000120C046C04610BD10B50020C046C0460A
:102BE00010BD10B50120C046C04610BD10B5002074
:102BF00002F054F810BD10B5012002F04FF810BDDE
:102C000010B5022002F04AF810BD10B50020C046F1
:102C1000C04610BD10B50420C046C04610BD10B55A
:102C20000520C046C04610BD10B50620C046C046AF
:102C300010BD10B50020C046C04610BD10B5002024
:102C4000C046C04610BD10B50020C046C04610BDED
:102C500010B50020FDF74EFD10BD10B50020C04698
:102C6000C04610BD10B50020C046C04610BD10B50E
:102C70000120C046C04610BD10B50020C046C04669
:102C800010BD10B50020C046C04610BD10B50020D4
:102C9000C046C04610BD10B50020C046C04610BD9D
:102CA00000B58DB005210BA802F0D4FC062109A8BF
:102CB00002F0D0FC182103A802F0CCFC0621274822
:102CC00002F0C8FC052101A802F0C4FC0C21402040
:102CD000FFF7DCFC01216846017101AA0C214020AC
:102CE000FFF724FC0121102001F0CAFDFDF7DEFCF6
:102CF0001B48006840084000401C1949086008460D
:102D000000680221884316490860012002F0B2FCE5
:102D1000002108A801734173022181730321C1734B
:102D2000002101740BA8FDF75FFD0BA8FDF7A8FCBF
:102D30001320FDF793FC012211461820FEF724FF13
:102D4000FDF7BEFC012108A841720648089003A9BE
:102D500009A8FDF749FC0DB000BD0000C900002026
:102D600000240040CD05000030B58DB000241021B6
:102D700009A802F06FFC142104A802F06BFC0321E7
:102D800003A802F067FC0C21684602F063FC0121F5
:102D90001C2001F075FD01211D2001F071FD0121B4
:102DA000084601F06DFD02F0B9F92148069021486E
:102DB000049021480590214808902148079004A8D4
:102DC0000B90012108A8017401710021417168462E
:102DD000017301252946012002F0F1F903A80A90A8
:102DE00009A9012002F058F90121084602F0D1F9A1
:102DF00001F0F8FC0090012168460171E1204002D9
:102E000002906946012001F0EFFF044621460120AF
:102E100002F0B3F90121084602F098F801210846B2
:102E200002F016F80121084602F04CF80DB030BD52
:102E3000853F0000F14C0000111C0000DD37000050
:102E4000991800001CB50521684602F003FC012119
:102E50001C2001F015FD0121684601704170817050
:102E60000021C170012101716A4604210020FFF791
:102E70005DFB6A4605210020FFF758FB6A460021EA
:102E80000846FFF753FB6A460C210020FFF74EFB74
:102E90000C210020FFF7E2FA08220C210020FFF7A6
:102EA000F9FA002168460170417081700D2180207F
:102EB000FFF7FAFB6A460D218020FFF737FB002160
:102EC000C020FFF7D9FA6A460021C020FFF72EFB89
:102ED0000121C020FFF7D0FA6A460121C020FFF788
:102EE00025FB00216846817008210020FFF7C4FA05
:102EF00008214020FFF7C0FA07214020FFF7BCFA65
:102F000009210020FFF7B8FA09214020FFF7B4FAA1
:102F10000B214020FFF7B0FA0A214020FFF7ACFA5E
:102F200002214020FFF7A8FA01214020FFF7A4FA70
:102F300000214020FFF7A0FA07210020FFF79CFAAC
:102F400006210020FFF798FA6A4608210020FFF7C3
:102F5000EDFA6A4608214020FFF7E8FA6A460721A1
:102F60004020FFF7E3FA6A4609210020FFF7DEFA66
:102F70006A4609214020FFF7D9FA6A460B21402012
:102F8000FFF7D4FA6A460A214020FFF7CFFA6A46D3
:102F900002214020FFF7CAFA6A4601214020FFF7CC
:102FA000C5FA6A4600214020FFF7C0FA6A460721A9
:102FB0000020FFF7BBFA6A4606210020FFF7B6FAA9
:102FC0001CBD08B50020FFF7B3F8022001F076FC25
:102FD0000021684601704170817001F073FA08BDEC
:102FE00030B58DB00C21684602F034FB142108A8DE
:102FF00002F030FB142103A802F02CFB0121082071
:1030000001F03EFC002108A8017041710421C1704B
:1030100001218171002101718170417036480A904F
:1030200008A90020FDF7AAFD344C21460020FDF739
:103030001BFD254629460020FDF746FD00210846D8
:10304000FDF7F6FC0020FDF78BFD012203210E2089
:10305000FEF79AFD0020FDF767FD00216846017329
:1030600041740421C17301218174002101748173B1
:1030700041732348069003A90120FDF77FFD214CF1
:1030800021460120FDF7F0FC00BF29460120FDF795
:103090001BFD00210120FDF7CBFC0120FDF760FDA9
:1030A000012203210F20FEF76FFD01210B2001F00B
:1030B000E7FB00216846017041710421C1700121C4
:1030C000817100210171817041700F480290684642
:1030D00001F088FD0D4800880021C943081A84B218
:1030E000204601F043FD204601F032FD002001F0B2
:1030F00007FD0DB030BD0000714A000018FC000053
:10310000914A000083FF0000AD4A0000AC0000209F
:1031100010B544480078002877D100F0EDF8044657
:103120004148007884425ED140480078002869D147
:103130003D480078002852D03D4800783A49097847
:10314000884237D13B48007800285BD03A48007865
:10315000002810D039480078401C384908700846CB
:10316000007814284ED100200870334908700120DF
:103170002E49087046E00120314908702F48007838
:10318000401C2E4908702F480078002803D10846BB
:103190000078062807D02B480078002832D027482E
:1031A000007803282ED100202449087001201F49EF
:1031B000087027E01C4800781D49087001201B4951
:1031C000087000201E49087001201B490870194929
:1031D00008700020194908701A49087012E0002090
:1031E000134908700EE0104804700020144908705C
:1031F00001201149087000200E4908700F4908701D
:10320000104908701420074908700948FFF72CFC82
:10321000002805D0012005490870002008490870E1
:1032200010BD0000C1000020C3000020BC00002031
:10323000C4000020BF000020BE000020C20000200B
:10324000BD000020C000002004480078002804D001
:1032500002480078401E014908707047C1000020F4
:1032600010B5FFF755FF1F480078002838D01E48DA
:103270000078012804D0022810D0032827D11BE0B1
:103280000120FDF7E1FF19480078012108431749A3
:1032900008707D2000011649086019E00220FDF742
:1032A000D3FF1248007801210843104908707D209F
:1032B00000010F4908600BE00E480078002803D099
:1032C00000200C49087003E0FEF7A6FA00E000BFFA
:1032D00000BF0548007801F075F80020014908702A
:1032E00010BD0000BC000020C400002045010020EB
:1032F00048010020BD00002070B5002400F006FD4C
:103300000546012D04D0022D05D0032D09D105E07D
:103310000120044305E00220044302E003200443AB
:1033200000BF00BF204670BD14200B49087000206C
:103330000A4908700A4908700A4908700A49087061
:1033400001200A49087000200949087009490870DD
:103350000949087070470000C1000020C300002028
:10336000C4000020BC000020BD000020BE000020E2
:10337000BF000020C2000020C000002010B504469D
:10338000002C30D008210020FFF78EF908214020C2
:10339000FFF78AF907214020FFF786F9092100206D
:1033A000FFF782F909214020FFF77EF90B21402029
:1033B000FFF77AF90A214020FFF776F90221402031
:1033C000FFF772F901214020FFF76EF9002140203C
:1033D000FFF76AF907210020FFF766F906210020B0
:1033E000FFF762F92FE008210020FFF745F80821D8
:1033F0004020FFF741F807214020FFF73DF8092161
:103400000020FFF739F809214020FFF735F80B219C
:103410004020FFF731F80A214020FFF72DF8022164
:103420004020FFF729F801214020FFF725F800216F
:103430004020FFF721F807210020FFF71DF80621A3
:103440000020FFF719F810BD70B504460D46012D98
:1034500065D1402C3AD00EDC082C46D006DC012C7D
:1034600052D0022C4BD0042C58D143E0102C37D032
:10347000202C53D12FE001214902601A8C4216D032
:1034800006DC802C1DD0E01FF938002846D113E05F
:10349000FF38FF380238002804D001218902401A81
:1034A0003CD136E008210020FFF7FEF836E0082185
:1034B0004020FFF7F9F831E007214020FFF7F4F84A
:1034C0002CE009210020FFF7EFF827E00921402038
:1034D000FFF7EAF822E00B214020FFF7E5F81DE0B6
:1034E0000A214020FFF7E0F818E002214020FFF712
:1034F000DBF813E001214020FFF7D6F80EE00021B1
:103500004020FFF7D1F809E007210020FFF7CCF8B1
:1035100004E006210020FFF7C7F800BF65E0402C5B
:103520003AD00EDC082C46D006DC012C52D0022CFE
:103530004BD0042C58D143E0102C37D0202C53D141
:103540002FE001214902601A8C4216D006DC802C43
:103550001DD0E01FF938002846D113E0FF38FF38AE
:103560000238002804D001218902401A3CD136E0FB
:1035700008210020FEF780FF36E008214020FEF7FA
:103580007BFF31E007214020FEF776FF2CE0092188
:103590000020FEF771FF27E009214020FEF76CFFB5
:1035A00022E00B214020FEF767FF1DE00A214020AA
:1035B000FEF762FF18E002214020FEF75DFF13E0F6
:1035C00001214020FEF758FF0EE000214020FEF7C9
:1035D00053FF09E007210020FEF74EFF04E006211B
:1035E0000020FEF749FF00BF00BF70BDF8B50446DC
:1035F00001260127002510E020463040002804D095
:1036000001213846FFF720FF03E000213846FFF78D
:103610001BFF76007F00681CC5B20A2DECDBF8BDED
:1036200070B5012418480068002800D170BD174803
:103630000078002826D0002514E0134800682040B8
:1036400000280CD012480078002804D00021204621
:10365000FFF7FAFE03E001212046FFF7F5FE6400C4
:10366000681CC5B20C2DE8DB09480078002803D09F
:1036700000200749087002E0012005490870002079
:103680000249087000BFD1E7740000201A00002032
:103690002000002070B504460D46002D05D00848D6
:1036A000006820430649086008E005480068A04318
:1036B0000349086000212046FFF7C6FE70BD0000E8
:1036C0007400002010B5FFF77CFCFFF7BBFBFFF791
:1036D00087FCFFF7E5FA0A2001F0FAFFFFF744FB49
:1036E000FEF78EF910BD000010B515480078401C9B
:1036F00013490870FCF70CFF1148007864281DDBA3
:1037000000200F4908700F480078401C0D490870D0
:1037100008460078052803D101200B4908700DE008
:10372000084800780A2809DB0020064908700120B3
:103730000649087004490870FDF78CFB10BD0000B5
:103740003A0000203B0000201B0000201900002050
:1037500010B50020FDF7C8FB08480078002804D108
:1037600001218020FFF770FE07E001210220FFF712
:103770006BFE01210820FFF767FE10BD2B00002023
:1037800010B50446012C0DD112480078012805DA45
:1037900010480078401C0F49087012E000200D49C5
:1037A00008700EE0022C0CD10A480078002805DDD4
:1037B00008480078401E0749087002E001200549CA
:1037C00008700B2004490870FFF7C2FF00F094FD59
:1037D00010BD00002B00002035000020704710B500
:1037E000002001F08DF901F0F1F9012200210520FE
:1037F000FEF7CAF9012203210020FEF7C5F910BD2A
:1038000010B5002001F07CF901F0D4F90022114636
:103810000520FEF7B9F901F0C3F90C210020FEF7ED
:103820001DFE002203211046FEF7AEF910BD000078
:1038300010B5002002490860FFF7A0FD10BD000090
:103840007400002010B5FFF76FFD00200B490870D1
:103850000B490870C820FEF7B7F8FEF701F9002001
:10386000FFF78CFD00F024F8FDF7F6FEFDF72CFEC7
:10387000C820FEF7A9F8FDF7BFFC10BD3B000020F3
:103880003A00002010B500240EE0012000F052FAAA
:10389000FF202D30FEF798F8002000F04BFA96201C
:1038A000FEF792F8601CC4B2032CEEDB10BD0000E2
:1038B00070B50025FFF720FD0546032D0AD1012034
:1038C0006849087001210F208002FFF7E3FEFFF72F
:1038D0003FFF42E0022D0BD10220624908705A20BE
:1038E0006149087000F01EFC0820FDF7FDFA34E085
:1038F000012D2FD103205B4908700526002407E025
:103900005A48805D5A490855701EC6B2601CC4B240
:10391000062CF5DB0020FFF731FD00F053FB00BF64
:10392000FFF7EAFC0028FBD100240DE00020FFF7A0
:1039300025FD6420FEF748F80120FFF71FFD6420F5
:10394000FEF742F8601CC4B2032CEFDB06204949A5
:10395000087002E0002043490870424800780028BF
:1039600002D14549087002E00B20434908703EE04F
:1039700041480078002800D13AE0FFF7C9FB3F48F2
:10398000007800281CD037480078012804D13C4832
:103990000078FFF7F5FE10E032480078022804D1E5
:1039A0003748007800F0E4F907E02E480078032853
:1039B00003D13348007800F073FA00202F490870D3
:1039C00030480078002810D000202E4908702A487E
:1039D0000078002804DD28480078401E2649087039
:1039E00001202949087000F0F9F9FFF719FEBFE737
:1039F00000BFFFF71DFF1B48007802282DD01A4892
:103A000000780C280BD101210846FFF71DFD1F4847
:103A1000FDF7DAFF00210120FFF716FD1DE0124837
:103A20000078182813D101210846FFF70DFD012168
:103A30000220FFF709FD1548FDF7C6FF0021012010
:103A4000FFF702FD00210220FFF7FEFC05E006481B
:103A500000785A2801D0FFF715FF002001490870AF
:103A600070BD000037000020380000204A00002010
:103A7000500000204800002035000020BC0000203D
:103A8000C4000020190000201A000020B80B00001C
:103A900010B5FDF707FE8248007800287ED0002090
:103AA0007F4908707F480078002804DD7D48007851
:103AB000401E7C4908707C480078002804DD7A4864
:103AC0000078401E784908700120784908707848CD
:103AD000007800280ADD76480078401E7449087096
:103AE00008460078002801D17249087072480078B1
:103AF000002801D0FDF792F901F030FC6948007808
:103B00006F2805D100206D49087000F00BFC2FE0F4
:103B100064480078152809D10020FDF7E5F9002058
:103B2000FDF700FA01206649087021E05D48007841
:103B30000C2807D100F0E0F8FDF7C6FC0020604932
:103B4000087015E057480078012811DB55480078C7
:103B50000B280DDC534800780B2809D15948007810
:103B6000062148435849086056480078FDF7DAF9BD
:103B700056480068401C5549086008460068FF2107
:103B80002D31884246D152480078401C5049087077
:103B9000084600784F490978884200E069E010DB68
:103BA00000204B490870FDF7E3FC0020FDF79CF96D
:103BB0000020FDF7B7F90120414908704720394935
:103BC000087000204149086000F0C2FA42480078BD
:103BD000401D41490870084600783C2818DB002049
:103BE000087005220EE03D48805C401C3B4988542B
:103BF0000846805C0A2802D10020885400E003E0D7
:103C0000501EC2B2002AEEDC00BF00F0C5FA00BFB1
:103C100000F0B0FA32480078002814D0314800682B
:103C2000401C3049086008460068E121C90188420B
:103C300009D300202A490870FEF7CEFBFDF7D2F821
:103C40000020FDF701FBFCF72BFE27480078002839
:103C50000DD123480078002809D124480078002895
:103C600005D111480078002801D1FDF79BFC00F038
:103C7000F9FA1D48007800280FD1FEF7F7FAFDF792
:103C80002FFD1B480078002807D000201949087034
:103C9000FDF7AEF9002016490870FFF7C1FC10BD12
:103CA0001900002036000020350000201A000020F6
:103CB0005700002056000020250000203C00002076
:103CC0001F0000202D000020B80000206C00002004
:103CD0003900002038000020490000204A00002060
:103CE0001800002070000020310000202600002075
:103CF000210000201B00002000B50320FDF73EFF3F
:103D00000149087000BD00002C00002010B50024FF
:103D100005210020FEF7CAFB002801D10120044341
:103D200004210020FEF7C2FB002801D10220044339
:103D3000204610BD10B5044621460120FFF784FB44
:103D40000A480078782807D121460420FFF77CFB39
:103D500021460220FFF778FB04480078602803D151
:103D600021460220FFF770FB10BD00003800002044
:103D700010B50446032C02D10120154908701448DF
:103D80000078012822D1012C0FD1124800785A283E
:103D90001CD118200F4908700220FDF7A5F80B2050
:103DA0000D49087000F0BEF910E0022C0ED1094850
:103DB000007818280AD10C20064908700120FDF768
:103DC00093F80B200449087000F0ACF910BD000016
:103DD0002A000020380000203500002070B52B4854
:103DE0000078032800D070BD29480078002826D02C
:103DF00028480078012821D1FFF7C0FA6420FDF798
:103E0000E3FD0020FFF7BAFA6420FDF7DDFD012095
:103E1000FFF7B4FA6420FDF7D7FD0020FFF7AEFAF4
:103E20006420FDF7D1FD0120FFF7A8FA6420FDF71B
:103E3000CBFD00201749087015490870D3E71548D5
:103E40000078062803D10020FFF798FACBE7114845
:103E50000078052818D1104810490978465C002ED2
:103E600003D10120FFF78AFA0EE00020FFF786FA5F
:103E70000125002406E001212846FFF7E5FA6D0040
:103E8000601CC4B2B442F6DB00BFACE737000020D0
:103E900024000020350000205000002048000020B1
:103EA00070B50446012C21D12F480078052808DA86
:103EB0002D480078401C2C49087007202B490870B9
:103EC00050E029480078062806D1002026490870CD
:103ED00007202649087045E0012025490870032085
:103EE000224908700020FFF749FA3BE0022C1ED15E
:103EF00001202049087020481B490978405C0028AF
:103F000009DD1D4818490978405C401E1A49164AC7
:103F10001278885404E009211748134A1278815412
:103F20000620124908700120144908701AE0032C79
:103F300018D110480078002814D000200D490870CE
:103F40000526002507E00C48405D0D498855701E88
:103F5000C6B2681CC5B2062DF5DB00F01DF90020C5
:103F60000249087070BD00004800002035000020A4
:103F70002400002023000020500000201900002011
:103F80004A00002010B5012001F0E8F804460020A6
:103F90000949087009480A490978445408480078D2
:103FA000632804D206480078401C054908700121A6
:103FB000084600F04DFF10BD04010020C4010020A0
:103FC000D400002070B53B4800783B49097888420E
:103FD0003CD0012537480178284688400546012114
:103FE0002846FFF731FA01243348017820468840FB
:103FF000044601212046FFF727FAFF202D30FDF768
:10400000E3FC00212046FFF71FFAFF202D30FDF7CB
:10401000DBFC01212046FFF717FAFF202D30FDF7CA
:10402000D3FC00212046FFF70FFAFF202D30FDF7CB
:10403000CBFC01212046FFF707FAFF202D30FDF7CA
:10404000C3FCFF202D30FDF7BFFC31E001241948EF
:10405000017820468840044601212046FFF7F4F904
:10406000FF202D30FDF7B0FC00212046FFF7ECF9D2
:10407000FF202D30FDF7A8FC01212046FFF7E4F9D1
:10408000FF202D30FDF7A0FC00212046FFF7DCF9D2
:10409000FF202D30FDF798FC01212046FFF7D4F9D1
:1040A000FF202D30FDF790FCFF202D30FDF78CFC1C
:1040B00070BD000098000020990000200C48007896
:1040C000012807D10B4800780B494872094840780D
:1040D000887206E0074800780749C87205484078AA
:1040E00008730648007801210843044908707047A6
:1040F0002C00002041000020B00100205C000020C6
:1041000005480078054908710548007801210843F1
:1041100003490870704700002D000020B001002006
:104120005C00002010B508480078084948710A462C
:104130000D21002000F050F8044A0D2101208002DA
:1041400000F04AF810BD000038000020B001002047
:104150000548007805498871054800780121084321
:10416000034908707047000039000020B0010020AA
:104170005C00002005480078054948730548007830
:1041800002210843034908707047000049000020DD
:10419000B00100205C0000200C4800780C498873B6
:1041A0000A484078C8730948807808740748C0787E
:1041B000487406480079887404484079C8740548F2
:1041C0000078022108430349087070474A00002024
:1041D000B00100205C000020F7B582B01646002533
:1041E000012001900027FCF782F90724240302989C
:1041F0002418012211461A48FDF7DEFD2046FDF77E
:1042000037FF00BF24E000BF715D2046FDF7CEFF01
:104210000190019800280CD12078715D884203D16B
:1042200000200190641C08E001200190781CC7B2B6
:1042300003E001200190781CC7B2032F03DB0027A5
:10424000641C0020019001980128DDD0681CC5B2D3
:1042500003988542D7DBFCF737F905B0F0BD0000C5
:10426000391C000010B521480078002800D110BD8D
:104270001E480078C007C00F002810D01C4A0D212E
:104280000020FFF7A9FF19480078400840001749AF
:104290000870084600780421084314490870134840
:1042A00000780221084000280BD0114A0D32072166
:1042B0001048FFF791FF0D480078022188430B4911
:1042C00008700A4800780421084000280BD0084AEA
:1042D0000D2101208002FFF77FFF044800780421B0
:1042E00088430249087000BFC1E700005C0000205D
:1042F000B00100200102000010B50848007808490C
:1043000088700A460D210020FFF766FF044A0D2140
:1043100001208002FFF760FF10BD00002B0000208D
:10432000B00100200548007805490872054800786A
:104330000121084303490870704700003C00002039
:10434000B00100205C00002010B500F01DF80A4A02
:104350000D210020FFF740FF074A0D2101208002B8
:10436000FFF73AFF00F0C0FF00200449087004493D
:1043700008700449087010BDB00100203100002011
:1043800018000020320000200C4840780C490870CA
:104390000A48C07848700120C870642008715A200B
:1043A000487100208871C87108720E2048721E2062
:1043B00088721020C8721420087370479A00002079
:1043C000B001002010B50446012C1AD12E48007807
:1043D00000280AD12D480078002806D12C48007802
:1043E000002802D103202B490870294800780121B8
:1043F000084327490870084600784006000E0870F8
:1044000007E0022C05D1224800784006000E204922
:1044100008701F480078362818D11F4800780028F7
:1044200030D11E48007800282CD101201649087090
:104430000020174908701A4908706420194908704B
:10444000012103208002FFF725F91BE010480078C6
:104450002C2817D101200D49087000200F49087041
:104460000D4908700849087009490870FEF786FF71
:104470000020FCF757FD00200B49087001210B4874
:10448000FFF708F910BD00002500002026000020DD
:1044900056000020570000201800002032000020A5
:1044A000360000202D0000201D0000200102000029
:1044B00010B50120FCF738FB10BD10B50120FCF74A
:1044C00041FB10BD70B5044600252078030001F0C3
:1044D0002DF80504050C10181C0018E0032000F04E
:1044E00083FA032000F04AFA11E0032000F034FAC6
:1044F0000DE00321084600F085FA032000F04EFA93
:1045000005E0072000F0AAF901E0042500BF00BF84
:104510002078012100F00CF8207800F04FFA607844
:1045200000F070F9A07800F083F9284670BD000013
:1045300070B505460C46002600F0ECFF002C01D0BB
:10454000012000E0002004462B0000F0EFFF0504EE
:1045500017394D7488004448006840084000E1075E
:10456000C90F08434049086000BF002C05D03E48F1
:10457000C0680005C00F0028F7D072E03B48C06853
:1045800040084000401C3949C8600846C068022104
:104590008843801C3549C86033480068022188433D
:1045A00061000222114008432F49086000BF002C1F
:1045B00005D02D4800694006C00F0028F7D050E014
:1045C0002948006804218843A100042211400843BF
:1045D0002549086000BF002C05D023484069C0046D
:1045E000C00F0028F7D03CE020484038C0680121C7
:1045F0008903884340181D494039C8600846C0688F
:104600000121C9038843401818494039C860164839
:10461000006808218843E10008221140084312493C
:10462000086000BF002C05D00F4880694006C00F0D
:104630000028F7D015E00C480068102188432101BC
:104640001022114008430849086000BF002C05D023
:104650000548C06B4003C00F0028F7D001E00426D6
:1046600000BF00BF304670BD00200040C00D0240BA
:1046700030B589B000241422564904A8FBF764FD24
:10468000544814300068039000200090019002907C
:1046900051480188684601814F4841886846C18079
:1046A0004D488188684681804B48C1886846418072
:1046B0004948203001886846018048480068000663
:1046C000450F2B0000F032FF05042E303E417800EC
:1046D0004248C0684005400D69460989884201D1B9
:1046E000089C1EE03D48C0684005400D6946C988E9
:1046F000884201D1079C14E03848C0684005400D4D
:1047000069468988884201D1069C0AE03348C0681E
:104710004005400D69464988884201D1059C00E06A
:10472000049C4BE02E4C49E0684600882B494969BF
:104730008905890D884202D16846C48901E068462E
:1047400084893BE00124E40338E02448C06B8007FF
:10475000800F032829D1684600892049C968490586
:10476000490D884201D1089C20E06846C0881B4959
:10477000C9684905490D884201D1079C16E0684681
:1047800080881649C9684905490D884201D1069CAF
:104790000CE0684640881149C9684905490D8842BE
:1047A00001D1059C02E0049C00E00D4C0B48C06B5D
:1047B000C005000F444301E0002400BF00BF0748CC
:1047C00000684005410F2046C8400446204609B015
:1047D00030BD0000A0570000000C10000020004079
:1047E0000048E80110B50024FFF742FF04460448E2
:1047F0000068C004810F2046C8400446204610BD12
:104800000020004070B50446002500F083FE0748F4
:104810000068072109028843210207221202114081
:10482000084302490860284670BD0000002000408F
:1048300070B50446002500F06DFE074800680321AE
:10484000C9028843E1020322D2021140084302490F
:104850000860284670BD00000020004010B50146E9
:104860000020064AD26B0723DB039A43CB030724BD
:10487000E40323401A43014BDA6310BD00200040DB
:1048800010B502460020002901D0012300E00023DA
:104890001946002907D0084B1B6A01249440234382
:1048A000054C236206E0044B1B6A01249440A34399
:1048B000014C236210BD00000020004010B50146ED
:1048C00000200B0000F032FE0504101C28344000CC
:1048D0001F4B1B895A05520D1E4BDB68DB0ADB029E
:1048E00013431C4CE36031E0194BDB885A05520D31
:1048F000184BDB68DB0ADB021343164CE36025E050
:10490000134B9B885A05520D124BDB68DB0ADB0206
:104910001343104CE36019E00D4B5B885A05520DB0
:104920000C4BDB68DB0ADB0213430A4CE3600DE04F
:10493000074B1B885A05520D064BDB68DB0ADB026E
:104940001343044CE36001E0042000BF00BF10BD2E
:10495000000C10000020004010B501460020064A5F
:10496000526903239B029A438B020324A40223402F
:104970001A43014B5A6110BD0020004010B501469A
:104980000020054A126930239A430B01302423404A
:104990001A43014B1A6110BD0020004010B50146BA
:1049A0000020054A926930239A430B0130242340AA
:1049B0001A43014B9A6110BD0020004070B50446B7
:1049C0000025264600F0A6FD06480068E021884341
:1049D0007101E022114008430249086000F02CF800
:1049E000284670BD0020004001460020044A12699C
:1049F000920892008B079B0F1A43014B1A61704774
:104A00000020004030B5024600200A4B9B690C2470
:104A1000A34394000C252C402343064CA36123465A
:104A20009B699B089B008C07A40F2343014CA36147
:104A300030BD00000020004010B5FFF719FE01490D
:104A4000086010BD0000002010B50749098948051D
:104A5000400D0649C968C90AC9020143034AD16029
:104A6000FFF7EAFF10BD0000000C1000002000401E
:104A700010B500210846FBF7E9FF012807D1FEF732
:104A8000E3FBFEF731FE00210846FBF7D1FF10BD26
:104A900010B500210120FBF7D9FF012805D1FBF754
:104AA00005FD00210120FBF7C3FF10BD10B500205C
:104AB00000F030F801281DD10D218020FDF7D2FD36
:104AC00001280AD10D218020FDF7D6FC0A4800F00C
:104AD0004DF8094800F03CF809E00D218020FDF771
:104AE000E3FD064800F042F8044800F031F80020E9
:104AF00000F006F810BD00000CFE0000F0D8000029
:104B00000146002001228A40D243014B5A6170477E
:104B10000058004001460020034B1A691346CB4061
:104B2000D807C00F704700000058004010B5044679
:104B3000002C07D105480068002802D0034800680F
:104B4000804700E000BF00BF10BD000074010020DE
:104B500001460020044A1268120C12048BB21A4358
:104B6000014B1A60704700000058004001460020C9
:104B7000044A5268120C12048BB21A43014B5A6059
:104B8000704700000058004000200449C9684908E7
:104B90004900491C014AD16070470000005800409C
:104BA00000200349C96849084900014AD16070479B
:104BB0000058004000200449C96801229202914334
:104BC000014AD160704700000058004000200449AD
:104BD000C9680122920291438918014AD160704745
:104BE0000058004010B5014600202A4AD26803232D
:104BF0001B039A430B781B030324240323401A430B
:104C0000244BDA601A46D2685B159A434B785B02F4
:104C10000124640223401A431E4BDA601A46D2680C
:104C20009B159A438B781B02641023401A43194B3F
:104C3000DA601A46D26870239A43CB781B0170243D
:104C400023401A43134BDA601A46D26808239A436A
:104C50000B79DB00082423401A430E4BDA601A4616
:104C6000D26804239A434B799B00042423401A43BF
:104C7000084BDA601A46D26802239A438B795B00AC
:104C8000022423401A43034BDA60034B8A681A60FC
:104C900010BD0000005800407401002010B504460B
:104CA000002C04D0012C0AD0022C18D10FE00D48A2
:104CB0000068002802D00B480068804710E00A48CE
:104CC0000068002802D008480068804708E00748CC
:104CD0000068002802D005480068804700E000BF57
:104CE00000BF10BD680100206C0100207001002091
:104CF00010B5012002490870022100F0A9F810BD8A
:104D0000D300002070B50546A81D44B2204600F02F
:104D10001BFC0321204600F05FFC2046002815DB29
:104D2000C206D20E01219140094A116000BF00BFA6
:104D300000BFBFF34F8F00BF00BF00BF00BF00BF69
:104D400000BFBFF36F8F00BF00BF00BF00BF70BDCB
:104D500080E100E010B502460020002100BF0BE01A
:104D60001C234B43064CE358934203D11C234B4373
:104D7000181903E04B1CD9B20229F1D300BF10BDB2
:104D80007801002070B50546A81D44B2204600F009
:104D9000DBFB0321204600F01FFC2046002809DB36
:104DA00000BF00BFC206D20E01219140024A11602D
:104DB00000BF00BF00BF70BD00E100E070B5044659
:104DC00000250021012000F0C1F808E02078FCF760
:104DD00007FE641C681CC5B2642D00DD02E020786B
:104DE0000028F3DC00BF70BDF8B506460C4600276E
:104DF0000020009000253046FFF7ACFF074678689A
:104E000040688005C50F2079002800D1F8BD2079C1
:104E1000012802D0207903280DD1002D01D11025C1
:104E200000E00825A2686A4311462068FBF736FABD
:104E300080B200900AE0002D01D1202500E010256D
:104E400029462068FBF72AFA80B200900098DDE737
:104E500070B506460D4600243046FFF77BFF04463A
:104E6000002C01D1042070BD2B0000F05FFB050475
:104E70000B1219202700606840692021884361686F
:104E800048611CE060684069400840006168486112
:104E900015E06068406902218843616848610EE05E
:104EA00060684069102188436168486107E0606874
:104EB0004069042188436168486100E000BF00BF89
:104EC0000020D0E770B506460D4600243046FFF7B7
:104ED00041FF0446002C01D1042070BD2B0000F0DE
:104EE00025FB060405300D161F3000BF60684068C2
:104EF0001021884310306168486024E06068406891
:104F00000121490488434018616848601BE06068DB
:104F1000406801210904884340186168486012E034
:104F2000606840680121C90488434018616848608E
:104F300060684068012189048843401861684860BE
:104F400001E00420C9E700BF0020C6E770B50646AF
:104F50000D4600243046FFF7FDFE0446002C01D12B
:104F6000042070BD2B0000F0E1FA07050D39151E75
:104F7000273039006068406802218843801C6168DE
:104F800048602DE06068406840084000401C61684F
:104F9000486025E060684068012149058843401861
:104FA000616848601CE06068406801210905884329
:104FB00040186168486013E0606840680121490357
:104FC00088434018616848600AE060684068FF21D3
:104FD0000131884340186168486001E00420C0E75F
:104FE00000BF0020BDE770B5054600242846FFF746
:104FF000B1FE0446002C00D170BD60680069400716
:10500000C00F002809D004212846FFF721FFE068DF
:10501000002801D0E0688047EEE760680069C006BC
:10502000C00F002809D003212846FFF711FFA0690F
:10503000002801D0A0698047DEE76068006980062B
:10504000C00F002808D000212846FFF701FF606943
:10505000002801D06069804760680069C007C00F00
:10506000002808D001212846FFF7F2FE2069002819
:1050700001D020698047606800698007C00F002860
:1050800008D002212846FFF7E3FEA068002801D0DF
:10509000A068804700BFAFE7F8B506460C46012779
:1050A00000253046FFF756FE0546002D01D10420AD
:1050B000F8BD002C01D10420FAE72178304600F039
:1050C00096F807466178304600F0CDF807466068EC
:1050D000002804D03046616800F0A1F80746A068B7
:1050E00000280ED0A0684168E960A0688168296145
:1050F000A0680068A860A068C1686961A0680169CB
:10510000A961207B012803D13046FFF73BFE02E076
:105110003046FFF7F7FD00273846C9E71CB50521E3
:10512000684600F097FA0021684601706A4602213D
:105130000020FDF7FBF9012202210020FDF79CFA77
:105140000121684601706A4603210020FDF7EEF94F
:10515000012203210020FDF78FFA1CBD70B5054622
:1051600000242846FFF7F6FD0446002C01D1042058
:1051700070BD60680068C0B2FAE770B505460C46BD
:1051800000262846FFF7E6FD064670688461002089
:1051900070BD70B506460C4600253046FFF7DAFDB7
:1051A000054668684068012149028843610201227E
:1051B00052021140084369684860002070BD70B514
:1051C00006460D4600243046FFF7C4FD0446002C79
:1051D00001D1042070BD606840680C218843A9009B
:1051E0000C2211400843616848600020F2E770B566
:1051F00006460D4600243046FFF7ACFD0446002C61
:1052000001D1042070BD60684068C0218843A901B5
:10521000C02211400843616848600020F2E770B581
:1052200006460C4600253046FFF794FD0546002D46
:1052300001D1042070BD002C13D068684068202183
:105240008843217849012022114008436968486059
:105250002078012805D1607869688860A07869683D
:10526000C8600020E6E770B506460C4600253046CB
:10527000FFF770FD0546002C04D0012C03D0022C52
:105280000FD101E000BF00BF6868406803218903B7
:105290008843A103032292031140084369684860D0
:1052A00001E0042070BD00BF0020FBE70B48407BFD
:1052B0000B4908700948807B0A4908700748C07B81
:1052C00048700648007C88700448407CC8700348D9
:1052D000807C08710148C07C48717047B001002093
:1052E000490000204A0000201248807812490870C6
:1052F0001048C078114908700E48007910490870AC
:105300000C4840790F4908700A4880790E490870A6
:105310000848C0790D4908700648007A0C490870A1
:105320000448407A0B4908700248807A0A4908709C
:1053300070470000B00100202B0000202C0000204E
:105340002D0000203800002039000020320000200D
:105350003C0000203F0000204000002010B52F48F6
:105360000078012800D110BD2D480078002801D117
:10537000012403E00024002029490870294800780E
:10538000844207D027480470002027490870274925
:1053900008700BE025480078401C24490870084636
:1053A0000078032802DB01201F4908701E4800789E
:1053B000002800D1D7E71E4800781A4909788842AA
:1053C00029D01C480078022108431A490870154862
:1053D0000078174908700846007800280AD00B208A
:1053E000154908700121C802FEF754F90020FBF7A7
:1053F00099FD10E00A201049087000210120C00228
:10540000FEF748F900210120C002FEF71DF80B4805
:105410000078FBF787FD00BFA5E700001F00002014
:10542000440000204700002022000020450000200A
:105430004600002045010020460100202D000020EC
:1054400030B50446D007C00F002814D0002B09D077
:105450002F482018006B01258D4028432C4D6519DD
:10546000286308E02A482018006B01258D40A843D6
:10547000274D6519286302201040002814D0002B06
:1054800009D023482018406B01258D402843204D2A
:105490006519686308E01E482018406B01258D409F
:1054A000A8431B4D6519686304201040002814D0E0
:1054B000002B09D016482018806B01258D40284309
:1054C000134D6519A86308E011482018806B012569
:1054D0008D40A8430E4D6519A86308201040002890
:1054E00014D0002B09D00A482018C06B01258D402C
:1054F0002843074D6519E86308E005482018C06B8C
:1055000001258D40A843024D6519E863002030BD98
:10551000000D0240024803498860034888607047D4
:105520005A5A000000200040A5A5000030B474467F
:10553000641E2578641CAB4204D3635D5B00E318F2
:1055400030BC18471D46F8E7002805DBC206D20E1E
:1055500001219140014A11607047000080E200E0A3
:1055600010B5002819DB1A4A03231B02D21883083E
:105570009B00D2588307DC0EFF23A3409A438B077E
:105580001B0E8407E40EA3401A43114B032424028C
:105590001B198408A4001A5118E00E4A03071B0FB8
:1055A000083B9B089B00D2588307DC0EFF23A340D7
:1055B0009A438B071B0E8407E40EA3401A43054B46
:1055C0000407240F083CA408A4001A5110BD0000D1
:1055D00000E100E01CED00E010B5002819DB1A4ADC
:1055E00003231B02D21883089B00D2588307DC0ECA
:1055F000FF23A3409A438B071B0E8407E40EA340AE
:105600001A43114B032424021B198408A4001A51C5
:1056100018E00E4A03071B0F083B9B089B00D2585B
:105620008307DC0EFF23A3409A438B071B0E8407DE
:10563000E40EA3401A43054B0407240F083CA408BA
:10564000A4001A5110BD000000E100E01CED00E0D4
:1056500000BF704710B50A460146002900D110BDB1
:1056600002E000230B70491C1346521E002BF8D198
:1056700000BFF4E770B505461148124948610020A3
:105680008861052008610FE000200E4988610E49FD
:105690000E480068FAF702FE012109060C1A00BF45
:1056A00008488069A042FBD828466D1E0028EBD12F
:1056B00004480069400840000249086170BD0000CC
:1056C000FFFFFF0000E000E01027000000000020C6
:1056D00070B50546114812494861002088610520CF
:1056E00008610FE000200E4988610E490E480068ED
:1056F000FAF7D4FD012109060C1A00BF0848806999
:10570000A042FBD828466D1E0028EBD10448006952
:10571000400840000249086170BD0000FFFFFF0023
:1057200000E000E0A08601000000002070B5054602
:10573000114812494861002088610520086110E085
:1057400000200E4988617D21C9000D480068FAF7E4
:10575000A5FD012109060C1A00BF08488069A04276
:10576000FBD828466D1E0028EAD10448006940088D
:1057700040000249086170BDFFFFFF0000E000E04B
:1057800000000020FDF79EFFFEF75CF8FCF738F9FB
:1057900005E0FDF797F8FDF763FDFEF779F9F8E707
:1057A00000093D0000127A000024F40040865101F7
:1057B00000366E010080009641542B4144413D2249
:1057C000656E61626C65220D0A00000041542B4138
:1057D00044413D226C220D0A0000000061742B61DF
:1057E00064613D227374617274220D0A000000002E
:1057F00041542B4144413D2273222C224644222C09
:105800002269222C310D0A0061742B6361706E6570
:10581000743D362C310D0A0041542B4E45544F50E7
:10582000454E0D0A0000000048580000000000200E
:10583000B001000054040000A0580000B001002096
:10584000A0080000040100001113093D233421A920
:105850000405111428193242010217FF0916180114
:10586000220A1DFF3B4B1405044B1027040122396B
:10587000A9110A32558C5906C99334010203231821
:10588000581A080423DC571AB8045ACC041AF00436
:1058900021920A4AF47F01280A1740C20A14011C07
:04000005000000C136
:00000001FF
